:1000000000000420750300005D0300005F03000092
:1000100061030000630300006503000000000000AE
:100020000000000000000000000000006703000066
:1000300069030000000000006B0300006D03000076
:1000400055450100BDBE0300D95501006F030000F6
:100050006F0300006F030000F15201006F03000006
:100060006F0300006F0300006F0300006F030000C8
:100070006F030000CD5901006F0300006F03000003
:100080006F030000551501006F0300006F030000AF
:100090006F0300006F0300006F0300006F03000098
:1000A0006F0300006F0300006F0300006F03000088
:1000B0006F0300006F03000000000000000000005C
:1000C0006F0300006F0300006F0300006F03000068
:1000D00041E703006F0300006F0300006F0300009F
:1000E0006F0300006F0300006F03000000000000BA
:1000F000000000006F030000000000006F0300001C
:1001000000000000000000000000000000000000EF
:1001100000000000000000000000000000000000DF
:1001200000000000000000000000000000000000CF
:1001300000000000000000000000000000000000BF
:1001400000000000000000000000000000000000AF
:10015000000000000000000000000000000000009F
:10016000000000000000000000000000000000008F
:10017000000000000000000000000000000000007F
:10018000000000000000000000000000000000006F
:10019000000000000000000000000000000000005F
:1001A000000000000000000000000000000000004F
:1001B000000000000000000000000000000000003F
:1001C000000000000000000000000000000000002F
:1001D000000000000000000000000000000000001F
:1001E000000000000000000000000000000000000F
:1001F00000000000000000000000000000000000FF
:10020000354936480A1A02D0072291438D463449AF
:1002100034480A1A06D00722914381F30988022242
:1002200082F3148830483149314A00F044F83148AB
:100230003149324A00F03FF831483249324A00F041
:100240003AF832483249334A00F035F832483349F7
:10025000334A00F030F833483349344A00F02BF881
:1002600033483449344A00F026F8344834490022EF
:1002700000F02CF833483449002200F027F83348C6
:100280003349091A082902DB002202604160314A21
:1002900090471F481F49884205D00268043003B4C4
:1002A000904703BCF7E700208646EC46002000217B
:1002B000294A9047FEE7884207D0521A05D00378B2
:1002C00001300B700131013AF9D17047884202D0F8
:1002D00002700130FAE770470000042000E00320BC
:1002E00000000420000004201C230400F40000206F
:1002F000AC060020D0030000D0030000E6EC0300B1
:100300001C230400F4000020F4000020FCEE030095
:10031000FCEE0300FCEE0300FCEE0300FCEE030029
:10032000FCEE0300FCEE0300FCEE03001B230400C4
:10033000D4280400AC060020AC060020AC06002047
:1003400040590020405900204459002044590020C1
:10035000447900209D030000B1B30100FEE7FEE7F1
:10036000FEE7FEE7FEE7FEE7FEE7FEE7FEE7FEE765
:1003700000F002B8FFF7FCBF0F484FF007018843B9
:1003800085460E4880470E48016841F470010160BF
:10039000BFF34F8FBFF36F8FFFF732BF09480A4992
:1003A0000A4A884207D0521A05D0037801300B70F0
:1003B0000131013AF9D1704700000420ADB50100C8
:1003C00088ED00E008EE030000000020F4000020AB
:1003D0000048704738590020FEE700B5A1B00590ED
:1003E000049103920293049812F0BFFA039B1593B1
:1003F000029B16930023179300238DF8603000238F
:100400001993229B1A9300231F930FA91F9B082265
:10041000049812F083FB08231F93119B1293BDF8DD
:100420004030ADF84C30BDF84230ADF84E300023CE
:100430008DF851309DF83C3003F00303DBB2012B03
:1004400026D10F9BC3F395231C939DF83C30C3F337
:10045000C203DBB28DF85030BDF83C30C3F38313D8
:10046000DBB21B931B9B9A0009A91F9B049812F0F7
:1004700055FB1B9B9B001F9A13441F9312AA09A9AB
:1004800015AB009313461B9A1C9801F005F82FE05A
:100490009DF83C3003F00303DBB2022B28D1BDF8FA
:1004A0003E30C3F389139BB21E939DF83C30C3F3D7
:1004B000C203DBB28DF850301E9B082B28BF0823E7
:1004C0001D9307A91F9B1D9A049812F027FB1F9AE2
:1004D0001D9B13441F931E9A1D9BD31A1E9315AB8D
:1004E00012AA07A81D9901F079F81E9B002BE3D1F1
:1004F000049812F049FA00BF21B05DF804FB000037
:1005000000B583B00190019B1B781A460C4B9B5C95
:10051000002B05D0019B0433184616F09FFD0BE01D
:10052000019B1B781A46064B9B5C002B04D1019B58
:100530000C33184615F00EFE00BF03B05DF804FB47
:10054000040F002000B587B00390029113468DF888
:10055000073000230593039B1B781A46114B9B5CC5
:10056000002B09D0039B04339DF8072002991846FD
:1005700016F0CAFD05900FE0039B1B781A46094B45
:100580009B5C002B08D1039B0C339DF8072002993C
:10059000184615F057FE0590059B184607B05DF804
:1005A00004FB00BF040F002082B001900091034BB8
:1005B00001221A7000BF02B0704700BFEC06002095
:1005C00030B58DB003468DF807301A4B02AC1D468E
:1005D0000FCD0FC495E80F0084E80F0006230293A7
:1005E0004FF0FF3303934FF0FF3304934FF0FF338B
:1005F00005934FF0805308939DF80730002B01D0EE
:100600000D4A00E0002202AB19460C4813F080FCB2
:100610000B900B9B0A930A9B002B04D0084A4321A2
:100620000A980FF0CDFF074A9DF80730137000BFFE
:100630000DB030BD48EF0300A9050000F400002014
:10064000FCEE0300ED06002000B583B001238DF819
:1006500007309DF807301846FFF7B2FF00BF03B020
:100660005DF804FB00B589B0039002910192019BF3
:100670008DF81F30124B00221A709DF81F301A4659
:1006800002991048FFF75EFF0690069B0593059BB5
:10069000002B04D00C4A532105980FF091FF00BFA6
:1006A0000A4B1B78002B07D0054B1B78DBB283F07D
:1006B0000103DBB2002BF3D100BF09B05DF804FBEE
:1006C000EC060020F4000020FCEE0300ED06002004
:1006D00000B585B003900291054B00934023054A75
:1006E00002990398FFF779FE00BF05B05DF804FB9F
:1006F00065060000AC06002082B0019000BF02B089
:100700007047000000B583B001900548FFF7F8FE80
:100710000020FFF755FF00BF03B05DF804FB00BFEA
:10072000F400002000B583B001900091019B1B688C
:100730001B6800990198984700BF03B05DF804FB5F
:1007400000B583B00190019B1B689B680198984796
:1007500000BF03B05DF804FB82B00190019BDB6831
:100760001B79184602B0704782B00190019BDB688C
:100770005B79184602B07047024A034BD31ADB0874
:1007800018467047E0ED030000ED030000B587B0A8
:1007900001900B468DF803309DF80330002B1FD0DD
:1007A000FFF7EAFF04900023059313E0059B9B00ED
:1007B0000E4A13440393039B1B881A46019B1B6834
:1007C0009A4204D1019B059A1A60002309E0059B17
:1007D00001330593059A049B9A42E7D3052300E071
:1007E0000023184607B05DF804FB00BF000000209E
:1007F00000B585B001900B468DF803309DF80320BD
:1008000001AB11461846FFF7C1FF0346002B07D185
:10081000019BDB00054A13440393039B1B6800E024
:100820000023184605B05DF804FB00BF00ED03008F
:1008300084B001900B468DF80330019BDB00174A12
:10084000134402939DF80330013B032B1CD801A2F3
:1008500052F823F0650800006D08000075080000DC
:100860007F08000002238DF80F3011E004238DF87B
:100870000F300DE0029B1B798DF80F3008E0029BD2
:100880005B798DF80F3003E000238DF80F3000BF47
:100890009DF80F30184604B0704700BF00ED03000C
:1008A00084B00190009100238DF80F30019B1B78DC
:1008B00003F00403DBB2002B24D0019B1B78C3F3AD
:1008C0000103DBB2012B02D0022B0CD017E0009BFE
:1008D0001B68019A1288C2F38312D2B213449A1C85
:1008E000009B1A600BE0009B1B68019A5288C2F3C0
:1008F000891292B213449A1C009B1A6000BF012314
:100900008DF80F309DF80F30184604B07047000086
:1009100000B58BB00023ADF826303E4810F0F4FF50
:100920003D4810F0F1FF3D4B5B6804933B4B9B68E7
:100930000693049A069B134002339B00374A1344E4
:100940000433089304AB19460898FFF7A9FF034640
:10095000002B09D0049A069B134002339B002F4AB8
:10096000134404330893EDE700BF0023079311E01D
:10097000049B5A1C0492069A1340079A920001A9FC
:100980000A44264902339B000B445B681360079BB3
:1009900001330793079B012BEAD99DF80430C3F379
:1009A0000103DBB2012B10D0022B1CD1BDF80A30A1
:1009B000ADF82630BDF80630C3F389139BB203337C
:1009C0009A08049B1344049313E0BDF80A30ADF871
:1009D0002630BDF80430C3F38313DBB21A46049B00
:1009E0001344049305E00E494FF4BF7010F0C0FDAE
:1009F00000BF094810F094FF0590059B002B02D022
:100A0000049B064A5360BDF8263018460BB05DF8CB
:100A100004FB00BF700C00206C0C00205808002064
:100A2000F0EF030000B585B00021074810F0B9FED3
:100A30000390039B0293029B83F310030193019B9A
:100A4000184605B05DF804FB740C002000B589B0B1
:100A50000390029101920093039B1B0C0793FFF7F5
:100A6000E1FF0690FFF788FE0246079B934204D3FE
:100A7000214940F2A31010F07BFD069B1904009B56
:100A80005A1C0A9B1340079A0A431C4902339B00D5
:100A90000B445A60009A0A9B134002339B00174A8A
:100AA000134404330593039B03F00703D9B2059A5B
:100AB000137861F3C5031370019B03F00F03D9B2E0
:100AC000059A138861F389131380029BC3F3150100
:100AD000059A136861F39F231360059A1378012127
:100AE00061F301031370059A13786FF38203137097
:100AF00000BF09B05DF804FBF0EF030058080020C8
:100B000000B58BB00390029113468DF80730039B1C
:100B10000233089301238DF81F30002010F00EF9E6
:100B20003E4B1A68029B1A603C4B9A683B4B5968D3
:100B30003A4B1B68CB1A13440133099314E001218B
:100B4000374810F0A5FEFFF7E3FE059005993448FD
:100B500010F09EFE314B9A68304B59682F4B1B6842
:100B6000CB1A134401330993089A099B9A42E6D899
:100B70009DF81F30002B48D0002304939DF80730C8
:100B8000002B17D09DF81030012262F301038DF87D
:100B900010309DF8103043F004038DF81030039BA3
:100BA00003F00F03DAB2BDF8103062F38913ADF829
:100BB000103016E09DF81030022262F301038DF828
:100BC00010309DF8103043F004038DF81030039B73
:100BD000C3F309039AB2BDF8123062F38F13ADF874
:100BE00012300E4B1A680D4B9B68134002339B006A
:100BF0000A4A134404330693049A069B1A60074B6F
:100C00001A68089B1344054A1360002010F0AAF8E4
:100C10009DF81F3018460BB05DF804FB5808002003
:100C2000740C002000B587B00190244B93F8203459
:100C3000002B02D1019B002B01D1019B39E00198CF
:100C40001EF03AF803460133049304AA03A90123D2
:100C50001B4812F017FA0346002B29D1039B049A74
:100C6000019918461DF0CCFF039A049B013B1344E5
:100C700000221A70049B1946114812F083FA05905D
:100C8000059B002B04D00F4940F20A2010F070FCA5
:100C9000049B19460A4812F0A8FA0590059B002B00
:100CA00004D0084940F20E2010F062FC039B00E0E3
:100CB0000023184607B05DF804FB00BF5808002069
:100CC0004CF00300F0EF030000B58BB005900491E9
:100CD000039202931F4B9B68079306AB01221946B0
:100CE0000298FFF70DFF0346002B24D0069B02332A
:100CF00009930023089311E0089B9B00039A1A4470
:100D0000099B591C099107990B401268114902333C
:100D10009B000B445A60089B01330893089A029B7E
:100D20009A42E9D3069A079B00931346029A0499C4
:100D30000598FFF78BFE074B93F82034002B05D066
:100D400000BF00F01BF90346002BFAD100BF0BB027
:100D50005DF804FB5808002000B583B001900091B5
:100D60000023002200990198FFF7AEFF00BF03B0F7
:100D70005DF804FB00B587B0039002910192019BDE
:100D8000059305AA012302990398FFF79DFF00BF71
:100D900007B05DF804FB00B587B0039002910192A3
:100DA0000093019B0493009B059304AA02230299DC
:100DB0000398FFF789FF00BF07B05DF804FB00B59B
:100DC00089B00390029101920093019B0593009BCF
:100DD00006930A9B079305AA032302990398FFF73A
:100DE00073FF00BF09B05DF804FB00B589B0039044
:100DF000029101920093019B0493009B05930A9B2F
:100E000006930B9B079304AA042302990398FFF708
:100E10005BFF00BF09B05DF804FB000000B58DB0BA
:100E2000039002911346ADF806304B4B9B680B9331
:100E3000BDF8063003339B0805A900221846FFF7CA
:100E40005FFE0346002B78D0059B0A93059B023377
:100E50000593414B9A6805990B9B0B40D31A0133BC
:100E60009B000993BDF80630099A9A420ED3059A61
:100E70000B9B134002339B00374A13440433BDF8E5
:100E80000620029918461DF0BBFE17E0059A0B9B41
:100E9000134002339B00304A13440433099A0299E9
:100EA00018461DF0ADFE029A099BD118BDF8062028
:100EB000099BD31A1A4629481DF0A2FE039B1B0C5E
:100EC0000893FFF7AFFD0790079B19040A9B5A1C74
:100ED0000B9B1340089A0A431F4902339B000B44A3
:100EE0005A600A9A0B9B134002339B001A4A134420
:100EF00004330693039B03F00703D9B2069A1378D1
:100F000061F3C5031370069A13886FF38F13138070
:100F1000BDF80630C3F3090399B2069A538861F30A
:100F20008F135380069A1378022161F30103137023
:100F3000069A13786FF382031370074B93F82034EB
:100F4000002B05D000BF00F019F80346002BFAD1A2
:100F500000BF0DB05DF804FB5808002064080020B5
:100F6000054B5A68044B1B689A420CBF01230023AF
:100F7000DBB21846704700BF5808002000B59BB090
:100F8000FFF7EEFF0346002B01D00023E5E19B4B6A
:100F90000022C3F81824BFF34F8F00BF974B5B6844
:100FA0000493964B9B681193049A119B1340023350
:100FB0009B00924A1344043319930023189300238F
:100FC00017930023169304AB19461998FFF768FC92
:100FD0000346002B19D0894BD3F81834002B14D1B9
:100FE000864B1A68049B9A4205D8844B1B68834A37
:100FF00053600023B1E1049A119B134002339B001C
:101000007E4A134404331993DDE70023159311E05E
:10101000049B5A1C0492119A1340159A920001A93C
:101020000A44764902339B000B445B681360159BAE
:1010300001331593159B012BEAD99DF8043003F079
:101040000303DBB2022B40F09C80BDF80630C3F3F3
:1010500089139BB20F93BDF80630C3F389139BB27B
:10106000502B28BF50239BB20E930E9BC3F3090352
:101070009AB2BDF8063062F38F13ADF806300E9BBE
:1010800008330D939DF80430C3F3C203DBB216930B
:101090000D995B4811F0D8FB1890189B002B00F0BD
:1010A000D180189811F061FC01A9179B08221898AB
:1010B00011F016FD179B08331793049BDA43119B1D
:1010C000134001339B000C930E9A0C9B9A4242D919
:1010D0000C9B002B08D0049A119B134002339B00F9
:1010E000464A1344043300E0464B0A930C9B002B02
:1010F00002D00C9BDBB201E00E9BDBB28DF82730F7
:101100000C9B002B01D03F4B00E0002308930C9B6D
:10111000002B06D00E9BDAB20C9BDBB2D31ADBB2EB
:1011200000E000238DF81F309DF82720179B0A99B7
:10113000189811F0D5FC9DF82730179A134417938F
:10114000089B002B16D09DF81F20179B0899189814
:1011500011F0C6FC0EE0049A119B134002339B0071
:10116000264A134404330B93179B0E9A0B99189835
:1011700011F0B6FC0F9B03339A08049B13440493AD
:1011800060E09DF8043003F00303DBB2012B59D17A
:10119000BDF80430C3F38313DBB2062B28BF06234C
:1011A000DAB2BDF8043062F38913ADF80430BDF84B
:1011B0000430C3F38313DBB2023310939DF8043081
:1011C000C3F3C203DBB21693109B9B0019460C4875
:1011D00011F03AFB1890189B002B33D0189811F09F
:1011E000C4FB01A9179B0822189811F079FC179BE2
:1011F00008331793002315931BE000BF5808002005
:10120000F0ED030064080020049B5A1C0492119A1C
:10121000134002339B00534A1344191D179B0422A9
:10122000189811F05DFC179B04331793159B01333D
:101230001593BDF80430C3F38313DBB21A46159B34
:101240009342E1D3189B002B63D0464BD3F8103464
:101250001493444BD3F81834002B45D0189811F050
:1012600093FB74E000238DF84F301498FFF77CFA5D
:101270000346002B2CD01498FFF76EFA03468DF826
:101280001E30BDF808309B00374A13440693069B76
:1012900019689DF81E2013465B001344072202FACA
:1012A00003F319409DF81E2013465B00134421FAF6
:1012B00003F30593169B052B01D0169B00E0032337
:1012C0001693059A169B9A4202D301238DF84F304C
:1012D0009DF84F30002B03D018991498FFF722FA8D
:1012E000149BDB681B681493149B002BBAD11898CD
:1012F00011F04AFB00200FF021FD1A4BD3F81834EF
:10130000002B02D1049B174A536000200FF02AFDE6
:101310001DE0144BD3F81034129306E01298FFF737
:101320000FFA129BDB681B681293129B002BF5D1FE
:101330000E4B5B88012B0AD90D4A0E4BD31ADB08E2
:101340001B0443F002030C491846FFF705FDFFF7A5
:1013500007FE034683F00103DBB218461BB05DF8BD
:1013600004FB00BF58080020700000201800002077
:1013700030ED030000ED030038F0030082B001906F
:10138000009100BF02B0704710B584B00390029185
:10139000039BDB88002B0AD0039BDB881A461F4B7C
:1013A000009313461E4A1F49029810F097FB039BB7
:1013B0001B7A052B2ED0039B5B7A002B12D0039B4C
:1013C0009B881A46039B1B7A19461046FFF730FA92
:1013D00003461A46144B53F822301A461349029812
:1013E00010F07CFB039B1B6819460298FFF7C6FFB1
:1013F000039B1B7A1A460E4B53F82240039B9B8893
:1014000000211846FFF7F4F90346224609490298DD
:1014100010F064FB00BF04B010BD00BF78F0030003
:1014200088F00300C0F0030024010020D8F003007E
:1014300010010020DCF0030000B585B0039002919C
:1014400013468DF80730039B1B7A052B0FD0039BA7
:101450005B7A002B06D00D4B1B681A460C4902988C
:1014600010F03CFB0B49029810F038FB07E09DF8A8
:101470000730002B03D00749029810F02FFB029889
:1014800010F00AFB00BF05B05DF804FB240100204A
:10149000D8F00300E8F0030030B58BB00790069158
:1014A000059204930E9B1B7B8DF827300E9B002228
:1014B0001A730E990498FFF767FF059B062B7FD8D8
:1014C00001A252F823F000BFE5140000EF14000061
:1014D000FF1400001315000031150000591500001D
:1014E0008915000007990E9810F0F8FA69E0069B3C
:1014F0001B681A4607990E9810F0F0FA61E0069BF7
:101500001A68069B04331B6807990E9810F0E6FAD8
:1015100057E0069B1A68069B04331968069B08333C
:101520001B6800930B4607990E9810F0D7FA48E015
:10153000069B1968069B04331868069B08331B68D2
:10154000069A0C3212680192009303460A460799E4
:101550000E9810F0C3FA34E0069B1868069B04331B
:101560001C68069B08331B68069A0C3212680699A1
:1015700010310968029101920093234602460799AF
:101580000E9810F0ABFA1CE0069B1C68069B043317
:101590001D68069B08331B68069A0C321268069970
:1015A0001031096806981430006803900291019286
:1015B00000932B46224607990E9810F08FFA00E010
:1015C00000BF00220E990498FFF736FF0E9B9DF88E
:1015D00027201A7300BF0BB030BD00BF00B587B025
:1015E0000390029101920093029B082B60D8009B0C
:1015F0001B7B8DF81330009B00221A730099019811
:10160000FFF7C2FE0023059314E0059A029B9A425D
:1016100009D2039A059B13441B781A462649009861
:1016200010F05CFA03E02549009810F057FA059B8A
:1016300001330593059B072BE7D92149009810F04A
:101640004DFA0023059326E0059A029B9A421BD28D
:10165000039A059B13441B788DF812309DF81230C5
:101660007E2B0AD89DF8123018461DF00DFA03465D
:10167000002B02D09DF8123000E02E231A461149AB
:10168000009810F02BFA03E00F49009810F026FAAA
:10169000059B01330593059B072BD5D901220099A2
:1016A0000198FFF7C9FE009B9DF813201A7300E014
:1016B00000BF07B05DF804FBECF00300F4F003009A
:1016C000F8F00300FCF0030000F1030000B583B064
:1016D0000190019B1B682F2B04D90B4940F2CD10C0
:1016E0000FF046FF019B1B681F2B02D84FF0A04351
:1016F00006E0019B1B6803F01F02019B1A60034B6D
:10170000184603B05DF804FB04F103000003005029
:1017100000B585B00190084611461A4603468DF87B
:1017200003300B468DF8023013468DF8013001ABC3
:101730001846FFF7CBFF03909DF803209DF8023079
:101740005B001A439DF801309B001A439DF8183046
:101750001B0242EA03019DF81C301B04019A194345
:10176000039B02F5E07243F8221000BF05B05DF85C
:1017700004FB00B585B00390002301930023009380
:101780000023012201210398FFF7C2FF00BF05B02B
:101790005DF804FB00B585B003900B468DF80B3067
:1017A0009DF80B30002201920022009200220021BD
:1017B0000398FFF7ADFF00BF05B05DF804FB00B56F
:1017C00085B0019001AB1846FFF780FF0390019BA5
:1017D000012202FA03F31946039800F069F800BFEA
:1017E00005B05DF804FB00B585B0019001AB18466B
:1017F000FFF76CFF0390019B012202FA03F31946E5
:10180000039800F05FF800BF05B05DF804FB00B579
:1018100085B0019001AB1846FFF758FF0390039B7A
:10182000D3F804350293029BDA43019B012101FAAC
:1018300003F31A40039BC3F80825019B01229A4039
:10184000029B1A40039BC3F80C2500BF05B05DF84E
:1018500004FB00B583B001900091009B002B03D1E5
:101860000198FFF7C0FF02E00198FFF7A8FF00BF53
:1018700003B05DF804FB00B585B0019001AB1846DC
:10188000FFF724FF0390039800F00AF80246019B3B
:1018900022FA03F303F00103184605B05DF804FBD8
:1018A00082B00190019BD3F80435184602B070470E
:1018B00082B001900091019B009AC3F8082500BFF7
:1018C00002B0704782B001900091019B009AC3F86A
:1018D0000C2500BF02B0704700B585B00190019B98
:1018E000042B03D911493A200FF042FE104A019B04
:1018F00013441B781846FFF7BEFF0346002B14BFA6
:10190000012300238DF80F309DF80F30002B14BFFA
:1019100001230023DBB283F00103DBB203F00103F8
:10192000DBB2184605B05DF804FB00BF38F10300D8
:1019300068F1030000B583B00190019B042B03D92B
:10194000074941200FF014FE064A019B13441B78FF
:1019500000211846FFF77DFF00BF03B05DF804FBD0
:1019600038F1030068F1030000B583B00190019BDA
:10197000042B03D9074947200FF0FAFD064A019BC3
:1019800013441B7801211846FFF763FF00BF03B023
:101990005DF804FB38F1030068F1030000B583B083
:1019A0000023019305E00198FFF7DEFF019B01335F
:1019B0000193019B042BF6D900BF00BF03B05DF873
:1019C00004FB00B583B00023019305E00198FFF705
:1019D000B1FF019B01330193019B042BF6D900BF9A
:1019E00000BF03B05DF804FB00B583B00190019B1C
:1019F000042B03D907495F200FF0BAFD064A019B6B
:101A000013441B781846FFF702FF00BF03B05DF8D0
:101A100004FB00BF38F1030068F1030000B583B098
:101A20000023019309E0094A019B13441B781846DF
:101A3000FFF79FFE019B01330193019B042BF2D919
:101A4000FFF7ACFF00BF03B05DF804FB68F10300D3
:101A500000B583B00023019307E008230321184653
:101A6000FFF798FE019B01330193019B002BF4D0FB
:101A700000BF00BF03B05DF804FB84B001904FF0DD
:101A8000FF330293002303930AE008231A46019BC5
:101A9000934202D1039B029305E0039B013303931E
:101AA000039B002BF1D0029B184604B0704700B591
:101AB00083B00190019B03F00103002B01D0FFF7DD
:101AC000ADFF019B03F00203002B01D0FFF7C0FF25
:101AD00000BF03B05DF804FB08B50022FF210948F0
:101AE0002EF0D8F80022FF2107482EF0D3F87522F7
:101AF000002106481DF0ADF8054B064AC3F8F82B47
:101B000000BF08BD491C0000551B0000040D00204B
:101B1000C03E00204929000008B5002200210B48E2
:101B20002EF0B8F80A4B93F84430184607F0A8F99D
:101B3000074B00221A70064B202283F88A20044BA0
:101B4000002283F8782000BF08BD00BF551B0000AD
:101B5000040D002000B583B003468DF807309DF8D2
:101B60000730002B03D10B4828F080FE0EE0FFF772
:101B7000D3FF9DF80700002300220C212EF06EFBFE
:101B80009DF80730194604482DF096FD00BF03B0BC
:101B90005DF804FB551B00009506030000B585B0F9
:101BA00003460A468DF807301346ADF804301B4B48
:101BB00000221A70194B202283F88A20174B00222A
:101BC00083F87820154B0D2283F88C20134B93F863
:101BD0007830002B01D1002201E04FF0FF329DF858
:101BE000070000230D212EF039FB0390039B002BEF
:101BF00010D09DF807300021184629F046F9BDF8AD
:101C00000430DAB2039B1A709DF807301946044875
:101C10002DF052FD00BF05B05DF804FB040D00205F
:101C20009506030008B50022FE2105482EF032F883
:101C300000220121034828F03EFE00BF08BD00BF7E
:101C4000491C00009D1B000000B583B003468DF8C1
:101C50000730154BD3F80130002B09D1124B00226D
:101C600083F8782000220021104828F024FE17E095
:101C70000D4BD3F801308C2B09D10B4B072283F885
:101C8000782000220321094828F015FE08E0064BC1
:101C9000062283F8782000220221044828F00BFE57
:101CA00000BF03B05DF804FB040D00209D1B000085
:101CB00000B587B003460091ADF806306FF01B0306
:101CC000059300238DF80F300DF10F03BDF80600CA
:101CD0000022002128F028FA0346002B21D10023FE
:101CE000049317E01149049A13465B0013449B00C8
:101CF00013440B440F331A789DF80F309A4206D1E3
:101D0000049BDAB2009B1A700023059309E0049B40
:101D100001330493054B93F843301A46049B9342D6
:101D2000E0D3059B184607B05DF804FB040D0020C6
:101D300084B0034600918DF807306FF01B030393C6
:101D40000023029317E01149029A13465B001344E3
:101D50009B0013440B4417331B789DF807209A42CD
:101D600006D1029BDAB2009B1A700023039309E0AC
:101D7000029B01330293054B93F843301A46029BB2
:101D80009342E0D3039B184604B07047040D002033
:101D900010B58AB003468DF80F309DF80F301C2126
:101DA000184628F0E5FF0790002309930DF11B0268
:101DB0009DF80F3011461846FFF7BAFF0346002B77
:101DC0000CD19DF81B301A4613465B0013449B0050
:101DD00013440833394A134407330993099B002BF2
:101DE0001AD1374B1B68002B64D119F047FF03460B
:101DF00083F00103DBB2002B5CD09DF80F30019320
:101E0000042300934FF4BA7340F25B3200214FF089
:101E1000FF302EF0D3F94DE0099B00221A729DF895
:101E20000F30184629F02AF80890089B002B09D19A
:101E3000224B00225A7000229A700022DA7000228F
:101E40001A710AE01D4B002262F073025A700022E0
:101E50009A700022DA7000221A71089B002B06D1BA
:101E6000164B012283F84A200023089301E0012346
:101E70000893099B1A7804AB1146184627F0DAFD3F
:101E80000E4BD3F80930002B0ED00C4BD3F8094081
:101E9000089B18B2099B9B791A46099B13445A78F0
:101EA000079B5B8904A9A0479DF80F301946099844
:101EB00000F09CF800BF0AB010BD00BF040D002068
:101EC0003C4D002010B586B00190084611461A46D8
:101ED00003468DF803300B46ADF8003013468DF8FD
:101EE00002309DF802301C21184628F041FF049072
:101EF0003C4BD3F80930002B1DD0019B1A7802AB64
:101F00001146184627F096FD364BD3F80940019B41
:101F10009B791A46019B13445A78BDF8003002A9F8
:101F20000220A0470346002B01D0002301E06FF000
:101F30004403059301E000230593059B002B4CD13E
:101F40001C22002104981CF084FE049B18462EF0ED
:101F50003BFB244B93F84420049B1A72049BBDF86E
:101F600000205A811F4BB3F875309BB24FF6FF72B9
:101F7000934214D1049B03F10D02019B1B78194677
:101F8000104627F057FD049B03221A73019B9B798F
:101F90001A46019B13445A78049B5A7511E0049B1E
:101FA00001221A730F4BB3F875309AB2049BA3F851
:101FB0000D20019B9B791A46019B13445A78049B80
:101FC0005A75019B9DF802201A72049B064A9A6179
:101FD0009DF8023018461DF0E9FB059B184606B037
:101FE00010BD00BF040D0020911D000000B583B09E
:101FF00001900B468DF80330019BD3F809305A1C31
:10200000019BC3F809209DF803301946019800F0A0
:1020100005F800BF03B05DF804FB000010B58EB0FA
:1020200007900B468DF81B3000230C9300230D9373
:10203000079BDB79184628F007FD0C900C9BDB7A98
:102040008DF82F300C9B1B7B8DF82E303CE0079BCE
:10205000D3F809209DF82F309A4201D3022300E0E3
:1020600001238DF82D30079BD3F809300C9A0433E7
:102070005B001344B3F805309BB29DF82D20114648
:10208000184600F03FF90346002B16D0079B9B79BA
:102090001A46079B13445978079BD3F809300C9ACA
:1020A00004335B001344B3F805309AB29DF81B303B
:1020B0000798FFF707FF0D9010E0079BD3F8093052
:1020C0005A1C079BC3F80920079BD3F809309DF8D9
:1020D0002F109DF82E200A449342B8D3079BD3F8C3
:1020E00009309DF82F109DF82E200A4493425ED1AE
:1020F000354B93F84A30002B44D0334BB3F875304E
:102100009BB24FF6FF7293423CD0079B1A780DF1B9
:1021100026031146184627F0CFFC9DF81B0000232C
:10212000009300230022012103F07CFA0A90264B41
:10213000B3F875309BB219460A982DF0AEF90A90A3
:102140000A9B00221A700A9B01330A93079B9B7912
:102150001A46079B13445B781B4A92F844200DF102
:1021600026019DF81B0000240494042403944FF4DA
:10217000827402940192009302230A460A9903F0A2
:10218000BBF904E09DF81B30184628F0FDFB079BC7
:102190009B790133DAB2079B9A71079BDB79194669
:1021A0000A482DF089FA079B0022DA7108E00D9B9E
:1021B000002B05D09DF81B3019460798FFF716FF36
:1021C00000BF0EB010BD00BF040D0020652400004C
:1021D00000B587B003460A468DF807301346ADF8C0
:1021E0000430BDF80430DBB2184628F02DFC049012
:1021F00000230593414BD3F84520049BDB889BB219
:102200001946104602F059F90346002B36D0049BBC
:102210005B889BB20DF10F0211461846FFF748FD8F
:102220000346002B0CD19DF80F301A4613465B0075
:1022300013449B0013440833304A13440733059377
:10224000059B002B43D0059B00225A7200229A72F4
:102250000022DA7200221A73BDF80430DAB2059B4C
:10226000DA710023ADF804309DF80730194605985F
:10227000FFF7D4FE00238DF8073028E0049B5B882D
:102280009BB20DF10F0211461846FFF711FD0346F0
:10229000002B1CD19DF80F301A4613465B001344E7
:1022A0009B0013440833154A134407330593059BD9
:1022B0009B790133DAB2059B9A71BDF80430DBB229
:1022C00019460F482DF0F8F90023ADF804309DF8B9
:1022D0000730002B04D09DF80730184628F054FB37
:1022E000BDF80430002B05D0BDF80430DBB2184631
:1022F00028F04AFB00BF07B05DF804FB040D002086
:102300006524000084B003460A46ADF80630134643
:102310008DF8053000238DF80D30224BD3F8453071
:10232000002B39D01F4BD3F845301B7C8DF80C3077
:102330001C4BD3F84530D3F8113002930023ADF88D
:102340000E3023E0BDF90E2013461B019B1A029AA2
:1023500013441B889BB2BDF806209A420FD1BDF9E9
:102360000E2013461B019B1A029A13441B7A9DF8F8
:1023700005209A4203D001238DF80D300CE0BDF901
:102380000E309BB201339BB2ADF80E30BDF90E207A
:102390009DF80C309A42D5DB9DF80D30184604B0FC
:1023A000704700BF040D002000B587B003468DF8CC
:1023B00007300023ADF816309DF80730184628F096
:1023C00043FB049000230393234B1B78042B01D180
:1023D000002301E06FF00703ADF81630BDF91630A9
:1023E000002B03D1049B5B78ADF81630BDF9163095
:1023F000002B08D19DF807309BB2002219461748E0
:1024000028F059FA24E0049B5B889BB20DF10B0283
:1024100011461846FFF74CFC0346002B18D19DF8D7
:102420000B301A4613465B0013449B0013440833D9
:10243000094A134407330393039B9B790133DAB2B0
:10244000039B9A719DF80730194605482DF034F921
:1024500000BF07B05DF804FB040D0020D12100008F
:102460006524000000B589B003468DF807300023CD
:1024700007939DF80730184628F0E6FA0690069B69
:102480005B889BB20DF10B0211461846FFF710FC5A
:102490000346002B0CD19DF80B301A4613465B0007
:1024A00013449B00134408334C4A134407330793E7
:1024B000079B002B00F08480079B9A79079B5B7930
:1024C0009A4235D2079B9B791A46079B13445B7847
:1024D0008DF813309DF807300321184628F006FBCD
:1024E00003900322002103981CF0B3FB079B1A788A
:1024F00002AB1146184627F0DFFABDF80820039B0F
:102500001A80039B9DF813209A709DF80730344978
:10251000184630F0DDFF0346FF2B05D19DF807304C
:1025200019468A2000F056FB00238DF8073047E05B
:10253000079BFF221A709DF80B30022B25D89DF8BF
:102540000B30C3F1030305939DF80B301A46134675
:102550005B0013449B0013440833204A1344D81DE6
:102560009DF80B305A1C13465B0013449B00134428
:1025700008331A4A1344D91D059A13465B001344C5
:102580009B0013441A461CF0CBFA144B93F84330CB
:10259000013BDAB2114B83F84320104B93F84330E0
:1025A000002B0DD10D4BD3F801308C2B04D10B4BEC
:1025B000072283F8782003E0084B002283F8782074
:1025C0009DF80730002B04D09DF80730184628F0FE
:1025D000DBF900BF09B05DF804FB00BF040D00206B
:1025E000A923000000B58BB003468DF80F300B46D1
:1025F000ADF80C3013468DF80E30002309930023FC
:102600000793FF238DF8173001238DF82330724B89
:102610001B78042B01D1002301E06FF0070309931D
:10262000099B002B20D10DF11702BDF80C3011468B
:102630001846FFF73DFB0346002B12D0664B93F87C
:102640004330032B10D8644B93F843308DF8173088
:10265000614B93F843300133DAB25F4B83F8432088
:1026600002E000238DF823309DF81730FF2B00F097
:10267000A6809DF817301A4613465B0013449B0052
:1026800013440833544A1344073307939DF8233007
:10269000002B15D00DF11603BDF80C00002200210F
:1026A00027F042FD0990099B002B09D19DF81620C7
:1026B000079B1A70079B00225A71079B00229A7190
:1026C000099B002B2CD1079B5B79032B0ED8079B12
:1026D0005B791A46079B13449DF80E205A70079B9E
:1026E0005B790133DAB2079B5A7119E03B4B1B68E7
:1026F000002B15D119F0C2FA034683F00103DBB2B7
:10270000002B0DD0079B5B7901930423009340F2CB
:10271000713340F25B3200214FF0FF302DF04EFD5F
:10272000099B002B39D19DF82330002B35D09DF823
:102730000F300521184628F0D9F90690052200210E
:1027400006981CF086FA069BBDF80C205A80069B62
:1027500000225A70079B5A79069B1A711F4B1B68FF
:10276000002B12D119F08AFA034683F00103DBB281
:10277000002B0AD0002300934FF45F7340F25B32CA
:1027800000214FF0FF302DF019FD9DF80F30194654
:1027900013482CF091FF00BF19E0099B002B05D1D5
:1027A0009DF80F30184628F0EFF810E0099B1BB297
:1027B0009DF80F201146184600F00CFA07E0099B1F
:1027C0001BB29DF80F201146184600F003FA00BF17
:1027D0000BB05DF804FB00BF040D00203C4D002051
:1027E0006524000000B58BB003468DF80F30002340
:1027F000ADF822309DF80F30184628F025F90790E3
:10280000079B05330693002305934C4B1B78042B41
:1028100001D1002301E06FF00703ADF82230BDF9CC
:102820002230002B7DD1079B5B889BB20DF11302F8
:1028300011461846FFF73CFA0346002B71D10023DE
:1028400009939DF813301A4613465B0013449B000E
:1028500013440833394A134407330593059B1A7808
:1028600004AB1146184627F027F9079B1A79059BF8
:102870005A71059B00229A71059B5B79042B43D901
:102880002F4B1B68002B15D119F0F8F9034683F084
:102890000103DBB2002B0DD0059B5B790193042370
:1028A000009340F2B33340F25B3200214FF0FF302F
:1028B0002DF084FC224B1B68002B14D119F0DEF99B
:1028C000034683F00103DBB2002B0CD004230193F9
:1028D0000423009340F2B53340F25B3200214FF005
:1028E000FF302DF06BFC059B04225A710CE0069A18
:1028F000099B13441978059A099B134401330A462E
:102900001A70099B01330993059B5B791A46099B51
:102910009342ECD39DF80F3019460A482CF0CCFEB8
:1029200008E09DF80F20BDF922301146184600F04E
:1029300051F900BF00BF0BB05DF804FB040D00208F
:102940003C4D00206524000030B58FB003468DF863
:1029500007300023ADF83630404B1B78042B01D1F3
:10296000002301E06FF00703ADF83630BDF93630D3
:10297000002B68D1394BD3F8013013F11C0F08D16B
:10298000364B00225A7000229A700022DA70002220
:102990001A719DF807301B21184628F0E9F9034603
:1029A00005AC1D4628686968AA68EB680FC42869E9
:1029B000696903C42B8BAA7E23801346A370BDF8DC
:1029C00015309BB203AA1146184627F0D9FB0346DF
:1029D000002B07D1224B93F8343E03F02003DBB2E7
:1029E000002B25D09DF807300621184628F0C0F9A5
:1029F0000C90BDF815309AB20C9B5A800C9B5A88EB
:102A00000C9B1A800C9B00225A710C9B00221A719D
:102A10009DF807301349184630F05AFC0346FF2B47
:102A200017D19DF8073019468A2000F0D3F810E03E
:102A3000BDF8153099B29DF81F209DF80730184653
:102A4000FFF7D0FD06E09DF80730184627F09CFF01
:102A500000E000BF00BF0FB030BD00BF040D00207C
:102A6000C03E0020752B000000B587B003460A4623
:102A70008DF807301346ADF8043000230593FF238B
:102A80008DF80F300DF10F02BDF8043011461846D5
:102A9000FFF70EF90346002B12D0344B93F8433066
:102AA000032B10D8314B93F843308DF80F302F4B58
:102AB00093F843300133DAB22C4B83F8432002E021
:102AC000FF238DF80F309DF80F30FF2B40D00023EF
:102AD0008DF80E309DF80F301A4613465B001344F4
:102AE0009B0013440833214A1344073305930DF127
:102AF0000E03BDF804000022002127F015FB034659
:102B0000002B25D19DF80E20059B1A709DF80730EB
:102B10000221184627F0EAFF0490022200210498BF
:102B20001CF097F8049BBDF804201A809DF807302C
:102B30000F49184630F0E5FC0346FF2B05D19DF800
:102B4000073019468A2000F045F800238DF8073039
:102B50009DF80730002B04D09DF80730184627F069
:102B600013FF00BF07B05DF804FB00BF040D002099
:102B7000E527000000B585B003468DF807309DF8C5
:102B80000730184627F060FF03909DF8073018467D
:102B900028F074F90346002B13D1039B981C039B68
:102BA0005B8999B20DF10B03002227F0E3FB039B35
:102BB0005B899AB29DF8073011461846FFF754FF1B
:102BC00004E09DF80730184627F0DEFE00BF05B090
:102BD0005DF804FB00B583B003460A46ADF8063045
:102BE00013468DF80530BDF906209DF805301146D5
:102BF000184628F04AF9BDF906308C2B04D1184B41
:102C0000072283F878200CE0BDF90630002B04D1B0
:102C1000134B002283F8782003E0114B062283F83F
:102C200078200F4B1B78052B09D10D4B93F878308A
:102C30001AB29DF8050000230C212DF00FFB084B64
:102C400000221A70064B202283F88A209DF8053056
:102C5000194604482CF030FD00BF03B05DF804FBBA
:102C6000040D00209506030000B585B00190019881
:102C700000F00EF80390039B002B01D0039B00E0B3
:102C8000024B184605B05DF804FB00BF70F103006D
:102C900086B00190164B0593164B04931FE0049ADF
:102CA000059BD31ADB10DA0F13445B10DB00059A87
:102CB00013440393039B1B680293029A019B9A425D
:102CC00002DD039B04930AE0029A019B9A4203DA15
:102CD000039B0833059302E0039B5B6804E0059ABD
:102CE000049B9A42DBD30023184606B0704700BF0E
:102CF000D0F4030048F6030030B589B00446084616
:102D000011461A462346ADF80E3003468DF80D30B5
:102D10000B468DF80C301346ADF80A306FF04403C3
:102D2000079302F0D1FC0346D3F8B030002B11D04A
:102D300002F0CAFC0346D3F8B040BDF80A509DF833
:102D40000C209DF80D10BDF80E000C9B00932B4637
:102D5000A04707909DF80D20BDF80E109DF80C308F
:102D6000184606F04AFD0590079B13F1450F02D067
:102D7000079B06930DE0059B002B08D09DF80C10D7
:102D8000BDF80A00059B0C9A9847069001E00023C5
:102D90000693069B184609B030BD10B584B00446B2
:102DA000084611461A4623468DF807300346ADF80B
:102DB00004300B468DF806301346ADF802309DF80E
:102DC0000620BDF804109DF80730184606F040FDB7
:102DD0000390039B002B06D0BDF802109DF807005E
:102DE000039B069A984700BF04B010BD00B585B09C
:102DF00003900B460192ADF80A30039BB3F80F30F5
:102E00009BB2B3F5A06F07D1BDF80A30019A1946FD
:102E1000039805F0F3FB00E000BF00BF05B05DF8CC
:102E200004FB000000B583B0054B00930023054A66
:102E30000121002006F00AFA00BF03B05DF804FB90
:102E400009300000492E000082B003460092ADF820
:102E500006300B468DF805300023184602B0704747
:102E600030B58DB003468DF807306FF01E030B931D
:102E70009DF807301B21184627F07AFF034603AC64
:102E80001D4628686968AA68EB680FC428696969E3
:102E900003C42B8BAA7E23801346A37002F014FC7C
:102EA0000346D3F8AC30002B09D002F00DFC0346EA
:102EB000D3F8AC309DF818201046984723E002F074
:102EC00003FC0346D3F89C30002B1CD09DF8073040
:102ED0003421184627F04CFF0A900A9B1D221A70D5
:102EE0009DF818200A9B5A700A9B00225A6002F033
:102EF000EBFB0346D3F89C309DF80720104698471B
:102F00000A9B5B680B930B9802F0E4FC03461A469D
:102F100003A99DF80730184606F087FD00BF0DB0E5
:102F200030BD10B586B00446084611461A46234601
:102F30008DF8073003468DF806300B46ADF80430A7
:102F400013468DF80330012305939DF8073018468A
:102F500001F056F8034601220021184601F02DFE2B
:102F60000490049B002B46D09DF8070012230122F9
:102F7000002103F0DBFD0390039B002B3BD0039B60
:102F80005B681B78002B36D1002305939DF8033036
:102F9000002B17D09DF80630002B2AD09DF8063064
:102FA000012B26D09DF80630022B22D09DF806304A
:102FB000032B1ED09DF80630042B1AD09DF8063046
:102FC000052B16D09DF8033083F00103DBB2002BF4
:102FD00003D0BDF80430032B0BD09DF80330002B39
:102FE00009D09DF806300B2B05D1BDF80430032B1A
:102FF00001D101230593059B002B14BF012300235E
:10300000DBB2184606B010BD30B593B003468DF85C
:103010001F3001238DF84330002311939DF81F309A
:10302000FF2B07D102F050FB03464F4AC3F858224A
:10303000012395E09DF81F301B21184627F098FECC
:10304000034608AC1D4628686968AA68EB680FC487
:103050002869696903C42B8BAA7E23801346A37059
:103060009DF83330002B09D19DF81F3019463F4899
:103070002CF022FB6FF00303119303E000238DF883
:10308000433000BF9DF84330002B67D09DF83730A8
:10309000002B08D0119B002B05D19DF81F3018463E
:1030A00027F072FC5AE0119B13F1040F56D09DF8E3
:1030B0001F301B21184627F05BFE034608AC1D4657
:1030C00028686968AA68EB680FC42869696903C43D
:1030D0002B8BAA7E23801346A3709DF81F301846C1
:1030E00027F03EFD0F900F9B18221A700F9B0133A3
:1030F0000F939DF835200F9B1A700F9B01330F9390
:103100000F9B0B221A700F9B01330F930F9B5A1CBE
:103110000F929DF833201A70119B002B01D10021D2
:1031200000E085210F9B5A1C0F920A461A709DF8E9
:103130002B309DF82C20BDF8311089B208A8441C12
:103140009DF81F000025049500250395029101922A
:103150000093022322460F9902F0CEF99DF84330E6
:10316000184613B030BD00BF48010020612E00009A
:1031700000B587B003468DF80F309DF80F30002B57
:103180001FD11E4827F072FB0490049B002B31D006
:103190001B4B1B68002B2DD118F070FD034683F0EC
:1031A0000103DBB2002B25D0049B01930423009381
:1031B000402340F60F0200214FF0FF302CF0FEFFBD
:1031C00018E00121202001F03AFD03468DF8173068
:1031D0009DF81730002B08D09DF817209DF80F3070
:1031E0001146184607F026FB04E09DF80F301846FC
:1031F00027F0CAFB00BF07B05DF804FB7131000087
:103200003C4D002000B587B003900023059314E0E7
:1032100002F05AFA0246059B023352F82330002B83
:1032200008D102F051FA0146059B0233039A41F896
:10323000232005E0059B01330593059B012BE7D96E
:1032400002F042FA03465B68002B23D102F03CFAFD
:103250000246039B5360114827F008FB0490049B2F
:10326000002B17D00E4B1B68002B13D118F006FD56
:10327000034683F00103DBB2002B0BD0049B0193C8
:10328000042300937D2340F60F0200214FF0FF300E
:103290002CF094FF00BF07B05DF804FB7131000013
:1032A0003C4D002010B584B0019002F00DFA0346A9
:1032B000D3F8AC30002B08D002F006FA0346D3F85E
:1032C000AC30019A127810469847019B1A781E4B31
:1032D0001A70002303932BE0019BD3F81110039A7B
:1032E00013461B019B1A0B44D3F80B30002B0AD05A
:1032F000019BD3F81110039A13461B019B1A0B4430
:10330000D3F80B309847019B1878019BB3F8013034
:103310009CB2019BD3F81110039A13461B019B1A10
:103320000B441A46214607F0C9FD039B0133039362
:10333000019B1B7C1A46039B9342CDD3024BFF2279
:103340001A7000BF04B010BD5801002010B586B03F
:1033500000238DF8173003E100238DF81630E9E0E3
:103360009DF817308DF81530D5E09DF816300133F3
:103370008DF81430B9E002F0A7F903465B68D3F882
:1033800001209DF817309B0013441B68D3F81110DF
:103390009DF8162013461B019B1A0B441A785B7884
:1033A0001B021343ADF8123002F08EF903465B683E
:1033B000D3F801209DF815309B0013441B68D3F807
:1033C00011109DF8142013461B019B1A0B441A7808
:1033D0005B781B021343ADF81030BDF81220BDF826
:1033E00010309A427CD102F06FF903465B68D3F843
:1033F00001209DF817309B0013441B68D3F811106F
:103400009DF8162013461B019B1A0B441C7A02F0F0
:103410005BF903465B68D3F801209DF815309B00EB
:1034200013441B68D3F811109DF8142013461B0198
:103430009B1A0B441B7A9C4252D1BDF81230042BCC
:103440001ED0BDF81230192B1AD0BDF81230202B27
:1034500016D0BDF8123040F20B72934210D0BDF876
:10346000123040F2012293420AD0BDF81230B3F577
:10347000006F05D0BDF812304FF6574293422FD15E
:103480003E4B1B68002B29D118F0F8FB034683F054
:103490000103DBB2002B21D0BDF8124002F014F979
:1034A00003465B68D3F801209DF817309B00134456
:1034B0001B68D3F811109DF8162013461B019B1AA8
:1034C0000B441B7A0293019408230093D12340F606
:1034D0000F0200214FF0FF302CF070FE00234AE075
:1034E0009DF8143001338DF8143002F0EDF80346E6
:1034F0005B68D3F801209DF815309B0013441B68CE
:103500001B7C9DF814209A42FFF435AF9DF81530CE
:1035100001338DF8153002F0D7F803465B681B784D
:103520009DF815209A42FFF420AF9DF81630013324
:103530008DF8163002F0C8F803465B68D3F8012016
:103540009DF817309B0013441B681B7C9DF81620C8
:103550009A42FFF405AF9DF8173001338DF817300C
:1035600002F0B2F803465B681B789DF817209A4278
:10357000FFF4F2AE0123184606B010BD3C4D00200A
:1035800084B0034600918DF807304FF0FF3303936A
:103590009DF80730083BE92B00F22D8201A252F87A
:1035A00023F000BF4D390000533900006539000099
:1035B000593900006B3900005F3900007139000093
:1035C000773900004D390000F7390000F739000065
:1035D000F7390000F7390000F7390000F73900002B
:1035E000F73900004D3900005339000065390000FB
:1035F000593900006B3900005F3900007139000053
:10360000773900004D39000053390000653900005A
:10361000593900006B3900005F3900007139000032
:10362000773900004D39000053390000653900003A
:10363000593900006B3900005F3900007139000012
:10364000773900004D39000053390000F739000088
:10365000F7390000F7390000F7390000F7390000AA
:10366000F73900005339000059390000773900005C
:10367000F7390000F7390000F7390000F73900008A
:10368000F7390000F73900007D3900007D3900006E
:103690009D390000F7390000F7390000F7390000C4
:1036A000F73900009D390000F73900009D3900000E
:1036B000F7390000F7390000F7390000F73900004A
:1036C000F7390000F7390000F7390000F73900003A
:1036D000F7390000F7390000F7390000F73900002A
:1036E000F7390000F7390000F7390000F73900001A
:10390000F7390000593900005939000059390000D1
:10391000F7390000F7390000F7390000F7390000E7
:10392000F7390000533900005339000059390000BD
:10393000F7390000F7390000F7390000F7390000C7
:10394000F7390000EB390000F1390000012303933F
:1039500056E00223039353E00423039350E006232D
:1039600003934DE0032303934AE00523039347E0C9
:103970000723039344E00823039341E0009B002BBB
:103980003BD0009B1B78FF2B37D0009B1B7801336B
:103990008DF80B309DF80B3003932EE00023ADF82B
:1039A00008309DF80730482B03D09DF80730432B93
:1039B00005D1009B1B889BB2ADF808300AE0009B44
:1039C0001B889BB2ADF80830BDF808309B009BB255
:1039D000ADF80830BDF808304FF6FF7293420ED0B4
:1039E000BDF808300233039309E00823039307E08E
:1039F0001023039304E000BF02E000BF00E000BF1B
:103A0000039BDBB2184604B0704700BF00B587B017
:103A100003900B4601928DF80B309DF80B30083B5C
:103A2000E92B00F2668201A252F823F0D53D000096
:103A3000E53D00001B3E0000F73D0000F33E0000A6
:103A4000F33E0000F33E0000CF3E0000D53D0000F5
:103A5000F33E0000F33E0000F33E0000F33E0000A2
:103A6000F33E0000F33E0000F33E0000D53D0000B1
:103A7000E53D00001B3E0000F73D0000F33E000066
:103A8000F33E0000F33E0000F33E0000D53D000091
:103A9000E53D00001B3E0000F73D0000F33E000046
:103AA000093E0000F33E0000F33E0000D53D00005B
:103AB000E53D00001B3E0000F73D0000F33E000026
:103AC000093E0000F33E0000F33E0000D53D00003B
:103AD000E53D0000F33E0000F33E0000F33E000031
:103AE000F33E0000F33E0000F33E0000F33E000012
:103AF000F33E0000F33E0000F33E0000F33E000002
:103B0000F33E0000F33E0000F33E0000F33E0000F1
:103B10002D3E00002D3E0000673E0000F33E0000F9
:103B2000F33E0000F33E0000F33E0000673E00005D
:103B3000F33E0000673E0000F33E0000F33E00004D
:103B4000F33E0000F33E0000F33E0000F33E0000B1
:103B5000F33E0000F33E0000F33E0000F33E0000A1
:103B6000F33E0000F33E0000F33E0000F33E000091
:103B7000F33E0000F33E0000F33E0000F33E000081
:103D9000F33E0000F73D0000F33E0000F33E00005C
:103DA000F33E0000F33E0000F33E0000F33E00004F
:103DB000F33E0000F33E0000F33E0000F33E00003F
:103DC000F33E0000F33E0000F33E0000CF3E000053
:103DD000E13E0000019B1A78039B1A70039B01339C
:103DE00003938BE0019B1B889AB2039B1A80039B71
:103DF0000233039382E0019B1B681A46039B1A60FF
:103E0000039B0433039379E00622019903981AF087
:103E1000F7FE039B0633039370E003220199039896
:103E20001AF0EEFE039B0333039367E0019B002B24
:103E300061D0019B1B78FF2B5DD0019B1B78013368
:103E40008DF815309DF81530ADF81630BDF81630E8
:103E50001A46019903981AF0D3FEBDF81630039A5A
:103E60001344039347E00023ADF812309DF80B3064
:103E7000482B03D09DF80B30432B05D1019B1B88A9
:103E80009BB2ADF812300AE0019B1B889BB2ADF8E3
:103E90001230BDF812309B009BB2ADF81230BDF865
:103EA00012304FF6FF72934227D0BDF81230023322
:103EB000ADF81630BDF816301A46019903981AF07D
:103EC0009FFEBDF81630039A1344039315E00822B1
:103ED000019903981AF094FE039B083303930DE0B5
:103EE0001022019903981AF08BFE039B1033039361
:103EF00004E000BF02E000BF00E000BF039B1846E3
:103F000007B05DF804FB00BF84B003468DF80730AE
:103F1000002303939DF80730203B0D2B2DD801A2E1
:103F200052F823F05D3F0000633F0000693F00004E
:103F30006F3F00007B3F0000753F00007B3F0000AB
:103F40007B3F00007B3F0000633F0000693F0000B3
:103F50006F3F00007B3F0000753F0000012303938B
:103F60000CE00223039309E00323039306E00423F8
:103F7000039303E00623039300E000BF039BDBB23F
:103F8000184604B0704700BF84B003468DF8073070
:103F900000238DF80F309DF807302D2B24DC202BCB
:103FA00028DB203B0D2B25D801A252F823F000BFBF
:103FB000ED3F0000ED3F0000ED3F0000ED3F000051
:103FC000F53F0000ED3F0000F53F0000F53F000029
:103FD000ED3F0000ED3F0000ED3F0000ED3F000031
:103FE000F53F0000ED3F0000E22B03D101238DF8E7
:103FF0000F3000E000BF9DF80F30184604B0704746
:1040000000B589B003468DF80730002306930223DC
:104010000593002307932EE00023049301F054FB43
:104020000246079B023352F823300393039B002B75
:1040300026D017E0039BD3F80120049B9B00134478
:104040001B681B789DF807209A4208D1039BD3F880
:104050000120049B9B0013441B68069308E0049B0B
:1040600001330493039B1B781A46049B9342E1D3CC
:10407000079B01330793079A059B9A42CCD300E034
:1040800000BF069B184609B05DF804FB00B587B079
:10409000034600918DF807306FF0150305939DF8E6
:1040A000073003F52D3303F2A51303F00F03039339
:1040B000039B049301F008FB0246049B0233DB00E0
:1040C00013440293029B1B79002B03D0029B1B68B5
:1040D000002B09D1029B009A1A60029B9DF80720D1
:1040E0001A710023059308E0049B013303F00F03CA
:1040F0000493049A039B9A42DCD1059B184607B0AF
:104100005DF804FB00B587B003468DF807306FF00B
:104110001B0305939DF8073003F52D3303F2A51318
:1041200003F00F030393039B049301F0CDFA0246BF
:10413000049B0233DB0013440293029B1B799DF81E
:1041400007209A421FD19DF80730184626F096FEA8
:104150000346002B01D030F017FF029B1B68002B99
:104160000CD0029B1B689DF80720114618462BF0C7
:10417000A3FA00230593029B00221A60029B0022EF
:104180001A71059B0AE0049B013303F00F030493AB
:10419000049A039B9A42C8D16FF01B03184607B0DC
:1041A0005DF804FB10B586B00390084611461A4628
:1041B00003468DF80B300B46ADF8083013468DF8EA
:1041C0000A3000238DF81730039B002B4DD0039B42
:1041D0005B68002B49D09DF82430002B12D0039B44
:1041E000DB7803F04003002B03D086238DF81730D3
:1041F00008E0039BDB7803F00203002B02D1882345
:104200008DF817309DF81730002B32D1039B1B8897
:104210009CB29DF80B209DF80A10BDF80800089B81
:1042200000932346FEF768FD0490049BB3F1FF3F23
:1042300003D187238DF817301BE0049B13F1060F81
:1042400003D100238DF8173013E0049B13F1020F04
:1042500003D188238DF817300BE0049B13F1280F4E
:1042600007D17E238DF8173003E086238DF81730B1
:1042700000E000BF9DF81730184606B010BD10B51D
:104280008AB00446084611461A4623468DF80F3078
:104290000346ADF80C300B468DF80E301346ADF8E2
:1042A0000A3002230993002308937DE0002307933B
:1042B00001F00AFA0246089B023352F823300693B3
:1042C000069B002B76D063E0069BD3F80120079B6A
:1042D0009B0013441B681B789DF80F209A4254D012
:1042E000069BD3F80120079B9B0013441B689DF895
:1042F0000E20BDF80C10184600F05FFC0590059BE1
:10430000002B00D144E0BDF80A301946059802F0B0
:10431000E2FB0490049B002B00D139E0069BD3F80C
:104320000120079B9B0013441B681878BDF80A40C6
:104330009DF80E20BDF80C100C9B00932346FEF751
:104340002CFD049B5C68049B9B780C991846FFF736
:1043500017F903461A460C9920461AF051FC049BA3
:10436000DB7803F00403002B0FD0069BD3F8012069
:10437000079B9B0013441B681878BDF80A309DF812
:104380000E20BDF80C1007F0A7FE079B0133079322
:10439000069B002B05D0069B1B781A46079B934271
:1043A00092D3089B01330893089A099B9A42FFF421
:1043B0007DAF00E000BF00BF0AB010BD10B586B0F1
:1043C0000446084611461A4623468DF80F30034628
:1043D000ADF80C300B468DF80E301346ADF80A30B0
:1043E00001238DF81730BDF80A309DF80E20BDF876
:1043F0000C109DF80F0002F099FB0490049B002B19
:1044000056D0089B002B53D09DF80E00BDF80C2011
:104410009DF80F109DF824300193089B00930346EC
:104420000498FFF7BFFE03468DF817309DF817304C
:10443000002B3DD1BDF80A409DF80E20BDF80C10B0
:104440009DF80F00089B00932346FEF7A6FC049BF3
:104450005C68049B9B7808991846FFF791F803461F
:104460001A46089920461AF0CBFB049BDB7803F030
:104470000403002B09D0BDF80A309DF80E20BDF8CA
:104480000C109DF80F0007F027FE049BDB7803F06B
:104490000803002B0CD0BDF80A409DF80E20BDF893
:1044A0000C109DF80F00089B00932346FFF7E7FED2
:1044B0009DF81730184606B010BD84B001900B4629
:1044C000ADF80230019B002B06D0019BD3F81530CC
:1044D000002B01D0012300E000238DF80F309DF860
:1044E0000F3003F001038DF80F309DF80F30002BD3
:1044F00061D0019B5A789B781B021343ADF80C30B6
:10450000BDF80220BDF80C309A420CBF01230023F5
:104510008DF80F309DF80F3083F00103DBB2002BD4
:1045200049D0BDF80230B3F5827F0BD0BDF8023020
:10453000B3F5807F06D9BDF80230B3F5847F01D88A
:10454000012300E000238DF80B309DF80B3003F0C1
:1045500001038DF80B30BDF802304FF6FF72934225
:104560000AD1BDF80C30B3F5827F19D0BDF80C30FC
:104570004CF25E02934213D0BDF802304CF25E0260
:10458000934204D1BDF80C30B3F5827F08D09DF87A
:104590000B30002B06D0BDF80C30B3F5827F01D173
:1045A000012300E000238DF80F309DF80F3003F059
:1045B00001038DF80F309DF80F30184604B0704796
:1045C00010B588B00446084611461A4623468DF8B1
:1045D00007300346ADF804300B468DF8063013461D
:1045E000ADF8023000238DF81F300223049300231E
:1045F000059385E00023069301F066F80246059BCB
:10460000023352F823300393039B002B7ED09DF896
:104610000730002B67D00023069312E0039BD3F8EA
:104620000120069B9B0013441B681B789DF8072004
:104630009A4203D100238DF8073008E0069B01332E
:104640000693039B1B781A46069B9342E6D3069B70
:104650000133069347E0039BD3F80120069B9B00A0
:1046600013441B6802939DF80630032B1AD1BDF842
:10467000043001221946029800F09FFA0346002BED
:1046800009D1BDF8043002221946029800F095FACB
:104690000346002B01D0012300E0002303F00103B7
:1046A000DBB20DE09DF80620BDF8043019460298F3
:1046B00000F083FA0346002B14BF01230023DBB272
:1046C000002B0DD0BDF8023019460298FFF7F5FE19
:1046D0000346002B04D0029B1B788DF81F300CE0A2
:1046E000069B013306939DF80730002B05D1039BF1
:1046F0001B781A46069B9342ADD3059B0133059365
:10470000059A049B9A42FFF475AF00E000BF9DF844
:104710001F30184608B010BD00B585B003460A46E4
:104720008DF807301346ADF8043000238DF80F30B4
:104730009DF80730184600F0D7FA0346ADF80C3064
:104740009DF80730002B02D19DF80F300FE0BDF827
:104750000C30B3F5827F08D1BDF804304FF65742D4
:10476000934202D101238DF80F309DF80F30184687
:1047700005B05DF804FB000030B58DB003468DF840
:10478000073001238DF82E309DF807301B21184685
:1047900026F0EEFA034603AC1D4628686968AA684D
:1047A000EB680FC42869696903C42B8BAA7E238038
:1047B0001346A3709DF818308DF82F309DF82F30D8
:1047C0001846FFF71DFC0A909DF81F10BDF81B301E
:1047D0009AB29DF822309DF82F00FEF7A2FB034607
:1047E00083F00103DBB2002B08D09DF80730184698
:1047F00026F0CAF800238DF82E305BE009F0F2FBBA
:104800000346002B23D0BDF81B309BB2184607F09F
:1048100030FF0346002B06D09DF81A3003F0080342
:10482000DBB2002B0FD0BDF80D309BB2BDF81B20C2
:1048300092B21146184607F085FE034683F0010345
:10484000DBB2002B03D07E238DF82E3032E00A9BA2
:10485000D3F80330002B1FD01E4BD3F8F03B002BB6
:104860000BD01C4BD3F8F03B03AA104698470346E5
:1048700083F00103DBB2002B0ED00A9BD3F8033088
:104880009DF80720104698470346002B0CBF0123D4
:104890000023DBB28DF82E309DF82E30002B08D08F
:1048A0009DF80730184604F09BFB03468DF82E3028
:1048B00000E000BF9DF82E30002B07D09DF82E2081
:1048C00003A99DF80730184605F0C3F900BF0DB0E5
:1048D00030BD00BFC03E002000B587B003468DF854
:1048E0000F309DF80F309BB200221946144825F076
:1048F000E2FF0590059B002B1DD0124B1B68002B7F
:1049000014D117F0BBF9034683F00103DBB2002B8F
:104910000CD0059B0193042300934FF49F6340F652
:104920000F0200214FF0FF302BF048FC9DF80F30B4
:10493000184626F029F800BF07B05DF804FB00BF59
:10494000494900003C4D002000B587B003460A46A7
:104950008DF807301346ADF80430BDF80430DBB2F3
:104960001B21184626F004FA0590BDF80430DAB28F
:104970009DF807301146184626F087F8059B1B7BEB
:104980008DF813302AF062FD03469B081F4AA2FBF4
:1049900003239B0D0393039B9BB21A469DF807309C
:1049A00019461B482AF0AEFF059BB3F80F3099B2A9
:1049B000059B1B7D002B01D1012200E00222059BFB
:1049C000B3F811309BB29DF81300FFF7F9FD0346D1
:1049D0008DF813309DF81330002B06D1BDF804304C
:1049E000DBB2184625F0D0FF0BE0059B9DF81320A5
:1049F0001A73BDF80430DBB2039A194605482AF051
:104A000081FF00BF07B05DF804FB00BF010000217B
:104A100079470000D948000000B589B003468DF8F9
:104A20000F309DF80F301B21184626F0A1F9079092
:104A3000079B1B7BFF2B4DD1079BB3F80F3099B21F
:104A4000079B1B7D002B01D1012200E00222079B66
:104A5000B3F811309BB20020FFF7B2FD03468DF88A
:104A60001B309DF81B30002B05D19DF80F301846E8
:104A700025F08AFF33E0079B9DF81B201A739DF8F1
:104A80000F309BB200221946174825F014FF0590FD
:104A9000059B002B23D0154B1B68002B14D117F05E
:104AA000EDF8034683F00103DBB2002B0CD0059B2D
:104AB00001930423009340F2525340F60F02002169
:104AC0004FF0FF302BF07AFB9DF80F30184625F0A1
:104AD0005BFF04E09DF80F301846FFF74DFE00BF66
:104AE00009B05DF804FB00BF494900003C4D0020BF
:104AF00030B58DB003468DF8073003AB1B22002183
:104B000018461AF0A6F803AA9DF807301146184671
:104B100004F0CAFA03468DF82F309DF82F2003A920
:104B20009DF8073018461FF03BFD034683F0010354
:104B3000DBB2002B3ED09DF80730184625F084FFED
:104B400003461B789B08DBB203F00103002B01D066
:104B5000052200E003229DF807301146184626F092
:104B60003DF89DF807301B21184626F001F90A9000
:104B70000A9B1D4603AC0FCC28606960AA60EB60FD
:104B800003CC286169612388A2782B831346AB7616
:104B90009DF82F30002B05D19DF807301846FFF700
:104BA0003BFF07E09DF82F2003A99DF8073018462A
:104BB00005F04FF800BF0DB030BD84B001900B463A
:104BC000ADF8023013468DF8013000230393002323
:104BD0000293019B002B2ED027E0019BD3F81110EC
:104BE000039A13461B019B1A0B441B889BB2BDF80A
:104BF00002209A4216D1019BD3F81110039A134652
:104C00001B019B1A0B441B7A9DF801209A4209D183
:104C1000019BD3F81110039A13461B019B1A0B44F6
:104C2000029308E0039B01330393019B1B7C1A460C
:104C3000039B9342D1D3029B184604B0704700B542
:104C400089B003460A46ADF8063013468DF80530A4
:104C500000238DF81F30022304930023059337E0CF
:104C60000023069300F030FD0246059B023352F804
:104C700023300393039B002B2FD020E0039BD3F81A
:104C80000120069B9B0013441B6802939DF805209E
:104C9000BDF8063019460298FFF78FFF0346002B38
:104CA0000AD0039BD3F80120069B9B0013441B688A
:104CB0001B788DF81F3008E0069B01330693039B99
:104CC0001B781A46069B9342D8D3059B0133059364
:104CD000059A049B9A42C3D300E000BF9DF81F30A1
:104CE000184609B05DF804FB00B589B003468DF89D
:104CF00007304FF6FF73ADF81E30022304930023F4
:104D0000059333E00023069300F0DEFC0246059B8A
:104D1000023352F823300393039B002B2BD01CE06B
:104D2000039BD3F80120069B9B0013441B681B7850
:104D30009DF807209A420DD1039BD3F80120069BD2
:104D40009B0013441B685A789B781B021343ADF8F1
:104D50001E3008E0069B01330693039B1B781A461E
:104D6000069B9342DCD3059B01330593059A049B74
:104D70009A42C7D300E000BFBDF81E30184609B004
:104D80005DF804FB00B58BB003460A46ADF806306B
:104D900013468DF805300023099302230693002360
:104DA000079336E00023089300F08EFC0246079B31
:104DB000023352F823300593059B002B2ED01FE0C1
:104DC000059BD3F80120089B9B0013441B680493A8
:104DD0009DF80520BDF8063019460498FFF7EDFE52
:104DE0000390039B002B08D0039B1B7A9DF80520A2
:104DF0009A4202D1049B099308E0089B013308936F
:104E0000059B1B781A46089B9342D9D3079B013315
:104E10000793079A069B9A42C4D300E000BF099B00
:104E200018460BB05DF804FB00B587B003468DF85B
:104E300007309DF807301B21184625F099FF049094
:104E4000049B1B7B1846FFF7DBF80390049BB3F829
:104E50000F3099B2049B1B7D002B01D1012300E090
:104E600002231A460398FFF7A8FE029000F056FCB2
:104E70000346012B03D181238DF8173016E0049BE4
:104E80001B7E002B09D0049B9B7D002B01D084232B
:104E900000E083238DF8173008E0049B9B7D002BF6
:104EA00001D0822300E081238DF81730029B002B74
:104EB00017D0049B1B7D012B05D1029B1B7A03F0AD
:104EC0000203002B09D1049B1B7D002B0CD1029BFC
:104ED0001B7A03F00103002B06D000238DF8173056
:104EE00002E0C3238DF817309DF81730184607B03D
:104EF0005DF804FB84B00190019B1B680393039B46
:104F0000184604B0704700B585B0009111461A46A6
:104F100003468DF807300B468DF8063013468DF8A2
:104F200005309DF807301021184625F021FF039029
:104F30009DF80730184621F0B5FC039B95221A60B6
:104F4000039B9DF818209A73039B9DF805201A7106
:104F5000039B9DF806205A719DF80630032B07D15C
:104F6000039B063300990822184619F049FE04E015
:104F7000039B0633BDF800201A809DF807301946C0
:104F800007982AF099FB00BF05B05DF804FB84B0D8
:104F900003460A46ADF806301346ADF80430BDF8B6
:104FA000043040F20472934244D0BDF80430B3F5AB
:104FB000E06F3FD0BDF8043040F20372934239D025
:104FC000BDF8043040F20272934233D0BDF8043091
:104FD000B3F5006F2ED0BDF8043040F20572934255
:104FE00028D0BDF8043040F20772934222D0BDF8B9
:104FF0000430B3F5E16F1DD0BDF8043040F2097202
:10500000934217D0BDF8043040F20172934211D0A0
:10501000BDF8043040F2067293420BD0BDF8043064
:1050200040F20A72934205D0BDF8043040F20B7290
:10503000934201D1012300E000238DF80F309DF849
:105040000F3003F001038DF80F309DF80F30184634
:1050500004B0704710B596B0069105921A46034603
:105060008DF81F3013468DF81E30002315939DF8E0
:105070001F301821184625F07BFE13909DF81F3035
:10508000184625F0E1FC1290139BDB7B8DF847302E
:10509000139B1093139B1B7B8DF83F30139B5B7B03
:1050A0008DF83E30139B5B89ADF83C30139B587BE9
:1050B000129B9978139B5A89129B1B7803F0030368
:1050C000DBB2002B0CBF01230023DBB2FDF729FF6D
:1050D000034683F00103DBB2002B1BD0059B002BA2
:1050E00010D09DF83F109DF847209DF81F00059BAC
:1050F00001939DF83E3000930B461099FFF703FF94
:105100000023F1E19DF81F30184625F03DFC6FF0BB
:105110000703E9E1139B1B89BDF83C2011461846A3
:10512000FFF735FF03468DF83B30069B002B22D05E
:105130009DF81F300699184625F02DFD04469DF870
:105140001F30184625F08AFC03469C4213D99DF86F
:105150001F300699184625F01EFD04469DF81F30A5
:10516000184625F07BFC0346E21A9DF81F301146D5
:10517000184625F00DFE9DF84730012B20D0139BDB
:10518000DB7B022B06D1109B1B889BB24FF6F7727C
:10519000934215D8BDF83C30184607F037FA03465D
:1051A000002B0DD09DF81E3083F00103DBB2002BE5
:1051B00006D0139B1B7C43F00403DAB2139B1A74D2
:1051C0009DF83B30002B06D0139B1B7C43F008035B
:1051D000DAB2139B1A74159B002B40F08B801AF0E7
:1051E000FDF9034683F00103DBB2002B00F082805F
:1051F00008F0F8FE0346002B7CD0BDF83C30184682
:1052000007F037FA0346002B74D00BAB08220021BD
:10521000184619F01EFD9DF84730032B14D0032BC0
:1052200018DC002B1AD0022B14D1109B1B889BB2C8
:105230000BAA1146184624F0A3FF0346002B0FD0FB
:105240006FF0270315930BE0109A0BAB10685168B1
:1052500003C306E06FF02703159302E000BF00E0F0
:1052600000BF08F0BFFE0346002B13D09DF8473067
:10527000002B0FD0159B002B0CD10BAB18461AF04E
:10528000D7F9034683F00103DBB2002B02D06FF0A5
:1052900027031593159B002B0FD10BAB022118464A
:1052A00030F068FA0346002B07D0139B1B7C43F0B9
:1052B0000103DAB2139B1A741CE06FF027031593F5
:1052C0008B4B1B68002B15D116F0D8FC034683F0DE
:1052D0000103DBB2002B0DD0BDF83C300193042359
:1052E000009340F60F0340F60F0200214FF0FF300D
:1052F0002AF064FF159B002B40F0AF80BDF83C20E6
:105300009DF83E3011461846FFF706FA0346002B7B
:1053100000F0A3800023149302238DF83A3009ABE8
:1053200008220021184619F094FC9DF84730032B01
:105330001BD0032B27DC002B27D0022B00D022E030
:10534000109B1B889BB209AA1146184624F018FF2F
:105350001590159B002B1AD19DF83A2009AB1146E8
:10536000184630F007FA149011E0109A09AB106853
:10537000516803C39DF83A2009AB1146184630F036
:10538000F9F9149004E000BF02E000BF00E000BFA4
:10539000149B002B5AD19DF84730002B56D0129BFE
:1053A0009B780B2B32D1129B1B7803F00403DBB2EA
:1053B000002B2BD1129B1B7803F00303DBB2002BD5
:1053C00024D1129B04331B78012B1FD1484B1B683F
:1053D000002B39D116F052FC034683F00103DBB2F7
:1053E000002B31D0129B03331B781A46BDF83C309A
:1053F000029301920823009340F6570340F60F02F0
:1054000000214FF0FF302AF0D9FE1DE0384B1B6819
:10541000002B15D116F032FC034683F00103DBB2FA
:10542000002B0DD0BDF83C3001930423009340F6CF
:105430005E0340F60F0200214FF0FF302AF0BEFE5F
:105440006FF02703159308E000BF06E0139B1B7C59
:1054500043F00103DAB2139B1A74159B002B06D19B
:105460009DF81F3005991846FEF710FE1590159B04
:10547000002B24D19DF81F30184625F0E5FA0D9039
:105480000D9B1B781B09DBB203F00103002B02D13B
:1054900001202FF02BFDBDF86030002B06D19DF8C8
:1054A0001F30194613482AF007F91CE0BDF86020A8
:1054B0009DF81F3019460F482AF024FA13E0059B87
:1054C000002B10D09DF83F109DF847209DF81F003D
:1054D000059B01939DF83E3000930B461099FFF712
:1054E00012FD00231593159B184616B010BD00BF82
:1054F0003C4D00203D10020000B589B0049103929C
:105500001A4603468DF8173013468DF816309DF86D
:1055100017301821184625F02BFC0790182200217F
:10552000079819F096FB079B9DF81620DA730798E9
:105530009DF81630032B01D1082300E002231A4600
:10554000039919F05DFB079B9DF828201A73079BB0
:105550009DF82C205A73079BBDF830201A81079BB9
:10556000BDF834205A819DF81700002300930023D2
:105570000E9A0499FFF76EFD0346184609B05DF8D0
:1055800004FB00B589B0049103921A4603468DF8D6
:10559000173013468DF816309DF81730182118462D
:1055A00025F0E6FB079018220021079819F051FB1F
:1055B000079B9DF81620DA7307989DF81630032B89
:1055C00001D1082300E002231A46039919F018FBC1
:1055D000079B9DF828201A73079B9DF82C205A736F
:1055E000079BBDF830201A81079BBDF834205A81F3
:1055F0009DF83C30002B01D0012200E00022079BE7
:105600001A749DF840209DF81700BDF844300093AF
:1056100013460E9A0499FFF71DFD0346184609B07C
:105620005DF804FB10B584B00446084611461A46DE
:1056300023468DF8073003468DF806300B46ADF84B
:10564000043013468DF803309DF80730184625F0D6
:1056500087FA0390039B9DF806201A70039B013381
:10566000039300F031F803461A78511CC9B219703F
:1056700013468DF80B309DF806309B08DBB203F023
:105680000103002B06D0BDF804301946039829F019
:1056900004FF0390039B9DF80B201A70039B0133BA
:1056A0000393039B9DF803201A70039B013303931C
:1056B000069B002B03D0069B9DF80B201A70039BC2
:1056C000184604B010BD0000014B1846704700BFDB
:1056D000FC470020014B1846704700BF800C00209B
:1056E00000B583B003468DF807309DF80730022BD4
:1056F00002D96FF0050306E0FFF7ECFF02469DF8C4
:10570000073013700023184603B05DF804FB08B59A
:10571000FFF7E0FF03461B78184608BD08B5FFF702
:10572000D9FF03461B7A184608BD00B583B003466F
:105730008DF807309DF80730012B02D96FF0050373
:1057400006E0FFF7C7FF02469DF8073013720023FB
:10575000184603B05DF804FB00B585B003468DF82C
:105760000730FFF7D4FF0346002B02D19DF8073026
:10577000ABE09DF80730813B432B00F29F8001A2F4
:1057800052F823F0AD580000AD580000AD580000AD
:10579000AD580000BD580000BD580000BD580000C5
:1057A000BD580000BD58000095580000BD580000CD
:1057B000BD580000BD580000BD580000B55800009D
:1057C0009D5800009D580000A55800009D580000FD
:1057D000BD580000BD580000BD580000BD58000075
:1057E000BD580000BD580000BD580000BD58000065
:1057F000BD580000BD580000BD580000BD58000055
:10580000BD580000BD580000BD580000BD58000044
:10581000BD580000BD580000BD580000BD58000034
:10582000BD580000BD580000BD580000BD58000024
:10583000BD580000BD580000BD580000BD58000014
:10584000BD580000BD580000BD580000BD58000004
:10585000BD580000BD580000BD580000BD580000F4
:10586000BD580000BD580000BD580000BD580000E4
:10587000BD580000BD580000BD580000BD580000D4
:105880009D5800009D580000A5580000BD5800001C
:105890009558000000238DF80F3014E001238DF897
:1058A0000F3010E07F238DF80F300CE081238DF84E
:1058B0000F3008E07E238DF80F3004E09DF80730AC
:1058C0008DF80F3000BF9DF80F30184605B05DF819
:1058D00004FB00BF00B585B00190019B1F331F2B57
:1058E00052D801A252F823F08159000089590000D2
:1058F0008959000089590000895900008959000020
:10590000895900008959000079590000895900001F
:1059100089590000895900008959000089590000FF
:1059200089590000895900008959000089590000EF
:1059300089590000895900008959000071590000F7
:1059400089590000895900008959000089590000CF
:1059500089590000895900008959000089590000BF
:10596000895900006959000000238DF80F3016E0B6
:1059700085238DF80F3012E087238DF80F300EE06D
:1059800081238DF80F300AE0FFF7C8FE0346012B94
:1059900001D1012300E0C0238DF80F3000BF9DF836
:1059A0000F30184605B05DF804FB00BF00B585B0A8
:1059B00003460A468DF807301346ADF804309DF8CB
:1059C0000730002B11D1364B1B7883F00103DBB27B
:1059D000002B60D0324B01221A70BDF80430002237
:1059E0001946304824F067FF55E0FFF76DFE034687
:1059F000D3F89C30002B46D0BDF80430DBB28DF8D4
:105A00000C309DF807303421184625F0B1F90346D3
:105A100034220021184619F01CF99DF80730342172
:105A2000184625F0A5F9034665221A709DF807303F
:105A30003421184625F09CF9034600225A609DF84F
:105A400007303421184625F093F9034600229A6066
:105A50009DF807303421184625F08AF9024603AB39
:105A6000D3609DF807303421184625F081F90346AC
:105A700000221A61FFF728FE0346D3F89C309DF8F8
:105A8000072010469847064B00221A709DF80730F1
:105A9000184624F079FF00BF05B05DF804FB00BF95
:105AA0008D0C0020AD59000000B58DB003460A46AC
:105AB0008DF81F301346ADF81C309DF81F30184686
:105AC00025F04EF80B900B9B08221A700B9B0133AC
:105AD0000B93FFF7F9FD03461A78511CC9B21970F0
:105AE0000B9B1A700B9B01330B930B9B0A221A70B2
:105AF0000B9B01330B93414B1B780A9364E0404AA4
:105B00000A9B32F8133001220121C42001F00EF863
:105B10000990099B002B54D001214CF25D20FFF726
:105B200036FA0346002B0CD09DF81F300B9918460F
:105B300025F031F803469BB2C3F5CA6301339BB22B
:105B40000AE09DF81F300B99184625F024F803460B
:105B50009BB2C3F152039BB2ADF82230099B9A78F5
:105B6000099B5B6819461046FDF70AFD03468DF850
:105B70002130BDF822209DF8213003339A421BD3F7
:105B8000099B1B889BB219460B9829F086FC0B9049
:105B9000099B9A780B9B1A700B9B01330B93099B03
:105BA0009978099B5B681A460B98FDF72FFF0B90BD
:105BB000124B00221A7004E00A9BDAB20F4B1A70E3
:105BC00005E00A9B01330A930A9B052B97D907AA84
:105BD0009DF81F0000230493012303934CF25D23DF
:105BE0000293C4230193C423009302230B99FFF76C
:105BF00083FC00BF0DB05DF804FB00BF8E0C0020DD
:105C000048F6030000B585B003468DF80730194B00
:105C10001B78002B24D0174B1B78032B20D0082394
:105C200001220121C42000F081FF0390039B5B68E7
:105C30001B88ADF80A30BDF80A304FF6FF72934268
:105C400005D19DF80730184600F070F80EE0BDF859
:105C50000A209DF8073011461846FFF725FF05E09A
:105C60009DF80730184624F08FFE00BF00BF05B036
:105C70005DF804FB8C0C002000B583B000220021ED
:105C80001B482AF007F81B4B1B78022B2BD1012352
:105C900001220121C42000F049FF0190019B002B4B
:105CA00003D0019B5B681B8801E04FF49673ADF84D
:105CB0000230BDF802300F3BADF80230BDF80230C3
:105CC000184629F0ADFB03469BB20F33ADF8023006
:105CD000BDF8022013465B0113445B001A46002105
:105CE000034829F00FFE00BF03B05DF804FB00BFBE
:105CF000F95C00008C0C002000B583B003468DF8E1
:105D000007309DF80730002B03D1074824F0AEFD83
:105D100006E09DF807301846FFF774FFFFF7ACFF69
:105D200000BF03B05DF804FBF95C000000B583B070
:105D300003468DF807300D4B1B78002B0BD00B4B17
:105D40001B78032B07D09DF807304FF6FC711846DF
:105D5000FFF7AAFE05E09DF80730184624F014FE70
:105D600000BF00BF03B05DF804FB00BF8C0C002037
:105D700000B583B003468DF807309DF80730002B3F
:105D800003D1154B00221A7022E09DF80730012B39
:105D90001ED1124B1B78012B1AD10F4B1B78012BF4
:105DA0000CD80F4824F062FD0E4824F05FFD0A4B2A
:105DB0001B780133DAB2084B1A7009E0064B002257
:105DC0001A70064B03221A7001210020FFF7EEFD26
:105DD00000BF03B05DF804FB8F0C00208C0C00208A
:105DE0003D5F00002D5D000000B58DB003468DF8CD
:105DF0001F30384B1B78002B61D0364B1B78032BA0
:105E00005DD008238DF82F3009238DF82E300A231A
:105E10008DF82D3021F04AFC0346ADF826309DF870
:105E20001F30184624F09CFE0A900A9B00221A702C
:105E30000A9B01330A93FFF747FC03461A78511C6B
:105E4000C9B219700A9B1A700A9B01330A930A9B04
:105E500000221A700A9B01330A939DF82F309BB2DF
:105E600019460A9829F019FB0A909DF82E309BB22A
:105E700019460A9829F011FB0A909DF82D309BB223
:105E800019460A9829F009FB0A900DF126029DF89F
:105E90001F0000230493012303934CF25D2302931C
:105EA000C4230193C423009302230A99FFF724FB20
:105EB00040F2BC720121084829F024FD05E09DF85C
:105EC0001F30184624F060FD00BF00BF0DB05DF824
:105ED00004FB00BF8C0C0020715D000000B583B096
:105EE00000220021134829F0D5FE134B1B78022B0A
:105EF0001CD1022301220121C42000F017FE0190D1
