:1000000000000420750300005D0300005F03000092
:1000100061030000630300006503000000000000AE
:100020000000000000000000000000006703000066
:1000300069030000000000006B0300006D03000076
:10004000FDAC000011DE020031B300006F030000C0
:100050006F0300006F0300007DB100006F0300001C
:100060006F0300006F0300006F0300006F030000C8
:100070006F03000045B400006F0300006F03000031
:100080006F030000D99600006F0300006F030000AB
:100090006F0300006F0300006F0300006F03000098
:1000A0006F0300006F0300006F0300006F03000088
:1000B0006F0300006F03000000000000000000005C
:1000C0006F0300006F0300006F0300006F03000068
:1000D000950603006F0300006F0300006F0300002C
:1000E0006F0300006F0300006F03000000000000BA
:1000F000000000006F030000000000006F0300001C
:1001000000000000000000000000000000000000EF
:1001100000000000000000000000000000000000DF
:1001200000000000000000000000000000000000CF
:1001300000000000000000000000000000000000BF
:1001400000000000000000000000000000000000AF
:10015000000000000000000000000000000000009F
:10016000000000000000000000000000000000008F
:10017000000000000000000000000000000000007F
:10018000000000000000000000000000000000006F
:10019000000000000000000000000000000000005F
:1001A000000000000000000000000000000000004F
:1001B000000000000000000000000000000000003F
:1001C000000000000000000000000000000000002F
:1001D000000000000000000000000000000000001F
:1001E000000000000000000000000000000000000F
:1001F00000000000000000000000000000000000FF
:10020000354936480A1A02D0072291438D463449AF
:1002100034480A1A06D00722914381F30988022242
:1002200082F3148830483149314A00F044F83148AB
:100230003149324A00F03FF831483249324A00F041
:100240003AF832483249334A00F035F832483349F7
:10025000334A00F030F833483349344A00F02BF881
:1002600033483449344A00F026F8344834490022EF
:1002700000F02CF833483449002200F027F83348C6
:100280003349091A082902DB002202604160314A21
:1002900090471F481F49884205D00268043003B4C4
:1002A000904703BCF7E700208646EC46002000217B
:1002B000294A9047FEE7884207D0521A05D00378B2
:1002C00001300B700131013AF9D17047884202D0F8
:1002D00002700130FAE770470000042000E00320BC
:1002E000000004200000042084350300F4000020F6
:1002F00064060020D0030000D00300003A0C030085
:1003000084350300F4000020F4000020500E0300A8
:10031000500E0300500E0300500E0300500E030059
:10032000500E0300500E0300500E030083350300EF
:10033000F43A0300640600206406002064060020EE
:10034000E8580020E8580020EC580020EC58002025
:10035000EC7800209D03000079E00000FEE7FEE756
:10036000FEE7FEE7FEE7FEE7FEE7FEE7FEE7FEE765
:1003700000F002B8FFF7FCBF0F484FF007018843B9
:1003800085460E4880470E48016841F470010160BF
:10039000BFF34F8FBFF36F8FFFF732BF09480A4992
:1003A0000A4A884207D0521A05D0037801300B70F0
:1003B0000131013AF9D170470000042059E30000EF
:1003C00088ED00E05C0D030000000020F400002038
:1003D00000487047E0580020FEE7F0B595B01D4694
:1003E000164608460C4609F0FBFE1A9B0D93CDE914
:1003F000086500252B46082205A920460A958DF898
:100400002C500C9509F008FF079B0293069B039361
:100410009DF814308DF8115003F00302012A1DD10C
:10042000BDF81420059DC3F3C203C2F383168DF8F3
:100430001030B20008230EA9204609F0EDFEC5F3E6
:10044000952508AB0093324602AB0EA9284600F072
:100450004BFC204609F0C8FE15B0F0BD022AF8D1C9
:10046000BDF81650C3F3C203C5F389158DF81030DB
:100470000827082D2E4628BF08263B4632460EA9DF
:10048000204609F0C9FEAD1B08AB02AA31460EA8F2
:10049000374400F08DFC002DEBD1DAE7014B01224F
:1004A0001A707047A50600207047000070B50F4D08
:1004B00006460FCD88B06C460FC495E80F00002E9D
:1004C00084E80F004FF00603094A009308BF00229A
:1004D0004FF080530748069369460AF0CDFA08B1F9
:1004E00008F0E6FD044B1E7008B070BD500E03000E
:1004F0009D040000F40000206406002007B5044BB2
:100500000093044A4023FFF768FF03B05DF804FB43
:10051000190500006506002038B50D480D4C0E4D3C
:10052000002323700378EB5CD2B263B104300BF08C
:10053000A1FC08B108F0BCFD084B1A7812B1237871
:10054000002BFBD038BD0C300BF0C2F9F1E700BF37
:10055000F4000020A5060020BC0E00206406002048
:1005600008B50848084A0378D35C3BB104300BF067
:100570000FFCBDE808400020FFF798BF0C300BF0DF
:1005800047F9F6E7F4000020BC0E00200120FFF739
:100590008DBF037813F0040216D003F00303012B80
:1005A00003D0022B09D0012070470A68008802326C
:1005B000C0F3831002440A60F5E70B6842880233F7
:1005C00003EB92130B60EEE7104670472DE9F04FF6
:1005D000DFF824A10F4685B00446861C002015468E
:1005E00008F032FFDAF800103960DAE9013213441A
:1005F00001335B1A0AF21C470AF583690AF21448B0
:10060000B3421BD30020002D72D004F00F039B01D6
:1006100043F0050363F30F00DAF80020DAF808303E
:100620001340033332444AF823000020CAF8002064
:1006300008F00CFF012005B0BDE8F08F012138461D
:1006400009F017F9484609F02FF9404609F02CF94E
:10065000DAF80400DAF808B0009000EA0B00033082
:100660000AEB80006946FFF794FF009B50BB0BEA42
:1006700003020AEB820203F1020CD26801920133F9
:1006800003EA0B0B0AEB8B0B02F00302012ADBF8E7
:100690000C10CDF800C023D0022A16D08346404665
:1006A00009F005F910B1009BCAF8043059463846E4
:1006B00009F0DFF8DAE901231344DAF80020013306
:1006C0009B1A9DE70BEA0300C9E7BDF80630C3F3A8
:1006D000891303334FEA114B0CEB93030093DEE7CE
:1006E000BDF80430C3F383134FEA114B6344F5E7BD
:1006F000A40544F006008FE77807002030B599B1D3
:100700000A4B0B4A0B49D21AD20800239A4201D154
:10071000052006E031F823500468A54202D10360A9
:10072000002030BD0133F1E70846FAE7540C03001E
:10073000340D03000000002007B5019001A8FFF769
:10074000DDFF30B9019A044B53F8320003B05DF875
:1007500004FB0020FAE700BF540C0300094B0139E9
:1007600003EBC000032909D8DFE801F00A02040600
:100770000420704700797047407970470020704727
:1007800002207047540C0300154B93F8203437B502
:1007900004460BB918B90024204603B030BD10F050
:1007A00035FA0130009001230E486A4601A909F08C
:1007B00038FE05460028EED12146009A019810F037
:1007C000A7F9DDE900231344064803F8015C00990A
:1007D00009F05FFE0099034809F072FE019CDBE717
:1007E00078070020B80E0300034BD3E90030C31A8A
:1007F00058425841704700BF780700202DE9FF4755
:10080000FFF7F2FF0646002840F01F81904CC4F825
:100810001804BFF34F8F6368A56800932B40033320
:1008200004EB83006946FFF7B4FE009B18B1D4F8CF
:100830001824002A6CD005EA0302991C013304EB4A
:1008400082022B4004EB8303D268DB68029302F040
:100850000303022B019200916DD1BDF806307D4853
:100860009DF80460C3F38918B8F1500FC14628BF42
:100870004FF0500909F1080169F38F13C1F3090121
:10088000ADF8063009F07DFCC6F3C2060746002825
:1008900000F0C28009F0A4FC0023082201A9384618
:1008A00009F0B0FC009925EA01020132B9EB820F90
:1008B0004FEA820338D95FFA89F98BB32940DDB258
:1008C000A9EB050903315FFA89FAA946624D04EBE9
:1008D000810108234A46384609F094FC3DB109F1EC
:1008E0000803DBB252462946384609F08BFC009BD0
:1008F00008F1030803EB98030093D4F81834002B95
:1009000054D1D4F81054DFF864914FF0070872E026
:1009100022689A4282D86260304604B0BDE8F0870F
:100920004D491D469A46D4E72940033108234A46DB
:1009300004EB8101D8E7012B6ED1BDF80460454876
:10094000C6F38311062928BF062161F389160231F7
:1009500001F00F018900ADF8046009F012FCC6F344
:10096000C2060746002857D009F03AFC00230822A7
:1009700001A9384609F046FC4FF00008BDF80420F4
:10098000C2F383124FEA8803904503F10803B4D2FF
:1009900000994A1C29400331009204EB8101042292
:1009A000384609F02FFC08F10108E7E7384609F05E
:1009B0001BFCFFF719FF80F00100C6B2ACE7EB6843
:1009C0005A79B2B11B79BDF8081003EB430259F80C
:1009D000211008FA02F3052E03EA010323FA02F3B9
:1009E00008BF0326B34204D32B6839461B68284648
:1009F0009847EB681D68002DE1D1384609F0F4FBFB
:100A0000284608F021FDD4F818340BB9009B636028
:100A1000002008F01BFDCCE7D4F8104474B90F4B4C
:100A20005B88012BC5D90E4B0E480F49C01AC00870
:100A3000000440F0020000F067F8BAE7236820469F
:100A40009B689847E3681C68E8E7002664E700BFF6
:100A500078070020440D03008407002018000020C0
:100A6000540C0300840C03008D0E03007000002062
:100A70002DE9F74F224E04460F46924601A9012266
:100A80001846D6F808909B46FFF7A0FD20B3019DBD
:100A90004FF00008AA1CD84508EB020126D11948DE
:100AA000002108F0ABFE80F31000000440EA14407F
:100AB000E4006B1C04F0380403EA090305EA0905A5
:100AC00044F0010406EB8303033544EA881444EA46
:100AD0008724D86046F8254096F820341BB1FFF7EC
:100AE0008DFE0028FBD103B0BDE8F08F09EA0101BB
:100AF00006EB81015AF82830CB6008F10108CAE7FB
:100B000078070020940B002000231A46FFF7B0BF9F
:100B100007B50123019201AAFFF7AAFF03B05DF810
:100B200004FB07B5CDE9002302236A46FFF7A0FFC7
:100B300003B05DF804FB1FB5CDE90123069B0393C9
:100B400001AA0323FFF794FF05B05DF804FB1FB56E
:100B5000CDE90023069B0293079B03936A46042377
:100B6000FFF786FF05B05DF804FB00002DE9F347B1
:100B70002B4D0446D01C8946164601A90022800848
:100B8000AF68FFF723FDA8B3DDF80480AB6808F178
:100B900002000190013338401B1AB6EB830F00F1BD
:100BA00003004FEA830A05EB80002DD83246494600
:100BB0000FF0AEFF1B48002108F020FE80F310006C
:100BC00008F101033B4007EA0807220C05EB830309
:100BD000033742EA0040E400D86004F0380455F8D6
:100BE000273044F0020444EA865203F47C131A438B
:100BF00045F8272095F820341BB1FFF7FFFD0028AA
:100C0000FBD102B0BDE8F087524649460FF080FFA5
:100C1000A6EB0A0209EB0A0105F10C00C8E700BFC8
:100C200078070020940B002030B5C38885B00446B7
:100C30000D4633B1144A00921449154A284608F06B
:100C40007CFE217A05291DD0637A4BB1A088FFF77D
:100C500085FD104B104953F82020284608F06DFE02
:100C6000227A0E4BA08853F8222003920021FFF72E
:100C700063FD039A0A490346284605B0BDE83040A3
:100C800008F05BBE05B030BDE40E0300CC0E0300DF
:100C9000C40E0300540F0300841B0300780F0300ED
:100CA000E90E030007B503460846197A052911D055
:100CB0005B7A2BB1094A0A49019008F03EFE01987F
:100CC0000849019008F039FE019803B05DF804EB83
:100CD00008F028BE002AF8D0F2E700BFE40E0300B7
:100CE000841B0300E10E03002DE9F04385B01F468D
:100CF0000C9D002395F80C902B7306460C469046ED
:100D000029463846FFF790FFB8F1060F09D8DFE80B
:100D100008F00412181F283340003146284608F016
:100D20000CFE002229463846FFF7BCFF85F80C90E0
:100D300005B0BDE8F08322683146284608F0FDFD85
:100D4000EFE7D4E900233146284608F0F6FDE8E74E
:100D5000A36800933146D4E90023284608F0EDFD4E
:100D6000DFE7E3680193A36800933146D4E90023E9
:100D7000284608F0E2FDD4E723690293E368019373
:100D8000A36800933146D4E90023284608F0D5FD36
:100D9000C7E76369039323690293E3680193A36838
:100DA00000933146D4E90023284608F0C6FDB8E791
:100DB00008292DE9F74F80460E4617461C463DD8B8
:100DC00000251B7B2573214610460193FFF72CFF5E
:100DD000DFF88CA0DFF88CB0AE4232D918F80520CD
:100DE0005946204608F0A9FD0135082DF4D11B49CC
:100DF000DFF874A0DFF874B0204608F09EFD4FF0D5
:100E000000094E4524D918F809507E2D1ED82846D1
:100E10000FF0C2FD002814BF2A462E225946204654
:100E200008F08BFD09F10109B9F1080FE9D10122A0
:100E300021463846FFF736FF019B237303B0BDE818
:100E4000F08F5146204608F078FDCDE72E22E5E7E9
:100E50005146204608F071FDE4E700BFFD0E030097
:100E6000F90E0300F30E0300FB0E0300FF0E030058
:100E7000074B1B5C1F2B8ABF064A4FF0A04203F0B2
:100E80001F03D2F80405D840C04300F001007047AA
:100E90008C0F030000030050074B1B5C1F2B86BF09
:100EA000064903F01F034FF0A041012202FA03F3A9
:100EB000C1F80C35704700BF8C0F030000030050D1
:100EC000074B1B5C1F2B86BF064903F01F034FF027
:100ED000A041012202FA03F3C1F80835704700BFB0
:100EE0008C0F03000003005008B50020FFF7E8FF57
:100EF0000120FFF7E5FFBDE808400220FFF7E0BF53
:100F000008B50020FFF7C8FF0120FFF7C5FFBDE8C7
:100F100008400220FFF7C0BF0A4B185C1F288ABF99
:100F2000094B4FF0A04300F01F00D3F80425012126
:100F3000814021EA02000A40C3F80805C3F80C25E5
:100F4000704700BF8C0F030000030050083818BF23
:100F50004FF0FF3070470000C20710B5044609D5B6
:100F6000084B0322C3F81C27C3F81827C3F810271F
:100F7000FFF7BAFFA30742BF4FF0A0430C22C3F80C
:100F8000202710BD00030050F8B50F4B002420228D
:100F90000F460D2183F88A201C7083F8784083F86F
:100FA0008C1022462346054621F002F9064650B130
:100FB000214628461BF013FF377029460348BDE839
:100FC000F84020F023BBF8BDB80C0020E925020052
:100FD00073B500220C460DF1070311468DF807206A
:100FE0001BF04CF838B90A4B9DF8075093F84310A2
:100FF0000246914202D86FF01B0005E0DE7BAE4254
:1010000003F10D0302D1227002B070BD0132F0E78E
:10101000B80C002037B5124C05461BF0BFFC2378F6
:10102000042B08D1427832B90E48294603B0BDE8F6
:1010300030401BF0EABB40880DF10701FFF7C8FF05
:1010400058B99DF8073008480D2202FB0344294691
:10105000637D0133637520F0D9FA03B030BD00BF62
:10106000B80C002021130000E91400000B4BD3F84A
:1010700001202AB983F87820114609481BF0C5BB26
:101080008C2A0BBF0722062283F8782083F8782069
:1010900007BF0022032100220221EEE7B80C002046
:1010A000890F000008B50022FF21094820F09CFDAF
:1010B0000022FF21074820F097FD752206480021F5
:1010C0000FF04FFD054B064AC3F8F82B08BD00BFD3
:1010D0006D10000015110000B80C0020683E0020C3
:1010E0009D16000010B50022084C0948114620F05A
:1010F0007BFD94F8440003F0B1FC00232022237010
:1011000084F88A2084F8783010BD00BFB80C002025
:101110001511000010B5044620B9BDE8104008487C
:101120001BF04EBBFFF7DEFF00230C2120461A46C2
:1011300021F03EF821460348BDE8104020F066BA91
:1011400015110000E925020008B50022FE2105481E
:1011500020F04AFDBDE808400348002201211BF0B1
:1011600054BB00BF6D100000890F000070B50C4B20
:10117000D3F845302BB11D7CD3F811200023AB42AE
:1011800001DB002070BDC3EB03141619145B84420D
:1011900002D1347A8C4201D10133F0E70120F1E72A
:1011A000B80C00202DE9F04F5A4F89B004460E4686
:1011B000E0791BF0F3FB90F80BA090F80C808346CD
:1011C000D044D4F80950454580F08E802B1D0BEBA0
:1011D0004303AA4594BF02210121B3F80590484674
:1011E000FFF7C4FF002800F086801C2130461BF06A
:1011F00069FDD7F809300546002B50D0217806A8A4
:101200001AF0C2FBA279D7F809B022444B465278B3
:1012100006A90220D847002841D16FF04402D4F833
:10122000093098456FD13B4F97F84A30002B66D074
:10123000B7F875204FF6FF739A4260D000252178E9
:1012400006A81AF0E3FB2B462A46012100953046FA
:1012500001F002FDB7F8751020F0C9F801464FF40F
:10126000827301F8015B0422CDE9023297F8443021
:101270000193A3790495234406AA5B780093304632
:10128000022301F071FCA379E17923480133A371B2
:1012900020F0BCF90023E37109B0BDE8F08F1C22F7
:1012A000002128460FF05DFC284621F037F997F819
:1012B00044302B72A5F80A90B7F875304FF6FF72DC
:1012C00099B2914212D1217805F10D001AF05CFB20
:1012D00003232B73A379234430465B786B750F4B44
:1012E0002672AB6110F00CFA002298E701222A73F3
:1012F000A5F80D30EEE70135C4F8095061E7304636
:101300001BF0ECFABFE7002AC6D00133C4F809305D
:101310004EE700BFB80C0020E9140000BD13000028
:101320002DE9F3415FFA81F8064640460D461BF071
:1013300035FB204CC1880746D4F8450000F0B1FFCA
:1013400003460DF107017888ABB1FFF741FE30BBD2
:101350009DF807300D2101FB03453146287668765C
:10136000A876E876284685F816800F30FFF71AFF32
:1013700002B0BDE8F081FFF72BFE074678B99DF873
:1013800007000D2303FB00444146637D0A480133F7
:10139000637520F03BF9002EEAD03D4600E016B11F
:1013A00030461BF09BFA002DE2D0E8B21BF096FA13
:1013B000DEE700BFB80C0020E91400002DE9FF476C
:1013C0001C2180461BF07EFC2F4B93F84320814666
:1013D00000251C46954215D32C4B1B687BB90DF09C
:1013E0007BF9014658B904230093CDF804804FF4EB
:1013F000BA7340F25B324FF0FF3020F089FE04B048
:10140000BDE8F087D97D414503F10D0311D10D23CE
:1014100003FB05430027DF7540461BF0D9FC064659
:1014200048B16FF073036370A770E77027710126EE
:1014300008E00135CEE701236070A070E0702071F4
:1014400084F84A300D2707FB054702A8F97B1AF0FC
:101450009BFAD4F809A0BAF1000F07D07B7D1F4496
:1014600002A9B9F80A303A7C30B2D0470D20454382
:1014700062190F359369414601336019936104B0D5
:10148000BDE8F047FFF78EBEB80C0020E44C00200A
:1014900070B50E460546014630461BF0A0FC8C2D6B
:1014A0000F4C03D1072384F8783002E0B5B984F8F3
:1014B00078502378052B06D194F8782000230C214E
:1014C000304620F075FE00232370202384F88A30F4
:1014D00031460448BDE8704020F098B80623E2E7A2
:1014E000B80C0020E92502002DE9F34105461BF068
:1014F00055FA0DF105014088FFF76AFD07460028FF
:1015000048D19DF80530264C0D2202FB0346717D23
:10151000307D884220D93144284691F8108003213B
:101520001BF08EFA078087700446F17B0DF10600F0
:101530001AF06CFABDF806301A49238084F802804C
:10154000284623F06FFFFF2803D129468A20FFF7A2
:101550009FFF02B0BDE8F081FF21022BF1730BD891
:1015600003FB022000F10F01C3F1030302305A43D1
:10157000214420440FF05CFA94F84330013BDBB285
:1015800084F8433033B9D4F801208C2A08BF0723EC
:1015900084F87830002DDCD028461BF09FF9D8E77E
:1015A000B80C0020151000002DE9FF47384C074605
:1015B0001BF0F4F994F800A0BAF1040F05465ED1CF
:1015C00040880DF10D01FFF703FD814600285CD135
:1015D0009DF80D800D2606FB08460DF10E00F17BEF
:1015E0001AF014FA2B793375042B86F815902AD942
:1015F000DFF8A490D9F8003003BB0DF06DF8014678
:1016000050B9337D40F25B32CDE900A34FF0FF309B
:1016100040F2B33320F07CFDD9F8003073B90DF0FF
:101620005BF8014650B90423CDE9003340F25B3248
:1016300040F2B5334FF0FF3020F06AFD0D2303FB7D
:10164000084304221A750D2202FB084302FB0844DA
:10165000197D2B1DC5F1FF2505F57F051034FC35DF
:10166000EA18914206D80B4839461FF0CFFF04B064
:10167000BDE8F08713F8012F04F8012BF0E76FF0B5
:1016800007003946FFF704FFF1E70020F9E700BF44
:10169000B80C0020E9140000E44C00202DE9F047CC
:1016A000604D2B78042B86B0064640F0B680D5F806
:1016B00001301C3304D100236B70AB70EB702B71C5
:1016C0001B2130461BF0FEFAB0F8017090F80BA019
:1016D00004A938461AF0FEFC044620B9524B93F890
:1016E000343E9B0614D5062130461BF0EBFA00234E
:1016F0004780078083804D49304623F093FDFF28C3
:1017000003D131468A20FFF7C3FE06B0BDE8F0875B
:10171000FF238DF80E302B78042B11D10DF10E0123
:101720003846FFF755FC70B195F84330032B04D8C9
:101730008DF80E30013385F843304FF0010903E096
:101740006FF00704F9E7A1469DF80E80B8F1FF0F8E
:1017500046D0B9F1000F41D000220DF10F03114620
:1017600038461AF08BFC0446002839D10D2303FBC0
:1017700008539DF80F20DA73187558750D2404FB73
:101780000854237D032B2ED8E218013382F810A0D1
:101790002375B9F1000F3CD0052130461BF050F9FC
:1017A0000023036003710D2303FB085547802B7D45
:1017B00003711F4B1B6863B90CF08EFF014640B9E3
:1017C00000904FF45F7340F25B324FF0FF3020F037
:1017D0009FFC314617481FF019FF96E7002CCDD02B
:1017E000314620B28FE7124B1B68002BD1D10CF091
:1017F00073FF01460028CCD1237D0193042300937D
:1018000040F25B3240F271334FF0FF3020F080FC49
:10181000BFE730461BF062F877E706B0BDE8F04757
:101820001BF05CB8B80C0020683E0020CD1800000A
:10183000E44C0020E914000073B50D460446FF2671
:101840000DF1060128468DF80660FFF7C1FB78B35D
:101850001C4A92F84330032B04D88DF8063001332C
:1018600082F843309DF80660FF2E24D000220DF14F
:101870000703114628468DF807201AF0FFFBD0B960
:10188000104B0D2202FB06339DF80720DA7302216C
:1018900020461BF0D5F80C490580204623F0DBFDDF
:1018A000FF2803D121468A20FFF7F2FD02B070BD68
:1018B0008DF80660D6E7002CF8D020461BF00EF815
:1018C000F4E700BFB80C0020A915000037B50446A6
:1018D0001BF064F8054620461BF07AFA024658B918
:1018E00069890DF10703A81C1AF0EEFC69892046EE
:1018F000FFF7A2FF03B030BD204603B0BDE8304083
:101900001AF0ECBF10B50D49A1F5BC72914201D897
:1019100000200FE08C1AE30F03EBE4035B1002EBF3
:10192000C30452F83330834205DC02DA04F10802C2
:10193000ECE7606810BD2146E8E700BF2014030013
:1019400008B5FFF7DFFF024B002808BF184608BDA7
:10195000951203002DE9F743DDF828801F46054660
:101960008946164601F096F9D0F8B030EBB101F097
:1019700091F9CDF80080D0F8B0403B463246494658
:101980002846A047044629464A46304603F0D0FA86
:1019900014F1450F05460CD150B142463146384648
:1019A0002B4603B0BDE8F04318476FF04404EAE764
:1019B0000446204603B0BDE8F0832DE9F041069FC0
:1019C00005461E4603F0CAFA044630B13A4631468F
:1019D00028462346BDE8F0411847BDE8F081B0F83D
:1019E0000F30B3F5A06F01D102F0A6BD7047002003
:1019F0007047F0B51B2189B005461BF063F901AAB9
:101A0000034600F11807164618685968144603C4BF
:101A10000833BB422246F7D119889B78A3702180F6
:101A200001F038F9D0F8AC704FB101F033F9D0F8CB
:101A3000AC309DF8100098476FF01E0017E001F0E1
:101A400029F9D0F89C30002BF6D0342128461BF021
:101A500039F91D2303709DF8103043704760044628
:101A600001F018F9D0F89C3028469847606801F0DA
:101A700065F931460246284603F00BFB09B0F0BD7C
:101A8000FF2810B5044606D101F004F9084BC0F850
:101A90005832012010BD1B211BF014F9C37C23B95F
:101AA000214604481FF0B2FDF3E70020F2E700BF33
:101AB00010010020F319000007B5054B0093002327
:101AC000044A0121184603F095F803B05DF804FBC1
:101AD000811A0000EF190000F8B50C4615460746BC
:101AE0001E4600F0CBFA0122002100F004FC90B168
:101AF000122301220021384601F0F5FE58B1436857
:101B0000187840B91EB1052C05D90B2C02D1032D34
:101B100001D00020F8BD0120FCE7000037B50146E8
:101B2000044600220F481AF070FE0546B8B10E4B6D
:101B30001B6873B90CF0D0FD014650B90423009323
:101B400001954FF49F6340F60F024FF0FF3020F0F5
:101B5000DFFA204603B0BDE830401AF0BFBE03B044
:101B600030BD00BF09260000E44C0020144AD2F822
:101B7000443913B51BB1D2F8483923B9012302EB1C
:101B80008303C3F84409D2F84039BBB9C2F840090D
:101B90000C481AF015FE044680B10B4B1B686BB95C
:101BA0000CF09AFD014648B90423009301947D236B
:101BB00040F60F024FF0FF3020F0AAFA02B010BD3D
:101BC000683E0020C9260000E44C0020F8B5124B06
:101BD000D3F8E83904460BB1007898470F4E2378C4
:101BE00033700025237C9D4202D3FF233370F8BD60
:101BF000D4F81130C5EB05173B44D3F80B3003B1D3
:101C00009847D4F81120B4F8011020783A4404F031
:101C1000D9FC0135E6E700BF683E00202001002026
:101C20002DE9F04F474B8FB0D3F84039069393F826
:101C300000C000235FFA83FEF44540F281809A00E1
:101C40000D92069AD2F8012052F823B002EB8301DC
:101C50009BF810200A920991002219E00131C8B2C4
:101C6000C0EB0011DDF824800C91C2EB02160B9042
:101C7000714658F8040B0590007C0890DDE90B05CF
:101C8000089C84420AD80131C9B28C45F1D1013295
:101C90000A98D1B28842E1D80133CBE7DBF8114092
:101CA000A7190797059FA45BD7F8119009EB050AC0
:101CB00039F80590A1453DD1079F9AF808A097F8FB
:101CC0000890D14536D1042C12D0192C10D0202CDC
:101CD0000ED040F20B77BC420AD040F20127BC4242
:101CE00006D0B4F5006F03D04FF65747BC4221D160
:101CF000154B1B6813BB0CF0EFFC0546F0B9114BFC
:101D00000D9AD3F84039D3F801309B58D3F81130ED
:101D10001E440146337ACDE901430823009340F67F
:101D20000F02D1234FF0FF3020F0F2F928460FB018
:101D3000BDE8F08F0130C0B20F35A1E70025F5E70F
:101D40000125F3E7683E0020E44C00204A2800F219
:101D50009780072805D84FF0FF3000E01020C0B270
:101D60007047A0F10803422BF5D801A252F823F0E6
:101D70007D1E0000E51E0000ED1E0000E91E0000B3
:101D8000F11E00002F1F0000F51E0000F91E0000CC
:101D90007D1E0000571D0000571D0000571D00004C
:101DA000571D0000571D0000571D0000571D000063
:101DB0007D1E0000E51E0000ED1E0000E91E000073
:101DC000F11E00002F1F0000F51E0000F91E00008C
:101DD0007D1E0000E51E0000ED1E0000E91E000053
:101DE000F11E00002F1F0000F51E0000F91E00006C
:101DF0007D1E0000E51E0000ED1E0000E91E000033
:101E0000F11E00002F1F0000F51E0000F91E00004B
:101E10007D1E0000E51E0000571D0000571D00003C
:101E2000571D0000571D0000571D0000571D0000E2
:101E3000E51E0000E91E0000F91E0000571D00000D
:101E4000571D0000571D0000571D0000571D0000C2
:101E5000571D0000FD1E0000FD1E0000111F0000A8
:101E6000571D0000571D0000571D0000571D0000A2
:101E7000111F0000571D0000111F000001206EE718
:101E800000F12003DBB2112B3FF665AFE0381128DB
:101E90003FF661AF01A353F820F000BFE91E000038
:101EA000E91E0000E91E0000571D0000571D00003C
:101EB000571D0000571D0000571D0000E51E0000C3
:101EC000E51E0000E91E0000571D0000571D000020
:101ED000571D0000571D0000571D0000F91E00008F
:101EE0005D1D000002203AE7042038E7032036E7B2
:101EF000052034E7072032E7082030E700293FF4C7
:101F00002AAF0878FF283FF426AF0130C0B226E799
:101F100048280B8801D0432806D14FF6FF72934220
:101F20003FF419AF981C1AE7980083B2FAE706202D
:101F300015E700BF034608464A2810B5114629D8C0
:101F400007282ED9A0F10802422A2AD8DFE802F099
:101F50002B2F3D33292929602B2929292929292992
:101F60002B2F3D33292929292B2F3D332937292987
:101F70002B2F3D33293729292B2F29292929292995
:101F80002929292929292929294343512929292965
:101F900051295100F12841D003D8E2280BD0F02874
:101FA00036D0184610BD0A7803F8012BF9E70A88E5
:101FB00023F8022BF5E70A6843F8042BF1E70A68D7
:101FC0001A608A889A800633EBE70A881A808A7832
:101FD0009A700333E5E70029E3D00C78FF2CE0D0BA
:101FE0000134E4B2184622460EF092FD0346234423
:101FF000D7E748280A8801D0432806D14FF6FF705A
:102000008242CED0023294B2ECE7920092B2F9E76B
:102010000A681A604A685A600833C2E71A4601F132
:10202000100051F8044B42F8044B8142F9D11033AF
:10203000B7E700002038C0B20D289ABF014B185CEA
:1020400000207047201403002D280FD81F2812D914
:1020500020380D280FD8DFE800F0070707070E0724
:102060000E0E070707070E0701207047A0F1E203D5
:1020700058425841704700207047000001461348FD
:10208000D0F8443970B5A3B11D780022AA4208D215
:10209000D3F8014054F8224026788E420BD001320A
:1020A000F4E70023D0F848491CB125780022AA4261
:1020B00003D3184670BD2346F4E7D4F8010050F866
:1020C000220006788E42F5D00132F0E7683E00200B
:1020D000F0B51B2189B004461AF0F4FD01AA0346AD
:1020E00000F11807164618685968154603C50833E5
:1020F000BB422A46F7D119889B78AB7029809DF89E
:1021000010703846FFF7BAFF9DF81A30BDF813205B
:102110009DF8171005463846FFF7DEFC20B920462B
:102120001AF0DCFB09B0F0BD05F0FEFC40B9D5F8B3
:102130000330EBB9204602F03DFF024650B9F1E70B
:10214000BDF8130004F02DFD48B19DF812301B07B7
:1021500005D47E223146204603F023F8E2E7BDF89D
:102160001310BDF8050004F0CDFC0028DFD1F0E726
:10217000074BD3F8F03B33B9D5F8033020469847E6
:102180000028D7D0CEE7304698470028D2D1F3E7D1
:10219000683E002000F52D3303F2A513F0B503F0DF
:1021A0000F020E4C13469E1C04EBC60595F84079B1
:1021B0003FB904EBC60484F84009C4F83C19002078
:1021C000F0BDD5F83C59002DF3D0013303F00F03D7
:1021D0009A42E8D16FF01500F2E700BF683E002098
:1021E000F8B500F52D3303F2A51303F00F02164ED8
:1021F000044613469D1C06EBC50191F84019A14207
:1022000019D120461AF0E4FD08B124F067FE06EB70
:10221000C507D7F83C0958B121461FF0F7F900204F
:10222000C7F83C0906EBC505002385F84039F8BD21
:102230006FF01B00F6E7013303F00F039A42D9D188
:102240006FF01B00F3E700BF683E002037B504467F
:102250000D46104619469DF81C30E4B16268D2B1B3
:102260003BB1E3785A0616D49B0702D4882003B00A
:1022700030BD069B00932A462388FFF76BFB411C69
:102280000BD0821D0BD0831CF0D010F1280F14BF8F
:1022900000207E20EBE78620E9E78720E7E70020A3
:1022A000E5E738B3D0F815300BB3B0F80100814240
:1022B0001FD0B1F5827F1AD06FF480734FF6FF7292
:1022C000CB1891429BB209D1B0F5827F11D04CF26C
:1022D0005E03984214BF0020012070474CF25E025A
:1022E000914202D1B0F5827FF4E7072BFAD90020A2
:1022F000704701207047F0B598B1077C0023BB42BE
:1023000002D300242046F0BDD0F81160C3EB0315C2
:102310007419755B8D4202D1257A9542F2D0013352
:10232000EDE70446EEE700002DE9F04F87B0804668
:10233000DDF840900C4615461E4601F0D4FA824660
:10234000002800F08280B9F1000F7ED09DF8443063
:102350002246CDE9009341462B46FFF777FF07461B
:1023600090BB33462A4621464046CDF80090FFF701
:1023700024FB49469AF80200FFF7E8FC0246DAF827
:1023800004000EF0C5FB9AF80330590705D5334613
:102390002A462146404603F0A5FF9AF803301A0763
:1023A00012D52B4B0493049B53F804BB0493BBF14D
:1023B000000F09D04FF0000A9BF800309A4507D370
:1023C000244B049A9342EED1384607B0BDE8F08F13
:1023D0004FEA8A030593DBF8013053F82A000378AB
:1023E00043452FD02A462146FFF785FF0028E3D03A
:1023F000314601F079F903900028DDD0DBF8013097
:10240000059A9B5821461878CDF800902A46334605
:10241000FFF7D3FA039B49469878FFF797FC039B95
:10242000024658680EF074FB039BDB785B0709D506
:10243000DBF80130059A98582146007833462A4641
:1024400003F050FF0AF1010AB6E70127BCE700BF1D
:10245000AC470020B44700202DE9F84F07EE903A32
:10246000244F0546884691464FF0000B57F8046B01
:10247000002E39D0002D3AD03278002423469A42DB
:1024800004F1010401D86DB12BE0D6F8011051F828
:1024900023301B78AB42F1D10025F4E74A46414690
:1024A00011E001343378A3421BD9D6F80130B9F1D9
:1024B000030F53F824A0F1D1012241465046FFF703
:1024C0001AFF28B902225046FFF715FF0028E8D06E
:1024D00017EE901A5046FFF7E4FE0028E1D09AF874
:1024E00000B0054BBB42C1D15846BDE8F88F2C4621
:1024F000C9E700BFAC470020B447002037B51B2117
:1025000005461AF0DFFB037BFF2B044630D1037D29
:10251000B0F80F10002B08BF0122B0F8113018BF1F
:1025200002220020FFF798FF28B9284603B0BDE833
:1025300030401AF0D3B920730022114829461AF00E
:1025400064F90446D0B10F4B1B68002BEDD10CF0A1
:10255000C3F801460028E8D104230093019440F217
:10256000525340F60F024FF0FF301FF0D1FDDCE771
:10257000284603B0BDE83040FFF7AABD03B030BD28
:1025800009260000E44C0020F0B58BB004461B2265
:10259000002103A80EF0E5FA03A9204602F0B4FAE0
:1025A00003A902460190204613F0A4FF20BB204659
:1025B0001AF0F4F9037813F0040F14BF0521032176
:1025C00020461AF0B5FA1B2120461AF07BFB019A2F
:1025D00003AD034609AF2E4603CEBE4218605960D4
:1025E000354603F10803F6D13088B1789970188028
:1025F00022B92046FFF782FF0BB0F0BD03A92046A9
:1026000002F0CFFDF8E700002DE9F041CDB207461A
:102610001B2128461AF056FB0446294638461AF074
:10262000DEF994F80C80124E1EF0BAFE3946B0FB6B
:10263000F6F6104832461FF00FF9237DB4F80F105C
:10264000002B0CBF01220222B4F811304046FFF7E4
:1026500003FF20B92846BDE8F0411AF03FB92073C6
:10266000324629460448BDE8F0411FF0F5B800BFE6
:102670007CF0C107D12000001D1B00002DE9F84FA0
:10268000104C06460A4604F1080A4FF0000854F8B8
:10269000047B8FB197F800B00025AB450AD9D7F875
:1026A000013053F8259031464846FFF724FE30B1FB
:1026B00099F800805445EAD14046BDE8F88F0135CD
:1026C000EBE700BFAC47002013B50446B8B9144887
:1026D0001AF076F8044680B1124B1B686BB90BF008
:1026E000FBFF014648B9042300930194402340F6C0
:1026F0000F024FF0FF301FF00BFD02B010BD0121A3
:102700002020FFF7BBFF0146204621B102B0BDE803
:10271000104003F051BA02B0BDE810401AF0DEB824
:10272000C9260000E44C0020F0B50E4D00244FF601
:10273000FF7155F8042B72B1177800239F4209D915
:10274000D2F8016056F8236096F800C0844506D19F
:10275000B6F801100CB10846F0BD0124E9E70133D9
:10276000ECE700BFAC47002038B504460D46FFF744
:10277000DBFF44B1B0F5827F05D14FF65743EB1A2A
:102780005842584138BD0020FCE700002DE9F84FC1
:10279000114C06460A4604F1080A4FF0000854F8A6
:1027A000047B37B197F800B000255D4504D354454C
:1027B000F5D14046BDE8F88FD7F8013053F82590A1
:1027C00031464846FFF797FD10B1037A934201D096
:1027D0000135EAE7C846EAE7AC47002038B51B21D7
:1027E0001AF070FA0446007BFFF748FC257DB4F828
:1027F0000F10002D0CBF01220222FFF77CFD124AB0
:10280000127A012A034614D0217EA27D61B1002AEA
:1028100014BF84208320A3B1012D0CD11B7A13F0A7
:10282000020F18BF002038BD002A0CBF8120822073
:10283000F1E78120EFE7002DF5D11B7A13F0010FAE
:10284000EFE7C320EFE700BF380C002000687047B7
:102850002DE9F0470D4610211746984606469DF88B
:1028600020A0DDF824901AF02DFA0446304615F029
:10287000C3FF9523032F236084F80EA084F80480FF
:10288000677101BF2B68C4F806306B68C4F80A3062
:1028900018BFE58031464846BDE8F0471EF0B6BE99
:1028A000A1F5E0630B2B04D9A1F500635842584110
:1028B00070470120704700002DE9F04F2DED028B8D
:1028C0008BB08A4606931821BDF8583004920593C0
:1028D00006461AF0F7F9044630461AF05FF8237BF3
:1028E00094F80DB0B4F80A908178E77B08EE103ABE
:1028F000037813F0030F80460CBF012300234A46E0
:102900005846FFF7E9F80546B0B9049B73B1CDE925
:1029100000B33A4618EE103A21463046FFF798FFCA
:1029200028460BB0BDEC028BBDE8F08F304619F0A5
:10293000D5FF6FF00705F3E720894946FFF7B0FFA1
:102940000546BAF1000F17D0514630461AF0CDF8BF
:10295000079030461AF02CF8079B83420CD9514659
:1029600030461AF0C2F8824630461AF021F8AAEB37
:10297000000130461AF0B6F9012F11D0E37B022B8B
:1029800004D122884FF6F7739A4209D8484604F0DA
:10299000EDF828B1069B1BB9237C43F00403237494
:1029A0001DB1237C43F0080323740EF0C1FD0546DE
:1029B000002859D105F0B8F8002855D0484604F051
:1029C000F0F8002850D0022FCDE908553AD0032F57
:1029D0003ED0002F08BF002518BF6FF0270505F077
:1029E000A3F8002839D0002F37D045B908A80EF039
:1029F000C9FD20B1022108A824F066FE80BB584B17
:102A00001B6873B90BF068FE014650B904230093AC
:102A100040F60F03CDF804901A464FF0FF301FF038
:102A200077FB6FF02705049B002B3FF479AFCDE9CE
:102A300000B33A4618EE103A21463046FFF708FF39
:102A400000256DE7208808A919F044FB051EC3E79F
:102A50002068616808AB03C3C1E7002DCFD1C9E787
:102A6000237C43F00103237449465846FFF77CFE5C
:102A700058B10023022FCDE908331ED0032F51D0C7
:102A80003FBB237C43F00103237404993046FFF7D6
:102A900081FB05460028C6D1304619F07FFF037838
:102AA000DB0602D4012024F0CBF9059B002B51D189
:102AB00031462C481EF0AAFD32E7208808A919F0FB
:102AC00009FB054630B9022108A824F0FDFD0028C5
:102AD000D7D10025224BD3F800A098F802300B2B59
:102AE00025D198F800305A0721D198F80430012BED
:102AF0001DD1BAF1000F12D10BF0EEFD014670B9F5
:102B0000CDF8089098F8033001930823009340F61D
:102B10000F0240F657034FF0FF301FF0F9FA002D77
:102B200081D1B2E72068616808AB03C3CBE7BAF193
:102B3000000F7FF476AF0BF0CFFD00287FF471AF6C
:102B400004230093CDF8049040F65E0340F60F0294
:102B5000514662E7059A034831461EF07DFEDFE6E6
:102B6000E44C0020912F01002DE9F74F1D469DF800
:102B7000303001930F46BDF83C3000931821904649
:102B80009DF834B0BDF838A0DDF8409006461AF044
:102B900099F81822044600210DF0E3FF032D0CBF25
:102BA000082202224146E57320460DF0B1FF019B49
:102BB0002373009B63814A4600233946304684F8DC
:102BC0000DB0A4F808A00C9303B0BDE8F04FFFF7D8
:102BD00073BE2DE9F04F87B01D46BDF84830019314
:102BE000BDF84C3002939DF8543003939DF8583053
:102BF00005930F46BDF85C300493182190469DF86C
:102C000040B09DF844A0DDF8509006461AF05AF8FE
:102C10001822044600210DF0A4FF032D0CBF08224A
:102C200002224146E57320460DF072FF019B23818D
:102C3000029B6381039B2374049B84F80CB084F88B
:102C40000DA01093059B4A463946304607B0BDE8B3
:102C5000F04FFFF731BE0000F7B5089F01920C4618
:102C60001E4619F027FF0A4B00F8014B93F83C5918
:102C700001996A1C14F0040F83F83C2901D01EF05E
:102C8000B6FB05704670023007B13D7003B0F0BD71
:102C9000683E002000487047A44700200048704765
:102CA000380C002002289DBF024B187000206FF0E6
:102CB00005007047380C0020014B187A704700BFA0
:102CC000380C002001289DBF024B187200206FF0C5
:102CD00005007047380C0020174B1B7853B393281E
:102CE00013D8802826D9A0F18103122B22D8DFE83F
:102CF00003F00A0A0A0A21212121211E2121212172
:102D00001C1A1A201A0081207047C22811D006D838
:102D100000F14003DBB2012B98BF01207047C428AB
:102D200008BF00207047012070477E2070470020B8
:102D300070477F20704700BF380C002010F10A0F49
:102D400010D010F1090F0ADA10F11F0F0CD0173054
:102D50000CD0074B187A012818BFC02070470028F4
:102D6000F7D1704785207047812070478720F8E7AA
:102D7000380C00202DE9F04788B00746ADF81E104A
:102D800019F098FE082303700446FFF783FF0378C9
:102D9000DFF8B490DFF8B4A099F800805A1C0270F4
:102DA00063700A23A3700334B8F1050F37D80122EA
:102DB0003AF818301146C42000F095FD064610B3CD
:102DC00001214CF25D20FFF76BFD2146F0B1384642
:102DD00019F08BFEC0F5CA6301339DB27168B078FB
:102DE000FEF7B4FF0330854217D3318820461EF02A
:102DF000FEFAB17800F8011B7268FFF79BF8002318
:102E0000044689F8003008F10108CDE7384619F08A
:102E10006CFEC0F1520085B2E0E789F80080012322
:102E20000022CDE903324CF25D21C423CDE901310A
:102E300000930DF11E02022321463846FFF794FE4F
:102E400008B0BDE8F08700BF450C00202E14030039
:102E5000064A127803462AB1032A03D04FF6FC71C2
:102E6000FFF788BF184619F039BD00BF460C002097
:102E700038B5044620B9BDE83840204819F0A0BC58
:102E80001F4D2B7893B3032B30D00122082311461A
:102E9000C42000F028FD436819884FF6FF7399425B
:102EA000204620D1FFF7D4FF0022144811461EF01F
:102EB0009BFE2B78022B20D101231A461946C420F1
:102EC00000F011FDB0B1436818880F3880B21EF0D1
:102ED00051FA0F3080B242224243BDE838400748E1
:102EE00000211EF0B9BCFFF745FFDDE7204619F0D1
:102EF000F5FCD9E74FF49670E7E738BD712E000076
:102F0000460C002073B5254D0E46044650B92A786C
:102F1000002A40D1224801232B7002B0BDE8704046
:102F200019F073BCFFF7B6FED0F89C305BB33421C8
:102F300020468DF8046019F0C5FE342200210DF002
:102F400010FE3421204619F0BDFE652303703421A4
:102F5000204619F0B7FE002646603421204619F0BD
:102F6000B1FE34218660204619F0ACFE01ABC3608F
:102F70003421204619F0A6FE0661FFF78BFED0F83B
:102F80009C3020469847002320462B7002B0BDE8B5
:102F9000704019F0A3BC02B070BD00BF470C002008
:102FA000052F000010B510B90F4B187010BD012887
:102FB000FCD10E4B19780129F8D10B4C2278012A4B
:102FC00009D80B4819F0FCFB0A4819F0F9FB2378E3
:102FD00001332370EAE7032200201A702070BDE855
:102FE0001040FFF78FBF00BF440C0020460C0020AC
:102FF0003D300000512E0000002208B50D4811465A
:103000001EF0F2FD0C4B1B78022B12D1012211464F
:10301000C42000F068FC48B143681B880548422280
:103020005A430021BDE808401EF016BC4FF49673C9
:10303000F4E708BD3D300000460C002070B50446A2
:1030400088B028B9224808B0BDE8704019F0B8BB74
:10305000204B1B78BBB3032B35D016F0D1FAADF85B
:103060001E00204619F026FD002606700546FFF7D3
:1030700011FE03785A1C027008216B70AE70E81CB8
:103080001EF0B5F909211EF0B2F90A211EF0AFF9C0
:1030900001254CF25D23CDE90235C4230146CDE97B
:1030A00000330DF11E02049602232046FFF75CFD5B
:1030B000094840F2BC7229461EF0CEFB08B0BDE8BC
:1030C0007040FFF799BF204619F008FCF6E700BFF3
:1030D0003D300000460C0020A52F00002DE9F743ED
:1030E0000022FF21054635481EF07EFD1FF066FADE
:1030F000074630B1DFF8D08098F800300BB1032BD1
:1031000005D1284603B0BDE8F04319F0E7BB4FF006
:103110000009284619F04CFC02283AD9284619F033
:103120003DFC0446A8B38078FFF7D6FDA07008BB2D
:10313000E078211DFEF70AFE061D2846F6B219F0BA
:1031400037FC284619F034FC864222D831462846FE
:1031500019F0EEFCA278002ADBD12388082B0BD1D2
:1031600001920434012200941146C420FFF7DCF8D8
:10317000B946CEE70326E4E7092BF1D00A2BC8D1E4
:1031800001920434012200941146C420FFF7CCF8C8
:10319000BFE7B9F1000FB4D0094B0021197098F8BE
:1031A0000030012BADD1022340F2DE32054888F811
:1031B00000301EF051FBFFF71FFFA2E7A52F000014
:1031C000440C0020712E0000460C002070B505460E
:1031D00019F0E4FB90F84B30184CC3B90346224673
:1031E00000F1200153F8046B42F8046B8B42F9D1D3
:1031F000198811809B781249937000F1230200F125
:103200004B0352F8040B41F8040B9A42F9D1D4F85D
:103210004B0070B194F84F101EF0F8F9002384F8B9
:103220004F3084F84B3084F84C3084F84D3084F8BB
:103230004E302846BDE8704019F050BB480C0020C5
:103240006B0C002070B5094CD4F84B3005460E4687
:103250004BB907488F2121F0D9FC18B9C4F84B604D
:1032600084F84F5070BD6FF00300FBE7480C00205E
:10327000CD3100002DE9F04F1B2189B0834619F0B4
:1032800021FD054690F813A0584619F087FBBAF1C6
:10329000150F82780CBF14231B239A4288BF8370BA
:1032A0008046FFF7F7FC407819F004FC2B7E2A7D5E
:1032B000002B14BF04230023002A0CBF0822002285
:1032C0001343044643F0100304F8013B2B7E2BB15B
:1032D0002046B5F819101EF08AF804466B7D23705D
:1032E000BAF1150F0CBF16230D236370287BFEF770
:1032F000C5FE2B7DB5F80F10002B0CBF012202225A
:10330000FEF7F9FF00274368A7704188024681B1A4
:10331000E61CB9465188F8B20139814203D998F8C0
:1033200002C0CC452FD881428CBF00210121A17061
:103330000EE04FF6FD73A4F803302123BAF1150F08
:1033400063714FF0010312BFA61DA371E61DA370A8
:10335000FFF7A0FC002340780493B5F80F300393E7
:10336000B5F8113002932B7B0193EB7A00936A1C22
:1033700002233146FFF7F8FBFFF78CFC80F801B021
:1033800009B0BDE8F08F1888B8F800C081B28C454C
:1033900027D8000425D4BAF1150F0BD195F818C021
:1033A00001F48040BCF1000F02D018B90137B1E739
:1033B0000028FBD13046CDE906321EF018F8069BF6
:1033C000079A99780170BAF1150F08BFD97809F1F9
:1033D000010909BF01F00301461C4170861C5FFA18
:1033E00089F90833E2E72DE9F04707460D46904694
:1033F00019F0CAF90646002857D0298842463846AF
:10340000FEF7EDFAFFF746FCD0F89C30F3B134211B
:10341000304619F057FC69680446A878FEF796FC18
:10342000AB784A2B814616D8402B08D9413B012264
:10343000DBB202FA03F340F2872213420DD14A466F
:10344000414604F10C000DF063FBCCB93046BDE8F9
:10345000F04719F043BAF12BF1D14946304619F043
:10346000EFFA34218246304619F02CFC04464A46D5
:10347000414650460DF04CFB84F80C90C4F810A067
:10348000002323703B7B6370AB78A370B7F80F30D9
:103490006A7823812B7843EA02236381FFF7FAFBE2
:1034A000D0F89C3030469847D0E7BDE8F087000060
:1034B00010B507490446FFF7C5FE043006D1214682
:1034C0000448BDE8104000221EF0C6B910BD00BF80
:1034D0000B370000B134000038B5044608464A28CE
:1034E00011461D4600F29080072801D8204638BDBD
:1034F00008384228FAD801A353F820F06D360000AE
:1035000075360000913600007D3600009D360000C3
:1035100085360000A9360000C53600006D36000073
:10352000ED340000ED340000ED340000ED34000017
:10353000ED340000ED340000ED3400006D36000085
:1035400075360000913600007D3600009D36000083
:1035500085360000A9360000C53600006D36000033
:1035600075360000913600007D3600009D36000063
:1035700085360000A9360000C53600006D36000013
:1035800075360000913600007D3600009D36000043
:1035900085360000A9360000C53600006D360000F3
:1035A00075360000ED340000ED340000ED3400000D
:1035B000ED340000ED340000ED34000075360000FD
:1035C0007D360000C5360000ED340000ED3400000B
:1035D000ED340000ED340000ED340000ED34000067
:1035E000B9360000B9360000B9360000ED340000ED
:1035F000ED340000ED340000ED340000B936000079
:10360000ED340000B936000000F12003DBB2112BCD
:103610003FF66CAFE03811283FF668AF01A353F8CE
:1036200020F000BF7D3600007D3600007D360000B2
:10363000ED340000ED340000ED340000ED34000006
:10364000ED34000075360000753600007D36000050
:10365000ED340000ED340000ED340000ED340000E6
:10366000ED340000C5360000D1360000137804F8B0
:10367000013B3BE70B8824F8023B37E70B6844F833
:10368000043B33E7136823609388A38006342DE757
:10369000138823809378A370033427E7136823608B
:1036A00013792371053421E7136823609388A3807D
:1036B0009379A371073419E720462A460DF028FABA
:1036C0002C4413E70B6823604B68636008340DE7F4
:1036D000234601F1100251F8040B43F8040B914208
:1036E000F9D1103402E700BF10B50346406800224C
:1036F00000B910BD04888C42FBD05C880132944232
:1037000000F10800F4D80020F3E72DE9F04F2DED8B
:10371000028B1B218DB0074619F0D4FA437B054676
:10372000C3F34013007B0893FEF7A8FC2B7DB5F88C
:103730000F10002B0CBF01220222FEF7DCFD08EE69
:10374000100AFFF7A7FA407819F0B4F92B7E2A7D0A
:10375000002B14BF04230023002A0CBF08220022E0
:10376000134343F0100300F8013B2B7E1BB1B5F867
:1037700019101DF03CFE6B7D037001234370841C07
:10378000384619F00BF90990384619F011F9430839
:103790000A934FF000080A9A5FFA88F393424AD2DC
:1037A000099A32F813B01FFA8BFA514618EE100A34
:1037B000FFF79AFFB5F80F100646B5F81100FFF7AE
:1037C0006FF8D8B1FFF766FA2146407819F08DF905
:1037D000C0F5CA6909F10109CEB94FF6FD739A45E2
:1037E0005FD12123A4F800B0A670E3700121201D51
:1037F0001DF0FDFD044608F10108CCE7FFF74AFA89
:103800002146407819F071F9C0F15209E4E7716876
:10381000002946D0F37813F0400B42D1DA072AD4BE
:103820009B0740D5FFF748FA01280CBF7E268F265C
:10383000B9F1020F3BD8FFF72DFA089A4078002320
:10384000CDE90432CDE90633B5F80F300393B5F86E
:10385000113002932B7B0193EB7A00936A1C0223B5
:103860002146FFF7B6F9FFF715FA47700DB0BDEC2A
:10387000028BBDE8F08FB078FEF768FA011D89452C
:1038800013D331880B9020461DF0B1FD80F800B0B5
:10389000B1780B9B417072689BB20230FFF71CFE3F
:1038A000A8E78626C4E70126C2E78926C0E72046A6
:1038B00051461DF09CFD044604F8016B9BE710B5D2
:1038C0001B21044619F0FEF9B0F80F2040F605332D
:1038D0009A42204603D1BDE81040FFF7E9BDBDE89C
:1038E0001040FFF712BF13B51C46CDE90021FEF7CB
:1038F000C5FBDDE90021FEF7FEFC214602B0BDE874
:103900001040FFF7F1BE2DE9F04F2DED028B1B218A
:103910008DB0834619F0D6F90446007BFEF7AEFB66
:10392000237DB4F80F10002B0CBF01220222FEF7FA
:10393000E2FCE37C052B08EE100A79D0FFF7AAF928
:10394000407819F0B7F8237E227D002B14BF0423A2
:103950000023002A0CBF08220022134343F0100367
:1039600000F8013B237E1BB1B4F819101DF03FFD98
:10397000637D037004234370851C584619F00EF8CC
:103980000646584619F014F8002309900A934FF0A0
:10399000010A9DF828300B93099B032B55D9002E63
:1039A00057D0B078F11CFEF7D1F90330C3B20893B9
:1039B0003746DDE90832934200F2FB80002F00F029
:1039C000F880398818EE100AFFF78EFE804600282E
:1039D00041D14FF6FD7A514514BF4FF086094FF0A3
:1039E0008809E37C052B20D025B3B4F80F10B4F878
:1039F0001100FEF755FF002869D0FFF74BF9294663
:103A0000407819F072F8C0F5CA600130022894BFFE
:103A10004FF0000A4FF0010ABAF1000F0BD085F801
:103A200000903B88A5F8013003354FF0000A02E012
:103A30000025A2E7AA46089B1E44DDE908239B1A3D
:103A400009930A9B01330A93A3E70027FF230893F6
:103A5000AFE73746FAE74368002B32D08278BB786D
:103A60009A4231D1237DB4F80F20217B002B07F13E
:103A700003030B934FF00103019307F1030300933A
:103A80000CBF01230223FEF7E1FB81460028A8D1E9
:103A9000E37C032BCFD0237DB4F80F10207B0022D2
:103AA000002BB8F8003001920B9A00920CBF012253
:103AB0000222FEF739FC0B9A41462046FFF793FCA1
:103AC000B9E74FF086098CE74FF08D0989E7FFF7DA
:103AD000E1F82946407819F008F8C0F1520095E75E
:103AE0000026FF207FE03E46FBE7E37C052B58D015
:103AF000BAF1000F05D015B30B9B03B3002305F8F3
:103B0000013BBBF1000F43D0FFF7C4F8002340781E
:103B1000CDE90633627BC2F34012CDE90432B4F83A
:103B20000F300393B4F811300293237B0193E37AAF
:103B30000093621C02232946FFF74BF828E0FFF7A9
:103B4000A9F8407818F0B6FF237D002B0CBF18238E
:103B500010230370637D43700B238370E37CC37079
:103B6000802303710546FFF795F8002640780496F8
:103B7000B4F80F300393B4F811300293237B019310
:103B8000E37A0093621C0223691DFEF7EDFFB34642
:103B9000FFF780F880F801B00DB0BDEC028BBDE8F6
:103BA000F08F58460DB0BDEC028BBDE8F04F18F019
:103BB00095BEE37C032B98D1BAF1000FA1D05846F3
:103BC00018F0ECFE0746584618F0F2FE8046B8F1B1
:103BD000030F85D9002F86D0B878F91CFEF7B6F808
:103BE0000330C0B23E4640453FF67FAF0744A8EBE6
:103BF0000008002E3FF479AF36F8031B18EE100AC8
:103C0000FFF772FD237DB4F80F108146002B4FF0B3
:103C10000002207BB9F80030CDE900620CBF012220
:103C20000222FEF781FB324649462046FFF7DBFBC6
:103C3000CDE700002DE9F04F1B2189B0804619F037
:103C400041F80546FFF726F8407818F033FF2B7E41
:103C5000002B14BF1C23182300F8013B2B7E1BB143
:103C6000B5F819101DF0C3FB6B7D03700923437079
:103C7000841C287BFEF702FA2B7D0690002BB5F8FA
:103C80000F100CBF01220222FEF735FB8146404691
:103C900018F08EFE022840F2B080404618F07EFEFA
:103CA000002800F0AA8090F800B0B0F801A003212D
:103CB000404618F03DFFB5F80F10B5F81100FEF7BB
:103CC000EFFD002839D0FEF7E5FF2146407818F0D7
:103CD0000CFFC0F5CA60013086B2032E40F28D8021
:103CE00051464846FFF700FD074600287AD0436852
:103CF000002B77D0C3785B077BD5069899F808200E
:103D0000B9F800100078534602F0D8F9079000285F
:103D100071D0092E71D90022227084F801B0A01C44
:103D200051461DF064FB079B0446BBF1000F0DD00C
:103D3000BBF1010FABD1198A3CE0FEF7ABFF214686
:103D4000407818F0D2FEC0F15200C5E7BA7800F80A
:103D5000012B5A8A198A07931DF055FB0446B8783F
:103D6000FEF772F9002892D0BA78079B203A0B2A06
:103D70008DD801A151F822F0A93D0000B13D00000D
:103D8000C53D0000D13D00008F3C0000D93D000042
:103D90008F3C00008F3C0000A93D0000BD3D0000AD
:103DA000C53D0000D13D00001B7D04F8013B6EE7DE
:103DB000998A20461DF01BFB044668E79B8A24F87D
:103DC000023B64E79A8A22809B7DA37003345EE7FE
:103DD0005B6944F8043B5AE75A6922601B8BA38055
:103DE000063454E78623237084F801B05146A01CA2
:103DF000E0E78C23F7E78B23F5E7FEF74BFF002383
:103E000040780493B5F80F300393B5F8113002935E
:103E10002B7B0193EB7A00936A1C02232146FEF769
:103E2000A3FEFEF737FF80F8018009B0BDE8F08FF0
:103E30002DE9F04F2DED028B1B218DB0074618F0B8
:103E400041FF0546007BFEF719F92B7DB5F80F10F1
:103E5000002B0CBF01220222FEF74DFA08EE100AD9
:103E6000FEF718FF407818F025FE2B7E002B14BFBC
:103E70001C23182300F8013B2B7E1BB1B5F8191049
:103E80001DF0B5FA6B7D03704FF0000B0723DFF8D0
:103E9000F8A14370841CD846384618F089FD0428E0
:103EA00046D800264FF0FF09384618F081FD8145BD
:103EB00000F2C2804946384618F03AFE002E00F063
:103EC000BB80B6F8011018EE100AFFF70DFC33782E
:103ED00008F10108002B5DD1002846D14FF6FD7B8B
:103EE000594514BF4FF0860B4FF08C0BB5F80F10EF
:103EF000B5F81100FEF7D4FC002800F09480FEF71E
:103F0000C9FE2146407818F0F0FDC0F5CA630133C0
:103F10009BB2032B09D984F800B033786370A01CDE
:103F2000B6F801101DF063FA04464FF0010BB3E739
:103F3000384618F033FD06460028B2D00378012B2E
:103F40000DD0C078FEF780F860B1F078FEF772F817
:103F500008305FFA80F9384618F02AFDA4E74FF0E0
:103F60000509A1E74FF008099EE74368002B4ED0F2
:103F70008378412B4BD003F0FD02482A47D0C2780A
:103F8000520747D5F2789A4247D1F38813B1B288E5
:103F90009A4245D82B7B8DF824302A7CEB7B43EA70
:103FA0000223ADF82A30EB7A8DF82530AA786B78A9
:103FB00043EA0223ADF826306B7CAA7C43EA022355
:103FC000ADF828302B7D002B0CBF0123022309A95B
:103FD00030468DF82C3002F035FB00283FF45CAF02
:103FE000DAF8002082B907900AF076FB079B0146B9
:103FF00050B901930423009340F6120240F2D443D7
:104000004FF0FF301EF084F84FF0010B6EE74FF0D9
:10401000860B6BE74FF08C0B68E74FF08D0B65E775
:104020004FF0870B62E7FEF735FE2146407818F027
:104030005CFDC0F152036BE7B8F1000F1ED1802385
:1040400004F8013BFEF726FE002340780493B5F800
:104050000F300393B5F8113002932B7B0193EB7A69
:1040600000936A1C02232146FEF77EFDFEF712FE36
:1040700047700DB0BDEC028BBDE8F08FBBF1000FB7
:10408000E0D104F801BBDDE7E44C00202DE9F04F5E
:10409000C388027989B08946074641884078FFF78E
:1040A00022FC90F803A0484618F004FD0AF0200511
:1040B000CAF3401A4FEA8A0343F008030446037028
:1040C000002D6FD07878FDF7D9FF3A797988FEF71F
:1040D00012F9B0F80910601C1DF089F90446FEF7CA
:1040E000D9FD03785A1C027023700A2363700234CE
:1040F000B84640F2516BB8F8063098F80420B8F88A
:10410000021098F80100FFF7EEFBB8F8021006461F
:10411000B8F82C00FEF7C4FB214600284CD04846D6
:1041200018F0E3FCABEB000085B27168B078FDF7E6
:104130000DFEC21C954207901FD3318820461DF00A
:1041400056F9B17800F8011B079B72689BB2FFF724
:10415000C3F931460446404602F08AF898F8083020
:1041600023F0160343F0200388F808305146384600
:1041700001F0FAFF80460028BDD1124B04937B88E2
:104180000393BB8D02937B78019397F82A300093B9
:1041900007F12802002321464846FEF7E5FC09B056
:1041A000BDE8F08FFEF776FD03785A1C027063704D
:1041B0000A23A37003349BE7484618F096FCC0F12D
:1041C0005200B1E7856700002DE9F04190B000236F
:1041D0000E461B210893044618F074FD09AA0346F5
:1041E00000F1180C174618685968154603C50833BE
:1041F00063452A46F7D119889B78AB702980204601
:1042000018F0D6FB022807D085223946204600F058
:10421000F9FE10B0BDE8F081204618F0BFFB9DF814
:104220003C3090F800804778002B5AD0FEF732FDE2
:10423000D0F8F030002B6BD0FEF72CFD08ABCDE9A9
:104240000063BDF83320D0F8F050BDF83D309DF844
:1042500030109DF83800A8470546512F204628BF4A
:10426000512718F027FC9DF83C309DF83820002B92
:1042700014BF04230023002A0CBF0822002213438A
:1042800043F0100300F8013B9DF83C301BB1BDF832
:104290003D101DF0ACF89DF839300370002E14BFAE
:1042A00012231423437000238370C11C1A46DEB20C
:1042B000B5426AD80123837000230493BDF83330DC
:1042C0000393BDF8353002939DF8303001939DF88B
:1042D0002F3000930DF1250202232046FEF744FC07
:1042E00097E7BDF833109DF830009DF838500791DE
:1042F000FDF7C4FE60B1002D0CBF01220222079918
:10430000FDF7F9FF20B12DB9037A13F0010F07D1A2
:104310000025A2E7012DFBD1037A13F0020FF6E787
:104320009DF83830BDF833109DF83000002B0CBFDD
:104330000122022200F0E6FD03460028E8D0FF201B
:1043400098470028E4D086B1FEF7A4FCD0F8583294
:104350001D78FEF79FFCD0F858325B680893FEF793
:1043600099FC0023C0F8583277E7FEF793FCD0F8A9
:1043700058321D7AFEF78EFCD0F85832DB6808936D
:10438000FEF788FCC0F8586267E7089EF65CB04507
:1043900005D80132D2B2974201F8016B8CD90133B2
:1043A00085E7000037B51B21054618F08BFCC37C60
:1043B0000446162B65D8DFE803F00C113B3B283B85
:1043C000432847673F4F4B676464645D6762674B90
:1043D00067002846FFF773FA012426E0334BD3F831
:1043E000F43BB3B9B4F80F300A2B04D1284603F0DC
:1043F000D3FA0028F0D11B21284618F063FCB0F84E
:1044000011204CF25D239A4208D0284618F066FA33
:10441000E2E7284698470028E4D0DDE7B0F80F40EF
:10442000012CF2D12846FEF759FE204603B030BDDC
:104430002846FFF768FACFE7284602F0F5F9CBE700
:104440002846FFF7F5FCC7E72846FFF7F3FBC3E76D
:104450002846FEF70FFFBFE71B21284618F032FC65
:10446000B0F80F30192BD0D1284600F08DFD002870
:10447000B2D1CAE701212846FFF7A6FEACE700212A
:10448000F9E70B4B1B680BB10024CEE70AF024F9C7
:1044900004460028F8D1009001464FF4E46340F64A
:1044A00012024FF0FF301DF033FEBEE7683E0020E1
:1044B000E44C002010B5044618F08AFC2046BDE804
:1044C000104018F00BBA000038B50621044618F069
:1044D000F9FB037923B12046BDE8384018F0FEB956
:1044E0001821204618F0EEFB0546204618F056FA33
:1044F0002B4600F1180250F8041B43F8041B9042AD
:10450000F9D120460249BDE838401FF02FBB00BF5B
:10451000B544000010B5102301224FF4A0610446F9
:10452000FFF7E1F9012243684FF4A0612046BDE89E
:1045300010400DF0E5BC000010292DE9F7430446BA
:104540000D46164640F08A8018F01AF92B460122D3
:10455000B4F80F100746207BFFF7C5F918218046F5
:10456000384618F06DFA05461822002105F10D09AC
:104570000CF0F7FAB4F80100494617F0ABFD10F162
:104580001C0F13D1B4F801100DF1070301223046BE
:1045900017F09AFE3368C5F80D307368C9F8043017
:1045A00098F802003146FDF7D1FB0DE00028F1D16B
:1045B000314698F80200FDF7C9FB314602464846ED
:1045C0000CF0FCF90028EBD0207BFFF7A3FF064698
:1045D00000283CD1B4F80F10207B4EF201030122D9
:1045E000FFF781F94368E27A1A70B4F80F10207B64
:1045F0004EF202030122FFF776F94368B4F8012076
:104600001A8028461DF08AFF237B2B72E37A6B7594
:10461000227CE37B43EA02236B8103232B731DF08F
:10462000DBFF0821E882384618F04CFB0660466044
:10463000E37B227C43EA02234380FF230370094B80
:104640004360384603B0BDE8F0430DF00DB82FB11C
:10465000384603B0BDE8F04318F040B903B0BDE8F8
:10466000F08300BFC944000000207047F0B51D2151
:1046700089B0054618F026FB01AA0646034600F15C
:10468000180C174618685968144603C40833634564
:104690002246F7D119889B78A3702180FEF7FAFA99
:1046A000D0F89C30F3B13421284618F00BFBB6F853
:1046B0001B300381062303709DF8103043700023E4
:1046C00043600446FEF7E6FAD0F89C302846984747
:1046D0006068FEF733FB39460246284600F0D9FCF5
:1046E00009B0F0BD6FF01E00F3E7000038B50122FD
:1046F000002303210546FFF7F6F8B8B14368ABB1D4
:104700001C8844B1013C1C8029460948BDE838405A
:1047100042221DF0A1B82846FDF7B0FCD0F80700F2
:1047200020B12146BDE838401CF070BF38BD00BF45
:10473000ED46000007B5054B0093054A054B0121E6
:10474000032000F057FA03B05DF804FB1D4A000097
:1047500069460000C54A000007B5054B00930023D9
:104760001A460221032000F045FA03B05DF804FB6D
:104770003D4A000070B500230E4601220321054684
:10478000FFF7B1F8E8B14368DBB11C881E800EB9B1
:10479000002070BD002CFBD1224629460A481DF09E
:1047A00023FA4222294608481DF056F82846FDF70C
:1047B00065FCD0F807000028EAD001211CF026FF94
:1047C000E6E78620E5E700BFED46000013B510B927
:1047D000002002B010BD002301220321FFF783F85F
:1047E00028B143681888003818BF0120F1E70A4B48
:1047F0001B68002BECD109F06FFF04460028E7D1BD
:10480000009001464FF4C0734FF0FF3040F26462F5
:104810001DF07EFC2046DCE7E44C0020F0B51B21B7
:1048200091B0044618F04EFA09AA034600F11807A1
:10483000164618685968154603C50833BB422A4610
:10484000F7D119889B78AB7029809DF83730012B00
:104850003CD0402B00F08680002B40F0D6809DF8A5
:1048600038505DBB204618F0A3F8012804D8684BE7
:104870001B6883B1802507E0204618F08FF8018877
:104880009DF83000FFF776FF2A463146204600F0BB
:1048900000FC0120BAE009F01FFF0028EAD1204601
:1048A00018F086F804230190009340F26462BD235F
:1048B00029464FF0FF301DF02BFCDBE7554BD3F8BA
:1048C000F83B002BE5D020469847E2E7504B1B68A9
:1048D0005BB909F001FF014638B90090D22340F2DC
:1048E00064624FF0FF301DF013FC9DF83000FFF7BD
:1048F0006DFF024688B30122002303219DF830009A
:10490000FEF7F1FF0646204618F0D4F8192303708D
:104910009DF839304370002585707368033019881D
:104920001CF065FD9DF83130C3F34013CDE904530D
:1049300003230393BDF8353002939DF83030019383
:104940009DF82F3000930146CDE9065502230DF165
:1049500025022046FEF73DF99BE73146204600F050
:10496000D9FB96E7204618F023F8012815D92046F0
:1049700018F014F81D210788204618F0A3F9054601
:1049800031461B220CF054F8EF76C7F307272F7738
:10499000214621481CF03AFE7BE71D4B1B688BB972
:1049A00009F09AFE054668B9204618F001F804237C
:1049B0000190009340F26462F12329464FF0FF30EA
:1049C0001DF0A6FB204618F075F8182303709DF81B
:1049D000393043700B2383704023C37080230371ED
:1049E00000220323CDE90332BDF8353002939DF850
:1049F000303001939DF82F300093411D02230DF1BB
:104A000025022046FEF7B0F843E7002011B0F0BDC4
:104A1000E44C0020683E00206D460000FF2808B5E9
:104A200003D0BDE80840FFF7F9BEFEF733F9024BAB
:104A3000C0F85832012008BD34010020FF2808B515
:104A400003D0BDE80840FFF7E9BEFEF723F9024BAB
:104A5000C0F85832012008BD2401002037B50023DA
:104A6000012203210446FEF73EFF054698B10022CD
:104A7000214612481DF0B8F86B6800251D802046BD
:104A8000FDF7FCFAD0F80700A8B1294603B0BDE84D
:104A900030401CF0BBBD0A4B1B6863B909F01CFE1B
:104AA000014640B9009040F2A71340F264624FF013
:104AB000FF301DF02DFB03B030BD00BFED46000000
:104AC000E44C002029B9118809B1FFF753BEFFF764
:104AD000C5BF704710B5FEF7DDF84FF43072002106
:104AE0000CF03FF8FEF7DAF80023036043608360C0
:104AF000FEF7D0F8044617F047FE6070FEF7CAF8DC
:104B0000BDE8104001F006B9F7B50C461C21064679
:104B100018F0D8F80546304617F04AFF07463046E9
:104B200017F03CFF037813F0040F14BF0523032391
:104B30009F4214D22E4B1B681BB18022104603B03B
:104B4000F0BD09F0C9FD01460028F6D10090D72339
:104B500040F61A024FF0FF301DF0DAFAEDE70023BD
:104B60002370B5F80130A4F801302B7AE372B5F860
:104B70000330A4F80930EB7923732B7863732B7D12
:104B8000A27BC3F3C00363F3C302A273B5F8093079
:104B9000A4F80F30B5F80B30A4F81130304617F0F8
:104BA000FDFE027802F00303013B18BF0123A37549
:104BB0000378C3F3C00323750378C3F30013E375CD
:104BC000037812F00202C3F3800118BF85225B074D
:104BD00041BF01232376B0F80130A4F8193056BF45
:104BE000431CC31C2176197861755B78E374A5E7D3
:104BF000E44C00202DE9F047DDF8209080460F4678
:104C000016461D46B9F1000F05D122B91BB96FF048
:104C10000600BDE8F087FEF73DF890F85432132BFC
:104C2000F5D800240BE0FEF735F804F10F0300EB94
:104C300003104FEA031A8388434507D00134FEF777
:104C400029F890F854329C42EDD305E0FEF722F8A3
:104C500050448379BB42F1D1FEF71CF890F85432EE
:104C60009C4202D06FF01A00D3E7FEF713F804F16C
:104C70000F0300EB03104FEA031AA0F80480FEF7BD
:104C800009F850448771FEF705F850442701C0F831
:104C90000890FDF7FFFF00EB0410C0F8FC60FDF783
:104CA000F9FF3844C0F80051FDF7F4FF90F8543292
:104CB000013380F854320020ABE7F8B505460E46C4
:104CC0000024FDF7E7FF90F854329C4201D3002006
:104CD00013E0FDF7DFFF04F10F0300EB03101F01EA
:104CE0008388AB420AD1FDF7D5FF38448379B342BC
:104CF00004D1FDF7CFFF38448068F8BD0134E0E708
:104D0000F0B51C4B1B6885B005460E467BB909F013
:104D1000E3FC014658B908230093CDE901564FF44E
:104D2000B87340F61A024FF0FF301DF0F1F900247D
:104D3000FDF7B0FF90F85432A34201D8002015E0EF
:104D4000FDF7A8FF04F10F0300EB03101F01838898
:104D5000AB420DD1FDF79EFF38448379B34207D1B2
:104D6000FDF798FF00EB0410D0F8FC0005B0F0BD93
:104D70000134DDE7E44C0020F0B51C4B1B6885B026
:104D800005460E467BB909F0A7FC014658B9082331
:104D90000093CDE9015640F2891340F61A024FF014
:104DA000FF301DF0B5F90024FDF774FF90F8543280
:104DB000A34201D8002015E0FDF76CFF04F10F03BA
:104DC00000EB03101F018388AB420DD1FDF762FF9A
:104DD00038448379B34207D1FDF75CFF00EB041040
:104DE000D0F8000105B0F0BD0134DDE7E44C00204F
:104DF00070B54D1E18BF012506460C46FDF74AFF4B
:104E000005F1230300EB03101D018388B34201D099
:104E1000002070BDFDF73EFF28448379A342F7D1FF
:104E2000FDF738FF28448068F3E70000F0B5194B20
:104E30001B684E1E85B005460C4618BF01267BB97F
:104E400009F04AFC014658B908230093CDE9015402
:104E500040F2CD1340F61A024FF0FF301DF058F922
:104E6000FDF718FF06F1230300EB03101F018388F1
:104E7000AB4202D0002005B0F0BDFDF70BFF384477
:104E80008379A342F6D1FDF705FF00EB0610D0F8B9
:104E90003C02F0E7E44C0020F0B5194B1B684E1EB5
:104EA00085B005460C4618BF01267BB909F014FCF5
:104EB000014658B908230093CDE901544FF4EF732C
:104EC00040F61A024FF0FF301DF022F9FDF7E2FE26
:104ED00006F1230300EB03101F018388AB4202D0CD
:104EE000002005B0F0BDFDF7D5FE38448379A3421C
:104EF000F6D1FDF7CFFE00EB0610D0F84002F0E748
:104F0000E44C002037B50C46054601921DF056FBD7
:104F1000019938B1C42D05D1204603B0BDE8304019
:104F2000FFF766BF204603B0BDE83040FFF7C5BEBF
:104F300037B50C46054601921DF040FB019938B18A
:104F4000C42D05D1204603B0BDE83040FFF76EBF49
:104F5000204603B0BDE83040FFF7D2BE37B50C465F
:104F6000054601921DF02AFB019938B1C42D05D1E7
:104F7000204603B0BDE83040FFF78EBF204603B0A7
:104F8000BDE83040FFF7F8BE10B51B21044617F00E
:104F900099FE037DB0F80F10007B002B0CBF01229F
:104FA0000222FFF7AFFF034618B12046BDE81040CC
:104FB000184710BD70B51B21064617F083FE054645
:104FC0003046FDF70BFC044680B9AB7D30467BB123
:104FD000FFF7E8F950B9FDF76FFE012810D02A7EDF
:104FE000AB7D42B1002B14BF84248324204670BDC6
:104FF000FFF7CAFFEEE7002B0CBF81248224F5E700
:105000008124F3E770B51646B1F809204FF6F7731F
:105010009A4286B005460C4634D84B7B13F00C0FF1
:1050200030D1CB7D03B16EB3A37D13B1E37C0B2BE9
:1050300028D02378013B012B24D9284617F03AFDCC
:10504000237D002B0CBF182310230370637D437056
:105050000B238370E37CC370067100230493B4F8C0
:105060000F300393B4F811300293237B0193E37A5A
:105070000093411D0223621C2846FDF775FD0120A7
:1050800006B070BD2846002DFAD017F027FC00208E
:10509000F6E770B51646B1F809204FF6F7739A4255
:1050A00086B005460C462FD84B7B13F00C0F2BD146
:1050B000CB7D03B146B3A37D13B1E37C0B2B23D08F
:1050C0002378013B012B1FD9284617F0F3FC182346
:1050D0000370637D43700B238370E37CC3700671A0
:1050E00000230493B4F80F300393B4F81130029303
:1050F000237B0193E37A0093411D0223621C28461F
:10510000FDF732FD06B070BD284606B0BDE8704020
:1051100017F0E4BB70B51646B1F809204FF6F773E7
:105120009A4288B005460C4635D84B7B13F00C0FDD
:1051300031D1CB7D03B176B3A37D13B1E37C0B2BCF
:1051400029D02378013B012B25D9284617F0B2FC42
:1051500018230370637D43700B238370E37CC3705B
:105160000671627B0023C2F34012CDE90432CDE91F
:105170000633B4F80F300393B4F811300293237B55
:105180000193E37A0093411D0223621C2846FDF738
:1051900020FD08B070BD284608B0BDE8704017F08B
:1051A0009DBBF0B51646B1F809204FF6F7739A4249
:1051B00087B005460C4644D84B7B13F00C0FC3F365
:1051C00081073ED1CB7D0BB1002E3AD0A37D13B128
:1051D000E37C0B2B35D02378013B012B31D92846BA
:1051E00017F068FC237E227D002B14BF04230023CC
:1051F000002A08BF08273B4343F0100300F8013B97
:10520000237E1BB1B4F819101CF0F1F8637D037014
:105210000B234370E37C8370C67000230493B4F8BF
:105220000F300393B4F811300293237B0193E37A98
:105230000093011D0223621C2846FDF795FC07B070
:10524000F0BD284607B0BDE8F04017F047BB0000AE
:1052500030B589B0182302AA19F018FC05460028B9
:1052600075D101214FF4A060FDF708FA044600282B
:105270005BD0102301224FF4A061FEF734FB02AA99
:10528000436803CA01221860596020462B464FF438
:10529000A061FEF728FB43689DF811201A704FF4B7
:1052A000A061112301222046FEF71DFB43689DF8F3
:1052B00014201A704FF4A0614EF20103012220461F
:1052C000FEF711FB43689DF810201A704FF4A0619F
:1052D0004EF2020301222046FEF705FB4368BDF8AB
:1052E00012201A804FF4A0614FF46043012220463F
:1052F000FEF7F9FA9DF81F3042681370ABB12046F3
:10530000FFF708F9044680B1124B1B686BB909F02E
:10531000E3F9014648B9042300930194832340F63E
:1053200008024FF0FF301CF0F3FE01212020FDF7B2
:10533000A5F960B14EF6FE7301222021FEF7D3FAE3
:105340004368BDF816201A809DF815209A7009B0A0
:1053500030BD00BFE44C002070B586B01822054671
:105360000E46684600210BF0FCFB01214FF4A060C3
:10537000FDF784F90446002846D0102301224FF49B
:10538000A061FEF7B0FA4268106851686B4603C32B
:10539000012200234FF4A0612046FEF7A4FA4368DF
:1053A0001B788DF8093001224EF201034FF4A06101
:1053B0002046FEF798FA43681B788DF808300122E2
:1053C00011234FF4A0612046FEF78DFA034608B181
:1053D00043681B788DF80C3001224EF202034FF423
:1053E000A0612046FEF77FFA43681B88ADF80A30BB
:1053F00001224FF460434FF4A0612046FEF773FA98
:1054000043681B788DF8173001212020FDF736F90D
:1054100060B14EF6FE7301222021FEF764FA436864
:105420001A88ADF80E209B788DF80D3018236A4647
:105430003146284619F0C6FE06B070BD2DE9F04190
:10544000FDF728FC4468002C35D104EB4400C00073
:1054500080B2BDE8F081FDF71DFC4368D3F8013050
:1054600053F82730D3F81A304FEA87089BB1FDF77D
:1054700011FC4368D3F8013053F82730D3F81A6091
:105480000025FDF707FC4368D3F8013053F80830D6
:105490005B7EAB4207D80137FDF7FCFB43681B7806
:1054A000BB42D8D8D1E7337ADB0744BF0134A4B27A
:1054B00030360135E5E700242746EDE72DE9F04FCA
:1054C00089B018238146B2FBF3F388460193002488
:1054D000FDF7E0FB43681B78A3420BD80026354656
:1054E0004FF0180B019B9D420BFB058126D309B0A1
:1054F000BDE8F08FFDF7CEFB4368D3F8013053F8D9
:105500002430D3F81A30BBB1FDF7C4FB4368D3F89D
:10551000013053F82430D3F81A50FDF7BBFB436831
:10552000D3F8013053F824305A7E02EB42021201C4
:10553000002128460BF015FB0134C9E7182302AA05
:10554000484619F0A3FA00287ED104460AE0FDF788
:10555000A1FB4368D3F8013053F82430D3F81A3054
:105560003BB90134FDF796FB43681B78A342EED8A4
:105570000BE0FDF78FFB4368D3F8013053F824307C
:105580001A789DF809309A42EBD1FDF783FB436806
:105590001B78A34254D9FDF77DFB4368D3F8013053
:1055A00053F824304FEA840AD3F81A400027FDF755
:1055B00071FB4268D2F8012052F80A20527EBA42AA
:1055C00002D9227AD30741D4FDF764FB4268D2F8AE
:1055D000012052F80A20527EBA4231D99DF80820A3
:1055E00022709DF809306370BDF80A3063809DF821
:1055F0000C302371039BC3F30F23E3809DF80F301E
:105600002372BDF81030238222B9BDF812306382B4
:10561000059B6361BDF8183023859DF81A3084F826
:105620002A309DF81B309DF81C2043EA0223A385F5
:105630004FF0FF33E3612362204600F04BFC01365C
:1056400016B1002000F062FC01354BE70137303421
:10565000ADE72DE9F04786B080460F46FDF71AFB0F
:105660004568002D44D1284606B0BDE8F087FDF717
:1056700011FB4368D3F8013053F82530D3F81A30C2
:105680004FEA850A9BB1FDF705FB4368D3F801306B
:1056900053F82530D3F81A900026FDF7FBFA43683B
:1056A000D3F8013053F80A305B7EB34216D8013587
:1056B000FDF7F0FA43681B78AB42D8D8002C40F0D5
:1056C00089801822214668460BF04BFA18236A4657
:1056D0003946404619F076FD0546C4E799F808308A
:1056E000DA0744BF0134E4B209F130090136D4E7E6
:1056F00000242546DCE7FDF7CDFA4368D3F80130F6
:1057000053F82630D3F81A304FEA860AABB1FDF7CA
:10571000C1FA4368D3F8013053F82630D3F81A4061
:105720004FF000093034FDF7B5FA4368D3F8013083
:1057300053F80A305B7E994507D30136FDF7AAFA84
:1057400043681B789E42D6D38DE714F8283CDB07CC
:105750003CD51822002168460BF003FA14F8302CCF
:105760008DF8002014F82F3C8DF8013034F82E3CD1
:10577000ADF8023014F82C3C8DF8043034F82A3C93
:10578000ADF8053014F8283C8DF8073034F8203C8B
:10579000ADF8083032B934F81E3CADF80A3054F890
:1057A0001C3C039334F8083CADF8103014F8063C68
:1057B0008DF8123034F8043CADF813303946182314
:1057C0006A46404619F0FEFC1837054609F1010902
:1057D0003034A8E700263546B0E730B587B0182347
:1057E0006A4619F053F90546002854D101212020BA
:1057F000FCF744FF2B46012220210446FEF773F8F4
:105800004368009A1A6001231A4620212046FEF7B9
:105810006AF84368019A1A600198FA25684321F0F2
:10582000C3FB2021022301222046FEF75CF84368D7
:10583000BDF808201A80BDF80800684321F07EFBFF
:105840002021032301222046FEF74DF84368BDF8CE
:105850000A201A80BDF80A00684321F081FB042366
:10586000012220212046FEF73EF84368039A1A6081
:105870002021052301222046FEF735F84368049ACB
:105880001A602021062301222046FEF72CF84368E7
:10589000BDF814201A8007B030BDF0B5054687B0BA
:1058A0000E4620200121FCF7E9FE182704463A465F
:1058B000002168460BF055F90023012220212046E3
:1058C000FEF711F843681B68009301231A46202154
:1058D0002046FEF708F843681B6801930122022363
:1058E00020212046FDF7FFFF43681B88ADF80830F4
:1058F0000122032320212046FDF7F5FF43681B8882
:10590000ADF80A300122042320212046FDF7EBFFE9
:1059100043681B6803930122052320212046FDF7DD
:10592000E2FF43681B6804930122062320212046DE
:10593000FDF7D9FF43681B88ADF814306A463B4633
:105940003146284619F03EFC07B0F0BD10B50C46B4
:1059500008B116F0C3FF0749074843F6FF3201FBC1
:1059600004214FF47052BDE81040B1FBF2F2002167
:105970001BF072BF90D00300455B000008B500200B
:1059800021F044FABDE80840042001F0F7B970B5F1
:105990000E4608210446154617F094F90023C0F876
:1059A000013006702023456043802046BDE87040EA
:1059B0000BF05ABE2DE9F04F062189B0064617F0CC
:1059C00081F9012104462020FCF758FE0023012222
:1059D00020210746FDF787FF4368D3F8009023791D
:1059E000002B6AD00025012220214EF6FE73384696
:1059F000ADF81E50FDF777FFD0F80480D8F80030DE
:105A0000DB4333F07F431EBFB8F8003098F802B094
:105A1000ADF81E30304614BF0225AB4617F04AF8E9
:105A2000192303700446FDF735F903785A1C0270F8
:105A30004FF0000A6370234B84F802A020220493E5
:105A40004FF48273CDE90232E11C2B460DF11E02A8
:105A5000CDE900B73046FDF787F898F803301A48CB
:105A6000012262F3030388F803304FF4FA723946D7
:105A70001BF0F2FE4FF4F05021F072FA504621F084
:105A80009DF9FDF707F9D0F8A03033B1FDF702F921
:105A90005146D0F8A0001BF0B9FD0C4A0C4843F663
:105AA000FF3302FB093300214FF47052B3FBF2F2D3
:105AB00009B0BDE8F04F1BF0CFBE304616F00EFF28
:105AC000EBE700BFD55A00007D59000090D00300DD
:105AD000455B0000F8B51021044617F0F3F80121EA
