:020000022000DC
:107000000000042045730200A1730200A373020074
:10701000A5730200A7730200A9730200000000001C
:10702000000000000000000000000000AB73020040
:10703000AD73020000000000AF730200B1730200E4
:1070400089780500B373020081AC0500B3730200B8
:10705000B3730200B37302003D860500018D050085
:10706000B3730200B3730200B3730200B373020080
:10707000B37302003D8C0500B3730200B3730200CA
:10708000B37302003DA10200B3730200B3730200A8
:10709000B3730200B3730200A9B20500F9B706008A
:1070A000B3730200B3730200B3730200B373020040
:1070B000B3730200B3730200000000000000000080
:1070C000B3730200B3730200B3730200B373020020
:1070D00045A70600B3730200B3730200B373020046
:1070E000B3730200B3730200B37302000000000028
:1070F00000000000B373020000000000B373020040
:10710000000000000000000000000000000000007F
:10711000000000000000000000000000000000006F
:10712000000000000000000000000000000000005F
:10713000000000000000000000000000000000004F
:10714000000000000000000000000000000000003F
:10715000000000000000000000000000000000002F
:10716000000000000000000000000000000000001F
:10717000000000000000000000000000000000000F
:1071800000000000000000000000000000000000FF
:1071900000000000000000000000000000000000EF
:1071A00000000000000000000000000000000000DF
:1071B00000000000000000000000000000000000CF
:1071C00000000000000000000000000000000000BF
:1071D00000000000000000000000000000000000AF
:1071E000000000000000000000000000000000009F
:1071F000000000000000000000000000000000008F
:10720000314932480A1A02D0072291438D4630494B
:1072100030480A1A06D00722914381F309880222D6
:1072200082F314882C482D492D4A00F03CF82D4853
:107230002D492E4A00F037F82D482E492E4A00F0ED
:1072400032F82E482E492F4A00F02DF82E482F49AB
:107250002F4A00F028F82F482F49304A00F023F831
:107260002F483049304A00F01EF83048304900229B
:1072700000F024F82F483049002200F01FF82F4A70
:1072800090471F481F49884205D00268043003B464
:10729000904703BCF7E700208646EC46002000211B
:1072A000274A9047FEE7884207D0521A05D0037854
:1072B00001300B700131013AF9D17047884202D098
:1072C00002700130FAE770470000042000E003205C
:1072D0000000042000000420B80507002C2C00202A
:1072E0003C320020B8730200B873020004BA0600F2
:1072F000B80507002C2C00202C2C00202CBD0600EB
:107300002CBD06002CBD06002CBD06002CBD0600C1
:107310002CBD06002CBD06002CBD0600B5050700DF
:10732000C80B07003C3200203C3200203C320020D9
:1073300080A2002080A2002084A200206D730200A1
:1073400011E5050000F036B80F484FF007018843FB
:1073500085460E4880470E48016841F4700101607F
:10736000BFF34F8FBFF36F8FFFF74ABF09480A493A
:107370000A4A884207D0521A05D0037801300B70B0
:107380000131013AF9D17047000004200D100600C8
:1073900088ED00E0F8BB0600F82A00202C2C002025
:1073A000FEE7FEE7FEE7FEE7FEE7FEE7FEE7FEE7B5
:0873B000FEE7FEE7FFF7C8BF8E
:1073B8000048704778A20020FEE700B5A1B005900C
:1073C800049103920293049804F0B0FB039B159375
:1073D800029B16930023179300238DF86030002337
:1073E8001993229B1A9300231F930FA91F9B08220E
:1073F800049804F075FC08231F93119B1293BDF8A1
:107408004030ADF84C30BDF84230ADF84E30002376
:107418008DF851309DF83C3003F00303DBB2012BAB
:1074280026D10F9BC3F395231C939DF83C30C3F3DF
:10743800C203DBB28DF85030BDF83C30C3F3831380
:10744800DBB21B931B9B9A0009A91F9B049804F0AD
:1074580047FC1B9B9B001F9A13441F9312AA09A960
:1074680015AB009313461B9A1C9801F01DFA2FE0E8
:107478009DF83C3003F00303DBB2022B28D1BDF8A2
:107488003E30C3F389139BB21E939DF83C30C3F37F
:10749800C203DBB28DF850301E9B082B28BF08238F
:1074A8001D9307A91F9B1D9A049804F019FC1F9AA5
:1074B8001D9B13441F931E9A1D9BD31A1E9315AB35
:1074C80012AA07A81D9901F091FA1E9B002BE3D17F
:1074D800049804F03AFB00BF21B05DF804FB0000FB
:1074E80000B583B00190019B1B781A460C4B9B5C3E
:1074F800002B05D0019B0433184633F06DF80BE0E0
:10750800019B1B781A46064B9B5C002B04D1019B00
:107518000C33184632F0D0F800BF03B05DF804FB16
:10752800F43B002000B587B00390029113468DF814
:10753800073000230593039B1B781A46114B9B5C6D
:10754800002B09D0039B04339DF8072002991846A5
:1075580033F098F805900FE0039B1B781A46094B07
:107568009B5C002B08D1039B0C339DF807200299E4
:10757800184632F019F90590059B184607B05DF8D2
:1075880004FB00BFF43B002082B001900091034B44
:1075980001221A7000BF02B0704700BF7C32002081
:1075A80030B58DB003468DF807301A4B02AC1D4636
:1075B8000FCD0FC495E80F0084E80F00062302934F
:1075C8004FF0FF3303934FF0FF3304934FF0FF3333
:1075D80005934FF0805308939DF80730002B01D096
:1075E8000D4A00E0002202AB19460C482FF088FE35
:1075F8000B900B9B0A930A9B002B04D0084A43214B
:107608000A9801F06BFA074A9DF80730137000BF1B
:107618000DB030BD84BD0600917502002C2C0020F1
:107628002CBD06007D32002000B583B001238DF803
:1076380007309DF807301846FFF7B2FF00BF03B0C8
:107648005DF804FB00B589B0039002910192019B9B
:107658008DF81F30124B00221A709DF81F301A4601
:1076680002991048FFF75EFF0690069B0593059B5D
:10767800002B04D00C4A5321059801F02FFA00BFC3
:107688000A4B1B78002B07D0054B1B78DBB283F025
:107698000103DBB2002BF3D100BF09B05DF804FB96
:1076A8007C3200202C2C00202CBD06007D320020CE
:1076B80000B585B003900291054B00934023054A1D
:1076C80002990398FFF779FE00BF05B05DF804FB47
:1076D8004D7602003C32002082B0019000BF02B01B
:1076E8007047000000B583B001900548FFF7F8FE29
:1076F8000020FFF755FF00BF03B05DF804FB00BF93
:107708002C2C002082B00190019BDB6801225A7169
:1077180000BF02B07047000000B583B04FF0FF33E0
:107728000193FFF781FF0421084800F0B1FF0190A1
:10773800019B002B03DA0649482001F09EFA034812
:10774800FFF7E0FF00BF03B05DF804FBA0BB060035
:10775800C4BD060000B583B001900091019B1B6871
:107768001B6800990198984700BF03B05DF804FBB7
:1077780000B583B00190019B1B685B68019898472E
:1077880000BF03B05DF804FB00B583B00190019B16
:107798001B689B680198984700BF03B05DF804FB1D
:1077A80082B001900B468DF80330019BDB689DF891
:1077B80003201A7100BF02B0704782B00190019B8C
:1077C800DB681B79184602B0704782B00190019BB4
:1077D800DB6801225A7100BF02B0704782B0019085
:1077E800019BDB685B79184602B0704700B58DB025
:1077F800019000913F4BFF229A603E4B00221A6095
:107808003C4B00225A603B4B0022C3F81824394BEA
:107818000022C3F81424374B002283F8202436486A
:1078280004F0E8F80890089B002B01D0089B5CE066
:10783800324804F085FE324A324BD31ADB080793EC
:1078480000230B9332E00023099300230A931DE0E1
:107858000B9A0A9B9A4216D00B9BDB00294A1344C9
:107868001B6803930A9BDB00264A13441B68029398
:107878001422029903983EF0D5F80346002B02DD46
:10788800099B013309930A9B01330A930A9A079BC0
:107898009A42DDD30B9B9B001B4A13440493099B1C
:1078A8009AB2049B1A800B9B01330B930B9A079B8C
:1078B8009A42C8D300230B9312E00B9B9B00124AF9
:1078C800134406930B9B9B00104A13440593069B95
:1078D80000225A80059B00221A600B9B01330B93F0
:1078E8000B9A079B9A42E8D3002318460DB05DF81F
:1078F80004FB00BFE8330020E0BB0600A0BE060082
:10790800A0BB060080BA0600F82A0020882B0020B9
:10791800024A034BD31ADB0818467047A0BB06007F
:1079280080BA060000B587B001900B468DF8033089
:107938009DF80330002B1FD0FFF7EAFF04900023C7
:10794800059313E0059B9B000E4A13440393039B86
:107958001B881A46019B1B689A4204D1019B059A11
:107968001A60002309E0059B01330593059A049BDF
:107978009A42E7D3052300E00023184607B05DF8D4
:1079880004FB00BFF82A002000B585B001900B4623
:107998008DF803309DF8032001AB11461846FFF718
:1079A800C1FF0346002B07D1019BDB00054A1344A6
:1079B8000393039B1B6800E00023184605B05DF89D
:1079C80004FB00BF80BA060084B001900B468DF816
:1079D8000330019BDB00174A134402939DF80330E0
:1079E800013B032B1CD801A252F823F0057A0200B0
:1079F8000D7A0200157A02001F7A020002238DF820
:107A08000F3011E004238DF80F300DE0029B1B7935
:107A18008DF80F3008E0029B5B798DF80F3003E09A
:107A280000238DF80F3000BF9DF80F30184604B0C2
:107A3800704700BF80BA060086B001900023ADF8F9
:107A480016300023049316E00722049B9A40019BFA
:107A58001A40049B22FA03F3ADF80E30BDF80E204D
:107A6800BDF816309A4203D9BDF80E30ADF816307D
:107A7800049B03330493049B092BE5D9BDF8163006
:107A8800184606B07047000000B587B00390029111
:107A980013468DF80730029B9B001C4A134405933C
:107AA800029B9B001A4A13440493049B1968039A87
:107AB80013465B001344072202FA03F3DB4301EA8F
:107AC8000302049B1A60049B19689DF80700039A37
:107AD80013465B0013449840039A13465B00134413
:107AE800072202FA03F3034041EA0302049B1A60E7
:107AF800049B1B681846FFF79FFF03461A46059B21
:107B08005A8000BF07B05DF804FB00BFF82A0020C8
:107B1800882B002084B00190019BDB00034A1344AA
:107B28000393039BDB79184604B0704780BA0600BC
:107B380084B00190009100238DF80F30019B1B78D1
:107B480003F00403DBB2002B24D0019B1B78C3F3A2
:107B58000103DBB2012B02D0022B0CD017E0009BF3
:107B68001B68019A1288C2F38312D2B213449A1C7A
:107B7800009B1A600BE0009B1B68019A5288C2F3B5
:107B8800891292B213449A1C009B1A6000BF012309
:107B98008DF80F309DF80F30184604B0704700007C
:107BA80000B58BB00023ADF826303E4802F006FD44
:107BB8003D4802F003FD3D4B5B6804933B4B9B68DB
:107BC8000693049A069B134002339B00374A1344DA
:107BD8000433089304AB19460898FFF7A9FF034636
:107BE800002B09D0049A069B134002339B002F4AAE
:107BF800134404330893EDE700BF0023079311E013
:107C0800049B5A1C0492069A1340079A920001A9F1
:107C18000A44264902339B000B445B681360079BA8
:107C280001330793079B012BEAD99DF80430C3F36E
:107C38000103DBB2012B10D0022B1CD1BDF80A3096
:107C4800ADF82630BDF80630C3F389139BB2033371
:107C58009A08049B1344049313E0BDF80A30ADF866
:107C68002630BDF80430C3F38313DBB21A46049BF5
:107C78001344049305E00E494FF4BF7000F0FDFF74
:107C880000BF094802F0A6FC0590059B002B02D016
:107C9800049B064A5360BDF8263018460BB05DF8C1
:107CA80004FB00BF00380020FC370020E833002028
:107CB80038BE060000B585B00021074802F0CBFBAE
:107CC8000390039B0293029B83F310030193019B90
:107CD800184605B05DF804FB0438002000B589B0EB
:107CE8000390029101920093039B1B0C0793FFF7EB
:107CF800E1FF0690FFF70CFE0246079B934204D370
:107D0800214940F2A31000F0B8FF069B1904009B1C
:107D18005A1C0A9B1340079A0A431C4902339B00CA
:107D28000B445A60009A0A9B134002339B00174A7F
:107D3800134404330593039B03F00703D9B2059A50
:107D4800137861F3C5031370019B03F00F03D9B2D5
:107D5800059A138861F389131380029BC3F31501F5
:107D6800059A136861F39F231360059A137801211C
:107D780061F301031370059A13786FF3820313708C
:107D880000BF09B05DF804FB38BE0600E8330020E8
:107D980000B58DB00390029113468DF80730039B10
:107DA80002330A9301238DF8273000238DF81B3006
:107DB8000DF11B03184600F013FF404B1A68029B95
:107DC8001A603E4B9A683D4B59683C4B1B68CB1A6E
:107DD800134401330B9314E00121394802F0B2FB3C
:107DE800FFF7DEFE07900799354802F0ABFB334BEF
:107DF8009A68324B5968314B1B68CB1A13440133CC
:107E08000B930A9A0B9B9A42E6D89DF82730002BD1
:107E180048D0002305939DF80730002B17D09DF814
:107E28001430012262F301038DF814309DF81430E8
:107E380043F004038DF81430039B03F00F03DAB208
:107E4800BDF8143062F38913ADF8143016E09DF8CC
:107E58001430022262F301038DF814309DF81430B7
:107E680043F004038DF81430039BC3F309039AB25B
:107E7800BDF8163062F38F13ADF816300F4B1A6841
:107E88000E4B9B68134002339B000C4A1344043387
:107E98000893059A089B1A60084B1A680A9B1344B2
:107EA800064A13609DF81B30184600F0AFFE9DF897
:107EB800273018460DB05DF804FB00BFE8330020FA
:107EC8000438002000B587B00190244B93F8203483
:107ED800002B02D1019B002B01D1019B39E00198B5
:107EE8003DF0D1FE03460133049304AA03A90123FC
:107EF8001B4804F043FB0346002B29D1039B049A3B
:107F0800019918463DF03CFE039A049B013B13443B
:107F180000221A70049B1946114804F0AFFB059023
:107F2800059B002B04D00F4940F20A2000F0A5FE63
:107F3800049B19460A4804F0D4FB0590059B002BC6
:107F480004D0084940F20E2000F097FE039B00E0A1
:107F58000023184607B05DF804FB00BFE833002093
:107F6800A0BE060038BE060000B58BB0059004918F
:107F7800039202931F4B9B68079306AB0122194695
:107F88000298FFF705FF0346002B24D0069B023317
:107F980009930023089311E0089B9B00039A1A4455
:107FA800099B591C099107990B4012681149023322
:107FB8009B000B445A60089B01330893089A029B64
:107FC8009A42E9D3069A079B00931346029A0499AA
:107FD8000598FFF783FE074B93F82034002B05D054
:107FE80000BF00F01BF90346002BFAD100BF0BB00D
:107FF8005DF804FBE833002000B583B001900091E0
:108008000023002200990198FFF7AEFF00BF03B0DC
:108018005DF804FB00B587B0039002910192019BC3
:10802800059305AA012302990398FFF79DFF00BF56
:1080380007B05DF804FB00B587B003900291019288
:108048000093019B0493009B059304AA02230299C1
:108058000398FFF789FF00BF07B05DF804FB00B580
:1080680089B00390029101920093019B0593009BB4
:1080780006930A9B079305AA032302990398FFF71F
:1080880073FF00BF09B05DF804FB00B589B0039029
:10809800029101920093019B0493009B05930A9B14
:1080A80006930B9B079304AA042302990398FFF7EE
:1080B8005BFF00BF09B05DF804FB000000B58DB0A0
:1080C800039002911346ADF806304B4B9B680B9317
:1080D800BDF8063003339B0805A900221846FFF7B0
:1080E80057FE0346002B78D0059B0A93059B023365
:1080F8000593414B9A6805990B9B0B40D31A0133A2
:108108009B000993BDF80630099A9A420ED3059A46
:108118000B9B134002339B00374A13440433BDF8CA
:108128000620029918463DF02BFD17E0059A0B9B97
:10813800134002339B00304A13440433099A0299CE
:1081480018463DF01DFD029A099BD118BDF806207E
:10815800099BD31A1A4629483DF012FD039B1B0CB4
:108168000893FFF7A7FD0790079B19040A9B5A1C61
:108178000B9B1340089A0A431F4902339B000B4488
:108188005A600A9A0B9B134002339B001A4A134405
:1081980004330693039B03F00703D9B2069A1378B6
:1081A80061F3C5031370069A13886FF38F13138056
:1081B800BDF80630C3F3090399B2069A538861F3F0
:1081C8008F135380069A1378022161F30103137009
:1081D800069A13786FF382031370074B93F82034D1
:1081E800002B05D000BF00F019F80346002BFAD188
:1081F80000BF0DB05DF804FBE8330020F433002025
:10820800054B5A68044B1B689A420CBF0123002394
:10821800DBB21846704700BFE833002000B59BB0BA
:10822800FFF7EEFF0346002B01D00023ECE19B4B48
:108238000022C3F81824BFF34F8F00BF974B5B6829
:108248000493964B9B681193049A119B1340023335
:108258009B00924A13440433199300231893002374
:1082680017930023169304AB19461998FFF760FC7F
:108278000346002B19D0894BD3F81834002B14D19E
:10828800864B1A68049B9A4205D8844B1B68834A1C
:1082980053600023B8E1049A119B134002339B00FA
:1082A8007E4A134404331993DDE70023159311E044
:1082B800049B5A1C0492119A1340159A920001A922
:1082C8000A44764902339B000B445B681360159B94
:1082D80001331593159B012BEAD99DF8043003F05F
:1082E8000303DBB2022B40F09C80BDF80630C3F3D9
:1082F80089139BB20F93BDF80630C3F389139BB261
:10830800502B28BF50239BB20E930E9BC3F3090337
:108318009AB2BDF8063062F38F13ADF806300E9BA3
:1083280008330D939DF80430C3F3C203DBB21693F0
:108338000D995B4803F069FB1890189B002B00F01F
:10834800D180189803F0F2FB01A9179B082218980E
:1083580003F0A8FC179B08331793049BDA43119B7F
:10836800134001339B000C930E9A0C9B9A4242D9FE
:108378000C9B002B08D0049A119B134002339B00DE
:10838800464A1344043300E0464B0A930C9B002BE7
:1083980002D00C9BDBB201E00E9BDBB28DF82730DC
:1083A8000C9B002B01D03F4B00E0002308930C9B53
:1083B800002B06D00E9BDAB20C9BDBB2D31ADBB2D1
:1083C80000E000238DF81F309DF82720179B0A999D
:1083D800189803F067FC9DF82730179A13441793F1
:1083E800089B002B16D09DF81F20179B08991898FA
:1083F80003F058FC0EE0049A119B134002339B00D3
:10840800264A134404330B93179B0E9A0B9918981A
:1084180003F048FC0F9B03339A08049B134404930E
:1084280060E09DF8043003F00303DBB2012B59D15F
:10843800BDF80430C3F38313DBB2062B28BF062331
:10844800DAB2BDF8043062F38913ADF80430BDF830
:108458000430C3F38313DBB2023310939DF8043066
:10846800C3F3C203DBB21693109B9B0019460C485A
:1084780003F0CBFA1890189B002B33D0189803F010
:1084880055FB01A9179B0822189803F00BFC179BB2
:1084980008331793002315931BE000BFE83300202F
:1084A800E0BB0600F4330020049B5A1C0492119A86
:1084B800134002339B00564A1344191D179B04228C
:1084C800189803F0EFFB179B04331793159B0133A0
:1084D8001593BDF80430C3F38313DBB21A46159B1A
:1084E8009342E1D3189B002B6AD0494BD3F8103440
:1084F8001493474BD3F81834002B45D0189803F041
:1085080024FB7BE000238DF84F301498FFF766F9C1
:108518000346002B2CD01498FFF74FF903468DF82B
:108528001E30BDF808309B003A4A13440693069B58
:1085380019689DF81E2013465B001344072202FAAF
:1085480003F319409DF81E2013465B00134421FADB
:1085580003F30593169B052B01D0169B00E003231C
:108568001693059A169B9A4202D301238DF84F3031
:108578009DF84F30002B03D018991498FFF7EAF8AC
:10858800149BDB681B681493149B002BBAD11898B2
:1085980003F0DBFA00238DF803300DF103031846CE
:1085A80000F01EFB1A4BD3F81834002B02D1049BA1
:1085B800174A53609DF80330184600F027FB1DE06A
:1085C800134BD3F81034129306E01298FFF7DCF837
:1085D800129BDB681B681293129B002BF5D10E4B84
:1085E8005B88012B0AD90D4A0D4BD31ADB081B04F3
:1085F80043F002030B491846FFF7FEFCFFF700FEA5
:10860800034683F00103DBB218461BB05DF804FB98
:10861800E8330020882B0020142B0020B8BA06006D
:1086280080BA06008CBE060000B585B0002303930F
:1086380023E0164BD3F81034029301238DF807304A
:108648000FE00298FFF7B9F803461A46039B9342D6
:1086580003D100238DF8073006E0029BDB681B6816
:108668000293029B002BECD19DF80730002B01D020
:10867800039B07E0039B01330393039B092BD8DD7E
:108688004FF0FF33184605B05DF804FBE8330020CF
:1086980000B587B001900B468DF80330FFF7C4FF93
:1086A8000490049BB3F1FF3F01D1049B48E0049B75
:1086B800DBB219460198FFF773F8234BD3F810344F
:1086C800002B08D1204A019BC2F81034019BDB68BB
:1086D80000221A600DE01C4BD3F81034DA68019BB5
:1086E800DB6812681A60184BD3F81034DB68019AFB
:1086F8001A60002305931CE00598FFF70BFA034660
:108708008DF80F309DF803209DF80F30934228BF55
:1087180013468DF80E300198FFF74FF803461846B8
:108728009DF80E301A460599FFF7AEF9059B0133FF
:108738000593FFF7EDF80246059B9342DCD3049BB3
:10874800184607B05DF804FBE833002000B583B095
:108758000D4BD3F8103401930B4B012283F82024DE
:1087680009E00198FFF731F80198FFF701F8019B3C
:10877800DB681B680193019B002BF2D100BF00BF8F
:1087880003B05DF804FB00BFE833002082B001901D
:10879800009100BF02B0704710B584B003900291F9
:1087A800039BDB88002B0AD0039BDB881A461F4BF0
:1087B800009313461E4A1F49029802F053F8039B80
:1087C8001B7A052B2ED0039B5B7A002B12D0039BC0
:1087D8009B881A46039B1B7A19461046FFF7F4F844
:1087E80003461A46144B53F822301A461349029886
:1087F80002F038F8039B1B6819460298FFF7C6FF7A
:10880800039B1B7A1A460E4B53F82240039B9B8806
:1088180000211846FFF7B8F803462246094902988E
:1088280002F020F800BF04B010BD00BFCCBE0600A7
:10883800DCBE060014BF06005C2C00202CBF06001E
:10884800482C002030BF060000B585B00390029187
:1088580013468DF80730039B1B7A052B0FD0039B1B
:108868005B7A002B06D00D4B1B681A460C49029800
:1088780001F0F8FF0B49029801F0F4FF07E09DF8BA
:108888000730002B03D00749029801F0EBFF02984C
:1088980001F0C6FF00BF05B05DF804FB5C2C0020AA
:1088A8002CBF06003CBF060030B58BB00790069180
:1088B800059204930E9B1B7B8DF827300E9B00229C
:1088C8001A730E990498FFF767FF059B062B7FD84C
:1088D80001A252F823F000BFFD88020007890200B8
:1088E800178902002B890200498902007189020058
:1088F800A189020007990E9801F0B4FF69E0069B70
:108908001B681A4607990E9801F0ACFF61E0069BB8
:108918001A68069B04331B6807990E9801F0A2FF9A
:1089280057E0069B1A68069B04331968069B0833B0
:108938001B6800930B4607990E9801F093FF48E0D7
:10894800069B1968069B04331868069B08331B6846
:10895800069A0C3212680192009303460A46079958
:108968000E9801F07FFF34E0069B1868069B0433DD
:108978001C68069B08331B68069A0C321268069915
:108988001031096802910192009323460246079923
:108998000E9801F067FF1CE0069B1C68069B0433D9
:1089A8001D68069B08331B68069A0C3212680699E4
:1089B80010310968069814300068039002910192FA
:1089C80000932B46224607990E9801F04BFF00E0D2
:1089D80000BF00220E990498FFF736FF0E9B9DF802
:1089E80027201A7300BF0BB030BD00BF00B587B099
:1089F8000390029101920093029B082B60D8009B80
:108A08001B7B8DF81330009B00221A730099019884
:108A1800FFF7C2FE0023059314E0059A029B9A42D1
:108A280009D2039A059B13441B781A4626490098D5
:108A380001F018FF03E02549009801F013FF059B9A
:108A480001330593059B072BE7D92149009801F0CD
:108A580009FF0023059326E0059A029B9A421BD240
:108A6800039A059B13441B788DF812309DF8123039
:108A78007E2B0AD89DF8123018463CF0D7FE0346E4
:108A8800002B02D09DF8123000E02E231A4611491F
:108A9800009801F0E7FE03E00F49009801F0E2FEBC
:108AA800059B01330593059B072BD5D90122009916
:108AB8000198FFF7C9FE009B9DF813201A7300E088
:108AC80000BF07B05DF804FB40BF060048BF0600C2
:108AD8004CBF060050BF060054BF060000B583B067
:108AE80002900091019244F2010071466A4638F002
:108AF80092FE03B000BD00BF82B0EFF31083009375
:108B0800009B019372B600BF019B184602B07047E4
:108B180062B600BF00BF704700B585B00190FFF78F
:108B2800EBFF0390164B9B68002B1BD1144B0122C3
:108B38009A60144BD3F88020134B1340104A1360EB
:108B4800104B114AC3F880200E4BD3F884300C4ADE
:108B580053600C4B4FF0FF32C3F88420019B002276
:108B68001A7002E0019B01221A70039B002B01D1AD
:108B7800FFF7CEFF0023184605B05DF804FB00BFE1
:108B88000C38002000E100E0FC06FFBD00B585B010
:108B980003468DF80730104B9B68002B16D09DF8C4
:108BA8000730002B12D1FFF7A7FF03900B4A0A4B9F
:108BB8001B681360094A084B5B685360064B002228
:108BC8009A60039B002B01D1FFF7A2FF00231846F0
:108BD80005B05DF804FB00BF0C38002000E100E0A0
:108BE80000B583B0019000F02BF80346012B03D0A9
:108BF8000549432000F041F80198FFF78DFF00BFB9
:108C080003B05DF804FB00BF58BF060000B583B091
:108C180003468DF8073000F013F80346012B03D004
:108C28000649512000F029F89DF807301846FFF74B
:108C3800ADFF00BF03B05DF804FB00BF58BF0600DE
:108C480084B0EFF305830193019BC3F308030393F7
:108C5800039B002B0DD1EFF314830093009B029329
:108C6800029B03F00103002B0CBF01230023DBB29E
:108C780000E00123184604B0704700B585B00346EC
:108C88000091ADF80630BDF80630ADF80830009B0D
:108C9800039302AB1A46002144F2020038F0BBFDF0
:108CA80000BF05B05DF804FB84B003468DF80730BB
:108CB8009DF807305B08DBB21A460D4B9B5C8DF8BC
:108CC8000F309DF8073003F00103002B04D09DF806
:108CD8000F301B09DBB204E09DF80F3003F00F03DF
:108CE800DBB28DF80E309DF80E30184604B0704790
:108CF8003038002084B003460A468DF80730134602
:108D08008DF806309DF8073003F00103002B01D0E1
:108D18000F2300E0F0238DF80F309DF8073003F0A3
:108D28000103002B04D09DF806301B01DBB201E0E3
:108D38009DF806308DF80E309DF807305B08DBB2E1
:108D48001A46114B9A5C9DF807305B08DBB219464E
:108D58009DF80F301340DAB20B4B5A549DF8073088
:108D68005B08DBB21A46084B9A5C9DF807305B0833
:108D7800DBB219469DF80E301343DAB2024B5A544F
:108D880000BF04B0704700BF3038002000B585B080
:108D980003468DF807300023039310E00F4B1A6841
:108DA800039BDB0013440293029B1B789DF807206A
:108DB8009A4201D1029B0DE0039B01330393084BB8
:108DC8001B781A46039B9342E8DB06498820FFF785
:108DD80054FF0023184605B05DF804FB183800203E
:108DE8001C380020E0BF060000B585B003460A46DF
:108DF8008DF8073013468DF806309DF80730184671
:108E0800FFF7C4FF0390039B002B0BD0039B5B6809
:108E1800002B07D0039B5B689DF806109DF8072080
:108E28001046984700BF05B05DF804FB2DE9F04FE8
:108E380087B003460A468DF80F3013468DF80E307A
:108E48009DF80F301846FFF72FFF0346042B00F25A
:108E5800C28001A252F823F0758E0200E98E02004A
:108E6800058F0200358F02004B8F02009DF80E30EF
:108E7800002B00F0AD809DF80F3001211846FFF758
:108E880039FF00238DF817300DF117031846FFF747
:108E9800A7FE9DF80F104FF001024FF00003A1F15B
:108EA8002004C1F1200003FA01F702FA04F4274371
:108EB80022FA00F0074302FA01F6494BD3E90023EE
:108EC80046EA020100913B430193454BDDE900125C
:108ED800C3E900129DF817301846FFF797FE77E0B0
:108EE8009DF80E30002B01D0022200E000229DF8F0
:108EF8000F3011461846FFF7FDFE6CE09DF80E3066
:108F0800002B0CD09DF80F3003211846FFF7F2FE16
:108F18009DF80F3001211846FFF766FF5BE09DF8CA
:108F28000F3001211846FFF7E5FE54E09DF80E309A
:108F3800002B4FD19DF80F3004211846FFF7DAFEB9
:108F480048E09DF80E30002B06D09DF80F30032125
:108F58001846FFF7CFFE3EE09DF80F300021184677
:108F6800FFF7C8FE9DF80F3000211846FFF73CFFB9
:108F780000238DF816300DF116031846FFF730FE62
:108F88009DF80F104FF001024FF00003A1F12006E9
:108F9800C1F1200003FA01F502FA06F6354322FA78
:108FA80000F0054302FA01F46FEA04086FEA0509C4
:108FB8000B4BD3E9002308EA020A09EA030B084B22
:108FC800C3E900AB9DF816301846FFF71FFE02E014
:108FD80000BF00E000BF00BF07B0BDE8F08F00BFD2
:108FE8002838002000B583B00648074B1B685B088B
:108FF8000022194600F062FC019000BF03B05DF842
:1090080004FB00BF802C00202038002000B587B06A
:1090180001900023049328E01C4B1A68049BDB0092
:1090280013440593059B1B7818462FF0E9FA03466D
:109038008DF80F30059B5B78012B0CBF01230023B3
:10904800DBB21A469DF80F309A420CBF0123002369
:109058008DF80E30059B1B789DF80E20114618469A
:10906800FFF7E4FE049B01330493094B1B781A466F
:10907800049B9342D0DB074BD3E90023134301D071
:10908800FFF7B0FF00BF07B05DF804FB18380020F9
:109098001C3800202838002000B587B001900B4606
:1090A8008DF80330019BDBB21846FFF76FFE049082
:1090B800049B1B7818462FF0A3FA03468DF8173047
:1090C800049B5B78012B0CBF01230023DBB21A46FB
:1090D8009DF817309A420CBF012300238DF80F30FA
:1090E8009DF80F30002B06D0054BD3E9002313431E
:1090F80001D1FFF777FF00BF07B05DF804FB00BFA1
:109108002838002000B58BB003900B4601928DF8EB
:109118000B30019B092B01D8072367E02FF06CF86F
:10912800034683F00103DBB2002B09D02FF012F8BD
:109138000990099B0893089B002B01D0089B55E0D8
:109148002C4A039B13602C4A9DF80B3013702B4A52
:10915800019B13602022002129483CF03AFD29494F
:109168004FF000024FF00003C1E9002331E09DF801
:109178000B30DB00039A1344079303238DF8143054
:1091880000238DF815309DF816306FF300038DF825
:1091980016309DF816306FF341038DF816309DF8A0
:1091A80016306FF382038DF81630079B9B788DF885
:1091B8001530079B1B78184605AB134A19462FF044
:1091C8009BF80990099B0693069B002B01D0069BF0
:1091D8000CE09DF80B305A1E8DF80B20002BC6D1E1
:1091E8000A4A00210A4800F035FB034618460BB02E
:1091F8005DF804FB183800201C38002020380020B7
:109208003038002028380020A19002001590020074
:1092180030C0060000B583B0114B1B68002B04D189
:10922800104940F23510FFF728FD002301930CE0A8
:109238000B4B1A68019BDB0013441B78012118466D
:109248002FF0D4F8019B01330193074B1B781A4682
:10925800019B9342ECD30023184603B05DF804FB4E
:1092680018380020E0BF06001C3800202DE9F04324
:1092780083B0144800F044FF034600221C461546FC
:10928800114BD3E9002314EB020845EB0309CDE9A0
:1092980000890E4BD3E90023DDE90001904271EB10
:1092A800030307D2DDE9002312F1807643F10007BA
:1092B800CDE90067DDE900231046194603B0BDE893
:1092C800F08300BFA82C0020583800206038002008
:1092D80088B001900091019B0793009B0693079B20
:1092E800D3E90223CDE90423069BD3E90223CDE980
:1092F8000223DDE90423DDE90201904271EB030357
:109308002CBF01230023DBB2184608B070470000C9
:10931800F0B585B00190019B5B69002B03D12C4906
:10932800A220FFF7AAFC00238DF80F30294B1B78E9
:10933800002B48D0019B002B45D0019B93F820308F
:10934800DBB2002B3FD0FFF791FF019BD3E902234B
:10935800904271EB03032ED3019B1B69002B03D1B1
:10936800019B002283F82020019B5B69019A926986
:1093780010469847019B1B69002B24D0019B93F84A
:109388002030DBB2002B1ED0019BD3E902230199C8
:10939800096900200C460546161943EB0507019B91
:1093A800C3E90267019B19460B4803F021FA012320
:1093B8008DF80F3007E0019B1946074803F018FAAB
:1093C80001238DF80F309DF80F30184605B0F0BD19
:1093D80054C0060054380020A4C00600F0B589B077
:1093E800019000910D230793009B00221A70019BA6
:1093F800D3E90245FFF73AFF02460B46A61A65EB8A
:109408000307CDE90467DDE90423012A73F10003AA
:109418001BDB049BB3F5350F05D300F0B1FA024608
:10942800154B134403E0019BD3E90223134603932E
:109438004FF49603039A0021104800F063FD07904B
:10944800079B002B05D1012313E000210B4800F0F6
:1094580031FE079B0D2B07D10198FFF759FF0346F3
:109468001A46009B1A7003E00549F520FFF705FC32
:109478000023184609B0F0BDFFFFB400A82C002057
:1094880054C0060000B583B0044803F0EBF901901E
:10949800019B184603B05DF804FB00BFA4C006009A
:1094A80000B583B0044803F0FFF90190019B18460A
:1094B80003B05DF804FB00BFA4C0060000B583B08C
:1094C800FFF7E0FF0190019B002B03D0019B0022D6
:1094D80083F82020019B002BF2D100BF00BF03B00E
:1094E8005DF804FB054BD3E9002312F1807043F1CA
:1094F8000001024BC3E9000100BF70475838002043
:1095080000B583B00190134B1B68002B1DD0019848
:1095180000F0F6FD0F4B1B68D3E90223134623F036
:109528007F43194600F020FA0346B3F5960F04D39B
:1095380009494FF49570FFF7A0FB064B1B681846C6
:10954800FFF7E6FE034B00221A6000BF03B05DF888
:1095580004FB00BF5038002054C0060000B583B09B
:109568000190FFF783FE02460B460349C1E9002339
:1095780000BF03B05DF804FB6038002000B585B07B
:109588000190FFF78DFF039000238DF80B30039BAC
:10959800002B49D02C4B1B68002B03D101238DF8DD
:1095A8000B301AE0039BD3E90201274B1B68D3E970
:1095B8000223904271EB03030FD201238DF80B3085
:1095C800214B1B6893F82030DBB2002B05D01E4BD3
:1095D8001B6819461D4803F00BF99DF80B30002B4A
:1095E8002AD0FFF74FFF03900DF10A03194603989D
:1095F800FFF7F4FE0346002B12D0134B1B68002B19
:1096080002D1019800F08AFB0F4A039B13609DF872
:109618000A3083F00103DBB2002BB2D000BF0EE0AA
:10962800094B00221A60ACE7074B1B68002B05D1D9
:10963800019800F089FB01E000BF00E000BF00BF17
:1096480005B05DF804FB00BF50380020A4C0060038
:1096580000B587B001902D4A03AB1946104600F0BB
:1096680084FE05904AE0059B1B78022B30D0022B24
:1096780034DC002B02D0012B16D02FE0059B5B6851
:1096880093F82030DBB283F00103DBB2002B27D044
:10969800059B5B68012283F82020059B5B681946BF
:1096A8001B4803F0A5F81BE0059B5A68194B1B687B
:1096B8009A4203D1174B00221A6012E0059B5B689F
:1096C8001946134803F004F903468DF8133008E0EF
:1096D800FFF7F4FE104B01221A7002E000BF00E011
:1096E80000BF0A4A03AB1946104600F057FE074A66
:1096F80003AB1946104600F038FE0590059B002B79
:10970800B1D100BF00BF07B05DF804FBB02C00204A
:10971800A4C00600503800205438002000B583B09B
:109728000190019800F0B9FC0346002B01D0FFF727
:10973800D9FE0021019800F0CEFC0346002B02D090
:109748000198FFF7DDFE0121019800F0C4FC0346F3
:10975800002B02D00198FFF701FF0198FFF778FF6F
:109768000198FFF70BFF00BF03B05DF804FB000092
:1097780008B5024800F0D1FC00BF08BDA82C0020A5
:1097880000B585B0034600918DF80730114A02AB49
:109798001946104600F0BCFD0390039B002B13D024
:1097A800039B9DF807201A70039B009A5A60094A88
:1097B80002AB1946104600F0C4FD0346002B01D049
:1097C800FFF7D6FF002300E00423184605B05DF834
:1097D80004FB00BFB02C002000B583B0164B1B68FB
:1097E8000093164808235822154900F04AFD0190B5
:1097F800019B002B01D0019B19E06B46114A1946C9
:10980800114800F003FA0190019B002B01D0019B45
:109818000DE001210C4800F02FFC01230B4A012127
:10982800094800F0A7FA0A4B01221A70019B184652
:1098380003B05DF804FB00BFA0C00600B02C0020F8
:109848006838002025970200A82C0020FFFF7F0021
:109858005438002000B587B003900B4601928DF86C
:109868000B30039B002B04D1134940F22E20FFF745
:1098780004FA019B002B04D10F4940F22F20FFF777
:10988800FCF9019B002B01D1072310E0039B1B6807
:109898000593059B019A5A619DF80B30012B0CBF6B
:1098A80001230023DBB21A46059B1A6100231846E0
:1098B80007B05DF804FB00BF54C00600F0B587B0E0
:1098C800039002910192039B002B04D1174940F2A7
:1098D8003E20FFF7D2F9039B0593059B93F82030B0
:1098E800DBB2002B01D000231CE0059B019A9A6192
:1098F800FFF7BCFC02460B46029900200C460546C1
:10990800161943EB0507059BC3E90267059B1B690D
:10991800002B02D0059B029A1A6105990020FFF7D7
:109928002FFF0346184607B0F0BD00BF54C006001D
:1099380000B585B00190019B002B04D109494FF473
:109948001570FFF79AF9019B0393039B002283F894
:10995800202003990120FFF713FF0346184605B09E
:109968005DF804FB54C0060082B001900091019A92
:10997800009BD31A23F07F43184602B070470000BB
:1099880008B5034800F0BCFB0346184608BD00BFF5
:10999800A82C002082B003468DF807309DF80730C8
:1099A80003F01F0205499DF907305B09012000FA01
:1099B80002F241F8232000BF02B0704700E100E046
:1099C80082B003468DF807309DF8073003F01F0278
:1099D80006499DF907305B09012000FA02F240337D
:1099E80041F8232000BF02B0704700BF00E100E04B
:1099F80082B0034600918DF807309DF90730002B9F
:109A08000CDA009BDAB20C499DF8073003F00F031B
:109A1800043B5201D2B20B441A7609E0009BDAB239
:109A280006499DF907305201D2B20B4483F800234E
:109A380000BF02B0704700BF00ED00E000E100E0A9
:109A480000B583B003460A468DF8073013468DF8F3
:109A580006309DF80630012B03D99DF80630032BFC
:109A68000BD99DF80630042B03D99DF80630072B37
:109A780003D908496B20FFF700F99DF806209DF9E6
:109A8800073011461846FFF7B3FF00BF03B05DF873
:109A980004FB00BFB0C0060000B583B003468DF8D4
:109AA80007309DF907301846FFF774FF00BF03B071
:109AB8005DF804FB00B585B00190019B002B0AD02E
:109AC800074B43F001030393019B9B010293039B04
:109AD8000298984700E000BF05B05DF804FB00BF9E
:109AE800B0C1060084B0039002910192039B029AD0
:109AF80002F5A872019943F8221000BF04B070471C
:109B080082B001900091019B009A02F5A87253F867
:109B18002230184602B0704782B001900091019B34
:109B2800009AC3F8042300BF02B0704782B00190C6
:109B38000091019B009AC3F8082300BF02B0704748
:109B480082B001900B46ADF80230BDF80230019AA0
:109B580013441B68184602B0704784B001900B4646
:109B6800ADF80230BDF80230019A134400221A60A1
:109B7800BDF80230019A13441B680393039B00BF8E
:109B880004B0704782B00190019BD3F804351846A1
:109B980002B0704700B583B001900091009BB3F507
:109BA800805F04D306494FF4BE70FFF766F8019B47
:109BB800009AC3F8082500BF03B05DF804FB00BF96
:109BC800E0C0060082B001900B468DF803309DF886
:109BD8000320019B13441A460123136000BF02B0FF
:109BE800704782B001900091019B009AC3F844230A
:109BF80000BF02B0704782B001900091019B009AAB
:109C0800C3F8482300BF02B07047000000B587B012
:109C1800039002910192039B002B03D137495520F1
:109C2800FFF72BF8029B002B03D134495620FFF78E
:109C380024F8019B002B03D130495720FFF71DF86A
:109C4800039B5B7919462E4A019B42F82130039BFE
:109C58005B792C4ADB0013441B79002B12D00823B4
:109C68000593294B5B88012B0AD9284A284BD31A1C
:109C7800DB081B0443F0020326491846FEF7BCF92B
:109C8800059B36E0039B1A68029B1B881946104601
:109C9800FFF780FF039B93F90420029B9B781946EA
:109CA8001046FFF7CDFE039B93F904301846FFF7E3
:109CB800F3FE039B5B79134ADB00134401221A71FC
:109CC800039B5B7919460F4A039B42F83130002306
:109CD80005930D4B5B88022B0AD90C4A0C4BD31AFF
:109CE800DB081B0443F003030B491846FEF784F90D
:109CF800059B184607B05DF804FB00BF10C10600BD
:109D0800C4380020C83800201C2B0020C8BA060020
:109D180080BA06005CC1060080C1060000B583B0A9
:109D28000190019B002B03D106498720FEF7A5FF70
:109D3800019B1B6800211846FFF744FF00BF03B0D2
:109D48005DF804FB10C1060000B583B00190019BCB
:109D5800002B03D106498D20FEF78FFF019B1B685E
:109D680004211846FFF72EFF00BF03B05DF804FB7F
:109D780010C1060000B587B00390029101928DF8DA
:109D88000330039B002B03D121499620FEF775FF72
:109D98004FF48032029B02FA03F30593029B50337F
:109DA8009BB29B00ADF81230019B23F07F430193D7
:109DB800039B1B6805991846FFF7B8FE039B1B68B1
:109DC80005991846FFF717FF039B1B68BDF812207B
:109DD80011461846FFF7C1FE039B1B68019A0299BA
:109DE8001846FFF77FFE039B1B6805991846FFF787
:109DF800F8FE9DF80330002B05D0039B1B680599DE
:109E08001846FFF789FE00BF07B05DF804FB00BFE6
:109E180010C1060000B585B00390029113468DF875
:109E28000730039B002B03D10B49A920FEF725FF20
:109E3800039B1B6802991846FFF7D3FE9DF807306D
:109E4800002B05D0039B1B6802991846FFF764FE98
:109E580000BF05B05DF804FB10C1060000B583B073
:109E680001900091019B002B03D10A49B320FEF712
:109E780004FF019B1B6800991846FFF7BCFE019B75
:109E88001B6800991846FFF751FE00BF03B05DF844
:109E980004FB00BF10C1060000B583B001900B465B
:109EA800ADF80230019B002B03D10F49BA20FEF711
:109EB800E4FE019B1B68BDF8022011461846FFF717
:109EC8003FFE0346002B09D0019B1B68BDF802200A
:109ED80011461846FFF741FE012300E0002318460B
:109EE80003B05DF804FB00BF10C1060082B001900A
:109EF8000091019A009BD31A23F07F43184602B0C1
:109F08007047000000B58BB0039002910192009356
:109F1800039B002B03D15749CD20FEF7AEFE4FF42B
:109F28008032029B02FA03F30993029B50339BB2DF
:109F38009B00ADF82230019B23F07F4301930999E0
:109F48000398FFF78BFF039B1B681846FFF71AFE61
:109F58000790039B1B6802991846FFF7D1FD0690EE
:109F6800039B1B68079A02991846FFF7BBFD039BE2
:109F78001B68BDF8222011461846FFF7EEFD079929
:109F88000698FFF7B3FF0346012B0AD11020FFF70D
:109F980091FD039B1B68BDF8222011461846FFF768
:109FA800DCFD039B1B681846FFF7ECFD079007993B
:109FB8000198FFF79BFF0590039B1B6809991846BA
:109FC800FFF70FFE059B012B15D1039B1868019B1A
:109FD80001331A460299FFF785FD1020FFF76AFD45
:109FE800039B1B681846FFF7CDFD0246079B93426B
:109FF80035D00D2339E0039B1B68019A0299184656
:10A00800FFF770FD039B1B681846FFF7BBFD079021
:10A01800019B013B07991846FFF768FF0590009BD5
:10A02800C3F1FF1303F57F43059A9A4201D90D2323
:10A038001BE0059B002B12D1039B1868019B013381
:10A048001A460299FFF74EFD039B1B681846FFF757
:10A0580099FD0246079B934201D00D2305E001229A
:10A0680009990398FFF7D6FE002318460BB05DF850
:10A0780004FB00BF10C1060000B583B001900B4679
:10A088008DF803309DF803301A4602210198FFF736
:10A09800C1FE00BF03B05DF804FB00B583B00190BA
:10A0A8004FF482710198FFF7F7FE0346184603B094
:10A0B8005DF804FB00B583B0019000914FF4803245
:10A0C800009B02FA03F319460198FFF7C7FE00BF89
:10A0D80003B05DF804FB00B585B001900091009BCA
:10A0E80050339BB29B00ADF80E30BDF80E301946C8
:10A0F8000198FFF7D1FE0346184605B05DF804FB4A
:10A1080000B583B00190019B1B681846FFF73AFD24
:10A118000346184603B05DF804FB00B583B0019010
:10A12800019B93F904301846FFF74AFC00BF03B0BF
:10A138005DF804FB08B5044B1B68044A1268104616
:10A14800984700BF08BD00BFC4380020C8380020A9
:10A1580086B001900091019B53E8011F8AB2D8890B
:10A1680002449889824228BF121A1889824202BF83
:10A17800BFF32F8F002307E0C2EA010243E8012062
:10A188000028E9D14FF001038DF80F3005900291B6
:10A198000492029A009B1A609DF80F30DBB21846B1
:10A1A80006B0704784B00190019951E8013FC3EAB5
:10A1B800034341E80132002AF7D10392029300BF1A
:10A1C80004B0704786B001900091019B53E8021FCC
:10A1D8001FFAA1F2D888824202BFBFF32F8F002353
:10A1E8000DE0D88902449889824228BF121AC1EA30
:10A1F800024243E802200028E8D14FF001038DF81D
:10A208000F30059002910492029A009B1A609DF803
:10A218000F30DBB2184606B0704784B00190019940
:10A2280051E8023FC3EA234341E80232002AF7D14A
:10A238000392029300BF04B0704786B00190019B5F
:10A2480053E8021FDA88B1EB314F4FF0000017BF17
:10A2580089B242EA024241EA024204E05968B1EB9B
:10A26800314F08BF012043E802210029E8D18DF8C9
:10A278000F00059104929DF80F30DBB2184606B026
:10A28800704784B00390029111461A460B46ADF808
:10A2980006301346ADF80430029B002B01D10E2383
:10A2A8001FE0BDF80630BDF80420B3FBF2F101FB56
:10A2B80002F29B1A9BB2002B01D0092311E0039BE9
:10A2C800029A1A60039B00225A60039B00229A603C
:10A2D800039BBDF806209A81039BBDF80420DA8110
:10A2E8000023184604B0704700B585B00190019866
:10A2F800FFF7A3FF03468DF80F309DF80F30002BB2
:10A3080001D0002300E01123184605B05DF804FBD6
:10A3180000B585B001900091009B19460198FFF7A0
:10A3280017FF0346002B07D0019B1B68009A128871
:10A3380013440393039B00E00023184605B05DF81F
:10A3480004FB00B583B001900091009B1A88009B24
:10A358005B889A4204D10198FFF724FF012300E0AB
:10A368000023184603B05DF804FB00B585B00190E2
:10A378000091009B19460198FFF724FF0346002B24
:10A3880007D0019B1B68009A528813440393039BD0
:10A3980000E00023184605B05DF804FB00B583B063
:10A3A80001900091009B1A88009B5B889A4204D117
:10A3B8000198FFF732FF012300E00023184603B09D
:10A3C8005DF804FB00B585B001900091009B5B0926
:10A3D8009B00019A1A44009B03F01F03012101FA14
:10A3E80003F31946104600F065F8039000BF05B066
:10A3F8005DF804FB00B585B001900091009B5B09F6
:10A408009B00019A1A44009B03F01F03012101FAE3
:10A4180003F3DB431946104600F07CF8039000BFB5
:10A4280005B05DF804FB82B001900091009B5B09C8
:10A438009B00019A13441A68009B03F01F0322FA39
:10A4480003F303F00103002B14BF01230023DBB245
:10A45800184602B0704710B487B001900091019B74
:10A46800009A53E8004F104643E8000191F0000FAE
:10A47800F7D1059404900391059B184607B05DF841
:10A48800044B704710B487B001900091019B009A6B
:10A4980053E8004F44EA020043E8000191F0000F3E
:10A4A800F6D1059404900391059B184607B05DF812
:10A4B800044B704710B487B001900091019B009A3B
:10A4C80053E8004F44EA020043E8000191F0000F0E
:10A4D800F6D1059404900391049B184607B05DF8E3
:10A4E800044B704710B487B001900091019B009A0B
:10A4F80053E8004F04EA020043E8000191F0000F1E
:10A50800F6D1059404900391059B184607B05DF8B1
:10A51800044B704710B487B001900091019B009ADA
:10A5280053E8004F04EA020043E8000191F0000FED
:10A53800F6D1059404900391049B184607B05DF882
:10A54800044B704710B487B001900091019B009AAA
:10A5580053E8004F04EB020043E8000191F0000FBC
:10A56800F6D1059404900391049B184607B05DF852
:10A57800044B704710B487B001900091019B009A7A
:10A5880053E8004FA4EB020043E8000191F0000FEC
:10A59800F6D1059404900391049B184607B05DF822
:10A5A800044B704700B583B0019001210198FFF773
:10A5B80069FF0346184603B05DF804FB00B583B095
:10A5C800019001210198FFF775FF0346184603B073
:10A5D8005DF804FB00B583B0019000210198FFF7F6
:10A5E80081FF0346184603B05DF804FB00B583B04D
:10A5F800019000210198FFF78DFF0346184603B02C
:10A608005DF804FB00B583B001900B468DF803306C
:10A61800019B002B03D10849E820FEF72EFB019B84
:10A62800DA689DF803300199898A01FB03F3134422
:10A63800184603B05DF804FBB8C1060000B583B046
:10A6480001900091019B002B03D10849F520FEF7EA
:10A6580014FB009B019AD2689B1A019A928AB3FB59
:10A66800F2F3DBB2184603B05DF804FBB8C106008C
:10A6780000B585B00190019B002B01D10E234CE061
:10A68800019B1B68002B03D12649FF20FEF7F5FA32
:10A69800019B5B68002B04D122494FF48070FEF7C0
:10A6A800ECFA019B9B68002B04D11E4940F2011073
:10A6B800FEF7E3FA019BDB68002B04D119494FF43C
:10A6C8008170FEF7DAFA019B9B8A002B04D11549A9
:10A6D80040F20310FEF7D1FA019B9A68019B5B6870
:10A6E800D31A8DF80F30019B1B68019A52681A60C3
:10A6F80007E0019B1A681368591C11609DF80F2028
:10A708001A709DF80F305A1E8DF80F20002BF0D1CB
:10A71800019B1B6800221A710023184605B05DF8DA
:10A7280004FB00BFB8C1060000B585B00190019BCD
:10A73800002B04D11F494FF49270FEF79EFA0023B4
:10A74800039300238DF80A300DF10A031846FEF72B
:10A7580047FA019B1B681A68019B5B689A421FD9DC
:10A76800019B1B681A68013A1A601B681B78194616
:10A778000198FFF747FF0390019B9A68019B1B68AC
:10A788001B68D31A8DF80B30019B1B681B799DF849
:10A798000B209A4204D9019B1B689DF80B201A7163
:10A7A8009DF80A301846FEF731FA039B184605B0A3
:10A7B8005DF804FBB8C1060010B584B001900091A3
:10A7C800019B002B04D1154940F24710FEF755FABA
:10A7D800009B002B04D111494FF4A470FEF74DFAE9
:10A7E800009B039300238DF80B300DF10B031846E3
:10A7F800FEF7F6F9019B1B681C68621C1A60039936
:10A808000198FFF71BFF034623709DF80B3018468D
:10A81800FEF7FCF900BF04B010BD00BFB8C10600C8
:10A8280000B583B00190019B002B03D10C49312066
:10A83800FEF723FA019B9B68002B0CD0019B5B69F8
:10A84800019A1069019A1168019A92689847019BC8
:10A8580000229A6000E000BF03B05DF804FB00BF6F
:10A8680008C206000EB400B584B00190019B002B0D
:10A8780003D118494220FEF700FA019B5B69002BBF
:10A8880003D114494320FEF7F8F9019B1B68002BFC
:10A8980003D110494420FEF7F0F9019B5B68002BB7
:10A8A80003D10C494520FEF7E8F9059B002B0AD097
:10A8B8000023039306AB039303AB1A46059901984B
:10A8C80000F0B8F900E000BF04B05DF804EB03B095
:10A8D800704700BF08C2060000B583B001900B4660
:10A8E8008DF803309DF803300A2B03D10D21019810
:10A8F800FFF7F2FF019B1A68019B9B68581C01999E
:10A90800886013449DF803201A70019B9A68019B84
:10A918005B689A4202D30198FFF782FF00BF03B039
:10A928005DF804FB00B587B0039002910192009393
:10A9380000230593009B03F00103002B24D00BE0B8
:10A94800029B01330293059B013305939DF8133055
:10A9580019460398FFF7C0FF029B1B788DF8133048
:10A968009DF81330002BEBD106E0019B013B0193CE
:10A9780020210398FFF7B0FF019A059B9A422ED930
:10A98800019B002BF1D12AE0029B002B0BD00298EF
:10A998003BF079F9059006E0019B013B01932021EA
:10A9A8000398FFF799FF019A059B9A420FD9019BDB
:10A9B800002BF1D10BE0029B01330293059B01337D
:10A9C80005939DF8133019460398FFF785FF029BFE
:10A9D8001B788DF813309DF81330002BEBD100BF96
:10A9E80007B05DF804FB000000B589B00390029140
:10A9F80001920093029B07930123069307E0079AAD
:10AA0800019BB2FBF3F30793069B01330693079A66
:10AA1800019B9A42F3D2009A069B9A4201D9009B65
:10AA280006930B9B03F00103002B22D10A9B002BFA
:10AA38001FD00B9B03F00203002B06D0009B002BBA
:10AA480003D130238DF8173002E020238DF817301A
:10AA580008E00A9B013B0A939DF8173019460398B2
:10AA6800FFF73AFF0A9B002B03D0069A0A9B9A42EB
:10AA7800EFD301230793009B012B03D9009B013BD4
:10AA8800009309E0029A079BB2FBF3F30493049A3C
:10AA9800019B9A4200D205E0079B019A02FB03F34F
:10AAA8000793E8E7029A079BB2FBF3F30493049B2E
:10AAB800079A02FB03F3029AD31A0293154A049BDE
:10AAC80013441B7819460398FFF706FF079A019B62
:10AAD800B2FBF3F30793079B002BE3D10B9B03F027
:10AAE8000103002B11D00A9B002B0ED006E00A9B15
:10AAF800013B0A9320210398FFF7EEFE0A9B002BE7
:10AB080003D0069A0A9B9A42F1D300BF09B05DF8B8
:10AB180004FB00BF98C2060000B589B005900491F7
:10AB280003920293049B002BB8BF5B420693012358
:10AB3800079307E0039B069A92FBF3F30693079BA0
:10AB480001330793039B069A9A42F3DA029A079B0A
:10AB58009A4201D9029B07930A9B002B0AD0049BB7
:10AB6800002B04DB0B9B03F00403002B02D00A9B91
:10AB7800013B0A930B9B03F00203002B02D0029BBC
:10AB8800002B16D00B9B03F00103002B11D10A9B5D
:10AB9800002B0ED006E00A9B013B0A932021059862
:10ABA800FFF79AFE0A9B002B03D0079A0A9B9A424A
:10ABB800F1D3049B002B07DA049B5B4204932D21FD
:10ABC8000598FFF789FE08E00B9B03F00403002BB0
:10ABD80003D02B210598FFF77FFE0B9B03F00203A0
:10ABE800002B19D00B9B03F00103002B14D1029BFF
:10ABF800002B11D10A9B002B0ED006E00A9B013BCB
:10AC08000A9330210598FFF767FE0A9B002B03D0B3
:10AC1800079A0A9B9A42F1D304990B9B01930A9BCA
:10AC28000093029B039A0598FFF7DEFE00BF09B068
:10AC38005DF804FB00B58FB0059004910392059B65
:10AC4800002B04D1AD4940F25220FEF716F8059BBF
:10AC58005B69002B04D1A9494FF41570FEF70DF874
:10AC6800059B1B68002B04D1A44940F25520FEF730
:10AC780004F8059B5B68002B04D1A04940F25620DC
:10AC8800FDF7FBFF049B002B00F09381049B1B78CE
:10AC98008DF83730049B013304939DF83730002B2F
:10ACA80000F07E819DF83730252B40F06D81002320
:10ACB8000A9301230C93049B1B788DF837309DF879
:10ACC8003730302B0DD0302B1BDC2B2B11D02D2BFC
:10ACD80017D10A9B43F001030A93049B01330493A1
:10ACE80012E00A9B43F002030A93049B0133049386
:10ACF8000AE00A9B43F004030A93049B013304937C
:10AD080002E000230C9300BF0C9B002BD3D100233F
:10AD180009939DF837302A2B0CD1039B1B68191D0A
:10AD2800039A11601B68099A13440993049B013321
:10AD380004931AE0049B1B788DF837309DF8373060
:10AD48002F2B12D99DF83730392B0ED8049B01339D
:10AD58000493099A13469B0013445B001A469DF816
:10AD680037301344303B0993D3E700230B93049BFC
:10AD78001B788DF837309DF837302E2B1DD1049B6A
:10AD880001330493049B1B788DF837309DF83730D6
:10AD98002F2B12D99DF83730392B0ED8049B01334D
:10ADA80004930B9A13469B0013445B001A469DF8C4
:10ADB80037301344303B0B93E4E7049B1B788DF842
:10ADC80037309DF837306C2B03D09DF83730682B1F
:10ADD80007D1049B01330493049B1B788DF837300B
:10ADE800EFE79DF83730252B00F0C480252BC0F203
:10ADF800C680782B00F3C380582BC0F2C080583B24
:10AE0800202B00F2BC8001A252F823F009AF020007
:10AE180087AF020087AF020087AF020087AF02004A
:10AE280087AF020087AF020087AF020087AF02003A
:10AE380087AF020087AF020099AE0200BBAE0200E6
:10AE480087AF020087AF020087AF020087AF02001A
:10AE5800BBAE020087AF020087AF020087AF0200D7
:10AE680087AF020087AF020087AF020049AF020038
:10AE780087AF020087AF02002DAF020087AF020044
:10AE8800DFAE020087AF020087AF020009AF020001
:10AE9800039B1B68191D039A11601B680C930C9B7C
:10AEA8008DF81F309DF81F3019460598FFF714FDDF
:10AEB80066E0039B1B68191D039A11601B680C93BD
:10AEC8000A9B0193099B00930B9B0A220C990598F6
:10AED800FFF722FE54E0039B1B68191D039A1160BB
:10AEE8001B680C930C990A9B0193099B00930B9B7D
:10AEF8000A220598FFF778FD42E000BF4CC2060021
:10AF0800039B1B68191D039A11601B680C930C990D
:10AF18000A9B0193099B00930B9B10220598FFF74E
:10AF280063FD2DE0039B1B68191D039A11601B68C4
:10AF380008930A9B099A08990598FFF7F3FC1FE004
:10AF4800039B1B68191D039A11601B680C93302121
:10AF58000598FFF7C1FC78210598FFF7BDFC0C990F
:10AF68000023019308230093082310220598FFF774
:10AF78003BFD05E025210598FFF7AEFC00E000BF8A
:10AF8800049B0133049305E09DF837301946059872
:10AF9800FFF7A2FC049B1B78002B7FF477AE00E040
:10AFA80000BF059B1B7B002B04D00598FFF738FCDE
:10AFB80000E000BF0FB05DF804FB00BF00B587B02C
:10AFC800059004910392059B002B14D11D4B5B88BF
:10AFD800002B0ED01C4A1D4BD31ADB081B0443F070
:10AFE80001001B4A1B490E2300930B461A49FDF723
:10AFF80036F80E2321E0049B002B14D1114B5B88FB
:10B00800002B0ED0104A114BD31ADB081B0443F057
:10B018000100124A0F490E2300930B460E49FDF713
:10B028001EF80E2309E0059B049A1A60059B1B680D
:10B038001B680399059898470346184607B05DF8BA
:10B0480004FB00BF642B002058BB060080BA060032
:10B05800B8C206005CC40600C0C20600ECC2060006
:10B0680010B586B00590049103920293059B002BBE
:10B0780014D1704B5B88002B0ED06F4A6F4BD31ADC
:10B08800DB081B0443F001006D4A6E490E23009350
:10B098000B466D49FCF7E3FF0E23C7E0039B002B2B
:10B0A80014D1644B5B88002B0ED0634A634BD31AD0
:10B0B800DB081B0443F00100644A62490E23009335
:10B0C8000B466149FCF7CBFF0E23AFE0059B1B68DD
:10B0D800002B14D1574B5B88002B0ED0564A574B88
:10B0E800D31ADB081B0443F00100594A55490823C9
:10B0F80000930B465449FCF7B2FF082396E0029BE5
:10B10800002B14D14B4B5B88002B0ED04A4A4B4B7B
:10B11800D31ADB081B0443F001004E4A49490923AE
:10B1280000930B464849FCF79AFF09237EE0059BEC
:10B138005B685A68029BB3FBF2F101FB02F29B1AAF
:10B14800002B14D03B4B5B88002B0ED03A4A3B4B6C
:10B15800D31ADB081B0443F001003F4A394909238D
:10B1680000930B463849FCF77AFF09235EE0049800
:10B1780000F042F90346002B14D12E4B5B88002BBC
:10B188000ED02D4A2D4BD31ADB081B0443F00100C7
:10B19800324A2C49102300930B462B49FCF75FFFDA
:10B1A800102343E0039B184600F026F90346002BC2
:10B1B80014D1204B5B88002B0ED01F4A1F4BD31A8B
:10B1C800DB081B0443F00100254A1E4910230093A5
:10B1D8000B461D49FCF743FF102327E0029A049908
:10B1E800059800F0EFF80346002B14D1114B5B884B
:10B1F800002B0ED0104A114BD31ADB081B0443F066
:10B208000100184A0F49102300930B460E49FCF71A
:10B2180026FF10230AE0059B1B68DC68089B009347
:10B22800029B039A04990598A0470346184606B05E
:10B2380010BD00BF642B002058BB060080BA060072
:10B24800B8C2060070C40600C0C206004CC306009F
:10B25800F4C2060008C3060054C3060080C30600F3
:10B2680098C30600BCC3060010B586B005900491CB
:10B2780003920293059B002B14D1484B5B88002B4B
:10B288000ED0474A474BD31ADB081B0443F0010092
:10B29800454A46490E2300930B464549FCF7DFFE15
:10B2A8000E2378E0059B1B68002B14D13B4B5B8871
:10B2B800002B0ED03A4A3B4BD31ADB081B0443F051
:10B2C80001003C4A3949082300930B463849FCF7EA
:10B2D800C6FE08235FE0039B002B14D12F4B5B882D
:10B2E800002B0ED02E4A2F4BD31ADB081B0443F039
:10B2F8000100314A2D49092300930B462C49FCF7DC
:10B30800AEFE092347E00499059800F082F8034649
:10B31800002B14D1214B5B88002B0ED0204A214BE7
:10B32800D31ADB081B0443F00100244A1F491023E9
:10B3380000930B461E49FCF792FE10232BE0059B59
:10B348005B681B68039A02FB03F31A460499059885
:10B3580000F038F80346002B14D1104B5B88002B03
:10B368000ED00F4A0F4BD31ADB081B0443F0010021
:10B37800134A0E49102300930B460D49FCF76FFE44
:10B38800102308E0059B1B681C69029B039A04991B
:10B398000598A0470346184606B010BD642B002048
:10B3A80058BB060080BA0600B8C2060084C406006E
:10B3B800C0C20600F4C2060008C30600E4C30600C3
:10B3C8000CC4060084B0039002910192039BDB68D1
:10B3D800029A9A4209D3029A019B13445A1E039B6C
:10B3E8001B699A4201D8012300E0002303F00103FE
:10B3F800DBB2184604B0704782B00190019B03F09D
:10B408000303002B0CBF01230023DBB2184602B054
:10B41800704782B001900091019B5B681B685A1EBF
:10B42800009B1340002B0CBF01230023DBB21846FE
:10B4380002B0704729DF704700BF184628DF704701
:10B4480000BF184600B589B001900091019B1B68A8
:10B458009B68002B35D002AB00221A605A609A60B4
:10B46800DA601A615A61009B0393019B9B680793FA
:10B47800019B1B79002B02D0012B0DD01AE0012370
:10B488008DF80830019B1B690493019BDB680593C9
:10B49800019B5B6906930DE002238DF80830019B40
:10B4A800DB684FF4805202FB03F30493019B5B6952
:10B4B800069300BF019B1B689B6802AA1046984729
:10B4C80000E000BF09B05DF804FB00B587B001904B
:10B4D800019B5A69019B9B69D31AB3F5805F28BF0A
:10B4E8004FF4805305930422059BB3FBF2F3012B21
:10B4F80038BF01230593019B1A69019B9B6913447B
:10B508000493019BDB681A46019B9B6913440393D0
:10B51800059A03990498FFF78DFF0346184607B06C
:10B528005DF804FB00B583B00190019BDA68019BCC
:10B538001B6913441846FFF781FF0346184603B0FA
:10B548005DF804FB08B5034B03491846FEF726FFD0
:10B5580000BF08BDC42C00207439002008B5084B72
:10B5680008491846FEF701FF0346074A1360064BD1
:10B578001B68002B14BF01230023DBB2184608BD4B
:10B58800C42C0020743900207039002000B583B025
:10B598002A4B1B7A002B0BD1FFF7E0FF034683F001
:10B5A8000103DBB2002B03D0244B00225A6042E097
:10B5B800224B02221A72224B1B681B79002B02D0E5
:10B5C800012B07D00DE01E4B1B681846FFF77DFFC7
:10B5D800019009E01A4B1B681846FFF7A3FF01907A
:10B5E80002E00323019300BF019B002B03D0019BC2
:10B5F800112B0CD00FE0114B1B7C83F00103DBB245
:10B60800002B17D00021022000F060F912E00B4B4C
:10B6180001221A720FE00A4B1B6803211846FFF734
:10B6280011FF064B00221A72044B00225A60FFF7E2
:10B6380089FF00E000BF03B05DF804FB5C3900201F
:10B648007039002008B50848FEF7ACFF0346002B08
:10B6580008D1064B5B7C83F00103DBB2002B01D0E1
:10B66800FFF794FF00BF08BD603900205C39002057
:10B6780084B001901B4B0022DA60019B1B79002BE0
:10B6880002D0012B19D028E0019B5A69019B9B69C4
:10B69800D31AB3F5805F28BF4FF480530393019BFF
:10B6A8009A69039B1A44019B9A61019B9A69019BC1
:10B6B8005B699A420ED1012310E0019B1B695A1C59
:10B6C800019B1A61019B1A69019B5B699A4203D12C
:10B6D800012303E000BF00E000BF0023184604B0C8
:10B6E800704700BF5C39002082B00190084BDB68CE
:10B6F8000133074AD360064BDB68082B04D9044B97
:10B708000022DA60012300E00023184602B07047E7
:10B718005C39002000B583B001900091019B0C4A70
:10B728005A600C48FEF73EFF0346002B0BD12FF062
:10B7380089FD03461A46074B1A7407481C238C22B6
:10B748000649FEF79EFD0023184603B05DF804FB8A
:10B7580098C406005C390020C42C0020D038002092
:10B7680000B583B0019000911422002105483AF0F9
:10B7780030FA054B1846FEF7B7FD0023184603B00C
:10B788005DF804FB5C390020C42C002000B587B0AC
:10B798000390029101920093174A04AB1946104690
:10B7A800FEF7B6FD0590059B002B01D104231FE091
:10B7B8001C22002105983AF00CFA059B00221A7108
:10B7C800059B039A1A60059B089A9A60059B029A42
:10B7D8001A61059B019ADA60059B009A5A61064A2C
:10B7E80004AB19461046FEF7ACFDFFF72BFF00230C
:10B7F800184607B05DF804FBC42C002000B585B0DE
:10B808000390029101920093029B009A19460198B5
:10B818003AF0B6F90023184605B05DF804FB0000BD
:10B8280000B587B00390029101920093184A04ABC7
:10B8380019461046FEF76CFD0590059B002B01D1BB
:10B84800042320E01C22002105983AF0C2F9059B48
:10B8580001221A71059B039A1A60059B009A9A6047
:10B868004FF48052029BB3FBF2F2059BDA60059B12
:10B87800019A5A61064A04AB19461046FEF761FD63
:10B88800FFF7E0FE0023184607B05DF804FB00BF91
:10B89800C42C002082B001900091009B184602B091
:10B8A800704782B0019000910023184602B070479B
:10B8B80082B00190044B1B7A002B14BF0123002394
:10B8C800DBB2184602B070475C39002000B585B07D
:10B8D80001900091019B022B02D0019B032B48D1C0
:10B8E800274B1B7A022B05D0022B35DC002B42D0CC
:10B8F800012B31E000238DF80F30019B022B03D080
:10B90800019B032B09D011E01E4B1B681846FFF75B
:10B91800AFFE03468DF80F3008E01A4B1B68184637
:10B92800FFF7E2FE03468DF80F3000BF9DF80F3099
:10B93800002B10D0124B00221A72124B1A68019B6E
:10B94800022B01D1002300E00D2319461046FFF712
:10B9580079FDFFF7F7FD00BF094B5B7C83F001031E
:10B96800DBB2002B02D0FFF711FE05E02FF04EFCF2
:10B9780002E000BF00E000BF05B05DF804FB00BFB7
:10B988005C3900207039002082B0034600918DF8A0
:10B998000730064B01225A74044B1B7A002B0CBF4C
:10B9A80001230023DBB2184602B070475C3900203F
:10B9B80000B583B0034600918DF807309DF8073035
:10B9C800012B03D09DF80730032B0DD1084B002223
:10B9D8005A749DF80730012B0CBF01230023DAB2FB
:10B9E800034B1A74FFF7D2FD00BF03B05DF804FBE8
:10B9F8005C39002000B583B001900198FEF738FE4D
:10BA08000346184603B05DF804FB00B58BB00190FF
:10BA18000091019B9B8A043B0793009A079B134460
:10BA2800DA1C079BB2FBF3F38DF81B300198FEF785
:10BA38007BFE0590059B002B01D1002338E0059B78
:10BA480000221A71059B01225A71079B9AB2059B25
:10BA5800DA80059B09939DF81B30013B0493099BF1
:10BA6800019A1A60002308931DE00198FEF75CFE16
:10BA78000390039B002B0ED0059B5B790133DAB250
:10BA8800059B5A71099B039A1A60039B019A1A60D5
:10BA9800039B099304E0059800F00EF8002307E0E3
:10BAA800089B01330893089A049B9A42DDD3059BAF
:10BAB80018460BB05DF804FB00B58BB00190019BF4
:10BAC8000793079B5B798DF81B30019B08939DF8C2
:10BAD8001B30013B05930023099305E0089B1B6875
:10BAE8000893099B01330993099A059B9A42F5D358
:10BAF800089B1B680493019B0893002309930BE0A0
:10BB0800089B1B68039308990498FEF755FE039B4E
:10BB18000893099B013309939DF81B30099A9A42AF
:10BB2800EED300BF00BF0BB05DF804FB00B585B0D5
:10BB38000190019B0393039B043301211846FEF7F0
:10BB480001FD00BF05B05DF804FB00B587B00190AA
:10BB5800019B0593059B043301211846FEF70AFD56
:10BB68000346039303AB0493049B1B78002B02D179
:10BB78000198FFF7A1FF00BF07B05DF804FB0000C4
:10BB880000B591B00390029101920093039B002BA2
:10BB980003D14349B620FDF770F8039B0993039B33
:10BBA8000F93099BDB881A46099B5B7902FB03F319
:10BBB800043B0893009A089B9A4203D33849C4204F
:10BBC800FDF75BF8099BDB880793009B1A1D079B11
:10BBD800B2FBF3F30E93009B0433079AB3FBF2F224
:10BBE800079901FB02F29B1A0D93019B1A68009BAF
:10BBF8001344089A9A4203D2089A009BD31A01E088
:10BC0800019B1B680C93019B0C9A1A6005E00F9B23
:10BC18001B680F930E9B013B0E930E9B002BF6D1D6
:10BC280000230B93079A0D9BD31A0A930A9A0C9B2D
:10BC3800934228BF13460A932AE0029A0B9B1344A7
:10BC480006930F9A0D9B1344043305939DF84830CF
:10BC5800002B05D00A9A0599069839F091FF04E05F
:10BC68000A9A0699059839F08BFF00230D930F9BCC
:10BC78001B680F930C9A0A9BD31A0C930B9A0A9B76
:10BC880013440B93079A0C9B934228BF13460A93BD
:10BC98000C9B002BD1D100BF00BF11B05DF804FB95
:10BCA800D4C4060000B589B00590049103920293AC
:10BCB800039B079307AA00230093029B0499059806
:10BCC800FFF75EFF079B039A9A4203D00349F620C9
:10BCD800FCF7D3FF00BF09B05DF804FBD4C406002D
:10BCE80000B589B00590049103920293039B0793D2
:10BCF80007AA01230093029B04990598FFF740FFC8
:10BD0800079B039A9A4204D004494FF48070FCF7C9
:10BD1800B4FF00BF09B05DF804FB00BFD4C406003F
:10BD280082B003468DF807309DF8073003F01F02F4
:10BD380006499DF907305B09012000FA02F26033D9
:10BD480041F8232000BF02B0704700BF00E100E0C7
:10BD5800BFF34F8F00BF074BDB6803F4E062054970
:10BD6800054B1343CB60BFF34F8F00BF00BF00BF2D
:10BD7800FCE700BF00ED00E00400FA0500B583B061
:10BD88000190019B002B03D10449C420FCF775FFE7
:10BD9800019B5B68184603B05DF804FB24C50600E8
:10BDA80000B583B00190019B002B03D10649722096
:10BDB800FCF763FF019B00221A60BFF35F8F00BF8F
:10BDC80000BF03B05DF804FB78C5060000B585B078
:10BDD8000190019B002B03D10A498520FCF74DFFF8
:10BDE80001210198FEF737FB0390BFF35F8F00BF77
:10BDF800039B002B0CBF01230023DBB2184605B0C0
:10BE08005DF804FB78C5060000B583B00190019B7E
:10BE1800002B03D10A499220FCF72FFF019B1B68D6
:10BE2800012B03D006499320FCF727FFBFF35F8F50
:10BE380000BF019B00221A6000BF03B05DF804FB3D
:10BE480078C5060033DF704700BF184641DF7047EA
:10BE580000BF18464FF080430122C3F80025BFF306
:10BE68004F8F00BF20BF00BFFCE7000000B585B0C2
:10BE780000238DF803300DF103031846FCF7B0FEDC
:10BE8800F1EE103A0193019B0393039B23F09F0368
:10BE98000293029BE1EE103A00BFBFF35F8F00BF31
:10BEA8002620FFF73DFF9DF803301846FCF7AEFE4D
:10BEB800039B03F00703002B03D004497D20FCF704
:10BEC800DCFE00BF05B05DF804FB00BFBCC5060082
:10BED80008B5044B1B78002B02D0042000F0BAF8F8
:10BEE80000BF08BD8039002000B583B00190FFF77E
:10BEF800EFFF00BF03B05DF804FB000000B583B09E
:10BF08000B4A01210B48FDF7A5FC0190019B002B72
:10BF180001D0019B07E0084B00224FF480411846EE
:10BF2800FDF7CCFC0346184603B05DF804FB00BFE0
:10BF3800F1BE020038C60600D82C002008B5074B11
:10BF480000221A700648FFF72BFF0649064800F042
:10BF5800F3FBFFF7D3FF0346184608BD80390020DE
:10BF68007C3900202CC606008439002000B583B037
:10BF7800FFF77CFF2FF066F90346002B0ED0FFF782
:10BF880065FF0190019B002B0ED0019B022B0BD06B
:10BF980007494FF4B070FCF770FE05E020BF00BF02
:10BFA80040BF00BF20BF00BF00BF03B05DF804FB67
:10BFB800BCC5060000B583B00FE02348FFF7DEFEDE
:10BFC8000190019B1B68214A127810469847034646
:10BFD800002B34D01C4800F0D9FB1B48FFF7CEFEDD
:10BFE8000346002BE9D1FCF7B1FB00BFFCF716F9BB
:10BFF8000346002BFAD1154B1B78032B03D0134BA8
:10C008001B78022B02D1FFF7A3FE19E02FF01AF9D3
:10C018000346002B10D0FFF715FF0090009B002B64
:10C0280007D0009B022B04D009494FF4D170FCF7CC
:10C0380024FE20BF00BFFCE7FFF70CFF00E000BFB5
:10C0480003B05DF804FB00BF843900207839002074
:10C05800BCC5060000B583B003468DF80730174805
:10C06800FFF7B4FE034683F00103DBB2002B21D1B6
:10C078009DF80730042B0ED0114B1B78002B03D0F2
:10C088000E48FFF7C1FE16E00E4A9DF80730137000
:10C098000B4B01221A700A4B1B78002B04D10A495A
:10C0A80040F2D510FCF7E9FDFFF784FF0348FFF7DE
:10C0B800ABFE00E000BF03B05DF804FB7C39002054
:10C0C8008039002078390020BCC5060082B0019074
:10C0D800019B9B68024A12781344184602B07047C5
:10C0E80087C6060000B583B001900091019B002B24
:10C0F80003D108498320FCF7C0FD019B9B68009A87
:10C108009A4202D2009B013300E00023184603B094
:10C118005DF804FB3CC6060000B585B00190019BA4
:10C128001B681B680393019B1B685B680293029A58
:10C13800039B9A4203D3029A039BD31A07E0019800
:10C14800FFF7C4FF0246039BD21A029B134418460A
:10C1580005B05DF804FB000000B585B00190019BB7
:10C16800002B03D10D499820FCF787FD019B1B6824
:10C178001B680393019B1B685B68029302990198F3
:10C18800FFF7B0FF0246039B93420CBF0123002335
:10C19800DBB2184605B05DF804FB00BF3CC60600DC
:10C1A80010B588B00190009100230793019B002BE4
:10C1B80003D15649A320FCF760FD009B002B03D157
:10C1C8005249A420FCF759FD00238DF80F300DF1DA
:10C1D8000F031846FCF704FD0198FFF7BDFF03465F
:10C1E8008DF817309DF8173083F00103DBB2002B70
:10C1F80003D1019B1B7C002B7BD1019B1B685B68D7
:10C208000693019B1B685A68019B1C68114601989C
:10C21800FFF768FF034663609DF81730002B0AD0CC
:10C22800019B1B681A68019B1C6811460198FFF75F
:10C2380059FF03462360019BDB68013B072B38D875
:10C2480001A252F823F000BF71C2020081C20200AD
:10C25800BBC2020093C20200BBC20200BBC2020002
:10C26800BBC20200A5C20200019B5A68069B134488
:10C27800009A12781A702DE0019B5A68069B5B00A1
:10C288001344009A12881A8024E0019B5A68069B7E
:10C298009B001344009A12681A601BE0019B5A68BD
:10C2A800069BDB00D118009BD3E90023C1E90023DA
:10C2B80010E0019B5B681946019BDB68069A02FB4C
:10C2C80003F30B441846019BDB681A46009939F0C2
:10C2D80057FC00BF0198FFF71FFF0490019B1B68E4
:10C2E8009B68049A9A4207D9019B1B68049A9A6032
:10C2F80002E00423079300E000BF9DF80F301846C2
:10C30800FCF784FC079B184608B010BD3CC6060025
:10C3180000B585B001900B468DF80330019B1B6872
:10C328001B680393019B1B685B6802939DF80330AD
:10C33800002B0ED0029A039B9A4206D30198FFF76E
:10C34800C5FE0246029BD31A11E0039A029BD31A38
:10C358000DE0029A039B9A4203D3029A039BD31AD5
:10C3680005E00198FFF7B2FE0246039BD31A184670
:10C3780005B05DF804FB00B58BB003900291019203
:10C38800039B1B681B68099300210398FFF7C0FFF4
:10C398000890039B5B681946039BDB68099A02FBBC
:10C3A80003F30B440793019A089B9A4219D8039BFD
:10C3B800DB68019A02FB03F31A460799029839F0E1
:10C3C800DFFB099A019B1A44039B9B689A4203D896
:10C3D800099A019B134400E00023039A1268136032
:10C3E80020E0039BDA68089B02FB03F30693069A96
:10C3F8000799029839F0C4FB019A089BD31A059350
:10C40800029A069B13441846039B5968039BDB68F2
:10C41800059A02FB03F31A4639F0B2FB039B1B682B
:10C42800059A1A6000BF0BB05DF804FB00B587B031
:10C4380003900291019200230593039B002B04D1E2
:10C4480019494FF4EC70FCF718FC029B002B04D13F
:10C45800154940F2D910FCF710FC019B002B01D1C3
:10C4680000231CE000238DF813300DF11303184648
:10C47800FCF7B6FB0398FFF74FFE0246019B934279
:10C4880005D8019A02990398FFF775FF01E0052383
:10C4980005939DF813301846FCF7B8FB059B184622
:10C4A80007B05DF804FB00BF3CC6060000B585B0C8
:10C4B8000190019B002B04D10E494FF40470FCF746
:10C4C800DCFB00238DF80F300DF10F031846FCF745
:10C4D80087FB019B1B680C220021184639F079FB69
:10C4E8009DF80F301846FCF791FB00BF05B05DF8CA
:10C4F80004FB00BF3CC6060000B585B00190019B57
:10C50800002B04D10D4940F21E20FCF7B6FB002396
:10C518008DF80B300DF10B031846FCF761FB019801
:10C52800FFF7FAFD03909DF80B301846FCF76EFBF9
:10C53800039B184605B05DF804FB00BF3CC6060027
:10C5480082B00190019B9B6800229A60019B9B68C6
:10C5580000221A61019B9B6800225A61019B9B681B
:10C568000022DA60019B9B6800225A60019B9B684D
:10C5780000221A6000BF02B07047000000B589B001
:10C588000390029101928DF80330029B002B03D196
:10C5980039493B20FCF771FB019B002B03D136493D
:10C5A8003C20FCF76AFB9DF80330002B09D0039B65
:10C5B8009B681846FDF7F6FF0346002B01D01123B0
:10C5C80055E0039B9B68DA68039B9B681B69D21A3A
:10C5D800039B5B6801339A420DD1019B00221A60CC
:10C5E8009DF80330002B04D0039B9B681846FDF789
:10C5F800FDFF00233BE0039B9B68DA68039B5B68B5
:10C6080013400793039B9B681A69039B5B6813405D
:10C618000693079A069B9A4205D3039B5A68079B81
:10C62800D31A01330AE0039B9B681A69039B596874
:10C63800039B9B68DB68CB1A134401330593019B6A
:10C648001A68059B9A4228BF1A46019B1A60039BE9
:10C658001A68079B1A44029B1A60039B9B68D96857
:10C66800019B1A68039B9B680A44DA6000231846FA
:10C6780009B05DF804FB00BF88C6060000B585B0A8
:10C6880001900091019B5A68019B9B681969019B65
:10C698009B689B68CB1A134401330393009A039B4E
:10C6A8009A4201D9042318E0019B9B689968019B71
:10C6B8009B68009A0A449A60019B9A68019B9B6850
:10C6C8009268DA60019B9B681846FDF783FF034672
:10C6D800002B01D1082300E00023184605B05DF8BF
:10C6E80004FB00B585B001900091019B9B689A6896
:10C6F800019B9B681B69D31A0393009A039B9A4278
:10C7080001D9042314E0019B9B681969019B9B686C
:10C71800009A0A441A61019B9A68019B9B681269F6
:10C728005A61019B9B6804331846FDF75FFF00239D
:10C73800184605B05DF804FB00B583B00190009180
:10C74800019B002B03D110495020FCF796FA009B5F
:10C75800002B03D10C495120FCF78FFA019B009A5A
:10C768001A60019B1B681A68019B5A60019B5A68F2
:10C77800019B1B685B689A4202D1019B00225A60A8
:10C7880000BF03B05DF804FBD8C6060000B583B04F
:10C798000190019B002B03D114496320FCF76DFA2B
:10C7A800019B1B68002B03D110496420FCF765FA34
:10C7B800019B5B68002B14D0019B5B681A46019BA8
:10C7C8001B689B6813441A46019B5A60019B5A6870
:10C7D800019B1B685B689A4204D1019B00225A6046
:10C7E80000E000BF03B05DF804FB00BFD8C6060038
:10C7F80000B585B001900091019B002B03D1184929
:10C808003A20FCF73AFA009B002B03D114493B204D
:10C81800FCF733FA019B5B6803930FE0019B9B686D
:10C82800039A1268009910469847034683F001035B
:10C83800DBB2002B07D1039B1B680393039B1B6888
:10C84800002BEBD100E000BF039B1A68009B1A6025
:10C85800039B009A1A6000BF05B05DF804FB00BF97
:10C868004CC7060000B585B00190019B002B03D191
:10C878000C495120FCF701FA019B5B681B68039384
:10C88800019B5B681B68002B06D0019B5B681A68DC
:10C89800019B5B6812681A60039B184605B05DF837
:10C8A80004FB00BF4CC7060000B583B00190019B94
:10C8B800002B03D105495D20FCF7DFF9019B5B687C
:10C8C8001B68184603B05DF804FB00BF4CC70600A0
:10C8D80000B585B001900091019B002B03D116494A
:10C8E8006920FCF7CAF9009B002B03D112496A2082
:10C8F800FCF7C3F900238DF80F30019B5B680293A6
:10C908000FE0029B1B68009A9A4207D1009B1A68A5
:10C91800029B1A6001238DF80F3006E0029B1B680A
:10C928000293029B1B68002BEBD19DF80F30184631
:10C9380005B05DF804FB00BF4CC7060000B585B024
:10C948000190019800F00EF80390039B002B01D092
:10C95800039B00E0024B184605B05DF804FB00BFDE
:10C96800A0C7060086B00190164B0593164B04939A
:10C978001FE0049A059BD31ADB10DA0F13445B10EF
:10C98800DB00059A13440393039B1B680293029AE6
:10C99800019B9A4202D9039B04930AE0029A019BE5
:10C9A8009A4203D2039B0833059302E0039B5B681A
:10C9B80004E0059A049B9A42DBD30023184606B08C
:10C9C800704700BFA0CB0600C8CC060084B0019019
:10C9D800019B9B680393019BDA68039BD31A184653
:10C9E80004B0704782B001900B468DF80330019B6C
:10C9F8001A68019BDB68019989880B4013449DF8EC
:10CA080003201A70019BDB685A1C019BDA6000BF87
:10CA180002B0704784B003900B460192ADF80A301B
:10CA2800039B1A68039B9968BDF80A300B44039965
:10CA380089880B4013441A78019B1A7000BF04B010
:10CA4800704700B583B001900091009A00210198C9
:10CA5800FFF7E0FF019B9B685A1C019B9A6000BF8F
:10CA680003B05DF804FB84B0039002911346ADF85F
:10CA78000630029B002B01D10E231DE0BDF80630C5
:10CA8800002B07D0BDF806305A1EBDF806301340FB
:10CA9800002B01D009230FE0039B029A1A60BDF80E
:10CAA8000630013B9AB2039B9A80039B00229A604E
:10CAB800039B0022DA600023184604B0704700B5D3
:10CAC80083B001900B468DF803300198FFF77EFF85
