:02000002F0000C
:10800000000004205D830F0045830F0047830F00AD
:1080100049830F004B830F004D830F0000000000C9
:1080200000000000000000000000000001A10F009F
:1080300051830F000000000053830F0055830F0091
:1080400057830F0057830F0057830F0057830F008C
:1080500057830F0057830F0057830F0057830F007C
:1080600057830F0057830F0057830F0057830F006C
:1080700057830F0057830F0057830F0057830F005C
:1080800075A80F0057830F0057830F0057830F0009
:1080900057830F0057830F00259B0F0057830F0056
:1080A00057830F0057830F0057830F0057830F002C
:1080B00057830F0057830F000000000000000000EE
:1080C00057830F0057830F0057830F0057830F000C
:1080D0003DA50F0057830F0057830F0057830F00F4
:1080E00057830F0057830F00FDD70F0000000000DB
:1080F0000000000057830F000000000057830F00AE
:10810000000000000000000000000000000000006F
:10811000000000000000000000000000000000005F
:10812000000000000000000000000000000000004F
:10813000000000000000000000000000000000003F
:10814000000000000000000000000000000000002F
:10815000000000000000000000000000000000001F
:10816000000000000000000000000000000000000F
:1081700000000000000000000000000000000000FF
:1081800000000000000000000000000000000000EF
:1081900000000000000000000000000000000000DF
:1081A00000000000000000000000000000000000CF
:1081B00000000000000000000000000000000000BF
:1081C00000000000000000000000000000000000AF
:1081D000000000000000000000000000000000009F
:1081E000000000000000000000000000000000008F
:1081F000000000000000000000000000000000007F
:10820000314932480A1A02D0072291438D4630493B
:1082100030480A1A06D00722914381F309880222C6
:1082200082F314882C482D492D4A00F03CF82D4843
:108230002D492E4A00F037F82D482E492E4A00F0DD
:1082400032F82E482E492F4A00F02DF82E482F499B
:108250002F4A00F028F82F482F49304A00F023F821
:108260002F483049304A00F01EF83048304900228B
:1082700000F024F82F483049002200F01FF82F4A60
:1082800090471F481F49884205D00268043003B454
:10829000904703BCF7E700208646EC46002000210B
:1082A000274A9047FEE7884207D0521A05D0037844
:1082B00001300B700131013AF9D17047884202D088
:1082C00002700130FAE770470000042000F8032034
:1082D0000000042000000420DCDD0F007C59002099
:1082E000B4590020B8830F00B8830F004CD90F0099
:1082F000DCDD0F007C5900207C590020C0D90F0024
:10830000C0D90F00C0D90F00C0D90F00C0D90F00CD
:10831000C0D90F00C0D90F00C0D90F00DCDD0F009D
:1083200014DE0F00B4590020B4590020B4590020C5
:10833000708F0020708F0020708F002085830F00C9
:10834000F59F0F00FEE7FEE7FEE7FEE7FEE7FEE72C
:10835000FEE7FEE7FEE7FEE700F002B8FFF7FCBF2E
:108360000F484FF00701884385460E4880470E4866
:10837000016841F470010160BFF34F8FBFF36F8F4D
:10838000FFF73EBF09480A490A4A884207D0521AF5
:1083900005D0037801300B700131013AF9D17047F3
:1083A000000004200DA90F0088ED00E0ACD90F00FB
:0883B000685900207C590020EF
:1083B8004B1C30B5DB00044612F003009BB20DD114
:1083C800074D2A601A44074B1A60074B1870074B71
:1083D8001870074B1C80074B198030BD0720FCE73D
:1083E800BC590020B8590020B4590020C4590020B5
:1083F800C0590020C25900202DE9F743DFF8BC809E
:10840800B8F800308B4206460D46174647D300247D
:108418000DF107008DF8074000F080F8224B234A41
:1084280023481B78008892F800C084455FFA8CF1D5
:1084380038BF4C1CDBB238BFE4B2A34228D0147852
:108448001178CBB2884286BF0133DBB200231370A8
:108458009DF8070000F086F84FF6FF739C4220D085
:10846800144B1B6843F8347003EBC4099EB195B1F3
:10847800114BB8F800001B682A46314604FB00304F
:1084880005F004FAA9F80450002003B0BDE8F08311
:108498004FF6FF74DCE70020A9F80400F5E709208F
:1084A800F3E70420F1E700BFC4590020B4590020C5
:1084B800C2590020BC590020B8590020C0590020DA
:1084C80070B5104C104D22782B789A4200D170BDAF
:1084D8000E480F4A2378126806880E4802EBC3013B
:1084E800006852F83320898803FB060090470A4940
:1084F80022780988D3B2914286BF0133DBB20023C8
:108508002370E0E7C4590020B4590020C059002066
:10851800BC590020B8590020C259002070B5EFF3AB
:10852800108672B60C4A946801239CB993600B4B71
:108538000B4DD3F8801029401160C3F88050D3F850
:10854800841051604FF0FF32C3F88420047006B9DC
:1085580062B670BD0370FAE7C859002000E100E078
:10856800FC06FFBD084B9A6810B55AB150B9EFF335
:10857800108172B6054A1C6814605C685460986083
:1085880001B962B610BD00BFC859002000E100E083
:1085980030B53AB11368DB430A4D0144814204D136
:1085A800D84330BD4FF0FF33F6E710F8012B5340A6
:1085B800082213F0010418BF2C46013A84EA530339
:1085C800F7D1EBE72083B8ED10B561B1B2FBF3F456
:1085D80003FB1424A4B244B9C0E900148460828166
:1085E800C381204610BD0E20FCE70920FAE782B0BF
:1085F80050E8022FC188B2EB324F4FF0000317BF8B
:1086080092B241EA014142EA014104E04268B2EB18
:10861800324F08BF012340E80212002AE8D18DF842
:1086280007309DF80730002B0CBF1120002002B046
:10863800704737B550E8013F9DB2C4892544848905
:10864800A54228BF2D1B0489A54202BFBFF32F8F67
:10865800002207E0C5EA030540E80154002CE9D1EF
:108668004FF001028DF803200193019A0A609DF8EA
:10867800031001F0FF0321B1006810FA82F003B083
:1086880030BD1846FBE70A884B889A4209D150E862
:10869800012FC2EA024240E80123002BF7D1012052
:1086A80070470020704737B550E8023F1FFAA3F51E
:1086B800C488A54202BFBFF32F8F00220DE0C489F2
:1086C80025448489A54228BF2D1BC3EA054540E8F7
:1086D8000254002CE8D14FF001028DF803200193D9
:1086E800019A0A609DF8031001F0FF0321B10068A8
:1086F80000EB124003B030BD1846FBE70A884B88F0
:108708009A4209D150E8022FC2EA224240E80223E5
:10871800002BF7D1012070470020704710B50346A1
:1087280053E8000F0A4643E8002494F0000FF7D1FD
:1087380010BD10B5034653E8000F40EA010243E8B4
:10874800002494F0000FF6D110BD10B5034653E88D
:10875800002F02EA010043E8000494F0000FF6D16C
:1087680010BD0121FFF7E5BF0021FFF7EEBF10B5EF
:1087780090B1D0E9012301689B1ADBB20A60013B82
:10878800DBB2FF2B026802D10020107110BD116806
:108798004C1C14600B70F2E70E20F7E737B505465E
:1087A80000240DF107008DF80740FFF7B7FE2A688F
:1087B8006B68116899420ED9481E106011F8013C87
:1087C800EC68298A01FB0344AB6811791B1ADBB2F8
:1087D800994238BF13719DF80700FFF7C3FE204682
:1087E80003B030BD37B5054600230DF107000C4630
:1087F8008DF80730FFF792FE2A681368591C11603C
:10880800E968641A298AB4FBF1F41C709DF8070022
:10881800FFF7A8FE03B030BD0B680160114618478A
:1088280010B40468E468A4465DF8044B604710B4CB
:1088380004682469A4465DF8044B604770B550B9D4
:108848000E4D0F4C0026641B1423B4FBF3F4B44202
:1088580008D1002010E00368002BF1D0BDE870407B
:10886800DB6918472B6813B901361435EFE7DB6964
:10887800284698470028F7D070BD00BF68590020E7
:108888007C590020014B436000207047C0D90F007D
:108898000846704700207047024B1868003818BF18
:1088A80001207047D459002008B50248FFF75CFF43
:1088B800002008BDD459002008B510461A4604F017
:1088C800E5FF002008BD00002DE9F041804686B094
:1088D80011480F4616461D46FFF743FF0446C8B920
:1088E800AA083146384601F011FA0B48FFF73CFF59
:1088F800D8F8083053B101228DF800200C9A05925F
:10890800CDE90147CDE9036568469847204606B09A
:10891800BDE8F0811124F9E7D45900202DE9F0438E
:10892800814687B014480E4615469846FFF719FF4A
:108938000446F0B90746BD4215D10F48FFF714FFAA
:10894800D9F808305BB102228DF800200022CDE969
:108958000126CDE90325CDF81480684698472046BE
:1089680007B0BDE8F08306EB073001F0A1F9013745
:10897800E1E71124F3E700BFD459002029DF70474D
:1089880028DF704770B503689E6886B004460D46B8
:108998006EB114220021684604F0A1FFA368059374
:1089A800237901952BB1012B0DD06846B04706B04D
:1089B80070BD01238DF8003023690293E3680393A7
:1089C80063690493F1E702238DF80030E3681B0321
:1089D8000293F5E70846704700207047024B187A63
:1089E800003818BF01207047C45B0020034B187A79
:1089F8000122B0FA80F05A7440097047C45B002025
:108A080008B510461A4604F041FF002008BD0000D2
:108A180008B514220021044804F061FF0348FFF759
:108A2800E6FD002008BD00BFC45B0020B45B002049
:108A380010B5094C094B43602046FFF792FE48B930
:108A480001F052F8064920741C2306484FF4EE72D0
:108A5800FFF7BAFD002010BDC45B0020ECD90F0061
:108A6800D8590020B45B002038B5224D224C2B7A0F
:108A78003BB922492248FFF716FE206008B9686012
:108A880038BD022324682B72237973B1012B22D0BD
:108A980020460321FFF776FF00232B726B601749EE
:108AA8001748BDE83840FFF729BED4E90523D21A94
:108AB800142AD4E9031028BF14229208012A38BFC7
:108AC800012219441844FFF759FF50B11128DFD18A
:108AD80001232B72D4E7D4E903031844FFF750FFAE
:108AE800F3E72B7C002BCBD1BDE83840022000F007
:108AF80009B800BFC45B0020DC5B0020D85B002005
:108B0800B45B002038B5224C237A002B3FD0022BCF
:108B180009D103282ED01F4B00221B68E2601A7966
:108B28003AB1012A20D0637C6BBBBDE83840FFF71F
:108B38009BBFD3E905128D1A142D94BF5219143214
:108B48009A619142EFD102284FF0000308BF1946FD
:108B58002372104B18BF0D211868FFF713FF0E4939
:108B68000E48FFF7CBFDDEE71A6901321A615B692F
:108B78009A42E7E7E3680133082B01D8E360D2E7BC
:108B88000023E360DFE7BDE8384000F09DBF38BD53
:108B9800C45B0020DC5B0020D85B0020B45B0020B5
:108BA800831E012B01D8FFF7ADBF704700F0FD030E
:108BB800012B08D1044B00225A74421E50425041E6
:108BC8001874FFF751BF7047C45B002010B5064CFE
:108BD800201DFFF7C6FD28B9637C1BB9BDE810400E
:108BE800FFF742BF10BD00BFC45B00202DE9F34171
:108BF80080460D46104801A916461F46FFF719FD85
:108C08000446B0B118220021043004F068FE2D0B90
:108C18000123237101A90848C4F80080A760E56012
:108C28006661FFF730FDFFF7D1FF002002B0BDE815
:108C3800F0810420FAE700BFB45B00202DE9F3417E
:108C480080460F460F4801A916461D46FFF7F1FC5E
:108C58000446A8B118220021043004F040FE089B05
:108C6800A36001A9C4E903670648C4F800806561E8
:108C7800FFF709FDFFF7AAFF002002B0BDE8F08169
:108C88000420FAE7B45B00200B684A68436093420B
:108C980008BF0023016008BF43607047436843B1C1
:108CA8000268916852680B449342436004BF0023F2
:108CB800436070470023C0E902328B881A44B1F937
:108CC800063002611A44C0E9001142610888003880
:108CD80018BF012070474268118838B5034600293B
:108CE80037D0148A02F1100141602CB9C2680168BA
:108CF800FFF7E0FF204638BD9078118900F0300575
:108D0800302D14D1947C04F03004302C1BD1908881
:108D18001969091A19610021908AB2F916200844C4
:108D2800196901441961114459610120E3E700F010
:108D3800F004202C07D150894143002DECD19868CC
:108D480001309860E8E700F0C000802808BF0421DF
:108D5800F3E70846CFE770B5466804460D466368F2
:108D68001A88AA4204D19B7803F00F03082B07D175
:108D78002046FFF7B0FF6368B342F0D1002070BD12
:108D88000120FCE743681A44426011B101399A4254
:108D980001D10120704713F8010B01F8010FF6E724
:108DA80070B54568AA7802F00F06082E86B003460B
:108DB8001FD103691C6800260CB906B070BD236872
:108DC80062689D68267329466846FFF773FF6368E3
:108DD800049304F10C030593AB7803F0C003802BD4
:108DE80008BF231D684608BF0493FFF7D9FFA4688E
:108DF800E2E712F0C00122D102F0300010280CD1B5
:108E08005A691170072EEC6818690BD10146204683
:108E180006B0BDE8704000F01AB89006F2D55B695C
:108E28001980CAE72A89214624B106B0BDE87040F6
:108E380004F02CBD06B0BDE8704004F050BD802998
:108E4800BBD10069002192060160B6D5E7E77FB57E
:108E58000A4601466846FFF72DFF30B16846FFF71E
:108E68009FFF6846FFF737FFF7E707B05DF804FB99
:108E7800836810B504460BB9002010BD03680122B1
:108E880098470028F8D0A368013BA360F5E72DE9CF
:108E9800F3410F460DF107018046FFF7E9FF05464C
:108EA80020B90025284602B0BDE8F0819DF90730B9
:108EB8009DF80740002B13DA04F07F0407260DF114
:108EC80007014046FFF7D4FF0028EAD09DF80720A5
:108ED80002F07F03B3401C43130606F1070601D4D2
:108EE8003C60DFE7232EEAD1DBE7000030B504461B
:108EF80085B01546A9B90268114B9A4211D0102DB8
:108F080006D82A4669462046FFF7F0FF05B030BD6F
:108F1800102269462046FFF7E9FF0028F6D0103DE9
:108F2800EDE7A368AB4201D20020EFE723682A46A9
:108F3800204698470028F7D0A268521BA260E5E7B0
:108F48008D8D0F00F7B50E4601A907461546FFF7A8
:108F58009EFFA0B1019A511C4FF0000404D2B378CF
:108F680003F0C003802B01D1204608E033898B42EF
:108F7800FAD329463846FFF7B9FF019BEC5403B0F2
:108F8800F0BD73B50D4601A906461446FFF77FFFED
:108F980098B1019AB2F5803F11D2AB7803F0C003C3
:108FA800802B02F102010AD02B898B4207D321467C
:108FB800304621F8022BFFF799FF02B070BD002060
:108FC800FBE7000010B5034C82600022C0E90041B5
:108FD800C26010BD8D8D0F002DE9F341002580463C
:108FE8000E462F462C460DF107014046FFF740FF7D
:108FF800C0B19DF807C0A4F120030CF07F02C4F1B2
:10900800200102FA03F322FA01F10B43A2401CF0FB
:10901800800F45EA020547EA030704F1070404D173
:10902800C6E9005702B0BDE8F081462CDBD100202C
:10903800F8E737B50D4669461446FFF7CDFF70B11E
:109048002B89082B0DD1DDE90032C4E90032DDE9B6
:109058000001914208BF98420CBF0120002003B0D4
:1090680030BD042B03D1009B23600022EFE7022BC5
:1090780003D1009B23809BB2F7E7012B04D1009B0F
:10908800237003F0FF03F0E70020E8E737B50D464B
:1090980069461446FFF7A0FF30B12B89082BDDE99C
:1090A800001203D1C4E9001203B030BD042B4FEA0B
:1090B800E17009D121600B460246824208BF8B420B
:1090C8000CBF01200020EFE7022B03D10BB2238055
:1090D800DA17F2E7012B02D14BB22370F8E7002030
:1090E800E2E7F7B51F4600233B700D460B7013608F
:1090F80001A904461646FFF7CAFE30B9A36813B99A
:1091080001233B70002003B0F0BD019C002CF7D078
:10911800E30804F0070433602C70F4E713B5044641
:10912800052925D8DFE801F0030F1724242201229E
:1091380001A92046FFF7DAFE18B19DF90430002B8B
:10914800F5DB02B010BD08220021204602B0BDE8C0
:109158001040FFF7CBBE01A9FFF799FE0028F0D019
:10916800019A00212046FFF7C1FEEAE70422EBE757
:109178000020E6E773B50D4601A90446FFF787FE10
:10918800064618B90026304602B070BD94E80F00B4
:1091980085E80F0001998A42F4D3A960A3685B1A95
:1091A800A360F0E72DE9F0435668B37813F0C004E4
:1091B80089B007468C46154603D0402C69D0002458
:1091C8000CE003F00F02604903F03003202B51F844
:1091D800228025D006D8E3B1102B17D0204609B03D
:1091E800BDE8F083302BF9D16B6931881980072AE3
:1091F80009D121463289286904F071FB6B68296915
:10920800D868FFF724FE2A69696840E06B69012283
:109218001A702A693146434609B0BDE8F043184739
:10922800BCF1020FD5F8149024D1042A22D804A93D
:10923800FFF7A0FF04460028C1D0069B2BB1696840
:10924800B9F800304A899A4205D8059B7B60069B8D
:10925800002BC3D0B3E708892A6903FB002204A8BE
:10926800C04728B1B9F800300133A9F80030E4E765
:109278000446EAE7B9F8003072899A429FD93189E1
:109288002A69581C03FB0122A9F800003146384618
:10929800C1E7D2F81080464656F8043B23B909B016
:1092A800BDE8F043FFF73ABF022914D104A9FFF73C
:1092B80061FF002883D0D8F800306968324604A8D6
:1092C8009847044600283FF47AAF069B002BF2D15A
:1092D800059B7B6082E7012926D005292CD000292F
:1092E8007FF46DAF0C460DF1040901340B2C3FF4EB
:1092F80066AF012249463846FFF7F8FD00283FF4DB
:109308005EAF19F9013B002BEFDB104B049301AB67
:10931800CDE90534002307936968D8F80030324650
:1093280004A89847044659E7082201A9FFF7DEFD7B
:1093380008240028E9D142E704220DEB0201FFF7D7
:10934800D5FD0424F5E700BF18DA0F008D8D0F0056
:109358002DE9F04F91B00446002604A8CDE9026635
:10936800FFF7A8FCA3683BBBDDE9053404A89D789A
:10937800FFF7B1FC0028F7D115F0300F03D1059B9A
:109388001B8803B10134002C00F0A980630902A9ED
:109398000022934240F09C8010AA02EB830304F061
:1093A8001F0453F8383CC4F120044FF0FF30E0406C
:1093B800C31A584258410DE00DF1030301AA0DF1FB
:1093C80002012046FFF78DFE38B99DF80330002BC7
:1093D800CAD1002011B0BDE8F08F019904A8FFF7A9
:1093E800BAFC002850D1019BB3427DD3059D059A54
:1093F800937803F00F03082B7FD004A8FFF76BFCCA
:10940800059B9D42F3D14FF0FF36019FB7426BD3C6
:10941800089B9DF802A0D4F808801D684FF0010948
:10942800A368002D5DD098459CD12B68D3F800B077
:10943800BBF1000F08D053463A4629462046D84784
:109448000028C6D0AD68EBE7D3F808B0BBF8003009
:109458009F42F7D16A6859460AA8FFF72BFC6B6848
:109468000E9305F10C030F939BF8023003F0C00331
:10947800802B04BF2B1D0E930AAA85F80C90514629
:109488002046FFF78FFEDBE7059B9B7813F0300F34
:109498000FD1069A3F2A0CD8510910AB03EB810172
:1094A80002F01F020123934051F8382C134341F86E
:1094B800383CE5682DB19DF80220019904AB20469F
:1094C800A8479DF8021004AA2046FFF76BFE10E09B
:1094D80051F8045B01357FF47DAF013259E7012073
:1094E80078E798457FF43EAF9DF802102046FFF7D5
:1094F80015FE00287FF436AF6BE7168885E737B589
:109508000C460546114620460192FFF7A0FC019A39
:109518002146284603B0BDE83040FFF719BF70B5B3
:1095280086B0CE6801920C4602A90546FFF722FED6
:1095380068B1E06858B1A378019A03F03003202B92
:10954800314602A805D1FFF7DAFF039B6B6006B02E
:1095580070BDFFF7FDFEF8E713B50C466946FFF747
:109568003BFD60B1DDE900134A0842EAC372C9074E
:109578004FEA530344BFD243DB43C4E9002302B09C
:1095880010BD37B50D4669461446FFF7E5FF70B1C3
:109598002B89082B0DD1DDE90032C4E90032DDE961
:1095A8000001914208BF98420CBF0120002003B07F
:1095B80030BD042B03D1009B2360DA17EFE7022BA1
:1095C80003D1BDF900302380F7E7012B03D19DF9C2
:1095D80000302370F1E70020E9E713B504220C46B8
:1095E8000DEB0201FFF782FC08B1019B236002B07A
:1095F80010BD1146FFF7F1BF13B508220C466946A6
:10960800FFF774FC18B1DDE90023C4E9002302B0B8
:1096180010BD1146FFF7F0BF10B500F1080301F1C6
:10962800200251F8044B43F8044B9142F9D12830F9
:1096380001F1200351F8042B40F8042B9942F9D189
:10964800002010BD2DE9F743DFF86C809946184BD0
:10965800036004460E46404601211746FFF75EF8B0
:109668000546BFF35F8FF8B900F0E6F80A9ACDF81F
:1096780000903B4606F10801204602F069FF0446C7
:1096880000F0E8F8BFF35F8FC8F8005044B109490B
:1096980048F2165248F242538C4214BF14461C46F4
:1096A800204603B0BDE8F08348F20454F8E700BF51
:1096B800DD55AABB8408F000E06B00200E4B9842F1
:1096C80014D00AD8B8B10D4948F2165248F20153DD
:1096D800884214BF104618467047094B984208D074
:1096E800084948F2165248F20353F1E748F203508A
:1096F800704748F2025070470102F0000002F00083
:109708000202F0000F02F00008B5083002F08AFFEC
:10971800BDE80840FFF7D2BF13681F2B2DE9F341BE
:1097280006460F46144620D9DFF84C8001214046F2
:10973800FEF7F4FF0546BFF35F8FC8B900F07CF869
:10974800394606F1080002F0DFFF019000F082F8C8
:10975800BFF35F8F0198C8F80050FFF7AFFF08B953
:109768002023236002B0BDE8F08148F21450F9E7E5
:1097780048F20450F6E700BFE06B00202DE9F04105
:1097880005460E46194801211446FEF7C7FFBFF3E8
:109798005F8F38BB00F050F8DFF854800835B4F517
:1097A800805F274628BF4FF4805731463A464046E7
:1097B80004F06CF83A464146284602F04DFFE41B97
:1097C8003E4468B9002CEAD100F044F8BFF35F8F3B
:1097D800064B00222046BDE8F0411A60FFF76EBF35
:1097E8000446F1E748F20450BDE8F081E06B002040
:1097F800E05B0020024B0020C3F80005704700BF63
:1098080000A0025038B50A4B00251D60BFF35F8FDA
:10981800084C0123C4F8003502F0A6FFC4F800552F
:1098280020B1052848F2035018BF032038BD00BFF7
:10983800E06B002000A00250044B0122C3F8002571
:10984800034B4FF480625A60704700BF00A002507B
:1098580000E100E0044B0022C3F80025034B4FF45D
:109868008062C3F88420704700A0025000E100E045
:10987800074B1B5C1F2B86BF064903F01F034FF0E5
:10988800A041012202FA03F3C1F80C35704700BF6A
:1098980060DA0F0000030050074B1B5C1F2B86BFCC
:1098A800064903F01F034FF0A041012202FA03F317
:1098B800C1F80835704700BF60DA0F000003005098
:1098C80008B50020FFF7E8FF0120FFF7E5FF0220B9
:1098D800FFF7E2FF0320FFF7DFFFBDE808400420A1
:1098E800FFF7DABFC20770B5044615D50E480F4E0C
:1098F8000022032510F8013B1F2B86BF03F01F032E
:1099080031464FF0A04103F5E0730132052A41F8D2
:109918002350EFD1FFF7D4FFA30742BF4FF0A04376
:109928000C22C3F8202770BD60DA0F000003005036
:1099380010DF704711DF704713B5044609496846C0
:10994800FFF7A2F9019808B902B010BDD0E90021CB
:109958002046904718B16846FFF7A0F9F2E71120B2
:10996800F2E700BF6CDA0F0013B5044607496846F2
:10997800FFF78AF9019B0BB902B010BD2046D3E965
:10998800002190476846FFF789F9F3E784DA0F006A
:10999800064B9A6822B11A6822F480021A6070474E
:1099A800034B4FF48002C3F880207047C859002049
:1099B80000E100E00B4991F816335A09EC231341F2
:1099C800DB0706D5084B9A683AB94FF480030B6059
:1099D800704742F2020000F006BB1A6842F48002A7
:1099E8001A60704700E100E0C8590020F7B5194F28
:1099F8003C7864BB184E012520463570FFF79CFF64
:109A0800112821D02046FFF7AFFF144B8DF80340F3
:109A1800186801900DF10300FEF780FD104901A8B8
:109A2800FFF786FF0446B0FA80F0400938709DF8C9
:109A38000300FEF797FD3CB90A4B34701C70FFF722
:109A4800B9FF2846FFF790FF204603B0F0BD082471
:109A5800FAE700BFE56B0020E46B002065DA0F0031
:109A6800E99F0F00E66B0020F7B5154F3B781BB355
:109A7800144E01203070FFF75FFF11284FF00005EA
:109A88001CD00220FFF770FF0DF107008DF807507A
:109A9800FEF744FDFFF74EFF04469DF807003D70B2
:109AA800FEF760FD2CB903203470FFF771FFFFF754
:109AB8005BFF204603B0F0BD0824FAE72C46F8E720
:109AC800E56B0020E46B0020054B1B7833B1054B98
:109AD8001B780BB1FFF7C8BFFFF788BF0820704796
:109AE800E46B0020E56B0020014B1878704700BF3D
:109AF800E56B002007B508496846FFF7C5F8019BE4
:109B080013B903B05DF804FBD3E900209047684619
:109B1800FFF7C4F8F3E700BF78DA0F00FFF7EABFF2
:109B280060DF704769DF704761DF704730B5134DFC
:109B3800ADF5017D4FF4FA740DF1020103A8ADF8FB
:109B48000240FFF7F1FF70B9294601A8FFF79CF81A
:109B5800029B002BF0D003A8D3E90021904701A86D
:109B6800FFF79CF8F4E7052805D00DF5017DBDE861
:109B7800304000F038BA0DF5017D30BD90DA0F00A5
:109B8800024B1B780BB1FFF7D1BF7047E76B002082
:109B980018B1034B0360002070470E20704700BFC8
:109BA80068590020F0B5074685B00D46002947D012
:109BB8000024244A0A60CDE90144012606238DF8D1
:109BC800040001A92020ADF8083003948DF8066040
:109BD800FFF7A8FF2A68039401A94020CDE90144B2
:109BE8008DF80560FFF79EFFF7232A68039401A903
:109BF8002320CDE90144ADF806308DF80470FFF755
:109C080091FF2A68039401A93046CDE901448DF8F3
:109C18000460FFF787FF4FF4B0632A68019301A936
:109C2800A120CDE90244FFF77DFF2A68039401A92A
:109C3800A020CDE90144FFF775FF204605B0F0BD2F
:109C48000E20FBE76859002008B5FFF769FF10B937
:109C5800014B01221A7008BDE76B00204BDF7047EB
:109C68001FB50E4C01A8FFF7F9FF70B9214602A8ED
:109C7800FFF70AF8039B002BF4D00198D3E90021E1
:109C8800904702A8FFF70AF8F4E7052804D004B0C3
:109C9800BDE8104000F0A7B904B010BD9CDA0F0071
:109CA800024AD2F80034002BFBD0704700E0014094
:109CB8000A4908B50223C1F80435BFF36F8FBFF313
:109CC8004F8FC1F80805FFF7EBFF0023C1F80435F3
:109CD800BFF36F8FBFF34F8F08BD00BF00E0014097
:109CE80010B5094C0123C4F80435BFF36F8FBFF3D7
:109CF8004F8F0160FFF7D4FF0023C4F80435BFF38A
:109D08006F8FBFF34F8F10BD00E0014070B50E4E4E
:109D180001231546C6F80435BFF36F8FBFF34F8F85
:109D28000024AC4207D10023C6F80435BFF36F8F77
:109D3800BFF34F8F70BD51F8243040F82430FFF73F
:109D4800AFFF0134EDE700BF00E0014028B139B1B1
:109D58000023C1E900301846704748F21050704798
:109D680048F21350704730B1036848F240508B42B4
:109D780008BF0020704748F21050704728B148F2D9
:109D88001150914208BF0020704748F210507047A8
:109D980070B506460C461D46FFF7D8FF50B9B37993
:109DA8004AB1AB420AD111462046FFF735FC08B943
:109DB800044B236070BD48F21050FBE748F2115085
:109DC800F8E700BF7052464D2DE9F0470C460546AE
:109DD80011492046DDE9088916461F46FFF7C3FFEB
:109DE800A8B963685A79494652004046FFF7C6FF4A
:109DF80068B956B16DB1CDF820803B463246214650
:109E08002846BDE8F047FFF71DBC48F21050BDE8F2
:109E1800F08748F21550FAE77052464D10B50446DF
:109E280038B149B10B684160984708B9044B2360C1
:109E380010BD48F20150FBE748F21050F8E700BFA8
:109E48006E524648F0B4134648B10768094EB74207
:109E58000AD161B12AB14368F0BC5B68184748F27F
:109E680001531846F0BC704748F20253F9E748F22C
:109E78001053F6E76E524648F0B460B107680C4ECE
:109E8800B7420CD171B143681568DC68A5420CD3A0
:109E9800F0BC9B68184748F20150F0BC704748F284
:109EA8000250FAE748F21350F7E748F21450F4E783
:109EB8006E524648F7B50446DDE908671546019332
:109EC800FFF7ACFF68B9019A29462046FFF7BAFFA9
:109ED80038B93A463146204603B0BDE8F040FFF7AE
:109EE800CBBF03B0F0BD0000F8B50A4F0A4C0B4ECB
:109EF800E41B0123E40833700025A54203D10223A3
:109F080033700020F8BD57F8353098470028F9D14C
:109F18000135F2E74CD90F0054D90F00E86B002047
:109F280001390144814200D2704703780A7800F869
:109F3800012B01F80139F5E7013A0244013982425F
:109F480000D2704711F8013F02F80139F7E770B500
:109F580016460D46FFF7F0FF3246A9193044BDE812
:109F68007040FFF7E9BF38B50D460446FFF7D8FF44
:109F780029466019BDE83840FFF7D2BFBFF34F8FBD
:109F88000549064BCA6802F4E0621343CB60BFF38D
:109F98004F8F00BFFDE700BF00ED00E00400FA05A9
:109FA80008B507281BD8DFE800F004121A1A1A04AB
:109FB8001A040120FFF796FC0020FFF759FC012046
:109FC800FFF756FCBDE808400220FFF765BC0120FA
:109FD800FFF762FCBDE808400220FFF749BC08BD56
:109FE80008B5FFF7CBFF08B5FFF7C8FF08B500F0C5
:109FF80007FC002210464FF4805100F0B9F90246E0
:10A0080008B1FFF7BBFF0548C0F57E2100F0B0F9A5
:10A018000028F6D1024800F0CDF8F2E700800F00E2
:10A02800A99F0F0038B1054B0360054B436001231E
:10A038000372002070470E20704700BF73A00F0006
:10A048004DA00F0069B10B78022B0CD1022804D067
:10A05800032814BF08201120704703230B70002029
:10A0680070470E2070470820704710B50C4681B124
:10A078000B78012B06D00ED9033B012B94BF082087
:10A08800112010BD01F056FC0028FAD102232370DC
:10A09800F7E70E20F5E70820F3E7000070B5144B4A
:10A0A800144A0C21D21AB2FBF1F2816911F8025C50
:10A0B800044635B900690021914205D10123236086
:10A0C8000EE04FF0FF30F6E71E68AE420CD1461C9A
:10A0D80007D19D68D4E90001D4E90223A84720608C
:10A0E80070BD5E688642F4D001310C33E4E700BFEE
:10A0F8005CD90F0068D90F001EF0040F0CBFEFF3F6
:10A108000880EFF30980FFF7C9BF00BF008800F09F
:10A118000100704741DF7047014B01221A707047F8
:10A128000C700020BFF34F8F0549064BCA6802F434
:10A13800E0621343CB60BFF34F8F00BFFDE700BF62
:10A1480000ED00E00400FA05024B034800221A70F3
:10A1580001F0B6BB0C7000202DA10F00042810B52B
:10A16800044609D8022811D816D00D4B1B68B3B184
:10A178002046BDE810401847831F012BF5D8094B2E
:10A18800094800221A7001F09BFBEEE707494FF4DB
:10A19800701000F013FAE8E701F0DAFAE5E710BD0D
:10A1A800107000200C7000202DA10F0051A10F008D
:10A1B8000020704738B5594B594A18604FF0A043F2
:10A1C8000020C3F8642701F091FB0446002840F002
:10A1D8009F8000F0BFFA012800F09580022800F067
:10A1E8009980002840F094804FF08043D3F80044D1
:10A1F80014F480343AD04FF48032C3F80024044673
:10A20800484D2B6A012B44D04FF4701400F03CFBEE
:10A21800454A20211820FEF7CBF808B1FFF7E3FEE6
:10A228004FF08043D3F81C2502F0F802B02A09D178
:10A23800D3F81C25D20742BFD3F81C2502F04E02E2
:10A24800C3F81C25FFF7B4FF002861D12046374921
:10A2580000F0B4F9364800F045FC002858D100F069
:10A2680039FBFEF72DF9FFF755FFF8E7D3F820255E
:10A2780002F0F802A82A0AD1D3F82025D00706D57B
:10A28800D3F8202502F05602C3F82025B8E70124A8
:10A29800B6E74FF440535A68264B9A4209D001F06A
:10A2A800D7FBAA69014694B1234801F0B1FE90B9E1
:10A2B800AAE76A6B1CB995F86032012BEFD01F48EA
:10A2C8004FF4805101F0A4FE0028E8D19CE795F8EE
:10A2D800A132012BE8D14FF0A043D3F810359901F2
:10A2E80092D54FF08043D3F81C3513F0B10F8BD1C2
:10A2F80001F05CFB60B9124B1870124801F0E0FAEB
:10A3080000F024F804E00E4B0F481C7001F0D8FA56
:10A31800032038BD4FF4A02478E700BF1070002058
:10A328000C000300E0870020EC6B002051A10F0017
:10A3380065A10F00DBE5B151818A0020408A002029
:10A348000C70002021A10F002DA10F0008B5074BAC
:10A358004FF0FF32C3F88020C3F8802101F01AF8CB
:10A36800BDE808404FF4805000F042B800E100E03A
:10A378002DE9F0410546C1F30B0090BBB5F57F2FE1
:10A388002FD8194EDFF864E03368002A14BF062777
:10A3980002278446072B06D9BCF1000F00D0336092
:10A3A8000420BDE8F0811C0104F1804202F5F0327E
:10A3B8007444C2F80058C2F80418C4F80878D2F8EF
:10A3C8000088454503F101034FF0010CE2D1D2F8B2
:10A3D80004289142DED1D4F808289742DAD13360B4
:10A3E800DFE70720DDE700BF1470002000E0014030
:10A3F80010B5044617480022C0F57F21FFF7B8FFC3
:10A4080008B1FFF7F0FD01F023FB134B9B6903F63E
:10A41800FF7323F47F6323F00F03002219181046FB
:10A42800FFF7A6FF08B1FFF7DEFDEFF30583002372
:10A43800D4E9001283F3148883F3108883F3118816
:10A4480083F3138881F308884FF0FF339E46104743
:10A4580010BD00BF00800F00E08700201FB518491D
:10A468000B7853BB4FF08043A024D3F81824D203B1
:10A478005CBF01229A60134B0022C3F80021D3F875
:10A48800000103900398C3F84021D3F840010290DB
:10A498000298C3F84421D3F84401019001980A486E
:10A4A80080F8244310244460C3F8082502200122C0
:10A4B8009A601A60C3F804030A7004B010BD00BFA4
:10A4C8001C7000200040024000E100E037B56FF04A
:10A4D8007F42154C057BD4F804358A4228BF0A46CA
:10A4E800891A13444A1E942A23F07F4305F5A8725B
:10A4F8009BBF963B96314160416044F822300B4B3C
:10A508004FF4F86043F001039847094BAA0013443D
:10A5180000221A601B680193019B4FF48033AB4003
:10A52800C4F8043303B030BD00400240F0DA0F0035
:10A53800404102401C4BD3F804212DE9F34152B1AC
:10A548001A490A6801320A600022C3F80421D3F8C4
:10A5580004310093009B164C164DDFF84C80164EC4
:10A5680000272B6873B12F602B68227B0193019B16
:10A578004FF480339340C8F80833616851B12046DE
:10A58800FFF7A4FF0435B54204F11004E9D102B085
:10A59800BDE8F081A16811B12046FFF797FF236855
:10A5A800002BEFD09847EDE70040024018700020DC
:10A5B8007C590020404102404841024070B50B4B95
:10A5C8001D682A7B4FF480339340094A0E46C2F82F
:10A5D8000833044640B1FFF741FF2E602146284664
:10A5E800BDE87040FFF772BF70BD00BF9C590020E6
:10A5F8000040024070B5074B1D6804460E46A8602F
:10A60800FFF72CFF2E6021462846BDE87040FFF773
:10A618005DBF00BFA0590020014B01221A7070478E
:10A628001D7000202DE9F74F06468846A8EB060561
:10A638002D0B02F6FF77144600F026F9082D28BFE7
:10A6480008252B03DFF868B001933F0B0CB92346AC
:10A6580029E0BD422CBFBA46AA464FF00002514637
:10A66800304634BFDDF80490A14600F05DFE034695
:10A67800C8B909F1030222F003024146304600F04E
:10A6880045FE034678B9DBF830304B44CBF8303020
:10A6980001F01CF9A7EB0A07A4EB09044E44C844CF
:10A6A80003460028D2D0184603B0BDE8F08F00BF9B
:10A6B800E087002010B501F0EFF9124A916C01F51E
:10A6C80000535C68104B9C4218D1D2E90C3293427B
:10A6D80016D0884204D1BDE81040002001F0F6B839
:10A6E800D21A02F6FF7222F47F6222F00F02194496
:10A6F8001844FFF797FF0028EDD010BD0320FCE7B2
:10A708000020FAE7E0870020DBE5B15138B50F4BB0
:10A71800DA6A5D6A9C6CAC2A10D15B6B1C44ED1A3A
:10A728000B482A46214603F077F868B100F0D2F8C2
:10A7380029462046BDE8384000F00EBE002CEFD177
:10A7480001F09AF90446EBE738BD00BFE087002026
:10A7580000800F0070B5264CE36AAA2B37D005D8C5
:10A76800012B0BD0A52B2ED0002070BDAC2BFBD11C
:10A77800FFF7A0FF48BBFFF7C9FF26E0A66C656A94
:10A7880001F066F9864229D101F062F900222946D2
:10A79800FDF7FEFEA36A984202BF0123C4E907033E
:10A7A800A5610025134801F049F9134B134800220D
:10A7B8001A7001F08BF868B975B1236A012B14BFC0
:10A7C80001200220D1E7FFF775FF0125EAE7FFF72F
:10A7D8009DFFE6E70320C8E70120C6E7236BEA1AD6
:10A7E800F1181844FFF71EFF0028DAD1CCE700BFA4
:10A7F800E0870020048800201D70002021A60F009B
:10A8080010B50024D4F8F83F013304D1084940F6C4
:10A81800F870FFF765FAD4F8FC3F013307D1BDE8BB
:10A8280010404FF47E2140F6FC70FFF759BA10BD76
:10A8380000800F000A4AD2F800347BB1094800238F
:10A84800D2F80815D940C90748BF03F5C07103F10C
:10A85800010348BF42F82100072BF1D1704700BF20
:10A86800000001403546526EFFF7E4BF054B002259
:10A8780082B0C3F80021D3F800310193019B02B0E4
:10A88800704700BF0000014038B50E4D2B78BBB9AA
:10A898000D4BD3F800248AB1D3F80445FFF7CAFF5B
:10A8A80040F61650A042B8BF20460849A0F54860B7
:10A8B800FFF7A0FE064B4FF480321A6001232B707D
:10A8C80038BD00BF1E7000200000014071A80F00B5
:10A8D80000E100E0034BD3F800340BB1FFF7AABF47
:10A8E800704700BF000001404FF08053D3F830217B
:10A8F800082A03BFD3F83401B0FA80F040090020D9
:10A908007047000008B54FF080430022C3F80C21BF
:10A91800C3F81021C3F838254FF0805203F540439F
:10A92800D2F80414C3F82015D2F80814C3F8241573
:10A93800D2F80C14C3F82815D2F81014C3F82C1543
:10A94800D2F81414C3F83015D2F81814C3F8341513
:10A95800D2F81C14C3F84015D2F82014C3F84415D3
:10A96800D2F82414C3F84815D2F82814C3F84C15A3
:10A97800D2F82C14C3F85015D2F83014C3F8541573
:10A98800D2F83414C3F86015D2F83814C3F8641533
:10A99800D2F83C14C3F86815D2F84014C3F86C1503
:10A9A800D2F84424C3F87025FFF79EFF18B13B4B3B
:10A9B8003B4AC3F88C26FFF797FF18B1394BFB22A7
:10A9C800C3F81825FFF790FF70B14FF080414FF0A2
:10A9D8008053D1F8E42ED3F8583222F00F0203F056
:10A9E8000F031343C1F8E43EFFF77EFF20B12E4B5F
:10A9F8004FF40072C3F840264FF08043D3F8002488
:10AA0800D20744BF6FF00102C3F80024274AD2F8E6
:10AA1800883043F47003C2F88830BFF34F8FBFF318
:10AA28006F8F4FF01023D3F80022002A03DBD3F8EE
:10AA38000432002B2EDA1E4B0122C3F80425D3F86A
:10AA48000024002AFBD04FF010221221C2F8001275
:10AA5800D3F80024002AFBD04FF010231222C3F8A9
:10AA68000422134BD3F80024002AFBD00022C3F899
:10AA78000425D3F80024002AFBD0BFF34F8F0B49DD
:10AA88000C4BCA6802F4E0621343CB60BFF34F8FEC
:10AA980000BFFDE7084B094A1A6008BD0050004096
:10AAA8004881030000F000400090024000ED00E003
:10AAB80000E001400400FA05A45900200090D003EA
:10AAC800831F012B10B5044602D8002000F09EFF1A
:10AAD800034B1B681BB12046BDE81040184710BD4A
:10AAE8002070002008B5074B18600020FFF7E8FF2A
:10AAF800054800F073FF20B9BDE80840024800F09F
:10AB0800DBBD08BD20700020C9AA0F006CDF7047AC
:10AB18006DDF704772DF704773DF704774DF70470F
:10AB280075DF704776DF70477ADF70477CDF7047E4
:10AB38007DDF70477FDF704786DF70478FDF7047A4
:10AB480090DF7047A8DF7047AADF7047ADDF704716
:10AB5800AEDF7047B0DF7047B1DF7047B5DF7047D1
:10AB680062DF704766DF704713DF704701460148B0
:10AB7800FDF738BE68D90F0070B518228CB00021D7
:10AB88000DEB020002F0ABFE2823089316231E4C9F
:10AB9800ADF806300023CDE90333059302230622DE
:10ABA80023702371592301250926A270637103229A
:10ABB800FE236570E270A3710DF10601A0198DF8EE
:10ABC80018508DF82D500294ADF80C60FFF7B0FFC7
:10ABD800B8B9BDF8063026725A19E271BDF80C20D2
:10ABE8000A4C134402A906AA2046ADF80C30FFF718
:10ABF80091FF30B92078FFF791FF20782946FFF7B9
:10AC08008BFF0CB070BD00BFA2800020A8590020A7
:10AC1800154938B50B68024613F0010022D01348D5
:10AC280082421ED0124A10884FF6FF72904213D00B
:10AC380043F004030B601321FFF774FF90B90D4D27
:10AC4800C82445F001054FF47A40A847013CFAD1E1
:10AC5800BDE83840FEF708BF074B1878FFF75EFFDE
:10AC6800F6E7002038BD00BFC480002054D90F008B
:10AC7800AA590020D0DC0F00A8590020F0B503889D
:10AC8800232B8BB0044635D80F2B04D8012B00F0AA
:10AC9800F9800BB0F0BD103B132BFAD801A252F883
:10ACA80023F000BF2DAD0F004BAD0F009BAC0F0084
:10ACB8002DAE0F0071AF0F009BAC0F009BAC0F00C7
:10ACC8009BAC0F009BAC0F009BAC0F007FAF0F003D
:10ACD8009BAC0F009BAC0F009BAC0F009BAC0F0014
:10ACE80057AE0F009BAC0F0065AE0F009BAC0F007A
:10ACF80013AE0F00503B9AB2062ACAD8062BC8D802
:10AD080001A252F823F000BF77AD0F0099AE0F00F3
:10AD18007FAF0F009BAC0F009BAC0F00CFAD0F00B7
:10AD280079AE0F00974D83882B80974B1B680BB12A
:10AD380001209847954928880BB0BDE8F040FFF7F7
:10AD4800EFBE904B4FF6FF721A80914B1B685A0763
:10AD580004D4FFF711FF08B1FFF745F98A4B1B68C8
:10AD6800002B96D002200BB0BDE8F0401847894E62
:10AD7800E288B3889A428CD18748FDF70FFD0546D3
:10AD8800002886D0228A04F1120102F07FFD1822E1
:10AD9800002104A802F0A3FD08238DF810307F4B92
:10ADA80006937F4B0596CDE9073504A8238AADF8AD
:10ADB800243000F077FC00283FF46BAF7648294632
:10ADC800FDF710FD65E7E188F6291CD8CB1E9B0727
:10ADD8000DD0CB1F9BB2013B5A4202F0030203F095
:10ADE800030301F1FF3158BF5342C91A89B2654BB9
:10ADF8001888FFF7B3FE00283FF44BAF0BB0BDE84F
:10AE0800F040FFF7F0B8F721F1E70022808804A9A5
:10AE1800CDE90422FFF794FE00283FF43AAFFFF78C
:10AE2800E2F836E7574C02230493208802AB04AAC1
:10AE380042F605210593FFF789FE08B1FFF7D3F81D
:10AE4800002320881A468521FFF774FEE4E74D4B5E
:10AE580000F108011888FFF763FECCE7002304A976
:10AE680080888DF810308DF81130FFF767FED3E732
:10AE7800A379002B7FF40DAF424B13211888FFF7FD
:10AE880051FEB8E73F4B00211888FFF76BFEB2E789
:10AE9800A379002B3FF4FDAE022B7FF4FAAE3D4DB3
:10AEA8002189AA8991427FF4F4AEA27B012A7FF41A
:10AEB800F0AE4FF480320592228A324EADF8182057
:10AEC800628AADF81A2004F11402079201AF298AA8
:10AED8003088049302AA02930397FFF737FE60B9FC
:10AEE8003846FFF713F940B940F2FD133088ADF842
:10AEF800143004A9FFF72EFECBE6002304A93088FE
:10AF0800ADF81430FFF726FE014600287FF4C1AEE5
:10AF1800182204A802F0E3FC237D204A8DF81030A3
:10AF2800022B0595069218D0062B10D0012B10D1B4
:10AF38001C4B1A881C4B1A80637DD4F81620089382
:10AF4800012B099205D1194800F060FD01E0637DED
:10AF5800089304A800F0A6FB9BE6124AB4F8153043
:10AF68001380114A1380F4E700231A461946808893
:10AF7800FFF7E2FD3FE70023A0881A461946FFF7CE
:10AF8800EBFD38E7AA590020C8800020D6DC0F0066
:10AF9800C48000208E80002068D90F00F9AF0F0010
:10AFA80075AB0F00CC800020CE80002054D90F0054
:10AFB8007FB50023CDF80B308DF80F300A4BADF874
:10AFC80006109B89ADF8083001238DF80A300DF181
:10AFD8000603CDE90430054B02A91888FFF7B8FD30
:10AFE80007B05DF804FB00BF8E800020AA5900203E
:10AFF80010B5044686B000210D2202A8019102F086
:10B008006EFC2378082B0BD1364A374913880988F8
:10B01800013B9BB21380D9B1D3B9032311802370AC
:10B02800627823788DF805306021012A8DF80410A4
:10B038008DF806200ED00B2A12D100F083F98DF876
:10B048000700002000F078F9042101A8FFF7B0FFFD
:10B0580006B010BD062B05D0082B29D0032B27D00E
:10B068000321F2E7E1688DF80710D4E90123080A03
:10B078008DF80800080C090E8DF80A10110A8DF8D1
:10B088000B208DF80C10110C120E8DF80E201A0AD8
:10B098008DF80F308DF810201A0C1B0E8DF80D103E
:10B0A8008DF809008DF811208DF812300F21CCE7AA
:10B0B800D4E90123110A8DF807208DF80810110C26
:10B0C800120E8DF80A201A0A8DF80B308DF80C2014
:10B0D8001A0C1B0E8DF809108DF80D208DF80E3006
:10B0E8000B21B2E7CE800020CC8000202DE9F04172
:10B0F8003E4B94B005464FF6FF721A8001204FF67A
:10B1080059632A4602A98DF80A00ADF80830FFF7FE
:10B1180019FD0446002865D1354B04AA03F1100730
:10B12800164618685968144603C40833BB422246B9
:10B13800F7D1A91C3046FFF713FD0446002851D16A
:10B1480001461C220DA802F0CAFB9DF834308DF888
:10B15800044043F004038DF834300223ADF80C307A
:10B16800AB788DF80E3003238DF80630F423CDE943
:10B178000A44ADF82C302B464FF0110833F8040B75
:10B188000C9403AF01AE08AA0DA98DF805800897A5
:10B198000996FFF7D9FC044620BB01461C220DA8DE
:10B1A80002F09DFB18238DF834300123ADF80C30E4
:10B1B800AB788DF80E3013238DF806301723CDE9C0
:10B1C8000A44ADF82C302B4608AA33F80C0B8DF83E
:10B1D80004400DA90C94CDE908768DF80580FFF799
:10B1E800B3FC0446204614B0BDE8F081AA590020FB
:10B1F800B7DC0F0030B5314C236813F0010585B07A
:10B208005AD12F4B18602F48FDF7B1FA029500F07C
:10B21800B4F800284ED12C48FFF7A6FC002849D1E5
:10B22800FEF7E4FB002845D102A8FEF7B1FC002890
:10B2380040D102A90120FEF7B5FC00283AD102A8A6
:10B24800FEF702FD002835D100F0A0FB30B11F4801
:10B2580000F08CFB236843F002032360112302A84B
:10B268008DF80430FFF754FC20BB9DF8093002A884
:10B2780001338DF80930FFF749FCD8B92568AB07C9
:10B288004BBF124912498A690A2248BF043192B257
:10B2980001A8FFF74BFC68B90E48FFF745FC48B911
:10B2A8000D48FFF723FF28B9FFF766FC10B945F0F2
:10B2B8000105256005B030BD0020FBE7C4800020F3
:10B2C800C880002068D90F0000800F00247000207B
:10B2D800ACDC0F00D6DC0F008E80002043690BB178
:10B2E800C06818477047000010B40549054C002293
:10B2F800904218BF214604485DF8044BFDF78CBA0C
:10B30800CCD90F00F8D90F006859002007B5009371
:10B3180013460A4601460348FDF782FA03B05DF872
:10B3280004FB00BF6859002013460A46014601483D
:10B33800FDF77DBA68590020014B18700B20704743
:10B34800D0800020024B002218781A70704700BF86
:10B35800D080002018DF704730B585B00546102230
:10B368000C466846002102F0BAFAA408684601951E
:10B378000294FFF7EFFF05B030BD1FB50023CDE9FC
:10B3880001330393684602230093FFF7E3FF05B0F8
:10B398005DF804FB4FF000534FF480521A60002010
:10B3A80070470000014B06201B681847DC8000200E
:10B3B8000A2803D90B38C0B2FFF7BEBF7047000098
:10B3C80010B5044686B00020FDF738FA014638B1BA
:10B3D800174A1821204606B0BDE81040FDF70CB802
:10B3E8001822684602F07BFA0423124A8DF80030CE
:10B3F800114B116D1B68994212D1104B186800F05F
:10B408005DFF8DF80100FFF7D3FFD4E901138DF834
:10B418000100684698470A4800F058FA06B010BD7F
:10B4280001238DF801306846D4E901139847F5E700
:10B43800C9B30F00E0870020D4800020D880002006
:10B44800ADB30F00F0B5044687B018220021684656
:10B4580002F045FA22788DF8002001238DF801309A
:10B46800531E0B2B00F21281DFE813F01D001000B1
:10B478001D001D0010011D0010011D00100110010C
:10B4880010010C00824B07201B689847D4E9011370
:10B49800684698479DF80130012B00F0EC807C4B02
:10B4A80005201B68E6E0062A7A4901D0012A01D165
:10B4B80022690A700A78012A04D0022A53D000238C
:10B4C8000B7093E0072BE1D801A252F823F000BFDC
:10B4D800F9B40F0095B40F0063B50F0037B50F002E
:10B4E80095B40F005DB50F0095B40F0011B50F00AE
:10B4F800674B03201B689847606900F0D7FCFFF78B
:10B5080057FF8DF80100C1E7A18A206900F0E6FC29
:10B51800FFF74EFF604B8DF80100DA6B1B6C02934E
:10B52800E3680192002BB1D020699847AEE75B49E8
:10B538005B4800F021FDFFF73BFF01288DF8010073
:10B54800A4D1002000F0C2F900289FD00A238DF86A
:10B5580001309BE74FF4007303934F4BDA6B1B6C7E
:10B568000192029392E7072B90D801A252F823F098
:10B5780099B50F0095B40F004FB60F0059B60F00DC
:10B5880095B40F0083B60F0095B40F00F9B50F00FE
:10B5980000F0C4FC08B90823D9E762690AB9032393
:10B5A800D5E7C2F30B0333B13B4B3C495B6D0968EC
:10B5B80013448B42F3D1B2F5805F01D90423C6E767
:10B5C800354B3649586D096815188D42E3D85A64C9
:10B5D800DA6C9A6418651863314B1B6800220121E4
:10B5E8001844FFF7A1FE00283FF450AF0523AEE74B
:10B5F80000F094FC0028CED0274DA18AD5E914325A
:10B608009B1A6A6C0B449342C9D8254B2F6B1B6855
:10B61800206905F148021F44FCF7BAFFE368A28AD3
:10B62800216906463846FFF771FE08B1E3687BE7F3
:10B63800A38A2A6BAE641A442A632A6D02961344BD
:10B648002B65019322E7144B9A6C02921B6DF8E765
:10B65800114BD3E91402596C821A8A429BD19A6C15
:10B668005865002120465964DA64FFF7A9FE084BA3
:10B678001B680420984707B0F0BD074B9A6C1B6DF8
:10B6880001934FF4805302920393FFE602235EE78F
:10B69800DC800020AC590020E0870020D480002006
:10B6A800D880002083681BB1024A1821FCF7A4BE89
:10B6B800072070474DB40F0038B50546C0B10120CA
:10B6C800FFF712FE044648B900F0E2FB00F026FC42
:10B6D80030B9084B00201D60FFF72EFE204638BD0C
:10B6E8000549064800F048FC0128F2D00324F5E794
:10B6F8000724F3E7DC800020D4800020D8800020D5
:10B708002DE9F04115464FF46072064688461F46FB
:10B7180002F082F828B915B90020BDE8F081A847E1
:10B72800FAE7002201213046FFF7FEFD70B94FF419
:10B7380060724146384602F0A9F82B464FF4607211
:10B7480039463046FFF7E2FD0028E5D00320E4E75C
:10B758002DE9F0413F4C2368013362D00022582183
:10B76800201DFCF715FF27683A1A57425741DFF8A2
:10B77800F880394ED8F800502B68013366D0002283
:10B788005821281DFCF704FF2B6883424BD16C68B5
:10B79800012C0AD00022C32105F51870FCF7F8FE29
:10B7A800D5F85C42231A5C425C41002F3DD0294900
:10B7B80029484FF4607202F069F86CB1D8F800407B
:10B7C80026485422211D02F061F825484FF43272B0
:10B7D80004F15C0102F05AF87768012F34D1214C4A
:10B7E800A4F5E4750FCD0FC40FCD0FC40FCD0FC452
:10B7F80095E80F0084E80F0004F11005A4F5DC7447
:10B808000FCC0FC594E80700002386F8603286F84D
:10B81800E232F36986F8A17285E80700C6F8A23219
:10B8280010E00027A3E70024BFE72CB1D8F80010E8
:10B8380009484FF46072CDE707484FF46072002161
:10B8480002F04DF802237360BDE8F081002FF3D0B9
:10B858000024ACE700F00F00E0870020E487002018
:10B868003C880020048B0020B059002070B50C4C97
:10B87800054600225821201DFCF78AFE0022206080
:10B88800C32104F51870FCF783FE2A46C4F85C024D
:10B898002146044B0448BDE87040FFF731BF00BFA4
:10B8A800E08700206084002000F00F000246024874
:10B8B800024B0068FFF724BFB0590020E080002049
:10B8C8000149FFF7F3BF00BF00F00F0038B5054688
:10B8D8000020FFF7CBFF044618B903492846FFF7B5
:10B8E800E5FF204638BD00BFE087002010B5FFF710
:10B8F800FBFC044628B9FFF72BFF2046FFF7E6FFBD
:10B9080000B1032010BD000010B5084C4FF40072C0
:10B91800FF2104F15C0001F0E2FF2022002104F184
:10B92800380001F0DCFF0023236310BDE08700200E
:10B9380029DF704738B50C4D0446D5F8643378B123
:10B9480001330FD1002218210430FCF721FE2146D3
:10B958002060072205F55970BDE83840FFF7E8BFB9
:10B968000E2038BD0820FCE700F00F0050B1064B50
:10B9780003F11C0253F8041B40F8041B9342F9D14D
:10B98800002070470E20704764F30F0010B5064C76
:10B99800002218212046FCF7FBFD54F8043C1B1A32
:10B9A8005842584110BD00BF68F30F0010B50A4C4B
:10B9B800D4F82433D4F864231340013309D04FF466
:10B9C8007F20FEF775F9C92221464FF47F20FEF744
:10B9D8009DF9002010BD00BFE0870020F8B5094F91
:10B9E800094CE41B0646E4080025A54201D10020C5
:10B9F800F8BD57F83530304698470028F8D101355A
:10BA0800F3E700BF54D90F005CD90F00F8B5094E11
:10BA1800094CA41B0746E40800250436A54201D1B9
:10BA28000020F8BD56F83530384698470028F8D138
:10BA38000135F3E754D90F005CD90F00034A0023FE
:10BA48000360436083601363704700BFE087002092
:10BA58004FF44053074A5968914201BF986800F66D
:10BA6800FF7020F47F6020F00F0018BF4FF4805063
:10BA7800704700BFDBE5B15108B5FFF7E9FF054B9B
:10BA88009B69184400F6FF7020F47F6020F00F00D7
:10BA980008BD00BFE08700204FF4805070470000C9
:10BAA8002DE9F74F1F46244BDFF894B01B6ADFF8E7
:10BAB800949001910446154600934FF000084FF406
:10BAC800405AB8F1010F5FFA88F61AD0022E24D036
:10BAD800FFF7D2FF9DB1009B013B59425941A9EBA9
:10BAE8000000A04201D3019BEBB1D1B908F10108D4
:10BAF800B8F1030FE5D1A04216D2042018E0294678
:10BB0800EDE7FFF7A5FF37B9DAF80410B1EB0B0141
:10BB180018BF0121E3E74146E1E701214FF48050D6
:10BB2800DDE7A042E9D316B10448FFF787FF0020FC
:10BB380003B0BDE8F08F00BFE0870020F887002041
:10BB4800DBE5B15100500F0090F8552012F0FB0FC3
:10BB580007D190F8643023B1836ECBB10B6001201C
:10BB6800704712F0010303D090F8563003B1836D8B
:10BB78009207F2D590F85C20002AEED0054A006EB4
:10BB8800C2F57E22904201D80344E6E704207047BC
:10BB98000F20704700800F002DE9FF472F49304DD7
:10BBA8008A6B304C304FDFF8D490DFF8D4A06E4663
:10BBB8005C313046FDF706FA96E80F0085E80F007D
:10BBC80000212A4B39704FF447722046C9F80010FB
:10BBD800CAF80010EB6001F082FE2549224628468B
:10BBE800FDF78DFC20B90027384604B0BDE8F08782
:10BBF8003F78002FF7D094F86C3194F800801BB38D
:10BC0800B8F1000FEFD194F87231002BEBD0DAF8CD
:10BC18000020D9F800103046FDF7D4F996E80F0057
:10BC280085E80F004FF4B272414604F5BA7001F08E
:10BC380056FE104904F5BA722846FDF760FC002844
:10BC4800D1D004F5BA7406E0B8F1000FCBD0A379CF
:10BC5800002BC8D00834084B1C60C5E7E0870020DB
:10BC6800AC8E0020908B00208C8B00208DBC0F00A8
:10BC78003CDC0F0088DB0F00688F0020888B0020D9
:10BC8800848B00205B68DA680D4B9A4230B508D186
:10BC98000C4C236813B90C490B681BB10B4B0022E1
:10BCA8001A7030BDD0E901321A4413F9015B002D36
:10BCB800A2EB0300F9DB23600860044B0122EFE7E5
:10BCC80088DB0F00888B0020848B00208C8B002061
:10BCD8004FF4405310B55968154CA142024624D080
:10BCE80000F500535B68181B43424341A1421846C4
:10BCF8001AD102F500535A688A4215D14FF44052BE
:10BD08001178142982BF50690A4AB0FBF2F01A78F8
:10BD180098BF0020142A83BF5B69064AB3FBF2F37D
:10BD28000023C01A18BF012010BD0023DEE700BFA2
:10BD3800DBE5B15140420F0000B591B0FEF7D4F8F1
:10BD4800684608492022FEF702F96A46064907486C
:10BD58004023FEF71DF8064B01221A7011B05DF85A
:10BD680004FB00BFA8DA0F00BC8E00203CDA0F00ED
:10BD7800608B00202DE9F041CCB003AD80460C4625
:10BD8800164600217C221F4604A820232B6001F0C0
:10BD9800A6FDA422002123A801F0A1FD1C4B1B78BD
:10BDA8000BB9FFF7C9FF6CB3B8F1000F2CD1194BD1
:10BDB80000931949529B01953A4604A8FEF77AF870
:10BDC80020BB402E22D1154B214604F140021C46CF
:10BDD80051F8040B43F8040B9142F9D10F48202184
:10BDE800FEF7C1F84023CDE900430A4A2B680C4905
:10BDF80023A8FDF7E9FF00280CBF012005204CB05F
:10BE0800BDE8F0811320FAE71620F8E70A20F6E7E4
:10BE1800608B0020048F002048DA0F00248F002058
:10BE2800BC8E0020F0B5ABB004460D4616461F4642
:10BE38007C22202300210BA8029301F050FD114B16
:10BE48001B780BB9FFF778FF2FB12146202203A8F2
:10BE5800FEF772F803AC02AB0B4F01930B49009746
:10BE680033462A460BA8FEF725F848B92022214672
:10BE7800384601F0D1FCB0FA80F040092BB0F0BD93
:10BE88000020FBE7608B0020618B002048DA0F0060
:10BE980008B5044B986B08B1FFF77EFE024B18708B
:10BEA80008BD00BFE0870020648F002010B504465D
:10BEB80058B1B0F5007F0AD8064B00221A70FFF778
:10BEC80023FD054B01209C6310BD0320FCE70420E3
:10BED800FAE700BF648F0020E087002070B50E4CA1
:10BEE8000646E06BA36B42189A420D4611D85C30A7
:10BEF8000A462044314601F0C9FCE36B04F14002D4
:10BF08002B4429463046E363FCF742FB20640120BA
:10BF180070BD0320FCE700BFE0870020014B1878C4
:10BF2800704700BF648F002013B5104C94F86C2143
:10BF3800B2B194F8D802B4F8DA2204F5377104F5EE
:10BF4800B8740B4B1B6800930A4B1B68FFF712FF72
:10BF5800012809D1201D02B0BDE8104000F0B2B997
:10BF6800114610460434ECE702B010BD908B002057
:10BF7800848B0020888B0020204BD3E90E329A4214
:10BF88002DE9F04106460D4633D1DFF8788098F860
:10BF980000704FB1FFF770FD194B306029461868E3
:10BFA800BDE8F041FFF7D0BDFFF7F6FD18B3FFF786
:10BFB800BBFF0128376004462F6017D1104B294674
:10BFC8001868FFF7C1FD012804460FD103463A4619
:10BFD80028683946FFF764FD38B9FFF74DFD88F842
:10BFE800004030602046BDE8F0810424FFF78CFC57
:10BFF800F8E70824F6E70524F4E700BFE087002007
:10C00800688F0020648F002001237230FFF70ABF79
:10C0180013B50446084623781146032B03D8DFE8F6
:10C0280003F021050F18002002B010BD0022D4F83B
:10C038000140FCF7ADFA844214BF00200120F3E769
:10C048000A4600230146601C02B0BDE81040FFF715
:10C05800E9BE009103464022611C0020FFF78AFEDA
:10C068000128E9E70120DFE72DE9F041A2B0044605
:10C078000D46164600217C221F4603A82023029362
:10C088009DF8A08001F02BFC41220021204601F000
:10C0980026FCB5F894300BB195F8968084F80080AA
:10C0A800B8F1030F1ED8DFE808F00902111F0022BB
:10C0B80039463046FCF76CFAC4F801003A46314676
:10C0C8002046FFF7A5FF22B0BDE8F08102AB01933F
:10C0D800631C009308493B46324603A8FDF7EAFE75
:10C0E8000028EBD00020EEE7B5F8982005F19A017A
:10C0F800601C01F0CBFBE1E748DA0F002DE9F047BF
:10C10800684B1D68A4B004460F4690460A4601468F
:10C118002846FFF779FF002800F0C28095F855609F
:10C128003EBB4FF00109CDF800903B462246294618
:10C1380013A8FFF799FF002875D0B8F1000F63D056
:10C14800DFF86481412213A908F2A12001F09EFBC7
:10C158006B68C8F82C90C8F82060C8F8083000222E
:10C1680039462046FCF714FA4F4B0125C3E90970FC
:10C1780091E04122002102A801F0B1FB06F001097B
:10C188004122002113A806F0020601F0A8FBB9F12C
:10C19800000F3DD004F50051444B4868984242D105
:10C1A800D5F858A00AF5FF520AF6FF73C3F30B033C
:10C1B8001F32D21A8B68934235D34FF440535A68D2
:10C1C80082420CD11A78102A88BF1A690B7898BF56
:10C1D8000022102B8CBF0B6900239A4223D12046E2
:10C1E800FFF776FD00B1F6B10123009322465346CE
:10C1F800294602A8FFF738FFA8B1AB6DE218FB1A71
:10C208004EB9B8F1000F18D1274B01255D6110E038
:10C218003B462246F4E70021009113A82946FFF780
:10C2280023FF0028EDD10525B8F1000F30D1FFF725
:10C238006BFB284624B0BDE8F087DFF86C80B9F1C5
:10C24800000F21D02046FFF743FD18B108F1180070
:10C25800FFF7F4FB1648412202A901F017FB002E54
:10C2680014BFAC23A523C8F82C30AB6DC8F8343004
:10C27800002E3FF474AF0F48412213A901F006FBCA
:10C288006B68C8F80C306AE7AA23C8F82C30EFE7C7
:10C298000948FFF7D3FBFFF737FB034B9C64C8E75C
:10C2A8001725C1E7688F0020E0870020DBE5B15142
:10C2B800408A0020C28A0020048800200122FFF75B
:10C2C8001DBF000090F85420F0B50346002A4DD059
:10C2D80090F85500032849D893F86E20032A43D1D3
:10C2E8001A7A002A42D0DA68342A41D14FF44055EC
:10C2F80020496C681A8A8C421FD142B15969A9B188
:10C30800D2B203F114040021CEB2B24201D81220F5
:10C3180023E054F8047BAE89B74201F10101F3D15F
:10C328001A788AB9012818BF0F2016E010B9012A17
:10C33800EDD1F5E70128F3D1E9E712B15A69002AEE
:10C34800E5D11A78002AE2D001285B680A4A05D8A4
:10C35800906898428CBF10200120F0BDD0689842A8
:10C3680034BF01201020F8E71420F6E70F20F4E787
:10C378001120F2E7DBE5B151E087002030B1026817
:10C38800034B04489A4208BF002070470248704790
:10C39800DD55AABB8208F0007108F00038B50D46DB
:10C3A8000446B0B1A0220021043000F041FD95B14F
:10C3B8000822294604F1640000F040FD082205F136
:10C3C800200104F1840000F039FD044B23600020B3
:10C3D80038BD0348FCE70348FAE700BFDD55AABBB0
:10C3E8007108F0008308F0002DE9F74305460E4672
:10C3F80099461146FFF7C2FF0446002840F08480A2
:10C40800002E00F08580002900F08480B9F1200F0B
:10C4180040F0828005F14404082205F10408204612
:10C4280000F00CFD05F1240708223146404600F0D3
:10C4380005FD06F120010822384600F0FFFC02A99C
:10C448004FF4807041F8049D00F0A4FA002865D1EB
:10C45800334A4FF480731360012193600823314AF3
:10C4680000F046FB0121084605232F4A00F040FB57
:10C478000823424601211C2000F03AFB08233A46D3
:10C488000121032000F034FB224608230121022069
:10C4980000F02EFB0823254A01211A2000F028FB72
:10C4A8000523234A01211B2000F022FB0823214AEF
:10C4B8000121142000F01CFB08231F4A012115202C
:10C4C80000F016FB082305F164020121162000F094
:10C4D8000FFB082305F184020121172000F008FB57
:10C4E8000823164A01210B2000F002FB00F05CFB38
:10C4F8000446019800F0EAFA114B002C18BF1C46BC
:10C50800A421284600F096FC204603B0BDE8F0833D
:10C518000C4CF9E70C4CF7E70C4CF5E7084CEFE747
:10C5280090B0025020DD0F0098DD0F00E0DC0F0016
:10C5380084DD0F0044DD0F0064DD0F0000DD0F0017
:10C548008408F0007608F0008008F0008108F00008
:10C558002DE9F041069F044615461E46FFF71EFFCB
:10C5680038B93B46324629462046BDE8F041FFF738
:10C578003BBFBDE8F08100000C4BC2691A608269BC
:10C5880043F8042C426943F8082C026943F80C2C40
:10C59800C26843F8102C826843F8142C426843F8A8
:10C5A800182C026843F81C2C704700BF5CB6025078
:10C5B8000C4B1B68C3610C4B1B6883610B4B1B68DE
:10C5C80043610B4B1B6803610A4B1B68C3600A4B32
:10C5D8001B688360094B1B684360094B1B68036039
:10C5E800704700BF5CB6025058B6025054B60250AD
:10C5F80050B602504CB6025048B6025044B60250EB
:10C6080040B6025030B10268034B04489A4208BF52
:10C618000020704702487047DD55AABB0202F000AF
:10C628000002F00038B5044668B1051D702128469F
:10C6380000F000FC28462022044900F0F7FB044BD8
:10C648002360002038BD0348FCE700BFBCDD0F00B5
:10C65800DD55AABB0002F0002DE9F043284B044643
:10C668000E4615460FCB85B06F4687E80F002DB9EB
:10C678004FF00009484605B0BDE8F0832046FFF7B3
:10C68800C1FF81460028F5D1231D0193636AA3BB2E
:10C69800236F8BB1C3F14008A84528BFA84604F111
:10C6A800300031461844424600F0C0FB236F434433
:10C6B80046442367A5EB0805226F402A06D104F1FA
:10C6C8003001384600F0C8FB0023236705F03F0817
:10C6D80035F03F0505D031462A46384600F0BCFB08
:10C6E8002E44B8F1000FC3D04246314604F1300061
:10C6F80000F09CFBC4F87080BCE7DFF80890B9E74D
:10C70800ACDD0F000C02F0002DE9FF41144B04468C
:10C718000E460FCB6F4687E80F002046FFF772FFE3
:10C728008046B0B9CEB1636A251D01953BB9012396
:10C738006362226F04F13001384600F08DFB2B460E
:10C74800043E243453F8042B12BAA34246F8042FAB
:10C75800F8D1404604B0BDE8F081DFF80880F8E77A
:10C76800ACDD0F000502F000084B1B681B0EF02B18
:10C7780008D1074B1A68074B9A4205D1064B00208F
:10C7880018607047052070470620704728B9025086
:10C7980024BA02500000E0200CBA0250002230B542
:10C7A80049001346023840F6FC7502F1A05404F51E
:10C7B8002C44A400904202F10102CABF2360256004
:10C7C8005B181E2AF1D1044A13600B445360034BD3
:10C7D800034A1A6030BD00BF78B0025084B00250DE
:10C7E80020F80F0030B51E4B85B01A461968009125
:10C7F8000099CC07FAD500F1A05000F52C40800034
:10C80800016813680193019BD807FAD5154B164C9C
:10C818001868164D1F30202390FBF3F001380028CC
:10C8280010DA00230130400153B1A0F120014FF08C
:10C838000042134204D1013888424FEA5202F8D12B
:10C8480005B030BD13680393039BDB07FAD5431883
:10C8580023602B680293029B002BE3D10138DEE7AB
:10C86800B4B00250ACB00250E4B00250DCB0025098
:10C87800F0B51D6885B001F01F040DB91F2C25D136
:10C88800154D2E462F680197019FFF07FAD500F135
:10C89800A05000F52C408000006835680395039D82
:10C8A800ED07FAD50D4D00EB611028600C480068C3
:10C8B80002901F2C18BFC94302980FBF106001F0E7
:10C8C8001F0100FA01F1116000211960106843008E
:10C8D800C00F136005B0F0BDB4B00250E4B0025010
:10C8E800DCB002500C4B18603F3020F03F0089014B
:10C8F800403058609960D9601961596199611C3359
:10C908000648196082B002680192019AD207FAD5E6
:10C91800196002B0704700BF90B00250B4B0025026
:10C9280038B5A0F12003B3F5426F05462CD88F28FF
:10C9380026D800F1470300F16604DB064FEA5414D9
:10C9480000D0013464013F34A409013411B1A1427B
:10C958001AD30C46E3004FF48050B0FBF3F02028C4
:10C9680028BF202002B11060084B01221A6021461E
:10C97800FFF714FF28462146FFF7B4FF002038BD13
:10C9880000F11F046409DDE70148F8E71CB802500C
:10C998002221F0000A460021FFF7C2BFF0B5454B3F
:10C9A80089B01D461C680194019CE407FAD5424BE6
:10C9B800DFF80CE1DFF80CC113449B0000241A686F
:10C9C8000B181E2B88BFC0F11E011F320B1852090D
:10C9D8005343B3F5806F82BF4FF48061B1FBF2F12E
:10C9E800091A00F1A05000F52C402746A14233DC7B
:10C9F8002B680493049BDB07FAD5304B1B68296826
:10CA080005910599CF07FAD52D4C2E4923600023AF
:10CA18001E46934203F1010040D120F0010229484B
:10CA2800194600268A423CD8296806910699CE07FD
:10CA3800FAD525490968286807900798C007FAD5E4
:10CA48002160204800210C468B422DD11D49002031
:10CA58009A422CD809B0F0BD2B680293029BDB07E1
:10CA6800FAD503199B001B682E680396039EF607E8
:10CA7800FAD5CEF800300023934203F1010306D122
:10CA8800164623F00103B34204D80134AEE7CCF8CC
:10CA98000070F1E7CCF800700136F4E70E60034649
:10CAA800B7E706600131BDE704600131CCE70860F3
:10CAB8000133CDE7B4B0025024AC00147CB002506E
:10CAC800D4B00250D8B0025078B0025008B540B186
:10CAD800202801464FF0070228BF20210020FFF739
:10CAE8005DFF024B00221A6008BD00BF1CB802504F
:10CAF800F0B5294D85B02C462E680096009EF607A5
:10CB0800FAD500F1A05000F52C4080000568206897
:10CB180001900198C707FAD52048214F056002EB1C
:10CB28008306B24229D15A1C1D4E22F00102002769
:10CB38009A4227D823680293029BDE07FAD5194B3D
:10CB48000B449B001B681F335B099A4213D2216870
:10CB580003910399C907FAD5154400219B1A104A75
:10CB6800056008468B4210D85A1C0D4922F0010274
:10CB780000209A420CD805B0F0BD52F804CBC7F893
:10CB880000C0CEE737600133D2E710600131E9E732
:10CB980008600133EDE700BFB4B00250D4B00250D2
:10CBA800D8B0025024AC00142DE9F041814B1D6827
:10CBB80098682033A0B01E461A680192019AD707D8
:10CBC800FAD57D4B7D4A1A6032680292029AD407E0
:10CBD800FAD57B4A1A607B4A144611680391039977
:10CBE800C907FAD5784A1168C1F340213768049714
:10CBF800049FFF07FAD5754F1F6027680597059FA3
:10CC0800FF07FAD51768002900F0CF80B90540F171
:10CC1800CC80316806910699CF07FAD56C4919601E
:10CC2800216807910799C907FAD51168C1F340210E
:10CC380037680897089FFF07FAD5664F1F6027686F
:10CC48000997099FFF07FAD51268002900F0AF80FD
:10CC5800910540F1AC8032680A920A9AD207FAD557
:10CC6800564A1A6032680B920B9AD707FAD55A4A75
:10CC78001A6031680C910C99CC07FAD5574919609C
:10CC880031680D910D99C907FAD555491960316870
:10CC98000E910E99CF07FAD55249196031680F9154
:10CCA8000F99CC07FAD550491960504B1E461968A0
:10CCB80010911099C907FAD53F4C4D4B2360336842
:10CCC8001193119BDB07FAD54A4B23603368129303
:10CCD800129BDF07FAD5484B23603A4B98461968F0
:10CCE80013911399C907FAD5324F386033681493F2
:10CCF800149BDB07FAD5226033681593159BD80778
:10CD0800FAD53E4B236033681693169BD907FAD59C
:10CD18003B4B236033681793179BDA07FAD5394BD7
:10CD2800236033681893189BDB07FAD5364B2360CA
:10CD380033681993199BD807FAD5344B23603368A5
:10CD48001A931A9BD907FAD5314B236033681B9382
:10CD58001B9BDA07FAD52F4B236000F033FC08BB86
:10CD6800D8F800301C931C9BDB07F9D53D6033686D
:10CD78001D931D9BD907FAD5274B236033681E9353
:10CD88001E9BDA07FAD5254B2360D8F800301F938D
:10CD98001F9BDB07F9D50C4B1B6813F4805F204BF6
:10CDA80008BF184620B0BDE8F0811E48FAE71E48C3
:10CDB800F8E700BF90B0025080B002500010025156
:10CDC800C01F7229B4B0025088B00250C0CF0129E8
:10CDD800C01F0E29C03F002940010249003184A824
:10CDE80000001649400108A180440888B0B00250EC
:10CDF800C044708880077A41C0077E4100006A49B4
:10CE08008006164940006E49000200210082202158
:10CE1800408220218082242140A161A100C8615163
:10CE28000308F1000108F1000208F10000F02EBD2E
:10CE380000F055BD0A46002100F051BD01EB820209
:10CE480004388A4201D10020704752F8043D1BBAC9
:10CE580040F8043FF5E700002DE9F74F314B4468EF
:10CE68008046924699461A68002AFCD12E4B9B466A
:10CE78001A68002AFCD14FF0FF30019100F094FCB1
:10CE8800802000F097FC294D294A2A4F2A4E012379
:10CE980007202B60A2F59E72C2F83C011360636AFA
:10CEA8003B60A36A3360D8F8003042F8043CD8F8F5
:10CEB8000830204698470199D9F80030002BFBD15B
:10CEC800BAF1000F20D11D4B04221A60D9F80030A6
:10CED800002BFBD1DBF800A0BAF1000FFAD1D8F88B
:10CEE8000C30204698473B6863623368A362144B52
:10CEF800C3F800A0C3F844A1D9F80030002BFBD137
:10CF08002B6003B0BDE8F08F236A012B04BF0C4AE5
:10CF180013600C4B40201960C3F804A000F050FCCB
:10CF2800D4E700BF10B9025020BC025018B8025014
:10CF380000B90250CCB70250D0B70250C8B702505F
:10CF480084B6025028BC025010B5544B98B019460C
:10CF58001A680192019AD207FAD5514B514A1A60C0
:10CF68000A680292029AD407FAD54F4A1A600A68E8
:10CF78000392039AD007FAD54C4818600A680492BD
:10CF8800049AD207FAD54A4A1A600A680592059A9D
:10CF9800D407FAD5474A1A600A680692069AD20751
:10CFA800FAD5454A1A600A680792079AD407FAD54B
:10CFB800424A1A600A680892089AD207FAD5404A83
:10CFC8001A600A680992099AD407FAD53D4A1A6084
:10CFD8000A680A920A9AD207FAD53B4A1A600A687E
:10CFE8000B920B9AD407FAD5384A1A600A680C9241
:10CFF8000C9AD207FAD5364A1A600A680D920D9A29
:10D00800D407FAD5334A1A600A680E920E9AD207E4
:10D01800FAD5314A1A600A680F920F9AD407FAD5DE
:10D028002E4A1A600A681092109AD207FAD52C4A2A
:10D038001A601A4B19461C681194119CE407FAD51A
:10D04800174B1860086812901298C407FAD51A602E
:10D058000A681392139AD007FAD5124A1A600A6816
:10D068001492149AD207FAD51E4A1A600A681592C1
:10D07800159AD407FAD51C4A1A600A681692169AA5
:10D08800D007FAD5194A1A600A681792179AD20770
:10D09800FAD5174A1A6018B010BD00BFB0B00250D8
:10D0A80080B002500093652100043190409665904D
:10D0B8000083612100C3302100C364900081619026
:10D0C80000461021008111210041442100C320297C
:10D0D8000C4610C80086312100C3602140C12829B0
:10D0E800409665210013319040962529594614C869
:10D0F8004004324910B5494B94B019461A68009259
:10D10800009AD207FAD5464B464A1A600A68019235
:10D11800019AD407FAD5444A1A600A680292029A18
:10D12800D007FAD5414818600A680392039AD207D3
:10D13800FAD53F4A1A600A680492049AD407FAD5C5
:10D148003C4A1A600A680592059AD207FAD53A4A03
:10D158001A600A680692069AD407FAD5374A1A60FE
:10D168000A680792079AD207FAD5354A1A600A68F8
:10D178000892089AD407FAD5324A1A600A680992BE
:10D18800099AD207FAD5304A1A600A680A920A9AA6
:10D19800D407FAD52D4A1A600A680B920B9AD2075F
:10D1A800FAD52B4A1A600A680C920C9AD407FAD559
:10D1B800284A1A600A680D920D9AD207FAD5264AAB
:10D1C8001A600A680E920E9AD407FAD5234A1A6092
:10D1D8000A680F920F9AD207FAD5214A1A600F4BA4
:10D1E80019461C681094109CE407FAD50C4B18607B
:10D1F800086811901198C407FAD51A600A68129243
:10D20800129AD007FAD5174A1A600A681392139A25
:10D21800D207FAD5144A1A6014B010BDB0B0025043
:10D2280080B0025080906521000409904096659076
:10D238008080612180200821802064900081619095
:10D24800004610210081112100414421802020291D
:10D25800024610C800860921802060214021282923
:10D268004096652140962529594614C810B5504B5B
:10D2780096B01C461A680192019AD207FAD54D4B0E
:10D288004D4A1A6022680292029AD207FAD54B4A8E
:10D298001A604B4A42EA804022680392039AD207F6
:10D2A800FAD5186022680492049AD007FAD5454A3C
:10D2B8001A60A2F5800242EA814122680592059A25
:10D2C800D207FAD5196022680692069AD007FAD5CD
:10D2D8003D4A1A6022680792079AD107FAD53B4A55
:10D2E8001A6022680892089AD207FAD5384A1A6052
:10D2F80022680992099AD007FAD5364A1A60226834
:10D308000A920A9AD107FAD5334A1A6022680B9210
:10D318000B9AD207FAD5314A1A6022680C920C9AF5
:10D32800D007FAD52E4A1A6022680D920D9AD107B5
:10D33800FAD52C4A1A6022680E920E9AD207FAD5AC
:10D34800294A1A6022680F920F9AD007FAD5274AFD
:10D358001A60216810911099C907FAD51A60144B00
:10D368001A46196811911199C807FAD5114B204925
:10D378001960116812911299C907FAD51D491960E7
:10D38800116813911399CC07FAD50B4919601168E4
:10D3980014911499C807FAD517491960116815919D
:10D3A8001599C907FAD5154A1A6016B010BD00BFFD
:10D3B800B0B0025080B00250400441900086292944
:10D3C800D81001C840144190401421294014652107
:10D3D8000034409000310C90C0400C90C03020299F
:10D3E80040960D9000416090031645C800861121B3
:10D3F80000416021594644C84014459040142D907E
:10D4080070B5264888B0054604680094009CE60775
:10D41800FAD52348234C0460234C44EA83432C6800
:10D428000194019CE407FAD50360930143EA824220
:10D4380042F0104444F4C0442B680293029BDE0778
:10D44800FAD504602B680393039BDB07FAD5174BC7
:10D4580003608B0143EA814141F0104343F4C04328
:10D468002E680496049EF607FAD503602B68059388
:10D47800059BDE07FAD5046041F058412B680693F6
:10D48800069BDC07FAD5016042F058422B680793E7
:10D49800079BDB07FAD5026008B070BDB0B0025038
:10D4A80080B00250C02102298071009880611890D4
:10D4B800354B8EB019461A680092009AD207FAD5F1
:10D4C800324B334A1A600A680192019AD007FAD59A
:10D4D800304A1A600A680292029AD207FAD52E4A8E
:10D4E8001A600A680392039AD007FAD52B4A1A6081
:10D4F8000A680492049AD207FAD5294A1A600A6877
:10D508000592059AD007FAD5264A1A600A68069243
:10D51800069AD207FAD5244A1A600A680792079A27
:10D52800D007FAD5214A1A600A680892089AD207E1
:10D53800FAD51F4A1A600A680992099AD007FAD5DB
:10D548001C4A1A600A680A920A9AD207FAD51A4A35
:10D558001A6008680B900B98C007FAD51A600A6819
:10D568000C920C9AD007FAD5144A1A600A680D92E0
:10D578000D9AD207FAD5124A1A600E210D230F22EE
:10D5880000200EB0FFF73CBFB0B0025080B0025090
:10D59800804301294063392180700129802054216A
:10D5A80000D13490C0403490C0302029C0530D9031
:10D5B80000413890832308C880E3102100413821B6
:10D5C800CF4308C82DE9F041012392B0CDE90333D8
:10D5D800624B1D461A680592059AD207FAD5604C27
:10D5E800604B2360604B19461A680692069AD70763
:10D5F800FAD55E4B1A68D60400F1A8802A6807920B
:10D60800079AD007FAD55A4A22600A680892089AF7
:10D61800D207FAD51E68C6F30036002E40F098806F
:10D628001220FFF7DFF807461320FFF7DBF88742E1
:10D638008CBF12201320FFF7D5F8471EFFF738FFDD
:10D6480003AB01AA39461220FFF712F904AB804652
:10D6580002AA39461320FFF70BF900EB480002280D
:10D6680032D003283ED0012874D12B680993099B36
:10D67800DB07FAD53F4B23602B680A930A9BD80730
:10D68800FAD53D4B23602B680F930F9BD907FAD52A
:10D698003A4B23602B681093109BDA07FAD5384B66
:10D6A80023602B681193119BDB07FAD5354B236058
:10D6B800013F25D51023192218210020FFF7A0FECD
:10D6C800304612B0BDE8F0812B680B930B9BD9074D
:10D6D800FAD52D4B23602B680C930C9BDA07FAD5EF
:10D6E8002A4BCFE72B680D930D9BDB07FAD5284B08
:10D6F80023602B680E930E9BD807FAD5254BC1E7FC
:10D7080003AB01AA39461220FFF7B2F804AB04466E
:10D7180002AA39461320FFF7ABF810EB440402D1F4
:10D72800FFF712FCC4E7FFF7E5FC022C08D0032C36
:10D7380009D0012C10D117211620FFF797FDB7E764
:10D7480015211420F9E70F210E20F6E7124EB7E74E
:10D75800124EB5E7124EB3E7124EB1E7B0B0025021
:10D7680080B0025000084A51B4B0025088B002504C
:10D7780000084E5100065A4940065E4900044241DD
:10D788000014424940042E490006524940065649B1
:10D7980000063A4940063E490608F1000708F1002C
:10D7A8000408F1000508F100014B1860704700BF3C
:10D7B80008BA0250014B1860704700BF04BA025003
:10D7C800094BC2431A60043B82B01B680193074BA4
:10D7D800019A024204D0064A1060186802B07047E5
:10D7E80020BF1A680192F3E704BA02506C8F002038
:10D7F80008BA0250054B4FF0FF321A6053F8042C58
:10D80800034B1A601A68034B1A60704704BA025037
:10D818006C8F002008BA02506AB30F2A70B511D86D
:10D82800013A2FD0034600EB020C01E09C4524D0BE
:10D838008E461C4611F8012B13F8010B9042F5D0C7
:10D84800801A70BD40EA010C1CF0030F04460B4619
:10D8580006D0013AE6E7043A042A20461946DFD9F9
:10D86800194620460E680568B54203F1040304F121
:10D878000404F0D0D4E71046704760789EF8012081
:10D88800801A70BD00780A78DAE700BF844640EA5B
:10D89800010313F0030F18D18446202A0BD32DE976
:10D8A800F007B1E8F807A0E8F807A2F12002202A5B
:10D8B800F7D2BDE8F007042A07D351F8043B40F833
:10D8C800043BA2F10402042AF7D2002A05D011F879
:10D8D800013B00F8013B013AF9D1604670478446A4
:10D8E800002A2DD010F0030F04D000F8011B013AD4
:10D8F80026D0F7E7C9B241EA012141EA0141202ACD
:10D9080012D3A2F120022DE9F0030B460C460D4676
:10D918000E460F4688468946A0E8FA03203AFBD20D
:10D92800BDE8F00320320BD0042A05D340F8041BCD
:10D93800043A05D0042AF9D200F8011B013AFBD1B8
:04D94800604670477E
:08D94C000D980F00FD970F007C
:08D95400FDB10F0019AC0F003A
:0CD95C0000000000030000002DA00F00E0
:10D96800407000207C8000208D80002048700020BE
:04D97800F4000000B7
:08D97C0085AC0F000000000063
:08D98400B58B0F00000000004C
:10D98C00899B0F0000000000699C0F000000000044
:08D99C00F5890F0000000000F6
:08D9A400A98B0F000000000038
:10D9AC000000000000000000E5B20F0000100000B5
:04D9BC000000100057
:10D9C0000010000004000000010000008D880F001E
:10D9D000B1880F00C1880F00D1880F0025890F0082
:10D9E00099880F009D880F00A1880F00001000008B
:10D9F0000400000001000000398A0F00198A0F009E
:10DA0000098A0F00458C0F00F58B0F00DD890F0090
:10DA1000E1890F00E5890F0095900F003B900F0002
:10DA20008B950F00FB950F001B960F008B8F0F003F
:10DA30004D8F0F0027950F000000000048000000E8
:10DA4000002040000000000011970F0085970F0094
:10DA500021970F00200000000000000000000000DF
:10DA60002726242321010000070000009CD90F0075
:10DA7000A4D90F00080000008CD90F009CD90F001A
:10DA80000800000084D90F008CD90F0008000000A6
:10DA90007CD90F0084D90F0008000000A4D90F0022
:10DAA000ACD90F0008000000B067348DF3991C2238
:10DAB000D76DEA9E6D6BD33665FDB99E5A7B97DABA
