:020000022000DC
:1070000000000420757302005D7302005F730200CC
:1070100061730200637302006573020000000000E8
:107020000000000000000000000000006773020084
:1070300069730200000000006B7302006D730200B0
:10704000B90A04006F73020031E403006F73020099
:107050006F7302006F73020049E103006F73020057
:107060006F7302006F7302006F7302006F73020090
:107070006F7302004DE803006F7302006F7302002C
:107080006F730200CD8603006F7302006F730200FE
:107090006F7302006F730200AD9C0400C9C006004C
:1070A0006F7302006F7302006F7302006F73020050
:1070B0006F7302006F730200000000000000000008
:1070C0006F7302006F7302006F7302006F73020030
:1070D0007DB006006F7302006F7302006F730200D1
:1070E0006F7302006F7302006F73020000000000F4
:1070F000000000006F730200000000006F730200C8
:10710000000000000000000000000000000000007F
:10711000000000000000000000000000000000006F
:10712000000000000000000000000000000000005F
:10713000000000000000000000000000000000004F
:10714000000000000000000000000000000000003F
:10715000000000000000000000000000000000002F
:10716000000000000000000000000000000000001F
:10717000000000000000000000000000000000000F
:1071800000000000000000000000000000000000FF
:1071900000000000000000000000000000000000EF
:1071A00000000000000000000000000000000000DF
:1071B00000000000000000000000000000000000CF
:1071C00000000000000000000000000000000000BF
:1071D00000000000000000000000000000000000AF
:1071E000000000000000000000000000000000009F
:1071F000000000000000000000000000000000008F
:10720000354936480A1A02D0072291438D4634493F
:1072100034480A1A06D00722914381F309880222D2
:1072200082F3148830483149314A00F044F831483B
:107230003149324A00F03FF831483249324A00F0D1
:107240003AF832483249334A00F035F83248334987
:10725000334A00F030F833483349344A00F02BF811
:1072600033483449344A00F026F83448344900227F
:1072700000F02CF833483449002200F027F8334856
:107280003349091A082902DB002202604160314AB1
:1072900090471F481F49884205D00268043003B454
:1072A000904703BCF7E700208646EC46002000210B
:1072B000294A9047FEE7884207D0521A05D0037842
:1072C00001300B700131013AF9D17047884202D088
:1072D00002700130FAE770470000042000E003204C
:1072E0000000042000000420FC0D0700482C0020B2
:1072F00058320020D0730200D0730200D4C20600BE
:10730000FC0D0700482C0020482C002030C6060049
:1073100030C6060030C6060030C6060030C606007D
:1073200030C6060030C6060030C60600FA0D07005B
:107330000C14070058320020583200205832002028
:10734000D08E0020D08E0020D48E0020D48E00203D
:10735000D4AE00209D730200B9350400FEE7FEE7BD
:10736000FEE7FEE7FEE7FEE7FEE7FEE7FEE7FEE7F5
:1073700000F002B8FFF7FCBF0F484FF00701884349
:1073800085460E4880470E48016841F4700101604F
:10739000BFF34F8FBFF36F8FFFF732BF09480A4922
:1073A0000A4A884207D0521A05D0037801300B7080
:1073B0000131013AF9D1704700000420CD370400B3
:1073C00088ED00E0E0C40600F82A0020482C0020E8
:1073D00000487047C88E0020FEE700B5A1B00590B8
:1073E000049103920293049812F0F3FA039B15930D
:1073F000029B16930023179300238DF8603000231F
:107400001993229B1A9300231F930FA91F9B0822F5
:10741000049812F0B7FB08231F93119B1293BDF839
:107420004030ADF84C30BDF84230ADF84E3000235E
:107430008DF851309DF83C3003F00303DBB2012B93
:1074400026D10F9BC3F395231C939DF83C30C3F3C7
:10745000C203DBB28DF85030BDF83C30C3F3831368
:10746000DBB21B931B9B9A0009A91F9B049812F087
:1074700089FB1B9B9B001F9A13441F9312AA09A907
:1074800015AB009313461B9A1C9801F049F82FE0A6
:107490009DF83C3003F00303DBB2022B28D1BDF88A
:1074A0003E30C3F389139BB21E939DF83C30C3F367
:1074B000C203DBB28DF850301E9B082B28BF082377
:1074C0001D9307A91F9B1D9A049812F05BFB1F9A3E
:1074D0001D9B13441F931E9A1D9BD31A1E9315AB1D
:1074E00012AA07A81D9901F0BDF81E9B002BE3D13D
:1074F000049812F07DFA00BF21B05DF804FB000093
:1075000000B583B00190019B1B781A460C4B9B5C25
:10751000002B05D0019B0433184618F0F7FC0BE054
:10752000019B1B781A46064B9B5C002B04D1019BE8
:107530000C33184617F05AFD00BF03B05DF804FB8A
:10754000E03B002000B587B00390029113468DF810
:10755000073000230593039B1B781A46114B9B5C55
:10756000002B09D0039B04339DF80720029918468D
:1075700018F022FD05900FE0039B1B781A46094B7B
:107580009B5C002B08D1039B0C339DF807200299CC
:10759000184617F0A3FD0590059B184607B05DF847
:1075A00004FB00BFE03B002082B001900091034B40
:1075B00001221A7000BF02B0704700BF983200204D
:1075C00030B58DB003468DF807301A4B02AC1D461E
:1075D0000FCD0FC495E80F0084E80F000623029337
:1075E0004FF0FF3303934FF0FF3304934FF0FF331B
:1075F00005934FF0805308939DF80730002B01D07E
:107600000D4A00E0002202AB19460C4815F0FCFBC5
:107610000B900B9B0A930A9B002B04D0084A432132
:107620000A9810F01FF8074A9DF80730137000BF42
:107630000DB030BD8CC60600A9750200482C002094
:1076400030C606009932002000B583B001238DF8C2
:1076500007309DF807301846FFF7B2FF00BF03B0B0
:107660005DF804FB00B589B0039002910192019B83
:107670008DF81F30124B00221A709DF81F301A46E9
:1076800002991048FFF75EFF0690069B0593059B45
:10769000002B04D00C4A532105980FF0E3FF00BFE4
:1076A0000A4B1B78002B07D0054B1B78DBB283F00D
:1076B0000103DBB2002BF3D100BF09B05DF804FB7E
:1076C00098320020482C002030C606009932002055
:1076D00000B585B003900291054B00934023054A05
:1076E00002990398FFF779FE00BF05B05DF804FB2F
:1076F000657602005832002082B0019000BF02B0CF
:107700007047000000B583B001900548FFF7F8FE10
:107710000020FFF755FF00BF03B05DF804FB00BF7A
:10772000482C002000B583B001900091019B1B689C
:107730001B6800990198984700BF03B05DF804FBEF
:1077400000B583B00190019B1B685B680198984766
:1077500000BF03B05DF804FB00B583B00190019B4E
:107760001B689B680198984700BF03B05DF804FB55
:1077700082B00190019BDB681B79184602B070470C
:1077800082B00190019BDB6801225A7100BF02B0F8
:10779000704782B00190019BDB685B79184602B0AC
:1077A00070470000024A034BD31ADB0818467047A3
:1077B00080C4060058C3060000B587B001900B4690
:1077C0008DF803309DF80330002B1FD0FFF7EAFF40
:1077D00004900023059313E0059B9B000E4A13447D
:1077E0000393039B1B881A46019B1B689A4204D192
:1077F000019B059A1A60002309E0059B013305935C
:10780000059A049B9A42E7D3052300E0002318461B
:1078100007B05DF804FB00BFF82A002000B585B072
:1078200001900B468DF803309DF8032001AB114603
:107830001846FFF7C1FF0346002B07D1019BDB0071
:10784000054A13440393039B1B6800E0002318467A
:1078500005B05DF804FB00BF58C3060084B001907A
:107860000B468DF80330019BDB00174A134402934B
:107870009DF80330013B032B1CD801A252F823F0E2
:107880009178020099780200A1780200AB7802009A
:1078900002238DF80F3011E004238DF80F300DE036
:1078A000029B1B798DF80F3008E0029B5B798DF805
:1078B0000F3003E000238DF80F3000BF9DF80F302C
:1078C000184604B0704700BF58C3060084B001904A
:1078D000009100238DF80F30019B1B7803F0040307
:1078E000DBB2002B24D0019B1B78C3F30103DBB276
:1078F000012B02D0022B0CD017E0009B1B68019AD1
:107900001288C2F38312D2B213449A1C009B1A60ED
:107910000BE0009B1B68019A5288C2F3891292B255
:1079200013449A1C009B1A6000BF01238DF80F308E
:107930009DF80F30184604B07047000000B58BB0BA
:107940000023ADF826303E4811F0D2F83D4811F042
:10795000CFF83D4B5B6804933B4B9B680693049ABE
:10796000069B134002339B00374A134404330893A9
:1079700004AB19460898FFF7A9FF0346002B09D06E
:10798000049A069B134002339B002F4A134404338E
:107990000893EDE700BF0023079311E0049B5A1CF6
:1079A0000492069A1340079A920001A90A442649B4
:1079B00002339B000B445B681360079B0133079302
:1079C000079B012BEAD99DF80430C3F30103DBB216
:1079D000012B10D0022B1CD1BDF80A30ADF8263097
:1079E000BDF80630C3F389139BB203339A08049B96
:1079F0001344049313E0BDF80A30ADF82630BDF807
:107A00000430C3F38313DBB21A46049B134404937C
:107A100005E00E494FF4BF7010F066FE00BF094844
:107A200011F072F80590059B002B02D0049B064ACA
:107A30005360BDF8263018460BB05DF804FB00BF5C
:107A40001C380020183800200434002044C70600E9
:107A500000B585B00021074810F097FF0390039B05
:107A60000293029B83F310030193019B184605B018
:107A70005DF804FB2038002000B589B00390029126
:107A800001920093039B1B0C0793FFF7E1FF069005
:107A9000FFF788FE0246079B934204D3214940F238
:107AA000A31010F021FE069B1904009B5A1C0A9B90
:107AB0001340079A0A431C4902339B000B445A6047
:107AC000009A0A9B134002339B00174A1344043365
:107AD0000593039B03F00703D9B2059A137861F36A
:107AE000C5031370019B03F00F03D9B2059A1388E5
:107AF00061F389131380029BC3F31501059A136880
:107B000061F39F231360059A1378012161F3010348
:107B10001370059A13786FF38203137000BF09B0D6
:107B20005DF804FB44C706000434002000B58DB0A6
:107B30000390029113468DF80730039B02330A939A
:107B400001238DF8273000238DF81B300DF11B0326
:107B5000184610F09DF9404B1A68029B1A603E4B84
:107B60009A683D4B59683C4B1B68CB1A1344013350
:107B70000B9314E00121394810F07EFFFFF7DEFE81
:107B800007900799354810F077FF334B9A68324BCE
:107B90005968314B1B68CB1A134401330B930A9A73
:107BA0000B9B9A42E6D89DF82730002B48D0002343
:107BB00005939DF80730002B17D09DF81430012253
:107BC00062F301038DF814309DF8143043F0040380
:107BD0008DF81430039B03F00F03DAB2BDF81430B4
:107BE00062F38913ADF8143016E09DF814300222C8
:107BF00062F301038DF814309DF8143043F0040350
:107C00008DF81430039BC3F309039AB2BDF8163004
:107C100062F38F13ADF816300F4B1A680E4B9B684A
:107C2000134002339B000C4A134404330893059A13
:107C3000089B1A60084B1A680A9B1344064A136093
:107C40009DF81B30184610F039F99DF8273018467A
:107C50000DB05DF804FB00BF043400202038002084
:107C600000B587B00190244B93F82034002B02D14B
:107C7000019B002B01D1019B39E0019823F01BFCF3
:107C800003460133049304AA03A901231B4812F0FD
:107C9000A9FB0346002B29D1039B049A019918469E
:107CA00023F086FB039A049B013B134400221A70C5
:107CB000049B1946114812F015FC0590059B002BFA
:107CC00004D00F4940F20A2010F00EFD049B194623
:107CD0000A4812F03AFC0590059B002B04D0084995
:107CE00040F20E2010F000FD039B00E00023184638
:107CF00007B05DF804FB00BF0434002040C8060054
:107D000044C7060000B58BB005900491039202931E
:107D10001F4B9B68079306AB012219460298FFF799
:107D200005FF0346002B24D0069B02330993002352
:107D3000089311E0089B9B00039A1A44099B591C65
:107D4000099107990B401268114902339B000B44BB
:107D50005A60089B01330893089A029B9A42E9D320
:107D6000069A079B00931346029A04990598FFF719
:107D700083FE074B93F82034002B05D000BF00F0A2
:107D80001BF90346002BFAD100BF0BB05DF804FBD2
:107D90000434002000B583B001900091002300223C
:107DA00000990198FFF7AEFF00BF03B05DF804FB38
:107DB00000B587B0039002910192019B059305AA3B
:107DC000012302990398FFF79DFF00BF07B05DF8FC
:107DD00004FB00B587B00390029101920093019BD0
:107DE0000493009B059304AA022302990398FFF7CA
:107DF00089FF00BF07B05DF804FB00B589B00390B0
:107E0000029101920093019B0593009B06930A9BAC
:107E1000079305AA032302990398FFF773FF00BF96
:107E200009B05DF804FB00B589B00390029101929E
:107E30000093019B0493009B05930A9B06930B9B65
:107E4000079304AA042302990398FFF75BFF00BF7E
:107E500009B05DF804FB000000B58DB003900291FD
:107E60001346ADF806304B4B9B680B93BDF80630BC
:107E700003339B0805A900221846FFF757FE034667
:107E8000002B78D0059B0A93059B02330593414B49
:107E90009A6805990B9B0B40D31A01339B000993F9
:107EA000BDF80630099A9A420ED3059A0B9B1340EF
:107EB00002339B00374A13440433BDF8062002996D
:107EC000184623F075FA17E0059A0B9B134002330E
:107ED0009B00304A13440433099A0299184623F050
:107EE00067FA029A099BD118BDF80620099BD31A9C
:107EF0001A46294823F05CFA039B1B0C0893FFF7F2
:107F0000A7FD0790079B19040A9B5A1C0B9B134063
:107F1000089A0A431F4902339B000B445A600A9A8D
:107F20000B9B134002339B001A4A134404330693FD
:107F3000039B03F00703D9B2069A137861F3C503D4
:107F40001370069A13886FF38F131380BDF80630F1
:107F5000C3F3090399B2069A538861F38F135380D0
:107F6000069A1378022161F301031370069A1378BD
:107F70006FF382031370074B93F82034002B05D066
:107F800000BF00F019F80346002BFAD100BF0DB076
:107F90005DF804FB0434002010340020054B5A68BF
:107FA000044B1B689A420CBF01230023DBB2184626
:107FB000704700BF0434002000B59BB0FFF7EEFF10
:107FC0000346002B01D00023ECE19B4B0022C3F8B9
:107FD0001824BFF34F8F00BF974B5B680493964BF9
:107FE0009B681193049A119B134002339B00924AA1
:107FF0001344043319930023189300231793002389
:10800000169304AB19461998FFF760FC0346002B42
:1080100019D0894BD3F81834002B14D1864B1A6829
:10802000049B9A4205D8844B1B68834A5360002303
:10803000B8E1049A119B134002339B007E4A13441B
:1080400004331993DDE70023159311E0049B5A1CB8
:108050000492119A1340159A920001A90A44764994
:1080600002339B000B445B681360159B013315932F
:10807000159B012BEAD99DF8043003F00303DBB212
:10808000022B40F09C80BDF80630C3F389139BB2ED
:108090000F93BDF80630C3F389139BB2502B28BF52
:1080A00050239BB20E930E9BC3F309039AB2BDF803
:1080B000063062F38F13ADF806300E9B08330D9334
:1080C0009DF80430C3F3C203DBB216930D995B48ED
:1080D00011F0EEFB1890189B002B00F0D18018983F
:1080E00011F077FC01A9179B0822189811F02CFDBC
:1080F000179B08331793049BDA43119B13400133FA
:108100009B000C930E9A0C9B9A4242D90C9B002B1D
:1081100008D0049A119B134002339B00464A134433
:10812000043300E0464B0A930C9B002B02D00C9BBF
:10813000DBB201E00E9BDBB28DF827300C9B002BED
:1081400001D03F4B00E0002308930C9B002B06D08E
:108150000E9BDAB20C9BDBB2D31ADBB200E0002339
:108160008DF81F309DF82720179B0A99189811F059
:10817000EBFC9DF82730179A13441793089B002BAC
:1081800016D09DF81F20179B0899189811F0DCFC59
:108190000EE0049A119B134002339B00264A1344BD
:1081A00004330B93179B0E9A0B99189811F0CCFC83
:1081B0000F9B03339A08049B1344049360E09DF8DB
:1081C000043003F00303DBB2012B59D1BDF80430B6
:1081D000C3F38313DBB2062B28BF0623DAB2BDF844
:1081E000043062F38913ADF80430BDF80430C3F3F2
:1081F0008313DBB2023310939DF80430C3F3C20340
:10820000DBB21693109B9B0019460C4811F050FBF3
:108210001890189B002B33D0189811F0DAFB01A9A5
:10822000179B0822189811F08FFC179B083317939F
:10823000002315931BE000BF04340020C8C40600CF
:1082400010340020049B5A1C0492119A13400233EC
:108250009B00564A1344191D179B0422189811F0CD
:1082600073FC179B04331793159B01331593BDF8CB
:108270000430C3F38313DBB21A46159B9342E1D358
:10828000189B002B6AD0494BD3F810341493474BFA
:10829000D3F81834002B45D0189811F0A9FB7BE0D7
:1082A00000238DF84F301498FFF773FA0346002B24
:1082B0002CD01498FFF75CFA03468DF81E30BDF8F9
:1082C00008309B003A4A13440693069B19689DF8B0
:1082D0001E2013465B001344072202FA03F31940E1
:1082E0009DF81E2013465B00134421FA03F3059307
:1082F000169B052B01D0169B00E003231693059ACD
:10830000169B9A4202D301238DF84F309DF84F30CF
:10831000002B03D018991498FFF704FA149BDB681C
:108320001B681493149B002BBAD1189811F060FBB2
:1083300000238DF803300DF1030318460FF0A8FD5C
:108340001A4BD3F81834002B02D1049B174A536000
:108350009DF8033018460FF0B1FD1DE0134BD3F824
:108360001034129306E01298FFF7F6F9129BDB68BF
:108370001B681293129B002BF5D10E4B5B88012BCF
:108380000AD90D4A0D4BD31ADB081B0443F0020334
:108390000B491846FFF7FEFCFFF700FE034683F08B
:1083A0000103DBB218461BB05DF804FB0434002067
:1083B0008C2B0020102B002088C3060058C3060019
:1083C0009CC7060000B583B00D4BD3F81034019361
:1083D0000B4B012283F8202409E00198FFF7D0F924
:1083E0000198FFF7ADF9019BDB681B680193019BC6
:1083F000002BF2D100BF00BF03B05DF804FB00BF4B
:108400000434002082B00190009100BF02B0704798
:1084100010B584B003900291039BDB88002B0AD037
:10842000039BDB881A461F4B009313461E4A1F49C5
:10843000029810F055FC039B1B7A052B2ED0039B52
:108440005B7A002B12D0039B9B881A46039B1B7AF6
:1084500019461046FFF702FA03461A46144B53F822
:1084600022301A461349029810F03AFC039B1B680D
:1084700019460298FFF7C6FF039B1B7A1A460E4B5C
:1084800053F82240039B9B8800211846FFF7C6F94A
:10849000034622460949029810F022FC00BF04B0AE
:1084A00010BD00BF6CC806007CC80600B4C806003A
:1084B000782C0020CCC80600642C0020D0C8060010
:1084C00000B585B00390029113468DF80730039BE9
:1084D0001B7A052B0FD0039B5B7A002B06D00D4B2C
:1084E0001B681A460C49029810F0FAFB0B490298D7
:1084F00010F0F6FB07E09DF80730002B03D007498A
:10850000029810F0EDFB029810F0C8FB00BF05B018
:108510005DF804FB782C0020CCC80600DCC80600FF
:1085200030B58BB007900691059204930E9B1B7B90
:108530008DF827300E9B00221A730E990498FFF7CE
:1085400067FF059B062B7FD801A252F823F000BFDE
:108550006D85020077850200878502009B850200F9
:10856000B9850200E18502001186020007990E9884
:1085700010F0B6FB69E0069B1B681A4607990E9837
:1085800010F0AEFB61E0069B1A68069B04331B6883
:1085900007990E9810F0A4FB57E0069B1A68069BFB
:1085A00004331968069B08331B6800930B46079930
:1085B0000E9810F095FB48E0069B1968069B043363
:1085C0001868069B08331B68069A0C3212680192E1
:1085D000009303460A4607990E9810F081FB34E099
:1085E000069B1868069B04331C68069B08331B68AF
:1085F000069A0C32126806991031096802910192AC
:1086000000932346024607990E9810F069FB1CE080
:10861000069B1C68069B04331D68069B08331B6879
:10862000069A0C32126806991031096806981430BF
:10863000006803900291019200932B46224607990D
:108640000E9810F04DFB00E000BF00220E99049838
:10865000FFF736FF0E9B9DF827201A7300BF0BB063
:1086600030BD00BF00B587B0039002910192009326
:10867000029B082B60D8009B1B7B8DF81330009B5E
:1086800000221A7300990198FFF7C2FE0023059398
:1086900014E0059A029B9A4209D2039A059B13445F
:1086A0001B781A462649009810F01AFB03E025496A
:1086B000009810F015FB059B01330593059B072BD4
:1086C000E7D92149009810F00BFB0023059326E021
:1086D000059A029B9A421BD2039A059B13441B786E
:1086E0008DF812309DF812307E2B0AD89DF812308A
:1086F000184622F0D7FC0346002B02D09DF812301A
:1087000000E02E231A461149009810F0E9FA03E020
:108710000F49009810F0E4FA059B01330593059B7F
:10872000072BD5D9012200990198FFF7C9FE009BBC
:108730009DF813201A7300E000BF07B05DF804FB3A
:10874000E0C80600E8C80600ECC80600F0C806004D
:10875000F4C8060000B583B00190019B1B682F2B65
:1087600004D90B4940F2CD100FF0BEFF019B1B68EE
:108770001F2B02D84FF0A04306E0019B1B6803F0BB
:108780001F02019B1A60034B184603B05DF804FBFF
:10879000F8C806000003005000B585B001900846F7
:1087A00011461A4603468DF803300B468DF8023009
:1087B00013468DF8013001AB1846FFF7CBFF03904D
:1087C0009DF803209DF802305B001A439DF80130AC
:1087D0009B001A439DF818301B0242EA03019DF8E2
:1087E0001C301B04019A1943039B02F5E07243F805
:1087F000221000BF05B05DF804FB00B585B0039002
:1088000000230193002300930023012201210398F8
:10881000FFF7C2FF00BF05B05DF804FB00B585B0EF
:1088200003900B468DF80B309DF80B30002201921F
:1088300000220092002200210398FFF7ADFF00BF45
:1088400005B05DF804FB00B585B0019001AB18469A
:10885000FFF780FF0390019B012202FA03F3194600
:10886000039800F069F800BF05B05DF804FB00B59F
:1088700085B0019001AB1846FFF76CFF0390019B98
:10888000012202FA03F31946039800F05FF800BFD3
:1088900005B05DF804FB00B585B0019001AB18464A
:1088A000FFF758FF0390039BD3F804350293029B14
:1088B000DA43019B012101FA03F31A40039BC3F839
:1088C0000825019B01229A40029B1A40039BC3F892
:1088D0000C2500BF05B05DF804FB00B583B0019026
:1088E0000091009B002B03D10198FFF7C0FF02E02D
:1088F0000198FFF7A8FF00BF03B05DF804FB00B5C7
:1089000085B0019001AB1846FFF724FF0390039850
:1089100000F00AF80246019B22FA03F303F0010378
:10892000184605B05DF804FB82B00190019BD3F8B6
:108930000435184602B0704782B001900091019B47
:10894000009AC3F8082500BF02B0704782B00190BA
:108950000091019B009AC3F80C2500BF02B070473C
:1089600000B585B00190019B042B03D911493A2031
:108970000FF0BAFE104A019B13441B781846FFF70C
:10898000BEFF0346002B14BF012300238DF80F30D8
:108990009DF80F30002B14BF01230023DBB283F0BE
:1089A0000103DBB203F00103DBB2184605B05DF84A
:1089B00004FB00BF2CC9060070C9060000B583B0D7
:1089C0000190019B042B03D9074941200FF08CFE35
:1089D000064A019B13441B7800211846FFF77DFFD0
:1089E00000BF03B05DF804FB2CC9060070C9060087
:1089F00000B583B00190019B042B03D907494720A0
:108A00000FF072FE064A019B13441B7801211846A1
:108A1000FFF763FF00BF03B05DF804FB2CC906003D
:108A200070C9060000B583B00023019305E00198EA
:108A3000FFF7DEFF019B01330193019B042BF6D965
:108A400000BF00BF03B05DF804FB00B583B0002396
:108A5000019305E00198FFF7B1FF019B01330193FA
:108A6000019B042BF6D900BF00BF03B05DF804FBE7
:108A700000B583B00190019B042B03D907495F2007
:108A80000FF032FE064A019B13441B781846FFF78D
:108A900002FF00BF03B05DF804FB00BF2CC9060055
:108AA00070C9060000B583B00023019309E0094AAC
:108AB000019B13441B781846FFF79FFE019B01336F
:108AC0000193019B042BF2D9FFF7ACFF00BF03B069
:108AD0005DF804FB70C9060000B583B00023019364
:108AE00007E0082303211846FFF798FE019B013396
:108AF0000193019B002BF4D000BF00BF03B05DF8D1
:108B000004FB84B001904FF0FF33029300230393E2
:108B10000AE008231A46019B934202D1039B029369
:108B200005E0039B01330393039B002BF1D0029BD1
:108B3000184604B0704700B583B00190019B03F064
:108B40000103002B01D0FFF7ADFF019B03F00203EF
:108B5000002B01D0FFF7C0FF00BF03B05DF804FB9E
:108B600008B50022FF21094833F094FC0022FF21C0
:108B7000074833F08FFC75220021064822F041FCA3
:108B8000054B064AC3F8F82B00BF08BDD18C020084
:108B9000DD8B0200B038002050740020D199020013
:108BA00008B5002200210B4833F074FC0A4B93F8FF
:108BB0004430184607F0A8F9074B00221A70064BFC
:108BC000202283F88A20044B002283F8782000BFFB
:108BD00008BD00BFDD8B0200B038002000B583B0B7
:108BE00003468DF807309DF80730002B03D10B4862
:108BF0002EF03CFA0EE0FFF7D3FF9DF807000023AC
:108C000000220C2133F02AFF9DF807301946044852
:108C100033F052F900BF03B05DF804FBDD8B0200B6
:108C200095CE050000B585B003460A468DF807309D
:108C30001346ADF804301B4B00221A70194B20224A
:108C400083F88A20174B002283F87820154B0D22D9
:108C500083F88C20134B93F87830002B01D100223D
:108C600001E04FF0FF329DF8070000230D2133F0A3
:108C7000F5FE0390039B002B10D09DF807300021D8
:108C800018462EF002FDBDF80430DAB2039B1A70CC
:108C90009DF807301946044833F00EF900BF05B0BF
:108CA0005DF804FBB038002095CE050008B5002221
:108CB000FE21054833F0EEFB0022012103482EF08F
:108CC000FAF900BF08BD00BFD18C0200258C02005C
:108CD00000B583B003468DF80730154BD3F801304B
:108CE000002B09D1124B002283F8782000220021AA
:108CF00010482EF0E0F917E00D4BD3F801308C2B23
:108D000009D10B4B072283F8782000220321094860
:108D10002EF0D1F908E0064B062283F878200022D5
:108D2000022104482EF0C7F900BF03B05DF804FB30
:108D3000B0380020258C020000B587B003460091B2
:108D4000ADF806306FF01B03059300238DF80F304C
:108D50000DF10F03BDF80600002200212DF0E4FD07
:108D60000346002B21D10023049317E01149049AF4
:108D700013465B0013449B0013440B440F331A78D3
:108D80009DF80F309A4206D1049BDAB2009B1A700C
:108D90000023059309E0049B01330493054B93F8EA
:108DA00043301A46049B9342E0D3059B184607B014
:108DB0005DF804FBB038002084B0034600918DF8C4
:108DC00007306FF01B0303930023029317E0114950
:108DD000029A13465B0013449B0013440B44173361
:108DE0001B789DF807209A4206D1029BDAB2009BBD
:108DF0001A700023039309E0029B01330293054B91
:108E000093F843301A46029B9342E0D3039B1846E3
:108E100004B07047B038002010B58AB003468DF812
:108E20000F309DF80F301C2118462EF0A1FB079043
:108E3000002309930DF11B029DF80F3011461846CF
:108E4000FFF7BAFF0346002B0CD19DF81B301A46E2
:108E500013465B0013449B0013440833394A134400
:108E600007330993099B002B1AD1374B1B68002B42
:108E700064D11BF066F8034683F00103DBB2002BDC
:108E80005CD09DF80F300193042300934FF4BA7324
:108E900040F25B3200214FF0FF3033F08FFD4DE0A8
:108EA000099B00221A729DF80F3018462EF0E6FB3F
:108EB0000890089B002B09D1224B00225A700022F7
:108EC0009A700022DA7000221A710AE01D4B00220B
:108ED00062F073025A7000229A700022DA70002247
:108EE0001A71089B002B06D1164B012283F84A20E9
:108EF0000023089301E001230893099B1A7804AB2F
:108F0000114618462DF096F90E4BD3F80930002B78
:108F10000ED00C4BD3F80940089B18B2099B9B79E3
:108F20001A46099B13445A78079B5B8904A9A047FA
:108F30009DF80F301946099800F09CF800BF0AB060
:108F400010BD00BFB0380020CC82002010B586B024
:108F50000190084611461A4603468DF803300B4629
:108F6000ADF8003013468DF802309DF802301C2118
:108F700018462EF0FDFA04903C4BD3F80930002B34
:108F80001DD0019B1A7802AB114618462DF052F9FC
:108F9000364BD3F80940019B9B791A46019B134439
:108FA0005A78BDF8003002A90220A0470346002BE2
:108FB00001D0002301E06FF04403059301E000239A
:108FC0000593059B002B4CD11C220021049822F014
:108FD00018FA049B184633F0F7FE244B93F844200C
:108FE000049B1A72049BBDF800205A811F4BB3F8F2
:108FF00075309BB24FF6FF72934214D1049B03F17C
:109000000D02019B1B78194610462DF013F9049BA5
:1090100003221A73019B9B791A46019B13445A78C9
:10902000049B5A7511E0049B01221A730F4BB3F88D
:1090300075309AB2049BA3F80D20019B9B791A46C8
:10904000019B13445A78049B5A75019B9DF802209A
:109050001A72049B064A9A619DF80230184622F063
:10906000A5FF059B184606B010BD00BFB038002014
:10907000198E020000B583B001900B468DF80330C5
:10908000019BD3F809305A1C019BC3F809209DF8B5
:1090900003301946019800F005F800BF03B05DF8F1
:1090A00004FB000010B58EB007900B468DF81B3006
:1090B00000230C9300230D93079BDB7918462EF0B9
:1090C000C3F80C900C9BDB7A8DF82F300C9B1B7B2C
:1090D0008DF82E303CE0079BD3F809209DF82F3007
:1090E0009A4201D3022300E001238DF82D30079B23
:1090F000D3F809300C9A04335B001344B3F80530FD
:109100009BB29DF82D201146184600F03FF903460A
:10911000002B16D0079B9B791A46079B134459785E
:10912000079BD3F809300C9A04335B001344B3F85F
:1091300005309AB29DF81B300798FFF707FF0D9096
:1091400010E0079BD3F809305A1C079BC3F809208D
:10915000079BD3F809309DF82F109DF82E200A4464
:109160009342B8D3079BD3F809309DF82F109DF890
:109170002E200A4493425ED1354B93F84A30002B9F
:1091800044D0334BB3F875309BB24FF6FF72934225
:109190003CD0079B1A780DF12603114618462DF096
:1091A0008BF89DF81B00002300930023002201216F
:1091B00003F07CFA0A90264BB3F875309BB219463F
:1091C0000A9832F06AFD0A900A9B00221A700A9BE4
:1091D00001330A93079B9B791A46079B13445B78DC
:1091E0001B4A92F844200DF126019DF81B00002433
:1091F0000494042403944FF4827402940192009323
:1092000002230A460A9903F0BBF904E09DF81B30DB
:1092100018462DF0B9FF079B9B790133DAB2079B03
:109220009A71079BDB7919460A4832F045FE079B85
:109230000022DA7108E00D9B002B05D09DF81B3051
:1092400019460798FFF716FF00BF0EB010BD00BF0C
:10925000B0380020ED94020000B587B003460A46FE
:109260008DF807301346ADF80430BDF80430DBB29A
:1092700018462DF0E9FF049000230593414BD3F8E5
:109280004520049BDB889BB21946104602F059F931
:109290000346002B36D0049B5B889BB20DF10F0276
:1092A00011461846FFF748FD0346002B0CD19DF8E8
:1092B0000F301A4613465B0013449B0013440833D7
:1092C000304A134407330593059B002B43D0059B7D
:1092D00000225A7200229A720022DA7200221A7355
:1092E000BDF80430DAB2059BDA710023ADF8043022
:1092F0009DF8073019460598FFF7D4FE00238DF836
:10930000073028E0049B5B889BB20DF10F021146E9
:109310001846FFF711FD0346002B1CD19DF80F30B6
:109320001A4613465B0013449B0013440833154A46
:10933000134407330593059B9B790133DAB2059BF0
:109340009A71BDF80430DBB219460F4832F0B4FD13
:109350000023ADF804309DF80730002B04D09DF8B1
:10936000073018462DF010FFBDF80430002B05D053
:10937000BDF80430DBB218462DF006FF00BF07B081
:109380005DF804FBB0380020ED94020084B0034681
:109390000A46ADF8063013468DF8053000238DF8E7
:1093A0000D30224BD3F84530002B39D01F4BD3F86A
:1093B00045301B7C8DF80C301C4BD3F84530D3F86E
:1093C000113002930023ADF80E3023E0BDF90E20DA
:1093D00013461B019B1A029A13441B889BB2BDF8CB
:1093E00006209A420FD1BDF90E2013461B019B1A8D
:1093F000029A13441B7A9DF805209A4203D0012358
:109400008DF80D300CE0BDF90E309BB201339BB2EC
:10941000ADF80E30BDF90E209DF80C309A42D5DB28
:109420009DF80D30184604B0704700BFB0380020DA
:1094300000B587B003468DF807300023ADF816302D
:109440009DF8073018462DF0FFFE0490002303938B
:10945000234B1B78042B01D1002301E06FF007039D
:10946000ADF81630BDF91630002B03D1049B5B78A4
:10947000ADF81630BDF91630002B08D19DF8073035
:109480009BB20022194617482DF015FE24E0049BDC
:109490005B889BB20DF10B0211461846FFF74CFC9E
:1094A0000346002B18D19DF80B301A4613465B007B
:1094B00013449B0013440833094A134407330393AE
:1094C000039B9B790133DAB2039B9A719DF80730B5
:1094D0001946054832F0F0FC00BF07B05DF804FB08
:1094E000B038002059920200ED94020000B589B016
:1094F00003468DF80730002307939DF80730184680
:109500002DF0A2FE0690069B5B889BB20DF10B022C
:1095100011461846FFF710FC0346002B0CD19DF8AE
:109520000B301A4613465B0013449B001344083368
:109530004C4A134407330793079B002B00F08480A9
:10954000079B9A79079B5B799A4235D2079B9B7957
:109550001A46079B13445B788DF813309DF807304B
:10956000032118462DF0C2FE039003220021039828
:1095700021F047FF079B1A7802AB114618462CF0E2
:109580009BFEBDF80820039B1A80039B9DF81320C7
:109590009A709DF807303449184636F099FB034617
:1095A000FF2B05D19DF8073019468A2000F056FBA5
:1095B00000238DF8073047E0079BFF221A709DF8C3
:1095C0000B30022B25D89DF80B30C3F10303059314
:1095D0009DF80B301A4613465B0013449B0013445E
:1095E0000833204A1344D81D9DF80B305A1C1346EB
:1095F0005B0013449B00134408331A4A1344D91DDB
:10960000059A13465B0013449B0013441A4621F04D
:10961000FFFD144B93F84330013BDAB2114B83F852
:109620004320104B93F84330002B0DD10D4BD3F852
:1096300001308C2B04D10B4B072283F8782003E0F8
:10964000084B002283F878209DF80730002B04D0C7
:109650009DF8073018462DF097FD00BF09B05DF862
:1096600004FB00BFB03800203194020000B58BB07D
:1096700003468DF80F300B46ADF80C3013468DF8CD
:109680000E300023099300230793FF238DF8173032
:1096900001238DF82330724B1B78042B01D100235A
:1096A00001E06FF007030993099B002B20D10DF116
:1096B0001702BDF80C3011461846FFF73DFB034674
:1096C000002B12D0664B93F84330032B10D8644B19
:1096D00093F843308DF81730614B93F843300133E2
:1096E000DAB25F4B83F8432002E000238DF8233089
:1096F0009DF81730FF2B00F0A6809DF817301A4612
:1097000013465B0013449B0013440833544A13442C
:10971000073307939DF82330002B15D00DF1160366
:10972000BDF80C00002200212DF0FEF80990099BE5
:10973000002B09D19DF81620079B1A70079B002269
:109740005A71079B00229A71099B002B2CD1079B11
:109750005B79032B0ED8079B5B791A46079B134452
:109760009DF80E205A70079B5B790133DAB2079B94
:109770005A7119E03B4B1B68002B15D11AF0E1FB25
:10978000034683F00103DBB2002B0DD0079B5B790E
:1097900001930423009340F2713340F25B320021C5
:1097A0004FF0FF3033F00AF9099B002B39D19DF8B7
:1097B0002330002B35D09DF80F30052118462DF0B1
:1097C00095FD069005220021069821F01AFE069BC1
:1097D000BDF80C205A80069B00225A70079B5A79CC
:1097E000069B1A711F4B1B68002B12D11AF0A9FBA4
:1097F000034683F00103DBB2002B0AD00023009361
:109800004FF45F7340F25B3200214FF0FF3033F0D2
:10981000D5F89DF80F301946134832F04DFB00BFC4
:1098200019E0099B002B05D19DF80F3018462DF04B
:10983000ABFC10E0099B1BB29DF80F2011461846A7
:1098400000F00CFA07E0099B1BB29DF80F201146AF
:10985000184600F003FA00BF0BB05DF804FB00BF30
:10986000B0380020CC820020ED94020000B58BB00F
:1098700003468DF80F300023ADF822309DF80F30ED
:1098800018462DF0E1FC0790079B05330693002353
:1098900005934C4B1B78042B01D1002301E06FF0A2
:1098A0000703ADF82230BDF92230002B7DD1079B94
:1098B0005B889BB20DF1130211461846FFF73CFA84
:1098C0000346002B71D1002309939DF813301A46EB
:1098D00013465B0013449B0013440833394A134476
:1098E00007330593059B1A7804AB114618462CF0F4
:1098F000E3FC079B1A79059B5A71059B00229A711C
:10990000059B5B79042B43D92F4B1B68002B15D18A
:109910001AF017FB034683F00103DBB2002B0DD0D6
:10992000059B5B7901930423009340F2B33340F22B
:109930005B3200214FF0FF3033F040F8224B1B68C0
:10994000002B14D11AF0FDFA034683F00103DBB2B9
:10995000002B0CD0042301930423009340F2B53371
:1099600040F25B3200214FF0FF3033F027F8059BC7
:1099700004225A710CE0069A099B13441978059A3F
:10998000099B134401330A461A70099B013309935A
:10999000059B5B791A46099B9342ECD39DF80F30E7
:1099A00019460A4832F088FA08E09DF80F20BDF900
:1099B00022301146184600F051F900BF00BF0BB02D
:1099C0005DF804FBB0380020CC820020ED9402004A
:1099D00030B58FB003468DF807300023ADF8363030
:1099E000404B1B78042B01D1002301E06FF00703EB
:1099F000ADF83630BDF93630002B68D1394BD3F88D
:109A0000013013F11C0F08D1364B00225A7000228E
:109A10009A700022DA7000221A719DF807301B211B
:109A200018462DF0A5FD034605AC1D46286869685B
:109A3000AA68EB680FC42869696903C42B8BAA7EE6
:109A400023801346A370BDF815309BB203AA1146BC
:109A500018462CF095FF0346002B07D1224B93F8B4
:109A6000343E03F02003DBB2002B25D09DF80730F5
:109A7000062118462DF07CFD0C90BDF815309AB2E9
:109A80000C9B5A800C9B5A880C9B1A800C9B0022C2
:109A90005A710C9B00221A719DF807301349184621
:109AA00036F016F80346FF2B17D19DF807301946FC
:109AB0008A2000F0D3F810E0BDF8153099B29DF877
:109AC0001F209DF807301846FFF7D0FD06E09DF8EF
:109AD000073018462DF058FB00E000BF00BF0FB064
:109AE00030BD00BFB038002050740020FD9B020044
:109AF00000B587B003460A468DF807301346ADF827
:109B0000043000230593FF238DF80F300DF10F0271
:109B1000BDF8043011461846FFF70EF90346002B36
:109B200012D0344B93F84330032B10D8314B93F8B9
:109B300043308DF80F302F4B93F843300133DAB2B6
:109B40002C4B83F8432002E0FF238DF80F309DF863
:109B50000F30FF2B40D000238DF80E309DF80F30D2
:109B60001A4613465B0013449B0013440833214AF2
:109B70001344073305930DF10E03BDF804000022D2
:109B800000212CF0D1FE0346002B25D19DF80E209C
:109B9000059B1A709DF80730022118462DF0A6FB90
:109BA000049002220021049821F02BFC049BBDF8B4
:109BB00004201A809DF807300F49184636F0A1F8A6
:109BC0000346FF2B05D19DF8073019468A2000F087
:109BD00045F800238DF807309DF80730002B04D09E
:109BE0009DF8073018462DF0CFFA00BF07B05DF89A
:109BF00004FB00BFB03800206D98020000B585B0AE
:109C000003468DF807309DF8073018462DF01CFBF1
:109C100003909DF8073018462DF030FD0346002BC9
:109C200013D1039B981C039B5B8999B20DF10B0325
:109C300000222CF09FFF039B5B899AB29DF80730AE
:109C400011461846FFF754FF04E09DF80730184608
:109C50002DF09AFA00BF05B05DF804FB00B583B0A3
:109C600003460A46ADF8063013468DF80530BDF9B7
:109C700006209DF80530114618462DF006FDBDF969
:109C800006308C2B04D1184B072283F878200CE087
:109C9000BDF90630002B04D1134B002283F8782045
:109CA00003E0114B062283F878200F4B1B78052B1D
:109CB00009D10D4B93F878301AB29DF805000023B6
:109CC0000C2132F0CBFE084B00221A70064B2022EA
:109CD00083F88A209DF805301946044832F0ECF8E4
:109CE00000BF03B05DF804FBB038002095CE05003E
:109CF00000B585B00190019800F00EF80390039B29
:109D0000002B01D0039B00E0024B184605B05DF824
:109D100004FB00BF78C9060086B00190164B05937E
:109D2000164B04931FE0049A059BD31ADB10DA0F3D
:109D300013445B10DB00059A13440393039B1B68D9
:109D40000293029A019B9A4202DD039B04930AE06C
:109D5000029A019B9A4203DA039B0833059302E0BF
:109D6000039B5B6804E0059A049B9A42DBD30023C3
:109D7000184606B0704700BFD8CC060050CE06008B
:109D800030B589B00446084611461A462346ADF858
:109D90000E3003468DF80D300B468DF80C3013460F
:109DA000ADF80A306FF04403079302F0D1FC03468C
:109DB000D3F8B030002B11D002F0CAFC0346D3F820
:109DC000B040BDF80A509DF80C209DF80D10BDF86C
:109DD0000E000C9B00932B46A04707909DF80D208A
:109DE000BDF80E109DF80C30184606F04AFD05909F
:109DF000079B13F1450F02D0079B06930DE0059BCF
:109E0000002B08D09DF80C10BDF80A00059B0C9A99
:109E10009847069001E000230693069B184609B078
:109E200030BD10B584B00446084611461A46234694
:109E30008DF807300346ADF804300B468DF8063038
:109E40001346ADF802309DF80620BDF804109DF8C9
:109E50000730184606F040FD0390039B002B06D008
:109E6000BDF802109DF80700039B069A984700BFB3
:109E700004B010BD00B585B003900B460192ADF85B
:109E80000A30039BB3F80F309BB2B3F5A06F07D134
:109E9000BDF80A30019A1946039805F0F3FB00E07B
:109EA00000BF00BF05B05DF804FB000000B583B043
:109EB000054B00930023054A0121002006F00AFA11
:109EC00000BF03B05DF804FB91A00200D19E020028
:109ED00082B003460092ADF806300B468DF805308F
:109EE0000023184602B0704730B58DB003468DF898
:109EF00007306FF01E030B939DF807301B211846A7
:109F00002DF036FB034603AC1D4628686968AA6835
:109F1000EB680FC42869696903C42B8BAA7E238070
:109F20001346A37002F014FC0346D3F8AC30002BA8
:109F300009D002F00DFC0346D3F8AC309DF8182090
:109F40001046984723E002F003FC0346D3F89C3008
:109F5000002B1CD09DF80730342118462DF008FB4B
:109F60000A900A9B1D221A709DF818200A9B5A70AD
:109F70000A9B00225A6002F0EBFB0346D3F89C30A8
:109F80009DF80720104698470A9B5B680B930B9837
:109F900002F0E4FC03461A4603A99DF80730184670
:109FA00006F087FD00BF0DB030BD10B586B0044689
:109FB000084611461A4623468DF8073003468DF8A9
:109FC00006300B46ADF8043013468DF803300123FC
:109FD00005939DF80730184601F056F80346012214
:109FE0000021184601F02DFE0490049B002B46D062
:109FF0009DF8070012230122002103F0DBFD0390EE
:10A00000039B002B3BD0039B5B681B78002B36D156
:10A01000002305939DF80330002B17D09DF80630E0
:10A02000002B2AD09DF80630012B26D09DF8063053
:10A03000022B22D09DF80630032B1ED09DF806304F
:10A04000042B1AD09DF80630052B16D09DF803304E
:10A0500083F00103DBB2002B03D0BDF80430032BE7
:10A060000BD09DF80330002B09D09DF806300B2B48
:10A0700005D1BDF80430032B01D101230593059BC5
:10A08000002B14BF01230023DBB2184606B010BD1D
:10A0900030B593B003468DF81F3001238DF843305F
:10A0A000002311939DF81F30FF2B07D102F050FBC6
:10A0B00003464F4AC3F85822012395E09DF81F300C
:10A0C0001B2118462DF054FA034608AC1D4628689B
:10A0D0006968AA68EB680FC42869696903C42B8B97
:10A0E000AA7E23801346A3709DF83330002B09D13C
:10A0F0009DF81F3019463F4831F0DEFE6FF0030334
:10A10000119303E000238DF8433000BF9DF84330E6
:10A11000002B67D09DF83730002B08D0119B002B07
:10A1200005D19DF81F3018462DF02EF85AE0119BEE
:10A1300013F1040F56D09DF81F301B2118462DF047
:10A1400017FA034608AC1D4628686968AA68EB68D8
:10A150000FC42869696903C42B8BAA7E2380134628
:10A16000A3709DF81F3018462DF0FAF80F900F9B42
:10A1700018221A700F9B01330F939DF835200F9B07
:10A180001A700F9B01330F930F9B0B221A700F9BBA
:10A1900001330F930F9B5A1C0F929DF833201A70B6
:10A1A000119B002B01D1002100E085210F9B5A1C3F
:10A1B0000F920A461A709DF82B309DF82C20BDF89E
:10A1C000311089B208A8441C9DF81F000025049591
:10A1D00000250395029101920093022322460F99D4
:10A1E00002F0CEF99DF84330184613B030BD00BFE1
:10A1F0009C2C0020E99E020000B587B003468DF834
:10A200000F309DF80F30002B1FD11E482CF02EFF71
:10A210000490049B002B31D01B4B1B68002B2DD1CD
:10A2200019F08FFE034683F00103DBB2002B25D02B
:10A23000049B019304230093402340F60F02002166
:10A240004FF0FF3032F0BAFB18E00121202001F07E
:10A250003AFD03468DF817309DF81730002B08D0D3
:10A260009DF817209DF80F301146184607F026FB81
:10A2700004E09DF80F3018462CF086FF00BF07B0B1
:10A280005DF804FBF9A10200CC82002000B587B084
:10A2900003900023059314E002F05AFA0246059B4E
:10A2A000023352F82330002B08D102F051FA014654
:10A2B000059B0233039A41F8232005E0059B0133F7
:10A2C0000593059B012BE7D902F042FA03465B6830
:10A2D000002B23D102F03CFA0246039B5360114845
:10A2E0002CF0C4FE0490049B002B17D00E4B1B686F
:10A2F000002B13D119F025FE034683F00103DBB2D6
:10A30000002B0BD0049B0193042300937D2340F684
:10A310000F0200214FF0FF3032F050FB00BF07B0BA
:10A320005DF804FBF9A10200CC82002010B584B0D6
:10A33000019002F00DFA0346D3F8AC30002B08D0A0
:10A3400002F006FA0346D3F8AC30019A12781046B0
:10A350009847019B1A781E4B1A70002303932BE039
:10A36000019BD3F81110039A13461B019B1A0B444F
:10A37000D3F80B30002B0AD0019BD3F81110039AAD
:10A3800013461B019B1A0B44D3F80B309847019BD3
:10A390001878019BB3F801309CB2019BD3F81110DF
:10A3A000039A13461B019B1A0B441A46214607F0D9
:10A3B000C9FD039B01330393019B1B7C1A46039B3E
:10A3C0009342CDD3024BFF221A7000BF04B010BDE0
:10A3D000AC2C002010B586B000238DF8173003E1B7
:10A3E00000238DF81630E9E09DF817308DF8153010
:10A3F000D5E09DF8163001338DF81430B9E002F045
:10A40000A7F903465B68D3F801209DF817309B003D
:10A4100013441B68D3F811109DF8162013461B0136
:10A420009B1A0B441A785B781B021343ADF8123069
:10A4300002F08EF903465B68D3F801209DF81530D1
:10A440009B0013441B68D3F811109DF81420134689
:10A450001B019B1A0B441A785B781B021343ADF85F
:10A460001030BDF81220BDF810309A427CD102F0B5
:10A470006FF903465B68D3F801209DF817309B0005
:10A4800013441B68D3F811109DF8162013461B01C6
:10A490009B1A0B441C7A02F05BF903465B68D3F805
:10A4A00001209DF815309B0013441B68D3F8111050
:10A4B0009DF8142013461B019B1A0B441B7A9C42E7
:10A4C00052D1BDF81230042B1ED0BDF81230192B1A
:10A4D0001AD0BDF81230202B16D0BDF8123040F241
:10A4E0000B72934210D0BDF8123040F20122934219
:10A4F0000AD0BDF81230B3F5006F05D0BDF81230A8
:10A500004FF6574293422FD13E4B1B68002B29D167
:10A5100019F017FD034683F00103DBB2002B21D0B5
:10A52000BDF8124002F014F903465B68D3F801202D
:10A530009DF817309B0013441B68D3F811109DF849
:10A54000162013461B019B1A0B441B7A029301949D
:10A5500008230093D12340F60F0200214FF0FF3073
:10A5600032F02CFA00234AE09DF8143001338DF8C4
:10A57000143002F0EDF803465B68D3F801209DF833
:10A5800015309B0013441B681B7C9DF814209A42D5
:10A59000FFF435AF9DF8153001338DF8153002F01A
:10A5A000D7F803465B681B789DF815209A42FFF4A4
:10A5B00020AF9DF8163001338DF8163002F0C8F840
:10A5C00003465B68D3F801209DF817309B001344C5
:10A5D0001B681B7C9DF816209A42FFF405AF9DF87E
:10A5E000173001338DF8173002F0B2F803465B687C
:10A5F0001B789DF817209A42FFF4F2AE012318460B
:10A6000006B010BDCC82002084B0034600918DF8C6
:10A6100007304FF0FF3303939DF80730083BE92BD9
:10A6200000F22D8201A252F823F000BFD5A902004A
:10A63000DBA90200EDA90200E1A90200F3A90200D2
:10A64000E7A90200F9A90200FFA90200D5A90200AA
:10A650007FAA02007FAA02007FAA02007FAA02004E
:10A660007FAA02007FAA02007FAA0200D5A90200E9
:10A67000DBA90200EDA90200E1A90200F3A9020092
:10A68000E7A90200F9A90200FFA90200D5A902006A
:10A69000DBA90200EDA90200E1A90200F3A9020072
:10A6A000E7A90200F9A90200FFA90200D5A902004A
:10A6B000DBA90200EDA90200E1A90200F3A9020052
:10A6C000E7A90200F9A90200FFA90200D5A902002A
:10A6D000DBA902007FAA02007FAA02007FAA020073
:10A6E0007FAA02007FAA02007FAA0200DBA9020063
:10A6F000E1A90200FFA902007FAA02007FAA0200CE
:10A700007FAA02007FAA02007FAA02007FAA02009D
:10A7100005AA020005AA020025AA02007FAA0200DB
:10A720007FAA02007FAA02007FAA020025AA0200D7
:10A730007FAA020025AA02007FAA02007FAA0200C7
:10A740007FAA02007FAA02007FAA02007FAA02005D
:10A750007FAA02007FAA02007FAA02007FAA02004D
:10A760007FAA02007FAA02007FAA02007FAA02003D
:10A770007FAA02007FAA02007FAA02007FAA02002D
:10A980007FAA02007FAA02007FAA0200E1A90200BA
:10A99000E1A90200E1A902007FAA02007FAA020049
:10A9A0007FAA02007FAA02007FAA0200DBA90200A0
:10A9B000DBA90200E1A902007FAA02007FAA02002F
:10A9C0007FAA02007FAA02007FAA020073AA0200E7
:10A9D00079AA02000123039356E00223039353E074
:10A9E0000423039350E0062303934DE003230393D2
:10A9F0004AE00523039347E00723039344E0082339
:10AA0000039341E0009B002B3BD0009B1B78FF2B66
:10AA100037D0009B1B7801338DF80B309DF80B303D
:10AA200003932EE00023ADF808309DF80730482B43
:10AA300003D09DF80730432B05D1009B1B889BB2A8
:10AA4000ADF808300AE0009B1B889BB2ADF80830D7
:10AA5000BDF808309B009BB2ADF80830BDF8083057
:10AA60004FF6FF7293420ED0BDF8083002330393C5
:10AA700009E00823039307E01023039304E000BFD9
:10AA800002E000BF00E000BF039BDBB2184604B049
:10AA9000704700BF00B587B003900B4601928DF858
:10AAA0000B309DF80B30083BE92B00F2668201A2C7
:10AAB00052F823F05DAE02006DAE0200A3AE0200BC
:10AAC0007FAE02007BAF02007BAF02007BAF0200D3
:10AAD00057AF02005DAE02007BAF02007BAF020009
:10AAE0007BAF02007BAF02007BAF02007BAF0200B6
:10AAF0007BAF02005DAE02006DAE0200A3AE0200AD
:10AB00007FAE02007BAF02007BAF02007BAF020092
:10AB10007BAF02005DAE02006DAE0200A3AE02008C
:10AB20007FAE02007BAF020091AE02007BAF02005D
:10AB30007BAF02005DAE02006DAE0200A3AE02006C
:10AB40007FAE02007BAF020091AE02007BAF02003D
:10AB50007BAF02005DAE02006DAE02007BAF020073
:10AB60007BAF02007BAF02007BAF02007BAF020035
:10AB70007BAF02007BAF02007BAF02007BAF020025
:10AB80007BAF02007BAF02007BAF02007BAF020015
:10AB90007BAF02007BAF0200B5AE0200B5AE020093
:10ABA000EFAE02007BAF02007BAF02007BAF020082
:10ABB0007BAF0200EFAE02007BAF0200EFAE0200FF
:10ABC0007BAF02007BAF02007BAF02007BAF0200D5
:10ABD0007BAF02007BAF02007BAF02007BAF0200C5
:10ABE0007BAF02007BAF02007BAF02007BAF0200B5
:10ABF0007BAF02007BAF02007BAF02007BAF0200A5
:10AE10007BAF02007BAF02007BAF02007FAE02007F
:10AE20007BAF02007BAF02007BAF02007BAF020072
:10AE30007BAF02007BAF02007BAF02007BAF020062
:10AE40007BAF02007BAF02007BAF02007BAF020052
:10AE50007BAF020057AF020069AF0200019B1A7876
:10AE6000039B1A70039B013303938BE0019B1B88A8
:10AE70009AB2039B1A80039B0233039382E0019BE7
:10AE80001B681A46039B1A60039B0433039379E003
:10AE900006220199039820F08BFA039B0633039353
:10AEA00070E003220199039820F082FA039B033398
:10AEB000039367E0019B002B61D0019B1B78FF2B64
:10AEC0005DD0019B1B7801338DF815309DF815304E
:10AED000ADF81630BDF816301A460199039820F0E7
:10AEE00067FABDF81630039A1344039347E0002332
:10AEF000ADF812309DF80B30482B03D09DF80B3085
:10AF0000432B05D1019B1B889BB2ADF812300AE0A0
:10AF1000019B1B889BB2ADF81230BDF812309B002C
:10AF20009BB2ADF81230BDF812304FF6FF7293426B
:10AF300027D0BDF812300233ADF81630BDF8163008
:10AF40001A460199039820F033FABDF81630039A97
:10AF50001344039315E008220199039820F028FA7E
:10AF6000039B083303930DE010220199039820F00E
:10AF70001FFA039B1033039304E000BF02E000BFFD
:10AF800000E000BF039B184607B05DF804FB00BF5C
:10AF900084B003468DF80730002303939DF80730F3
:10AFA000203B0D2B2DD801A252F823F0E5AF020073
:10AFB000EBAF0200F1AF0200F7AF020003B00200F6
:10AFC000FDAF020003B0020003B0020003B00200B4
:10AFD000EBAF0200F1AF0200F7AF020003B00200D6
:10AFE000FDAF0200012303930CE00223039309E069
:10AFF0000323039306E00423039303E00623039350
:10B0000000E000BF039BDBB2184604B0704700BFEE
:10B0100084B003468DF8073000238DF80F309DF87B
:10B0200007302D2B24DC202B28DB203B0D2B25D8B3
:10B0300001A252F823F000BF75B0020075B0020003
:10B0400075B0020075B002007DB0020075B002005C
:10B050007DB002007DB0020075B0020075B0020044
:10B0600075B0020075B002007DB0020075B002003C
:10B07000E22B03D101238DF80F3000E000BF9DF8D3
:10B080000F30184604B0704700B589B003468DF8FC
:10B0900007300023069302230593002307932EE035
:10B0A0000023049301F054FB0246079B023352F83D
:10B0B00023300393039B002B26D017E0039BD3F888
:10B0C0000120049B9B0013441B681B789DF80720FC
:10B0D0009A4208D1039BD3F80120049B9B001344A0
:10B0E0001B68069308E0049B01330493039B1B78C1
:10B0F0001A46049B9342E1D3079B01330793079AB7
:10B10000059B9A42CCD300E000BF069B184609B0CD
:10B110005DF804FB00B587B0034600918DF8073059
:10B120006FF0150305939DF8073003F52D3303F2F7
:10B13000A51303F00F030393039B049301F008FB93
:10B140000246049B0233DB0013440293029B1B79EB
:10B15000002B03D0029B1B68002B09D1029B009A95
:10B160001A60029B9DF807201A710023059308E0DE
:10B17000049B013303F00F030493049A039B9A4248
:10B18000DCD1059B184607B05DF804FB00B587B01D
:10B1900003468DF807306FF01B0305939DF80730C9
:10B1A00003F52D3303F2A51303F00F030393039B61
:10B1B000049301F0CDFA0246049B0233DB001344F2
:10B1C0000293029B1B799DF807209A421FD19DF89C
:10B1D000073018462CF052FA0346002B01D036F007
:10B1E000D3FA029B1B68002B0CD0029B1B689DF8B6
:10B1F00007201146184630F05FFE00230593029B9E
:10B2000000221A60029B00221A71059B0AE0049B2F
:10B21000013303F00F030493049A039B9A42C8D1AD
:10B220006FF01B03184607B05DF804FB10B586B03D
:10B230000390084611461A4603468DF80B300B461C
:10B24000ADF8083013468DF80A3000238DF817301A
:10B25000039B002B4DD0039B5B68002B49D09DF8CE
:10B260002430002B12D0039BDB7803F04003002B2B
:10B2700003D086238DF8173008E0039BDB7803F0BA
:10B280000203002B02D188238DF817309DF8173068
:10B29000002B32D1039B1B889CB29DF80B209DF89C
:10B2A0000A10BDF80800089B00932346FEF768FDCE
:10B2B0000490049BB3F1FF3F03D187238DF817302F
:10B2C0001BE0049B13F1060F03D100238DF8173008
:10B2D00013E0049B13F1020F03D188238DF817307C
:10B2E0000BE0049B13F1280F07D17E238DF8173054
:10B2F00003E086238DF8173000E000BF9DF817307B
:10B30000184606B010BD10B58AB00446084611466E
:10B310001A4623468DF80F300346ADF80C300B4625
:10B320008DF80E301346ADF80A300223099300233E
:10B3300008937DE00023079301F00AFA0246089B78
:10B34000023352F823300693069B002B76D063E03D
:10B35000069BD3F80120079B9B0013441B681B78B6
:10B360009DF80F209A4254D0069BD3F80120079BEA
:10B370009B0013441B689DF80E20BDF80C10184666
:10B3800000F05FFC0590059B002B00D144E0BDF868
:10B390000A301946059802F0E2FB0490049B002B4A
:10B3A00000D139E0069BD3F80120079B9B00134492
:10B3B0001B681878BDF80A409DF80E20BDF80C10E7
:10B3C0000C9B00932346FEF72CFD049B5C68049BBA
:10B3D0009B780C991846FFF717F903461A460C9903
:10B3E00020461FF0E5FF049BDB7803F00403002BED
:10B3F0000FD0069BD3F80120079B9B0013441B68CA
:10B400001878BDF80A309DF80E20BDF80C1007F032
:10B41000A7FE079B01330793069B002B05D0069BD5
:10B420001B781A46079B934292D3089B01330893DB
:10B43000089A099B9A42FFF47DAF00E000BF00BF6D
:10B440000AB010BD10B586B00446084611461A462B
:10B4500023468DF80F300346ADF80C300B468DF8BF
:10B460000E301346ADF80A3001238DF81730BDF8C1
:10B470000A309DF80E20BDF80C109DF80F0002F068
:10B4800099FB0490049B002B56D0089B002B53D0B3
:10B490009DF80E00BDF80C209DF80F109DF824308B
:10B4A0000193089B009303460498FFF7BFFE0346F1
:10B4B0008DF817309DF81730002B3DD1BDF80A40AC
:10B4C0009DF80E20BDF80C109DF80F00089B00930E
:10B4D0002346FEF7A6FC049B5C68049B9B780899B6
:10B4E0001846FFF791F803461A46089920461FF0C0
:10B4F0005FFF049BDB7803F00403002B09D0BDF849
:10B500000A309DF80E20BDF80C109DF80F0007F0D2
:10B5100027FE049BDB7803F00803002B0CD0BDF85A
:10B520000A409DF80E20BDF80C109DF80F00089BF6
:10B5300000932346FFF7E7FE9DF81730184606B044
:10B5400010BD84B001900B46ADF80230019B002B7A
:10B5500006D0019BD3F81530002B01D0012300E069
:10B5600000238DF80F309DF80F3003F001038DF8A4
:10B570000F309DF80F30002B61D0019B5A789B78DB
:10B580001B021343ADF80C30BDF80220BDF80C309F
:10B590009A420CBF012300238DF80F309DF80F3025
:10B5A00083F00103DBB2002B49D0BDF80230B3F5C4
:10B5B000827F0BD0BDF80230B3F5807F06D9BDF88D
:10B5C0000230B3F5847F01D8012300E000238DF819
:10B5D0000B309DF80B3003F001038DF80B30BDF8F4
:10B5E00002304FF6FF7293420AD1BDF80C30B3F52A
:10B5F000827F19D0BDF80C304CF25E02934213D01A
:10B60000BDF802304CF25E02934204D1BDF80C301A
:10B61000B3F5827F08D09DF80B30002B06D0BDF823
:10B620000C30B3F5827F01D1012300E000238DF8B7
:10B630000F309DF80F3003F001038DF80F309DF8A7
:10B640000F30184604B0704710B588B0044608465D
:10B6500011461A4623468DF807300346ADF80430EC
:10B660000B468DF806301346ADF8023000238DF8F6
:10B670001F30022304930023059385E000230693E3
:10B6800001F066F80246059B023352F8233003931B
:10B69000039B002B7ED09DF80730002B67D0002342
:10B6A000069312E0039BD3F80120069B9B001344F2
:10B6B0001B681B789DF807209A4203D100238DF860
:10B6C000073008E0069B01330693039B1B781A465C
:10B6D000069B9342E6D3069B0133069347E0039B08
:10B6E000D3F80120069B9B0013441B6802939DF82E
:10B6F0000630032B1AD1BDF80430012219460298F6
:10B7000000F09FFA0346002B09D1BDF80430022255
:10B710001946029800F095FA0346002B01D0012348
:10B7200000E0002303F00103DBB20DE09DF80620EA
:10B73000BDF804301946029800F083FA0346002B46
:10B7400014BF01230023DBB2002B0DD0BDF8023063
:10B7500019460298FFF7F5FE0346002B04D0029B22
:10B760001B788DF81F300CE0069B013306939DF883
:10B770000730002B05D1039B1B781A46069B93428A
:10B78000ADD3059B01330593059A049B9A42FFF4C0
:10B7900075AF00E000BF9DF81F30184608B010BD1F
:10B7A00000B585B003460A468DF807301346ADF85C
:10B7B000043000238DF80F309DF80730184600F054
:10B7C000D7FA0346ADF80C309DF80730002B02D1B4
:10B7D0009DF80F300FE0BDF80C30B3F5827F08D133
:10B7E000BDF804304FF65742934202D101238DF841
:10B7F0000F309DF80F30184605B05DF804FB0000CF
:10B8000030B58DB003468DF8073001238DF82E300A
:10B810009DF807301B2118462BF0AAFE034603AC07
:10B820001D4628686968AA68EB680FC428696969B9
:10B8300003C42B8BAA7E23801346A3709DF8183077
:10B840008DF82F309DF82F301846FFF71DFC0A9019
:10B850009DF81F10BDF81B309AB29DF822309DF85C
:10B860002F00FEF7A2FB034683F00103DBB2002B9F
:10B8700008D09DF8073018462BF086FC00238DF881
:10B880002E305BE009F0F2FB0346002B23D0BDF81D
:10B890001B309BB2184607F030FF0346002B06D042
:10B8A0009DF81A3003F00803DBB2002B0FD0BDF86F
:10B8B0000D309BB2BDF81B2092B21146184607F01E
:10B8C00085FE034683F00103DBB2002B03D07E2309
:10B8D0008DF82E3032E00A9BD3F80330002B1FD0B6
:10B8E0001E4BD3F8F03B002B0BD01C4BD3F8F03B96
:10B8F00003AA10469847034683F00103DBB2002BEE
:10B900000ED00A9BD3F803309DF8072010469847C5
:10B910000346002B0CBF01230023DBB28DF82E3031
:10B920009DF82E30002B08D09DF80730184604F003
:10B930009BFB03468DF82E3000E000BF9DF82E30B3
:10B94000002B07D09DF82E2003A99DF8073018463C
:10B9500005F0C3F900BF0DB030BD00BF507400202A
:10B9600000B587B003468DF80F309DF80F309BB2BD
:10B970000022194614482BF09EFB0590059B002BD6
:10B980001DD0124B1B68002B14D118F0DAFA0346B5
:10B9900083F00103DBB2002B0CD0059B0193042341
:10B9A00000934FF49F6340F60F0200214FF0FF30E9
:10B9B00031F004F89DF80F3018462BF0E5FB00BF7E
:10B9C00007B05DF804FB00BFD1B90200CC820020B3
:10B9D00000B587B003460A468DF807301346ADF828
:10B9E0000430BDF80430DBB21B2118462BF0C0FD3B
:10B9F0000590BDF80430DAB29DF8073011461846BC
:10BA00002BF043FC059B1B7B8DF8133030F01EF9A7
:10BA100003469B081F4AA2FB03239B0D0393039B32
:10BA20009BB21A469DF8073019461B4830F06AFB56
:10BA3000059BB3F80F3099B2059B1B7D002B01D1FC
:10BA4000012200E00222059BB3F811309BB29DF861
:10BA50001300FFF7F9FD03468DF813309DF81330FE
:10BA6000002B06D1BDF80430DBB218462BF08CFB5E
:10BA70000BE0059B9DF813201A73BDF80430DBB270
:10BA8000039A1946054830F03DFB00BF07B05DF84A
:10BA900004FB00BF0100002101B8020061B90200EF
:10BAA00000B589B003468DF80F309DF80F301B218B
:10BAB00018462BF05DFD0790079B1B7BFF2B4DD19C
:10BAC000079BB3F80F3099B2079B1B7D002B01D168
:10BAD000012200E00222079BB3F811309BB2002044
:10BAE000FFF7B2FD03468DF81B309DF81B30002B8D
:10BAF00005D19DF80F3018462BF046FB33E0079B2D
:10BB00009DF81B201A739DF80F309BB20022194636
:10BB100017482BF0D0FA0590059B002B23D0154B2E
:10BB20001B68002B14D118F00CFA034683F00103B4
:10BB3000DBB2002B0CD0059B01930423009340F251
:10BB4000525340F60F0200214FF0FF3030F036FF25
:10BB50009DF80F3018462BF017FB04E09DF80F30CE
:10BB60001846FFF74DFE00BF09B05DF804FB00BFAB
:10BB7000D1B90200CC82002030B58DB003468DF8DB
:10BB8000073003AB1B22002118461FF03AFC03AA22
:10BB90009DF807301146184604F0CAFA03468DF89E
:10BBA0002F309DF82F2003A99DF80730184625F067
:10BBB000F7F8034683F00103DBB2002B3ED09DF87B
:10BBC000073018462BF040FB03461B789B08DBB27E
:10BBD00003F00103002B01D0052200E003229DF8B1
:10BBE0000730114618462BF0F9FB9DF807301B2152
:10BBF00018462BF0BDFC0A900A9B1D4603AC0FCCE7
:10BC000028606960AA60EB6003CC286169612388C1
:10BC1000A2782B831346AB769DF82F30002B05D1ED
:10BC20009DF807301846FFF73BFF07E09DF82F20EF
:10BC300003A99DF80730184605F04FF800BF0DB076
:10BC400030BD84B001900B46ADF8023013468DF83C
:10BC500001300023039300230293019B002B2ED07D
:10BC600027E0019BD3F81110039A13461B019B1A7E
:10BC70000B441B889BB2BDF802209A4216D1019B4F
:10BC8000D3F81110039A13461B019B1A0B441B7A1D
:10BC90009DF801209A4209D1019BD3F81110039A13
:10BCA00013461B019B1A0B44029308E0039B0133CC
:10BCB0000393019B1B7C1A46039B9342D1D3029BA7
:10BCC000184604B0704700B589B003460A46ADF87F
:10BCD000063013468DF8053000238DF81F300223FF
:10BCE00004930023059337E00023069300F030FD12
:10BCF0000246059B023352F823300393039B002B2B
:10BD00002FD020E0039BD3F80120069B9B00134417
:10BD10001B6802939DF80520BDF80630194602986D
:10BD2000FFF78FFF0346002B0AD0039BD3F80120B7
:10BD3000069B9B0013441B681B788DF81F3008E09E
:10BD4000069B01330693039B1B781A46069B93427E
:10BD5000D8D3059B01330593059A049B9A42C3D31C
:10BD600000E000BF9DF81F30184609B05DF804FBE5
:10BD700000B589B003468DF807304FF6FF73ADF874
:10BD80001E30022304930023059333E0002306931F
:10BD900000F0DEFC0246059B023352F82330039389
:10BDA000039B002B2BD01CE0039BD3F80120069BA8
:10BDB0009B0013441B681B789DF807209A420DD105
:10BDC000039BD3F80120069B9B0013441B685A7801
:10BDD0009B781B021343ADF81E3008E0069B01332D
:10BDE0000693039B1B781A46069B9342DCD3059B64
:10BDF00001330593059A049B9A42C7D300E000BF24
:10BE0000BDF81E30184609B05DF804FB00B58BB0D4
:10BE100003460A46ADF8063013468DF80530002378
:10BE20000993022306930023079336E00023089327
:10BE300000F08EFC0246079B023352F82330059334
:10BE4000059B002B2ED01FE0059BD3F80120089BFB
:10BE50009B0013441B6804939DF80520BDF8063031
:10BE600019460498FFF7EDFE0390039B002B08D0C2
:10BE7000039B1B7A9DF805209A4202D1049B0993EB
:10BE800008E0089B01330893059B1B781A46089B22
:10BE90009342D9D3079B01330793079A069B9A4293
:10BEA000C4D300E000BF099B18460BB05DF804FB4B
:10BEB00000B587B003468DF807309DF807301B2189
:10BEC00018462BF055FB0490049B1B7B1846FFF78C
:10BED000DBF80390049BB3F80F3099B2049B1B7DF1
:10BEE000002B01D1012300E002231A460398FFF73B
:10BEF000A8FE029000F056FC0346012B03D18123DB
:10BF00008DF8173016E0049B1B7E002B09D0049B94
:10BF10009B7D002B01D0842300E083238DF8173014
:10BF200008E0049B9B7D002B01D0822300E081234D
:10BF30008DF81730029B002B17D0049B1B7D012B23
:10BF400005D1029B1B7A03F00203002B09D1049B4D
:10BF50001B7D002B0CD1029B1B7A03F00103002BED
:10BF600006D000238DF8173002E0C3238DF8173078
:10BF70009DF81730184607B05DF804FB84B00190B7
:10BF8000019B1B680393039B184604B0704700B5E0
:10BF900085B0009111461A4603468DF807300B46CE
:10BFA0008DF8063013468DF805309DF807301021C6
:10BFB00018462BF0DDFA03909DF80730184627F05D
:10BFC00071F8039B95221A60039B9DF818209A73C1
:10BFD000039B9DF805201A71039B9DF806205A715A
:10BFE0009DF80630032B07D1039B063300990822E6
:10BFF00018461FF0DDF904E0039B0633BDF800206E
:10C000001A809DF80730194607982FF055FF00BF9A
:10C0100005B05DF804FB84B003460A46ADF806306F
:10C020001346ADF80430BDF8043040F20472934278
:10C0300044D0BDF80430B3F5E06F3FD0BDF8043014
:10C0400040F20372934239D0BDF8043040F20272DC
:10C05000934233D0BDF80430B3F5006F2ED0BDF855
:10C06000043040F20572934228D0BDF8043040F20B
:10C070000772934222D0BDF80430B3F5E16F1DD0B2
:10C08000BDF8043040F20972934217D0BDF8043075
:10C0900040F20172934211D0BDF8043040F20672B2
:10C0A00093420BD0BDF8043040F20A72934205D09F
:10C0B000BDF8043040F20B72934201D1012300E03D
:10C0C00000238DF80F309DF80F3003F001038DF839
:10C0D0000F309DF80F30184604B0704710B596B079
:10C0E000069105921A4603468DF81F3013468DF8C7
:10C0F0001E30002315939DF81F30182118462BF091
:10C1000037FA13909DF81F3018462BF09DF81290C7
:10C11000139BDB7B8DF84730139B1093139B1B7B8A
:10C120008DF83F30139B5B7B8DF83E30139B5B8912
:10C13000ADF83C30139B587B129B9978139B5A891E
:10C14000129B1B7803F00303DBB2002B0CBF01230F
:10C150000023DBB2FDF729FF034683F00103DBB2C6
:10C16000002B1BD0059B002B10D09DF83F109DF895
:10C1700047209DF81F00059B01939DF83E300093DA
:10C180000B461099FFF703FF0023F1E19DF81F30E4
:10C1900018462AF0F9FF6FF00703E9E1139B1B89AA
:10C1A000BDF83C2011461846FFF735FF03468DF8D1
:10C1B0003B30069B002B22D09DF81F300699184675
:10C1C0002BF0E9F804469DF81F3018462BF046F88E
:10C1D00003469C4213D99DF81F30069918462BF050
:10C1E000DAF804469DF81F3018462BF037F803465E
:10C1F000E21A9DF81F30114618462BF0C9F99DF838
:10C200004730012B20D0139BDB7B022B06D1109BE8
:10C210001B889BB24FF6F772934215D8BDF83C309D
:10C22000184607F037FA0346002B0DD09DF81E3054
:10C2300083F00103DBB2002B06D0139B1B7C43F081
:10C240000403DAB2139B1A749DF83B30002B06D01E
:10C25000139B1B7C43F00803DAB2139B1A74159BE3
:10C26000002B40F08B801FF0B9FD034683F00103E3
:10C27000DBB2002B00F0828008F0F8FE0346002BB2
:10C280007CD0BDF83C30184607F037FA0346002B47
:10C2900074D00BAB0822002118461FF0B2F89DF8AD
:10C2A0004730032B14D0032B18DC002B1AD0022BA1
:10C2B00014D1109B1B889BB20BAA114618462AF07A
:10C2C0005FFB0346002B0FD06FF0270315930BE0A5
:10C2D000109A0BAB1068516803C306E06FF0270398
:10C2E000159302E000BF00E000BF08F0BFFE034668
:10C2F000002B13D09DF84730002B0FD0159B002B3F
:10C300000CD10BAB18461FF093FD034683F00103DD
:10C31000DBB2002B02D06FF027031593159B002B87
:10C320000FD10BAB0221184635F024FE0346002B3B
:10C3300007D0139B1B7C43F00103DAB2139B1A74E2
:10C340001CE06FF0270315938B4B1B68002B15D156
:10C3500017F0F7FD034683F00103DBB2002B0DD08D
:10C36000BDF83C3001930423009340F60F0340F6E0
:10C370000F0200214FF0FF3030F020FB159B002B07
:10C3800040F0AF80BDF83C209DF83E301146184685
:10C39000FFF706FA0346002B00F0A3800023149356
:10C3A00002238DF83A3009AB0822002118461FF00D
:10C3B00028F89DF84730032B1BD0032B27DC002BDC
:10C3C00027D0022B00D022E0109B1B889BB209AA29
:10C3D000114618462AF0D4FA1590159B002B1AD155
:10C3E0009DF83A2009AB1146184635F0C3FD14906C
:10C3F00011E0109A09AB1068516803C39DF83A2008
:10C4000009AB1146184635F0B5FD149004E000BFA5
:10C4100002E000BF00E000BF149B002B5AD19DF842
:10C420004730002B56D0129B9B780B2B32D1129B9E
:10C430001B7803F00403DBB2002B2BD1129B1B787B
:10C4400003F00303DBB2002B24D1129B04331B78CF
:10C45000012B1FD1484B1B68002B39D117F071FD00
:10C46000034683F00103DBB2002B31D0129B033370
:10C470001B781A46BDF83C300293019208230093C2
:10C4800040F6570340F60F0200214FF0FF3030F026
:10C4900095FA1DE0384B1B68002B15D117F051FDA4
:10C4A000034683F00103DBB2002B0DD0BDF83C3016
:10C4B00001930423009340F65E0340F60F0200212F
:10C4C0004FF0FF3030F07AFA6FF02703159308E051
:10C4D00000BF06E0139B1B7C43F00103DAB2139B01
:10C4E0001A74159B002B06D19DF81F30059918462C
:10C4F000FEF710FE1590159B002B24D19DF81F30E0
:10C5000018462AF0A1FE0D900D9B1B781B09DBB28B
:10C5100003F00103002B02D1012035F0E7F8BDF84C
:10C520006030002B06D19DF81F30194613482FF0BC
:10C53000C3FC1CE0BDF860209DF81F3019460F4871
:10C540002FF0E0FD13E0059B002B10D09DF83F106D
:10C550009DF847209DF81F00059B01939DF83E30F4
:10C5600000930B461099FFF712FD00231593159BBE
:10C57000184616B010BD00BFCC8200203DD8040084
:10C5800000B589B0049103921A4603468DF817301E
:10C5900013468DF816309DF81730182118462AF0EA
:10C5A000E7FF07901822002107981EF02AFF079B3B
:10C5B0009DF81620DA7307989DF81630032B01D1E9
:10C5C000082300E002231A4603991EF0F1FE079BA0
:10C5D0009DF828201A73079B9DF82C205A73079BFF
:10C5E000BDF830201A81079BBDF834205A819DF890
:10C5F00017000023009300230E9A0499FFF76EFDA5
:10C600000346184609B05DF804FB00B589B00491F3
:10C6100003921A4603468DF8173013468DF81630EC
:10C620009DF81730182118462AF0A2FF079018220B
:10C63000002107981EF0E5FE079B9DF81620DA738F
:10C6400007989DF81630032B01D1082300E0022340
:10C650001A4603991EF0ACFE079B9DF828201A731A
:10C66000079B9DF82C205A73079BBDF830201A8138
:10C67000079BBDF834205A819DF83C30002B01D037
:10C68000012200E00022079B1A749DF840209DF8CB
:10C690001700BDF84430009313460E9A0499FFF733
:10C6A0001DFD0346184609B05DF804FB10B584B0C3
:10C6B0000446084611461A4623468DF807300346BD
:10C6C0008DF806300B46ADF8043013468DF8033074
:10C6D0009DF8073018462AF043FE0390039B9DF80F
:10C6E00006201A70039B0133039300F031F80346D0
:10C6F0001A78511CC9B2197013468DF80B309DF889
:10C7000006309B08DBB203F00103002B06D0BDF816
:10C710000430194603982FF0C0FA0390039B9DF84C
:10C720000B201A70039B01330393039B9DF8032096
:10C730001A70039B01330393069B002B03D0069BC7
:10C740009DF80B201A70039B184604B010BD000022
:10C75000014B1846704700BF8C7D0020014B1846E6
:10C76000704700BF2C38002000B583B003468DF819
:10C7700007309DF80730022B02D96FF0050306E061
:10C78000FFF7ECFF02469DF80730137000231846B0
:10C7900003B05DF804FB08B5FFF7E0FF03461B7824
:10C7A000184608BD08B5FFF7D9FF03461B7A18469F
:10C7B00008BD00B583B003468DF807309DF80730FB
:10C7C000012B02D96FF0050306E0FFF7C7FF024611
:10C7D0009DF8073013720023184603B05DF804FB80
:10C7E00000B585B003468DF80730FFF7D4FF034648
:10C7F000002B02D19DF80730ABE09DF80730813B5C
:10C80000432B00F29F8001A252F823F035C90200A9
:10C8100035C9020035C9020035C9020045C9020008
:10C8200045C9020045C9020045C9020045C90200C8
:10C830001DC9020045C9020045C9020045C90200E0
:10C8400045C902003DC9020025C9020025C90200F0
:10C850002DC9020025C9020045C9020045C90200D0
:10C8600045C9020045C9020045C9020045C9020088
:10C8700045C9020045C9020045C9020045C9020078
:10C8800045C9020045C9020045C9020045C9020068
:10C8900045C9020045C9020045C9020045C9020058
:10C8A00045C9020045C9020045C9020045C9020048
:10C8B00045C9020045C9020045C9020045C9020038
:10C8C00045C9020045C9020045C9020045C9020028
:10C8D00045C9020045C9020045C9020045C9020018
:10C8E00045C9020045C9020045C9020045C9020008
:10C8F00045C9020045C9020045C9020045C90200F8
:10C9000045C9020045C9020025C9020025C9020027
:10C910002DC9020045C902001DC9020000238DF87F
:10C920000F3014E001238DF80F3010E07F238DF8D5
:10C930000F300CE081238DF80F3008E07E238DF856
:10C940000F3004E09DF807308DF80F3000BF9DF8E0
:10C950000F30184605B05DF804FB00BF00B585B088
:10C960000190019B1F331F2B52D801A252F823F0D4
:10C9700009CA020011CA020011CA020011CA02004B
:10C9800011CA020011CA020011CA020011CA020033
:10C9900001CA020011CA020011CA020011CA020033
:10C9A00011CA020011CA020011CA020011CA020013
:10C9B00011CA020011CA020011CA020011CA020003
:10C9C00011CA0200F9C9020011CA020011CA02000C
:10C9D00011CA020011CA020011CA020011CA0200E3
:10C9E00011CA020011CA020011CA0200F1C90200F4
:10C9F00000238DF80F3016E085238DF80F3012E0FC
:10CA000087238DF80F300EE081238DF80F300AE078
:10CA1000FFF7C8FE0346012B01D1012300E0C0232C
:10CA20008DF80F3000BF9DF80F30184605B05DF847
:10CA300004FB00BF00B585B003460A468DF80730F9
:10CA40001346ADF804309DF80730002B11D1364B5A
:10CA50001B7883F00103DBB2002B60D0324B012244
:10CA60001A70BDF804300022194630482AF023FB22
:10CA700055E0FFF76DFE0346D3F89C30002B46D0FF
:10CA8000BDF80430DBB28DF80C309DF8073034214E
:10CA900018462AF06DFD03463422002118461EF088
:10CAA000B0FC9DF80730342118462AF061FD03469A
:10CAB00065221A709DF80730342118462AF058FD77
:10CAC000034600225A609DF80730342118462AF0A8
:10CAD0004FFD034600229A609DF807303421184626
:10CAE0002AF046FD024603ABD3609DF8073034219F
:10CAF00018462AF03DFD034600221A61FFF728FE82
:10CB00000346D3F89C309DF8072010469847064B03
:10CB100000221A709DF8073018462AF035FB00BF36
:10CB200005B05DF804FB00BF3938002035CA0200AB
:10CB300000B58DB003460A468DF81F301346ADF898
:10CB40001C309DF81F3018462AF00AFC0B900B9BF6
:10CB500008221A700B9B01330B93FFF7F9FD034674
:10CB60001A78511CC9B219700B9B1A700B9B0133B8
:10CB70000B930B9B0A221A700B9B01330B93414BB7
:10CB80001B780A9364E0404A0A9B32F81330012272
:10CB90000121C42001F00EF80990099B002B54D00C
:10CBA00001214CF25D20FFF736FA0346002B0CD032
:10CBB0009DF81F300B9918462AF0EDFB03469BB2F7
:10CBC000C3F5CA6301339BB20AE09DF81F300B998D
:10CBD00018462AF0E0FB03469BB2C3F152039BB216
:10CBE000ADF82230099B9A78099B5B68194610467C
:10CBF000FDF70AFD03468DF82130BDF822209DF88F
:10CC0000213003339A421BD3099B1B889BB21946E0
:10CC10000B982FF042F80B90099B9A780B9B1A7097
:10CC20000B9B01330B93099B9978099B5B681A4610
:10CC30000B98FDF72FFF0B90124B00221A7004E0A7
:10CC40000A9BDAB20F4B1A7005E00A9B01330A9374
:10CC50000A9B052B97D907AA9DF81F000023049370
:10CC6000012303934CF25D230293C4230193C42355
:10CC7000009302230B99FFF783FC00BF0DB05DF812
:10CC800004FB00BF3A38002050CE060000B585B046
:10CC900003468DF80730194B1B78002B24D0174B17
:10CCA0001B78032B20D0082301220121C42000F08F
:10CCB00081FF0390039B5B681B88ADF80A30BDF8C9
:10CCC0000A304FF6FF72934205D19DF8073018469F
:10CCD00000F070F80EE0BDF80A209DF8073011460C
:10CCE0001846FFF725FF05E09DF8073018462AF0A3
:10CCF0004BFA00BF00BF05B05DF804FB38380020D8
:10CD000000B583B0002200211B482FF0C3FB1B4B52
:10CD10001B78022B2BD1012301220121C42000F01A
:10CD200049FF0190019B002B03D0019B5B681B888E
:10CD300001E04FF49673ADF80230BDF802300F3BBE
:10CD4000ADF80230BDF8023018462EF069FF0346F8
:10CD50009BB20F33ADF80230BDF8022013465B01E1
:10CD600013445B001A46002103482FF0CBF900BFA3
:10CD700003B05DF804FB00BF81CD0200383800200D
:10CD800000B583B003468DF807309DF80730002BBF
:10CD900003D107482AF06AF906E09DF807301846E3
:10CDA000FFF774FFFFF7ACFF00BF03B05DF804FBB3
:10CDB00081CD020000B583B003468DF807300D4BDE
:10CDC0001B78002B0BD00B4B1B78032B07D09DF847
:10CDD00007304FF6FC711846FFF7AAFE05E09DF8F4
:10CDE000073018462AF0D0F900BF00BF03B05DF845
:10CDF00004FB00BF3838002000B583B003468DF82F
:10CE000007309DF80730002B03D1154B00221A7014
:10CE100022E09DF80730012B1ED1124B1B78012B0D
:10CE20001AD10F4B1B78012B0CD80F482AF01EF992
:10CE30000E482AF01BF90A4B1B780133DAB2084B73
:10CE40001A7009E0064B00221A70064B03221A7072
:10CE500001210020FFF7EEFD00BF03B05DF804FBE9
:10CE60003B38002038380020C5CF0200B5CD020085
:10CE700000B58DB003468DF81F30384B1B78002B62
:10CE800061D0364B1B78032B5DD008238DF82F30F3
:10CE900009238DF82E300A238DF82D3027F006F85F
:10CEA0000346ADF826309DF81F3018462AF058FA90
:10CEB0000A900A9B00221A700A9B01330A93FFF71B
:10CEC00047FC03461A78511CC9B219700A9B1A70A4
:10CED0000A9B01330A930A9B00221A700A9B0133B2
:10CEE0000A939DF82F309BB219460A982EF0D5FE72
