:020000022000DC
:107000000000042045730200A1730200A373020074
:10701000A5730200A7730200A9730200000000001C
:10702000000000000000000000000000AB73020040
:10703000AD73020000000000AF730200B1730200E4
:1070400035D60400B373020035EA0400B3730200BE
:10705000B3730200B3730200B9DA040065DD040003
:10706000B3730200B3730200B3730200B373020080
:10707000B373020025DD0400B3730200B373020092
:10708000B373020095890200B3730200B373020068
:10709000B3730200B373020089EC04002DAD050048
:1070A000B3730200B3730200B3730200B373020040
:1070B000B3730200B3730200000000000000000080
:1070C000B3730200B3730200B3730200B373020020
:1070D000799C0500B3730200B3730200B37302001E
:1070E000B3730200B3730200B37302000000000028
:1070F00000000000B373020000000000B373020040
:10710000000000000000000000000000000000007F
:10711000000000000000000000000000000000006F
:10712000000000000000000000000000000000005F
:10713000000000000000000000000000000000004F
:10714000000000000000000000000000000000003F
:10715000000000000000000000000000000000002F
:10716000000000000000000000000000000000001F
:10717000000000000000000000000000000000000F
:1071800000000000000000000000000000000000FF
:1071900000000000000000000000000000000000EF
:1071A00000000000000000000000000000000000DF
:1071B00000000000000000000000000000000000CF
:1071C00000000000000000000000000000000000BF
:1071D00000000000000000000000000000000000AF
:1071E000000000000000000000000000000000009F
:1071F000000000000000000000000000000000008F
:10720000314932480A1A02D0072291438D4630494B
:1072100030480A1A06D00722914381F309880222D6
:1072200082F314882C482D492D4A00F03CF82D4853
:107230002D492E4A00F037F82D482E492E4A00F0ED
:1072400032F82E482E492F4A00F02DF82E482F49AB
:107250002F4A00F028F82F482F49304A00F023F831
:107260002F483049304A00F01EF83048304900229B
:1072700000F024F82F483049002200F01FF82F4A70
:1072800090471F481F49884205D00268043003B464
:10729000904703BCF7E700208646EC46002000211B
:1072A000274A9047FEE7884207D0521A05D0037854
:1072B00001300B700131013AF9D17047884202D098
:1072C00002700130FAE770470000042000E003205C
:1072D00000000420000004206CE805002C2C002095
:1072E000FC310020B8730200B873020038AF05000B
:1072F0006CE805002C2C00202C2C002060B205002E
:1073000060B2050060B2050060B2050060B2050021
:1073100060B2050060B2050060B2050069E80500D2
:107320003CEE0500FC310020FC310020FC31002047
:1073300038A2002038A200203CA200206D73020079
:107340007107050000F036B80F484FF00701884379
:1073500085460E4880470E48016841F4700101607F
:10736000BFF34F8FBFF36F8FFFF74ABF09480A493A
:107370000A4A884207D0521A05D0037801300B70B0
:107380000131013AF9D1704700000420211C0500A9
:1073900088ED00E02CB10500F82A00202C2C0020FC
:1073A000FEE7FEE7FEE7FEE7FEE7FEE7FEE7FEE7B5
:0873B000FEE7FEE7FFF7C8BF8E
:1073B8000048704730A20020FEE7F0B595B01D46A2
:1073C800164608460C4602F0D3F91A9B0D93CDE9F0
:1073D800086500252B46082205A920460A958DF840
:1073E8002C500C9502F0E0F9079B0293069B03933F
:1073F8009DF814308DF8115003F00302012A1DD1B5
:10740800BDF81420059DC3F3C203C2F383168DF89B
:107418001030B20008230EA9204602F0C5F9C5F3C2
:10742800952508AB0093324602AB0EA9284600F01A
:107438003FFD204602F0A0F915B0F0BD022AF8D1B0
:10744800BDF81650C3F3C203C5F389158DF8103083
:107458000827082D2E4628BF08263B4632460EA987
:10746800204602F0A1F9AD1B08AB02AA31460EA8CE
:10747800374400F081FD002DEBD1DAE7014B012202
:107488001A7070473D3200207047000070B50F4DEC
:1074980006460FCD88B06C460FC495E80F00002E45
:1074A80084E80F004FF00603094A009308BF002242
:1074B8004FF0805307480693694625F0DFFF08B16F
:1074C80000F0BAFD044B1E7008B070BD60B2050034
:1074D800857402002C2C0020FC31002007B5044BD9
:1074E8000093044A4023FFF768FF03B05DF804FBEC
:1074F80001750200FD31002038B50D480D4C0E4DC8
:10750800002323700378EB5CD2B263B1043027F018
:10751800D3F908B100F090FD084B1A7812B123781E
:10752800002BFBD038BD0C3026F0F4FEF1E700BF8D
:107538002C2C00203D320020A83B0020FC310020EC
:1075480008B50848084A0378D35C3BB1043027F0F3
:1075580041F9BDE808400020FFF798BF0C3026F03D
:1075680079FEF6E72C2C0020A83B00200120FFF72D
:107578008DBF000008B5FFF7F9FF0448042100F0AB
:10758800E3FB034B01225A7108BD00BF1CB1050083
:10759800402C0020037813F0040216D003F00303F4
:1075A800012B03D0022B09D0012070470A680088FC
:1075B8000232C0F3831002440A60F5E70B68428880
:1075C800023303EB92130B60EEE71046704700009E
:1075D8002DE9F04FDFF830A187B00F4600230446AD
:1075E800861C0DF1070015468DF8073000F032FDB6
:1075F800DAF800103960DAE90132134401335B1A12
:107608000AF21C470AF583690AF21448B3421CD3EC
:107618000020002D73D004F00F039B0143F00503F5
:1076280063F30F00DAF80020DAF808301340033368
:1076380032444AF823009DF80700CAF8002000F0F9
:107648002DFD012007B0BDE8F08F0121384601F07B
:10765800A8FA484601F0C0FA404601F0BDFADAF847
:107668000400DAF808B0029000EA0B0003300AEBD5
:10767800800002A9FFF78EFF029B50BB0BEA0302B2
:107688000AEB820203F1020CD2680392013303EA87
:107698000B0B0AEB8B0B02F00302012ADBF80C1030
:1076A800CDF808C023D0022A16D08346404601F000
:1076B80096FA10B1029BCAF804305946384601F0D0
:1076C80070FADAE901231344DAF8002001339B1A2F
:1076D8009CE70BEA0300C9E7BDF80E30C3F3891332
:1076E80003334FEA114B0CEB93030293DEE7BDF82B
:1076F8000C30C3F383134FEA114B6344F5E7A40539
:1077080044F006008EE700BF1033002030B599B171
:107718000A4B0B4A0B49D21AD20800239A4201D1CC
:10772800052006E031F823500468A54202D1036021
:10773800002030BD0133F1E70846FAE7FCAF050049
:107748001CB105000C2B00202DE9F84F234B2448D1
:10775800FF229A600022C3F81824C3E90022C3F864
:10776800142483F8202401F0BCFF814690BB1D48F7
:10777800DFF880801C4CDFF880A002F0B6F9A4EB9B
:107788000804E4084D46A54208D10023174A1946C3
:107798009C421AD022F823100133F9E700273E460D
:1077A80008EBC50BB54209D058F83610DBF80000D5
:1077B80014222DF0AFFB0028C8BF01370136B442B0
:1077C800F0D12AF825700135DDE70948A20000212B
:1077D8002DF077FC4846BDE8F88F00BF1033002035
:1077E800E4AF0500C8B205001CB105000E2B00204F
:1077F8009C2B0020FCAF05000C2B002007B5019046
:1078080001A8FFF783FF30B9019A044B53F83200FF
:1078180003B05DF804FB0020FAE700BFFCAF0500E9
:10782800094B013903EBC000032909D8DFE801F04F
:107838000A020406042070470079704740797047AF
:107848000020704702207047FCAF050030B5124C8D
:1078580000EB400054F8215002FA00F3072202FA24
:1078680000F06B400D4A03406B40C3F3821044F8AC
:10787800213002EB8101C3F3C202824238BF0246C3
:10788800C3F34220824203F0070338BF0246934203
:1078980038BF13464B8030BD9C2B00200C2B00209A
:1078A800154B93F8203437B504460BB918B90024A2
:1078B800204603B030BD2DF080FC0130009001233C
:1078C8000E486A4601A902F019F905460028EED1CA
:1078D8002146009A01982DF0CBFBDDE900231344E3
:1078E800064803F8015C009902F040F90099034842
:1078F80002F053F9019CDBE710330020C8B2050001
:10790800034BD3E90030C31A58425841704700BFAF
:10791800103300202DE9F04786B0FFF7F1FF064647
:10792800002840F02381924CC4F81804BFF34F8F0D
:107938006368A56802932B40033304EB830002A914
:10794800FFF728FE029B18B1D4F81824002A6CD03F
:1079580005EA0302991C013304EB82022B4004EB75
:107968008303D268DB68049302F00303022B0392BB
:1079780002916DD1BDF80E307E489DF80C60C3F3BE
:107988008918B8F1500FC14628BF4FF0500909F1C6
:10799800080169F38F13C1F30901ADF80E3001F046
:1079A800B8FEC6F3C2060746002800F0C68001F0FC
:1079B800DFFE0023082203A9384601F0EBFE0299F6
:1079C80025EA01020132B9EB820F4FEA820338D966
:1079D8005FFA89F98BB32940DDB2A9EB05090331B8
:1079E8005FFA89FAA946644D04EB810108234A46E7
:1079F800384601F0CFFE3DB109F10803DBB252462B
:107A08002946384601F0C6FE029B08F1030803EB3D
:107A180098030293D4F81834002B54D1D4F8105496
:107A2800DFF868914FF0070872E022689A4282D81E
:107A38006260304606B0BDE8F0874F491D469A4659
:107A4800D4E72940033108234A4604EB8101D8E7EB
:107A5800012B72D1BDF80C604648C6F38311062984
:107A680028BF062161F38916023101F00F01890050
:107A7800ADF80C6001F04DFEC6F3C20607460028BB
:107A88005BD001F075FE0023082203A9384601F0F7
:107A980081FE4FF00008BDF80C20C2F383124FEAB4
:107AA8008803904503F10803B4D202994A1C29407F
:107AB8000331029204EB81010422384601F06AFE88
:107AC80008F10108E7E7384601F056FEFFF718FF0E
:107AD80080F00100C6B2ACE7EB685A79B2B11B7905
:107AE800BDF8101003EB430259F8211008FA02F30D
:107AF800052E03EA010323FA02F308BF0326B34263
:107B080004D32B6839461B6828469847EB681D68DC
:107B1800002DE1D1384601F02FFE0DF107008DF858
:107B2800075000F097FAD4F818340BB9029B636039
:107B38009DF8070000F0B2FAC8E7D4F8104474B909
:107B48000E4B5B88012BC1D90D4B0E480E49C01A4C
:107B5800C008000440F0020000F066F8B6E72368A9
:107B680020469B689847E3681C68E8E7002660E7BA
:107B780010330020E4AF05001C330020282B002020
:107B8800FCAF050034B005009DB205009C2B002019
:107B98002DE9F74F224E04460F46924601A90122CD
:107BA8001846D6F808909B46FFF712FD20B3019DB2
:107BB8004FF00008AA1CD84508EB020126D1194845
:107BC800002100F0B3FF80F31000000440EA1440E5
:107BD800E4006B1C04F0380403EA090305EA09050C
:107BE80044F0010406EB8303033544EA881444EAAD
:107BF8008724D86046F8254096F820341BB1FFF753
:107C080089FE0028FBD103B0BDE8F08F09EA010125
:107C180006EB81015AF82830CB6008F10108CAE761
:107C2800103300202C37002000231A46FFF7B0BF7E
:107C380007B50123019201AAFFF7AAFF03B05DF877
:107C480004FB07B5CDE9002302236A46FFF7A0FF2E
:107C580003B05DF804FB1FB5CDE90123069B039330
:107C680001AA0323FFF794FF05B05DF804FB1FB5D5
:107C7800CDE90023069B0293079B03936A460423DE
:107C8800FFF786FF05B05DF804FB00002DE9F34718
:107C98002B4D0446D01C8946164601A900228008AF
:107CA800AF68FFF795FCA8B3DDF80480AB6808F16E
:107CB80002000190013338401B1AB6EB830F00F124
:107CC80003004FEA830A05EB80002DD83246494667
:107CD8002DF0CEF91B48002100F028FF80F310009A
:107CE80008F101033B4007EA0807220C05EB830370
:107CF800033742EA0040E400D86004F0380455F83D
:107D0800273044F0020444EA865203F47C131A43F1
:107D180045F8272095F820341BB1FFF7FBFD002814
:107D2800FBD102B0BDE8F087524649462DF0A0F9D4
:107D3800A6EB0A0209EB0A0105F10C00C8E700BF2F
:107D4800103300202C3700202DE9F84388461B49C2
:107D5800D1F81034054600241A468AB9EA68147125
:107D6800A3B9C1F810541360154B164EF61AF6084D
:107D7800002703F10709B7420DD12046BDE8F88373
:107D8800D2681079A04212D01268E6E7DB68196859
:107D980011601D60E8E719F83720EB68424539465D
:107DA800187928BF4246FFF751FD0137E3E7013450
:107DB8000A2CD1D14FF0FF34DFE700BF1033002089
:107DC800FCAF05001CB1050038B5084B0125D3F8F8
:107DD800104483F8205404B938BDE3685D71236802
:107DE80020465B689847E3681C68F4E71033002076
:107DF80030B5C38885B004460D4633B1144A0092A5
:107E08001449154A284600F050FF217A05291DD04B
:107E1800637A4BB1A088FFF703FD104B104953F864
:107E28002020284600F041FF227A0E4BA08853F804
:107E3800222003920021FFF7E1FC039A0A49034636
:107E4800284605B0BDE8304000F02FBF05B030BD72
:107E5800F4B20500DCB20500D4B2050064B3050035
:107E68007BCA050088B30500F9B2050007B50346CB
:107E78000846197A052911D05B7A2BB1094A0A49B3
:107E8800019000F012FF01980849019000F00DFFE1
:107E9800019803B05DF804EB00F0FCBE002AF8D0AE
:107EA800F2E700BFF4B205007BCA0500EBC4050089
:107EB8002DE9F04385B01F460C9D002395F80C90E2
:107EC8002B7306460C46904629463846FFF790FF26
:107ED800B8F1060F09D8DFE808F00412181F283394
:107EE80040003146284600F0E0FE00222946384688
:107EF800FFF7BCFF85F80C9005B0BDE8F083226859
:107F08003146284600F0D1FEEFE7D4E90023314698
:107F1800284600F0CAFEE8E7A36800933146D4E992
:107F28000023284600F0C1FEDFE7E3680193A36859
:107F380000933146D4E90023284600F0B6FED4E782
:107F480023690293E3680193A36800933146D4E957
:107F58000023284600F0A9FEC7E763690393236955
:107F68000293E3680193A36800933146D4E90023A0
:107F7800284600F09AFEB8E708292DE9F74F804611
:107F88000E4617461C463DD800251B7B2573214607
:107F980010460193FFF72CFFDFF88CA0DFF88CB0B8
:107FA800AE4232D918F805205946204600F07DFE29
:107FB8000135082DF4D11B49DFF874A0DFF874B03F
:107FC800204600F072FE4FF000094E4524D918F8FB
:107FD80009507E2D1ED828462CF0A0FE002814BF7C
:107FE8002A462E225946204600F05FFE09F1010973
:107FF800B9F1080FE9D1012221463846FFF736FFCB
:10800800019B237303B0BDE8F08F5146204600F072
:108018004CFECDE72E22E5E75146204600F045FE0E
:10802800E4E700BF0DB3050009B3050003B305007D
:108038000BB305000FB305001FB50021039001AA7B
:1080480044F20100CDE901112AF008F805B05DF805
:1080580004FB000070B5EFF3108672B60C4A946802
:1080680001239CB993600B4B0B4DD3F8801029402A
:108078001160C3F88050D3F8841051604FF0FF327C
:10808800C3F88420047006B962B670BD0370FAE7BD
:10809800CC37002000E100E0FC06FFBD084B9A68E1
:1080A80010B55AB150B9EFF3108172B6054A1C6881
:1080B80014605C685460986001B962B610BD00BF76
:1080C800CC37002000E100E0C30710B507D4F02347
:1080D800054A4008145C23401943115410BD090196
:1080E800C9B20F23F4E700BFE837002030B5094BC9
:1080F8001C78094B196800239C4202DC00221046B8
:1081080030BD11F83350854201EBC302F7D001337B
:10811800F2E700BFD83700200838002013B504461E
:108128000191FFF7E3FF38B143682BB1019920466D
:1081380002B0BDE81040184702B010BD034B044818
:1081480019680022490800F0EAB900BFDC370020AE
:10815800482C002010B5C0B2FFF7C8FF04460078CD
:1081680025F098FC63785A1E53425341834208D144
:10817800044BD3E90023134303D1BDE81040FFF7B4
:10818800DDBF10BDE037002037B54308374AD35C60
:10819800C2074CBF1B0903F00F0304460D46042B0E
:1081A80025D8DFE803F003262F3C4000F9B1012170
:1081B800FFF78AFF00230DF107008DF80730FFF75E
:1081C80049FF0120A4F12003C4F12001284A20FA24
:1081D80001F100FA03F30B43A040D2E90041204328
:1081E8000B43C2E900039DF80700FFF757FF03B0F0
:1081F80030BD002918BF0221204603B0BDE8304039
:10820800FFF762BF49B10321FFF75EFF0121204656
:1082180003B0BDE83040FFF781BF0121ECE700293A
:10822800E5D10421E8E709B10321E5E7FFF74CFFB1
:1082380029462046FFF772FF0DF107008DF8075019
:10824800FFF708FF0120A4F12003C4F12001084A28
:1082580020FA01F100FA03F30B43A040D2E90041F0
:1082680024EA000021EA0303BBE700BFE837002047
:10827800E03700202DE9F041124E134F00243378E7
:10828800A34208DC114BD3E90023134318D0BDE8FF
:10829800F041FFF753BF3D6805EBC40815F83400FB
:1082A80025F0F8FB98F801305A1E53425341181A2A
:1082B8004142414115F83400FFF766FF0134DEE71B
:1082C800BDE8F081D837002008380020E0370020CA
:1082D800092AF7B505460C4616463ED925F054FA44
:1082E800E8B11F4B1F481D601F4B204F1C70204BCF
:1082F800002120221E602CF0E4FE1E4B00200021ED
:10830800C3E90001013CE4B20326FF2C0DD11A4A4F
:108318001A48002103B0BDE8F04000F0F5B825F098
:10832800FFF90028DDD003B0F0BD9DF8063015F840
:1083380034008DF8046005EBC40223F007038DF8C0
:10834800063001A993788DF805303A4625F05CFA95
:10835800013CE4B20028D8D0E5E70720E3E700BFF6
:1083680008380020E8370020D83700205D81020057
:10837800DC370020E03700207D820200CCB3050006
:1083880070B5084D084E00242B789C4201D300207C
:1083980070BD3368012113F8340025F0B5FA0134B3
:1083A800F2E700BFD83700200838002010B5D0E920
:1083B8000243D1E90202A04272EB03032CBF012061
:1083C800002010BD08B50A4800F0CBFA094AD2E9E6
:1083D8000031C018084BD3E9002341F10001904255
:1083E80071EB030303D210F1807041F1000108BD65
:1083F800842C0020103800207838002037B5054636
:108408000C460A4801A900F000FB60B10570446001
:1084180001A9064800F023FB18B1054800F0A6FAA8
:10842800002003B030BD0420FBE700BF702C002003
:10843800842C002038B5194B1B78044613B9002545
:10844800284638BD0028FAD090F8203003F0FF0500
:10845800002BF4D0FFF7B6FFD4E90223904271EB6A
:10846800030316D323690BB984F82030D4E9053007
:10847800984721690029E2D094F8203003F0FF05DD
:10848800002BDCD0D4E902325B1842F10002C4E9C7
:1084980002320348214601F0A7FBD1E71838002033
:1084A800E8B3050013B5114B11491868019008236A
:1084B8001048582200F074FA044698B90E4A0F483A
:1084C80001A900F02DF9044660B90C48012100F01B
:1084D8002BFA01230A4A0948194600F08DF9094B7D
:1084E80001221A70204602B010BD00BFE2B3050099
:1084F8001C380020702C002075850200842C002078
:10850800FFFF7F00183800203AB103685A614A1EFD
:10851800514251411961002070470720704738B512
:1085280090F8203004460D4683B98261FFF74AFF70
:108538002369281841F10001C4E9020103B125614A
:1085480021460020BDE83840FFF758BF002038BD5D
:108558000023014680F820300120FFF74FBF0000BC
:10856800014800F0FEB900BF842C00202DE9F34734
:10857800064600F0E1F940B15A4AD2E9003113F158
:10858800807341F10001C2E900310021304600F05A
:10859800E2F938B1544C236823B12068FFF74AFF49
:1085A800002323600121304600F0D5F920B1FFF700
:1085B80009FF4E4BC3E900014D484B4D4D4C4E4F02
:1085C80001A900F05CFA002843D1DFF82881464C65
:1085D800DFF82C91404601F01DFB2368002875D078
:1085E80083B12368D0E90252D3E902138D4272EBBA
:1085F80003032BD2236893F820301BB1216840462F
:1086080001F0F2FA404601F0FFFAD0E9027A054695
:10861800FFF7D8FE381A6AEB010A01287AF100033D
:1086280047DBB0F5350F42D3FFF79AFF334A0244D0
:108638004FF496030021484600F0FEF8002840D188
:10864800236813B9304600F0CFF8256002B0BDE8C2
:10865800F0870378012B1FD0022B09D14FF00008B7
:10866800204601F0D1FA002838D080F82080F7E7BA
:108678004BB9416891F820302BB9012381F820309B
:10868800204601F0B1FA01A9194800F023FA01A91E
:10869800174800F0F4F996E741682B68994202D12F
:1086A80000232B60EFE7204601F0B7FAEBE7AA6852
:1086B800BEE70021484600F044F92846FFF7BAFE15
:1086C80001E00D28F9D00023236083E7002BBDD1FA
:1086D800304602B0BDE8F04700F08AB801233B708D
:1086E800D1E700BF103800208038002078380020FB
:1086F800702C0020E8B3050018380020FFFFB400F4
:10870800842C0020435882B03BB100234350435887
:108718000193019B012002B070471846FBE7000057
:10872800F8B5284B4579284E43F82520274B5F8814
:1087380006EBC5034FEAC50C1B796BB1012F09D9AC
:108748002348244B2449C01AC008000440F0020002
:10875800FFF76AFA0820F8BD03680A88C3F80825F5
:1087680090F904408A780379002CADBF04F1604188
:108778001A4903F00F0E01F561414FEA4212D2B2D5
:10878800B4BF01F80E2081F80023640901221449BE
:1087980003F01F0302FA03F341F8243006EB0C033D
:1087A800022F46F835001A7109D90948094B0D49B5
:1087B800C01AC008000440F00300FFF735FA002093
:1087C800C9E700BF8C38002084380020302B0020F7
:1087D80044B00500FCAF0500F4B3050014ED00E05B
:1087E80000E100E016B40500036801221A60704732
:1087F800036801225A60704773B501F15005AD0056
:108808000068ADB24FF480348C400026C0F80843AD
:10881800C0F84843465101F5A8714559019522F021
:108828007F42019D40F82120C0F844430BB1C0F8B5
:10883800044302B070BD00002DE9F74F0D4622F049
:108848007F4402684FF4803705F150068F40804618
:10885800B60002EB8500C2F84873B6B2C2F80873D6
:10886800D2F8041599464FF0000BD0F84035C0F8FF
:10887800401542F806B05B1A9259009223F07F43E4
:10888800012B009A4FEA850A0CD1264B4FF48060E1
:1088980043F001039847D8F8003043F806B09B59D5
:1088A8000193019BD8F80010D1F80465C1F844730E
:1088B800A31B23F07F43012B1CD11A4B05F5A87588
:1088C800013443F0010341F825404FF48060984794
:1088D800D8F80030D3F804359E4209D1D8F80030D2
:1088E8000020C3F84473C3F8047303B0BDE8F08FE5
:1088F8000D20FAE78A44C9F1FF13CAF84045D1F8B8
:108908000405221A013A22F07F4203F57F4393427D
:10891800EED3002AE2D10134CAF84045D1F8043533
:108928009842DAE730B4050003680222C3F844230A
:1089380009B1C3F80423704700684FF48271FFF748
:10894800E1BE4FF4803303FA01F10368C3F848131A
:10895800C3F80813704750318900006889B2FFF7DF
:10896800D1BE0368D3F804057047000090F90430BD
:1089780001215A0903F01F0301FA03F340320249A7
:1089880041F82230704700BF00E100E0024B034A83
:108998001B681068184700BF8C38002084380020F6
:1089A80010B561B1B2FBF3F403FB1424A4B244B9CB
:1089B800C0E9001484608281C381204610BD0E2066
:1089C800FCE70920FAE782B050E8022FC188B2EB31
:1089D800324F4FF0000317BF92B241EA014142EA19
:1089E800014104E04268B2EB324F08BF012340E87E
:1089F8000212002AE8D18DF807309DF80730002BC5
:108A08000CBF1120002002B0704737B550E8013F75
:108A18009DB2C48925448489A54228BF2D1B048999
:108A2800A54202BFBFF32F8F002207E0C5EA030566
:108A380040E80154002CE9D14FF001028DF80320E1
:108A48000193019A0A609DF8031001F0FF0321B118
:108A5800006810FA82F003B030BD1846FBE70A88B8
:108A68004B889A4209D150E8012FC2EA024240E8F5
:108A78000123002BF7D1012070470020704737B53C
:108A880050E8023F1FFAA3F5C488A54202BFBFF30E
:108A98002F8F00220DE0C48925448489A54228BF70
:108AA8002D1BC3EA054540E80254002CE8D14FF0DD
:108AB80001028DF803200193019A0A609DF80310C2
:108AC80001F0FF0321B1006800EB124003B030BD94
:108AD8001846FBE70A884B889A4209D150E8022FCA
:108AE800C2EA224240E80223002BF7D10120704756
:108AF8000020704701F01F024B090121914000EB53
:108B0800830000F02AB801F01F0301229A404B09A4
:108B180000EB8300D14300F038B84B0901F01F0186
:108B280050F82300C84000F00100704710B5034614
:108B380053E8000F0A4643E8002494F0000FF7D1E9
:108B480010BD10B5034653E8000F40EA010243E8A0
:108B5800002494F0000FF6D110BD10B5034653E879
:108B6800002F42EA010043E8000494F0000FF6D118
:108B780010BD10B5034653E8000F00EA010243E8B0
:108B8800002494F0000FF6D110BD10B5034653E849
:108B9800002F02EA010043E8000494F0000FF6D128
:108BA80010BD10B5034653E8002F02EB010043E85F
:108BB800000494F0000FF6D110BD10B5034653E839
:108BC800002FA2EB010043E8000494F0000FF6D157
:108BD80010BD0121FFF7B5BF0121FFF7BEBF00217E
:108BE800FFF7C7BF0021FFF7D0BF10B590B1D0E99C
:108BF800012301689B1ADBB20A60013BDBB2FF2B41
:108C0800026802D10020107110BD11684C1C14605C
:108C18000B70F2E70E20F7E737B5054600240DF193
:108C280007008DF80740FFF715FA2A686B68116886
:108C380099420ED9481E106011F8013CEC68A98AC7
:108C480001FB0344AB6811791B1ADBB2994238BFA8
:108C580013719DF80700FFF721FA204603B030BDD5
:108C680037B5054600230DF107000C468DF807308F
:108C7800FFF7F0F92A681368591C1160E968641A4B
:108C8800A98AB4FBF1F41C709DF80700FFF706FAF7
:108C980003B030BD826810B504462AB14369016843
:108CA800006998470023A36010BD0EB403B503996B
:108CB80021B104AB01AA019300F076F802B05DF887
:108CC80004EB03B070470A2938B504460D4602D1B3
:108CD8000D21FFF7F8FFA3682268591CA160D5543D
:108CE800D4E901329A4204D32046BDE83840FFF760
:108CF800D1BF38BD2DE9F84F9846DDE90A4315463E
:108D080082460F460A464FF00109AA420FD2C145D2
:108D180038BFC14613F0010B01D16CB900240126FC
:108D2800B8F1010F1BD908F1FF386E43F8E709F1D4
:108D38000109B2FBF5F2E8E79B070ED5B8F1000F81
:108D48000CBF30262026A145E9D2013C31465046C9
:108D5800FFF7B9FF002CF6D1E0E72026F3E7B7FBD1
:108D6800F6F39D42E1D9DFF83C80B7FBF6F35046B5
:108D780018F8031006FB1377FFF7A5FF3346AB423D
:108D8800B6FBF5F6F1D2BBF1000F02D00CB1A1454C
:108D980001D3BDE8F88F20215046013CFFF793FF2F
:108DA800F4E700BF36B405002DE9F74F054617462E
:108DB8008846002900F03E8118F8011B49B92B7B31
:108DC800002B00F03781284603B0BDE8F04FFFF7CD
:108DD80061BF252940F0B780002698F800302D2B78
:108DE800424608F1010823D0302B24D02B2B25D064
:108DF80000242A2B02F1010123D13B681A1D1B68AC
:108E08003A601C440A4613782E2B26D101324FF0C3
:108E1800000A104610F8011BA1F1300CBCF1090F33
:108E28001DD80A2303FB0A13A3F1300A0246F0E710
:108E380046F00106D1E746F00206CEE746F0040602
:108E4800CBE711F8013CA3F130000928DBD80A224E
:108E580002FB0434303C0A46CBE74FF0000A12F814
:108E6800011B01F0FB0068289046F8D0782909D842
:108E78006F290CD8632962D022D8252963D05829B4
:108E880000F0888098F80030002B95D197E770396A
:108E98000829F7D801A353F821F000BF1790020062
:108EA8008D8E02008D8E0200AD8F02008D8E020025
:108EB8008B8F02008D8E02008D8E02009D8F020026
:108EC800642901D06929DDD13A68D2F80090111DD2
:108ED80089EAE9723960A2EBE9724FF0010B092ABD
:108EE80035DCD34538BFD3462CB1B9F1000F01DBCF
:108EF800720700D5013CB30702D5BAF1000F03D0C1
:108F0800F00701D44CBB0024B9F1000F2DDAC9F1E8
:108F180000092D212846FFF7D6FE06F00302022A93
:108F280004D1BAF1000F01D11CBB0024CDE90046E1
:108F380053460A2249462846FFF7DCFEA2E73B686B
:108F48001A1D19783A602846FFF7BDFE9AE70A23EA
:108F58000BF1010BB2FBF3F2C1E7A345D4D22021F8
:108F68002846013CFFF7AFFECCE77107D5D52B218A
:108F7800D0E7A345DAD230212846013CFFF7A3FE0B
:108F8800D2E73968CDE900460A1D3A6053460A22FD
:108F98000968D0E739680A1D3A60CDE900465346AA
:108FA8001022F5E73B681A1D3A6016F00106D3F85F
:108FB800009024D1B9F1000F03D048462CF0FDF8F9
:108FC8000646B4421DD809F1FF3919F8011F0029D6
:108FD8003FF458AF2846FFF776FEF6E728460136F5
:108FE800FFF771FE19F806100029F7D1A642BFF461
:108FF80049AF20212846013CFFF765FEF6E7002629
:10900800F0E720212846013CFFF75DFED9E73B68E1
:109018001A1D3A60302128461C68FFF754FE782153
:109028002846FFF750FE00220823CDE900322146EA
:10903800102280E703B0BDE8F08F00BF13B50B46E0
:10904800114698B9144B5B886BB1144B1448154AF8
:10905800C01A0E23C0080093134B0004134940F0B4
:109068000100FEF7F8FD0E2002B010BD6BB90A4BE7
:109078005B88002BF7D0094B09480D4AC01AC00875
:109088000E2300930004084BE8E703601B6802B056
:10909800BDE81040184700BF782B0020FCAF050042
:1090A800D4B0050046B4050002B605004BB405006F
:1090B8007AB405002DE9F743DDF82880B0B9524BA2
:1090C8005B88002B00F09780504B5148514AC01ADA
:1090D800C0080E24504B00940004504940F0010091
:1090E800FEF7B9FD204603B0BDE8F0836AB9464BE8
:1090F8005B88002B7FD0454B4548494AC01AC008B9
:109108000E24454B00940004E7E7D0F800E0BEF1D8
:10911800000F0DD13C4B5B88002B6ED03B4B3C487D
:10912800404AC01AC00808243B4B00940004D4E706
:109138006BB9354B5B88002B61D0344B34483A4AC5
:10914800C01AC0080924344B00940004C5E74568D8
:10915800D5F80490B3FBF9F509FB15356DB12A4B29
:109168005B88002B4BD0294B2948304AC01AC008CD
:109178000924294B00940004AFE78D070DD0224B3A
:109188005B88002B3DD0214B2148294AC01AC008D2
:109198001024214B009400049FE712F0030F0CD019
:1091A800194B5B886BB3194B1948224AC01AC0087F
:1091B8001024194B009400048FE7C568A9420DD309
:1091C8004D1EEC180569AC4208D8CDF82880DEF8A9
:1091D8000C40A44603B0BDE8F04360470A4B5B88E7
:1091E8007BB10A4B0A48144AC01AC00810240A4B1B
:1091F8000094000471E70E2474E7082472E7092438
:1092080070E710246EE700BF782B0020FCAF050044
:10921800D4B0050046B40500EFB505004BB4050011
:10922800C8B4050074B4050087B40500CEB40500C1
:10923800F8B4050010B5050033B50500F7B5A0B9B9
:10924800374B5B88002B63D0364B3748374AC01AF8
:10925800C0080E24364B00940004364940F0010043
:10926800FEF7F9FC204603B0F0BDD0F800C0BCF111
:10927800000F0DD12A4B5B88002B4BD0294B2A4875
:109288002D4AC01AC0080824294B00940004E4E7BA
:109298006AB9234B5B88002B3ED0224B2248274AD1
:1092A800C01AC0080924224B00940004D5E7456879
:1092B800D5F800E00EF1FF350D420CD0184B5B8855
:1092C80063B3184B18481E4AC01AC0081024184B1C
:1092D80000940004C1E7C568A9420CD34D1E0EFBDB
:1092E80002540569AC4206D8DCF81040A44603B025
:1092F800BDE8F04060470A4B5B887BB1094B0A48E0
:10930800104AC01AC0081024094B00940004A4E7AE
:109318000E24A7E70824A5E70924A3E71024A1E75A
:10932800782B0020FCAF0500D4B0050046B405003A
:10933800DCB505004BB4050074B4050087B405001E
:109348005AB5050080B5050029DF704728DF70474A
:1093580070B503689E6886B004460D466EB1142247
:10936800002168462BF0ADFEA3680593237901958B
:109378002BB1012B0DD06846B04706B070BD012354
:109388008DF8003023690293E368039363690493BB
:10939800F1E702238DF80030E3681B030293F5E739
:1093A8000846704700207047024B187A003818BFEB
:1093B800012070471C390020034B187A0122B0FAAB
:1093C80080F05A74400970471C39002008B51046CF
:1093D8001A462BF04DFE002008BD000008B51422E7
:1093E800002104482BF06DFE0348FFF7ECFA00203B
:1093F80008BD00BF1C3900208C2C002010B5094C7A
:10940800094B43602046FFF7E4FB40B925F01EFCFA
:10941800064920741C2306488C22FFF7C1FA002055
:1094280010BD00BF1C39002024B60500903800206C
:109438008C2C002038B5234D234C2B7A3BB923497B
:109448002348FFF71CFB206008B9686038BD022379
:1094580024682B72237973B1012B24D02046032171
:10946800FFF776FF00232B726B6018491848BDE898
:109478003840FFF72FBBD4E90523D21AB2F5805F35
:10948800D4E9031028BF4FF480529208012A38BF4C
:10949800012219441844FFF757FF50B11128DDD1B4
:1094A80001232B72D2E7D4E903031844FFF74EFFD8
:1094B800F3E72B7C002BC9D1BDE83840022000F02F
:1094C80009B800BF1C390020343900203039002089
:1094D8008C2C002038B5234C237A002B41D0022B4A
:1094E80009D1032830D0204B00221B68E2601A798A
:1094F8003AB1012A22D0637C7BBBBDE83840FFF734
:1095080099BFD3E905128D1AB5F5805F94BF52193A
:1095180002F580529A619142EDD102284FF0000382
:1095280008BF19462372104B18BF0D211868FFF7A2
:109538000FFF0E490E48FFF7CDFADCE71A69013232
:109548001A615B699A42E7E7E3680133082B01D89F
:10955800E360D0E70023E360DFE7BDE8384025F0AB
:1095680065BB38BD1C390020343900203039002053
:109578008C2C0020831E012B01D8FFF7ABBF70474E
:1095880000F0FD03012B08D1044B00225A74421E3F
:10959800504250411874FFF74DBF70471C390020E6
:1095A80010B5064C201DFFF714FB28B9637C1BB9C6
:1095B800BDE81040FFF73EBF10BD00BF1C390020BA
:1095C8002DE9F34180460D46104801A916461F466D
:1095D800FFF71BFA0446B0B11822002104302BF023
:1095E80070FD2D0B0123237101A90848C4F80080E0
:1095F800A760E5606661FFF732FAFFF7D1FF002048
:1096080002B0BDE8F0810420FAE700BF8C2C0020EE
:109618002DE9F34180460F460F4801A916461D461D
:10962800FFF7F3F90446A8B11822002104302BF003
:1096380048FD089BA36001A9C4E903670648C4F86C
:1096480000806561FFF70BFAFFF7AAFF002002B060
:10965800BDE8F0810420FAE78C2C00202DE9F84FB2
:10966800B0F806A04579D2F800B09DF828900AFB1A
:1096780005F5043D88460BEB0301A94203F10404F8
:1096880088BFA5EB030BB4FBFAF607460AFB1644A2
:10969800C2F800B04EB9AAEB04055D4528BF5D4687
:1096A800BBF1000F04D1BDE8F88F3F68013EF1E738
:1096B800043408EB06003C442A46B9F1000F0DD0EB
:1096C8002146ABEB050B2BF0D3FCDA452E443F6863
:1096D80055464FF0000428BF5D46E1E701462046A5
:1096E800EFE7FFF782BAF8B546790146721E0546DC
:1096F800002393422D6803D30024A64202D8F8BD64
:109708000133F6E70F682846FFF7AAFA013439460D
:10971800F3E72DE9F843868ACD1C0746FFF77CFA64
:10972800043E35440446B5FBF6F5F0B14FF48073BA
:10973800EDB28380C680013D076081464FF0000886
:10974800A84512D23846FFF767FA064648B163794A
:109758000133637108F10108C9F800000760814608
:10976800EEE72046FFF7BFFF34462046BDE8F88302
:1097780001210430FFF715BA10B501210446043061
:10978800FFF71BFAC0B220B92046BDE81040FFF72A
:10979800AABF10BD1FB503920022009203AAFFF7CB
:1097A8005DFF05B05DF804FB1FB50392012200922E
:1097B80003AAFFF753FF05B05DF804FB33DF7047DA
:1097C80041DF70470D4A08B5002313700C4A136037
:1097D800BFF35F8F0B490C4800F0F0F90B4A0C48B7
:1097E8000121FEF791FE024630B9BDE8084009485C
:1097F8004FF48041FEF793BE08BD00BF41390020F9
:109808004439002078B60500383900201D99020037
:1098180074B60500A02C002007B500230DF1070041
:109828008DF80730FEF716FCF1EE103A23F09F038F
:10983800E1EE103ABFF35F8F0A4B4022C3F8842150
:109848009DF80700FEF72AFC25F000FA20B103B0C6
:109858005DF804EBFFF7B4BF20BF40BF20BF03B0E3
:109868005DF804FB00E100E070B5244D04460121D9
:109878002846FFF75BF9BFF35F8F38B9042C0AD08D
:109888001F4B1A781AB1BFF35F8F286070BD1D4A4D
:10989800147001221A701C4C1A4E6368BBB9FEF78B
:1098A80093FAFEF737F80028FBD1164B1B78023BDA
:1098B800012B15D8BFF34F8F1449154BCA6802F412
:1098C800E0621343CB60BFF34F8F00BFFDE71B6817
:1098D800307898470028D6D0204600F079F9DCE7A0
:1098E80025F0B4F908B1FFF769FF4FF08043012272
:1098F800C3F80025BFF34F8F20BFFDE74439002090
:1099080041390020403900203839002000ED00E0BE
:109918000400FA05034B1B7813B10420FFF7A4BF1A
:10992800704700BF413900200268136852689342AB
:1099380091BFD01A80680130801888BFC01A70475C
:10994800F8B515460268176816685268964284BFCB
:1099580082680132961B0B46C2684168B5420446CC
:1099680007FB02110BD86A4318462BF081FBA3684A
:109978003D449D4288BF002523681D60F8BD06FB55
:1099880002F73A4618462BF073FBE2686168AD1B94
:109998006A4338442BF06CFBEEE7036881681A6869
:1099A8005B688B4234BF01330023D31A58425841B5
:1099B800704773B5002304460DF107000D468DF876
:1099C8000730FEF747FB2046FFF7E7FF10B1237C7F
:1099D800002B3BD12368A1685E685A688A4234BF6D
:1099E800013200225A6028B11A6891428CBF0132B4
:1099F80000221A60E2686368511E072920D8DFE850
:109A080001F004101F141F1F1F182A789A552046AA
:109A1800FFF78AFF23689A68824200D29860002480
:109A280015E02A8823F81620F1E72A6843F826204B
:109A3800EDE7D5E9000103EBC603C3E90001E6E75A
:109A4800294602FB06302BF013FBE0E704249DF8BF
:109A58000700FEF723FB204602B070BD7FB5054620
:109A680001911446AAB10DF10F0000268DF80F6080
:109A7800FEF7F0FA2846FFF757FFA04201990BD3EB
:109A880022462846FFF75CFF34469DF80F00FEF794
:109A980005FB204604B070BD0524F6E737B505463A
:109AA80000240DF107008DF80740FEF7D3FA2B6864
:109AB8001C609DF807005C609C60FEF7EFFA03B03D
:109AC80030BD13B5002304460DF107008DF80730AB
:109AD800FEF7C0FA2046FFF727FF04469DF8070067
:109AE800FEF7DCFA204602B010BD836800225A60F7
:109AF800C3E904229A60DA601A6070472DE9F041E0
:109B08000646884617461D4683B9B0687368D0E98B
:109B1800031403F1010C0A1B62450ED100243C60BA
:109B280015B3FFF75FF80020BDE8F0818068FFF704
:109B380050F80028E9D01120F6E701EA0302234093
:109B48009A4238BF64443B682CBFACEB0204641AE9
:109B58009C4228BF1C4633683C601344C8F8003058
:109B6800C3681C44C460DEE72846DDE70346806816
:109B78005B68826810B50469013323449B1A8B42E1
:109B880009D31144C0E90211FFF729F8002814BFCE
:109B98000020082010BD0420FCE7806808B5826812
:109BA8000369D21A8A4207D31944C0E90411043060
:109BB800FFF718F8002008BD0420FCE70B684A6886
:109BC8004360934208BF0023016008BF43607047A9
:109BD800436843B10268916852680B4493424360FA
:109BE80004BF00234360704770B5446806460D46BD
:109BF800206818B1B3682946984718B923682B60BC
:109C0800256070BD2468F3E74368186808B10268E6
:109C18001A6070474368186870474368186800B945
:109C28007047884203D102681A60012070470346D2
:109C38000068F4E710B50D49A1F59472914201D876
:109C480000200FE08C1AE30F03EBE4035B1002EB38
:109C5800C30452F83330834205D802D204F1080213
:109C6800ECE7606810BD2146E8E700BF78BB050057
:109C780008B5FFF7DFFF024B002808BF184608BDEC
:109C88003BBA050049B152B1531E1A4007D1826050
:109C980001608380C260104670470E20704709201B
:109CA800704710B58468C2688388121B934208D332
:109CB800C26813400268D154C3680133C3600020EE
:109CC80010BD0420FCE78268C3689A420AD0826803
:109CD800838813400268D35C0B7083680133836008
:109CE8000020704705207047C368836000207047D4
:109CF8000648074A03780749D35C012213B10430A8
:109D080024F028BE0C3024F055BB00BFC82C00201E
:109D1800A83B0020703900200648074A0378074905
:109D2800D35C012213B1043024F0C6BD0C3024F0FA
:109D3800F1BA00BFC82C0020A83B002071390020D0
:109D480037B50578012D0DD0022D30D075B91F49D2
:109D58001F48FFF7B8FF002834D103B0BDE83040F2
:109D6800FFF7DABF037A1BB9FFF7C2FF03B030BDB4
:109D78004368184C19782046FFF793FF80B18DF897
:109D880000500190144B68461B689847A168E36827
:109D9800A2885B1A9A42E7D2104B01221A70E5E7B3
:109DA800A268E3689A42F1D08DF80000EAE7C36838
:109DB8008DF800500193FFF79BFF074B68461B681F
:109DC8009847D3E703238DF80030F6E77139002070
:109DD800603900204C390020483900205C390020C7
:109DE800F0B51F46234B89B004461A600D4600297A
:109DF8003DD08A8820480968FFF744FF002834D1FD
:109E0800AA89A9681D48FFF73DFF00282DD11C4EDF
:109E18000FCE6D460FC596E80F0085E80F00636901
:109E28000693237C174A18488DF81C70003B18BF0E
:109E380001238DF81430637C002B14BF0E230023FC
:109E48008DF81530E3680293A368039323680193A0
:109E580069466368009323F011FB30B90B4B187007
:109E68002368013301D0FFF743FF09B0F0BD072095
:109E7800FBE700BF483900204C390020603900203A
:109E880078BB0500499D0200C82C00205C390020E1
:109E980008B50548FFF728FF20B9BDE80840034882
:109EA800FFF722BF08BD00BF4C39002060390020F1
:109EB80070B5084D014608482E78FFF704FF0446A0
:109EC80036B100232B70FFF713FF08B1FEF7B4F883
:109ED800204670BD5C3900204C39002010B5014681
:109EE8000E48FFF7DEFE0446A8B90D480D4A037870
:109EF800D35C63B1043024F0D3FC60B90A49074845
:109F0800FFF7E1FE38B9BDE81040FFF705BF0C3098
:109F180024F0F4F9F1E7204610BD00BF60390020B5
:109F2800C82C0020A83B00207139002008B507483C
:109F3800074A0378D35C23B1043024F04BFC00209B
:109F480008BD0C3024F086F9F9E700BFC82C0020C2
:109F5800A83B0020F8B50F4B002420220F460D2106
:109F680083F88A201C7083F8784083F88C10224686
:109F78002346054618F008FB064650B121462846F8
:109F880013F06BFA377029460348BDE8F84017F01C
:109F980029BDF8BD72390020C929040073B5002213
:109FA8000C460DF1070311468DF8072012F0A4FBAB
:109FB80038B90A4B9DF8075093F84310024691426E
:109FC80002D86FF01B0005E0DE7BAE4203F10D0303
:109FD80002D1227002B070BD0132F0E77239002060
:109FE80037B5124C054613F017F82378042B08D11F
:109FF800427832B90E48294603B0BDE8304012F025
:10A0080042BF40880DF10701FFF7C8FF58B99DF816
:10A01800073008480D2202FB03442946637D0133BB
:10A02800637517F0DFFC03B030BD00BF7239002044
:10A03800F5A20200BDA402000B4BD3F801202AB9F7
:10A0480083F878201146094812F01DBF8C2A0BBFEF
:10A058000722062283F8782083F8782007BF002299
:10A06800032100220221EEE7723900205D9F0200E1
:10A0780008B50022FF21094817F0A2FF0022FF219E
:10A08800074817F09DFF7522064800212BF019F8A4
:10A09800054B064AC3F8F82B08BD00BF41A00200D3
:10A0A800E9A0020072390020B887002071A60200DA
:10A0B80010B50022084C0948114617F081FF94F8A2
:10A0C800440004F0D1FD00232022237084F88A2064
:10A0D80084F8783010BD00BF72390020E9A0020072
:10A0E80010B5044620B9BDE81040084812F0A6BED5
:10A0F800FFF7DEFF00230C2120461A4618F044FA29
:10A1080021460348BDE8104017F06CBCE9A00200E6
:10A11800C929040008B50022FE21054817F050FFA0
:10A12800BDE8084003480022012112F0ACBE00BF80
:10A1380041A002005D9F020070B50C4BD3F845307A
:10A148002BB11D7CD3F811200023AB4201DB00208A
:10A1580070BDC3EB03141619145B844202D1347A20
:10A168008C4201D10133F0E70120F1E77239002078
:10A178002DE9F04F5A4F89B004460E46E07912F0A7
:10A188004BFF90F80BA090F80C808346D044D4F88D
:10A198000950454580F08E802B1D0BEB4303AA45E3
:10A1A80094BF02210121B3F805904846FFF7C4FF88
:10A1B800002800F086801C21304613F0C1F8D7F83B
:10A1C80009300546002B50D0217806A811F01AFF57
:10A1D800A279D7F809B022444B46527806A9022042
:10A1E800D847002841D16FF04402D4F80930984587
:10A1F8006FD13B4F97F84A30002B66D0B7F87520DF
:10A208004FF6FF739A4260D00025217806A811F016
:10A218003BFF2B462A4601210095304602F022FEDC
:10A22800B7F8751017F0CFFA01464FF4827301F8AA
:10A23800015B0422CDE9023297F844300193A379F7
:10A248000495234406AA5B7800933046022302F063
:10A2580091FDA379E17923480133A37117F0C2FB7B
:10A268000023E37109B0BDE8F08F1C2200212846C5
:10A278002AF027FF284618F03DFB97F844302B7248
:10A28800A5F80A90B7F875304FF6FF7299B2914267
:10A2980012D1217805F10D0011F0B4FE03232B73C0
:10A2A800A379234430465B786B750F4B2672AB61FC
:10A2B80007F062FE002298E701222A73A5F80D3004
:10A2C800EEE70135C4F8095061E7304612F044FE64
:10A2D800BFE7002AC6D00133C4F809304EE700BFF3
:10A2E80072390020BDA4020091A302002DE9F341B8
:10A2F8005FFA81F8064640460D4612F08DFE204C66
:10A30800C1880746D4F8450002F0D1F803460DF19C
:10A3180007017888ABB1FFF741FE30BB9DF80730E5
:10A328000D2101FB0345314628766876A876E87644
:10A33800284685F816800F30FFF71AFF02B0BDE8EF
:10A34800F081FFF72BFE074678B99DF807000D232B
:10A3580003FB00444146637D0A480133637517F0E7
:10A3680041FB002EEAD03D4600E016B1304612F01F
:10A37800F3FD002DE2D0E8B212F0EEFDDEE700BFFB
:10A3880072390020BDA402002DE9FF471C21804638
:10A3980012F0D6FF2F4B93F84320814600251C4628
:10A3A800954215D32C4B1B687BB927F03DFE01461F
:10A3B80058B904230093CDF804804FF4BA7340F2DF
:10A3C8005B324FF0FF3018F08FF804B0BDE8F0872B
:10A3D800D97D414503F10D0311D10D2303FB05433D
:10A3E8000027DF75404613F031F8064648B16FF094
:10A3F80073036370A770E7702771012608E00135C1
:10A40800CEE701236070A070E070207184F84A30B4
:10A418000D2707FB054702A8F97B11F0F3FDD4F8D7
:10A4280009A0BAF1000F07D07B7D1F4402A9B9F833
:10A438000A303A7C30B2D0470D20454362190F35B7
:10A448009369414601336019936104B0BDE8F04750
:10A45800FFF78EBE723900203496002070B50E4684
:10A4680005460146304612F0F8FF8C2D0F4C03D1FB
:10A47800072384F8783002E0B5B984F87850237857
:10A48800052B06D194F8782000230C21304618F0CB
:10A498007BF800232370202384F88A30314604484F
:10A4A800BDE8704017F09EBA0623E2E77239002033
:10A4B800C92904002DE9F341054612F0ADFD0DF15F
:10A4C80005014088FFF76AFD0746002848D19DF836
:10A4D8000530264C0D2202FB0346717D307D8842F3
:10A4E80020D93144284691F81080032112F0E6FD66
:10A4F800078087700446F17B0DF1060011F0C4FD5A
:10A50800BDF806301A49238084F8028028461BF0DB
:10A5180075F9FF2803D129468A20FFF79FFF02B06B
:10A52800BDE8F081FF21022BF1730BD803FB022059
:10A5380000F10F01C3F1030302305A4321442044C0
:10A548002AF0A2FC94F84330013BDBB284F8433094
:10A5580033B9D4F801208C2A08BF072384F878304F
:10A56800002DDCD0284612F0F7FCD8E7723900201D
:10A57800E99F02002DE9FF47384C074612F04CFDD1
:10A5880094F800A0BAF1040F05465ED140880DF199
:10A598000D01FFF703FD814600285CD19DF80D8071
:10A5A8000D2606FB08460DF10E00F17B11F06CFD3F
:10A5B8002B793375042B86F815902AD9DFF8A490E7
:10A5C800D9F8003003BB27F02FFD014650B9337D81
:10A5D80040F25B32CDE900A34FF0FF3040F2B333D5
:10A5E80017F082FFD9F8003073B927F01DFD014636
:10A5F80050B90423CDE9003340F25B3240F2B53361
:10A608004FF0FF3017F070FF0D2303FB08430422BF
:10A618001A750D2202FB084302FB0844197D2B1D05
:10A62800C5F1FF2505F57F051034FC35EA18914280
:10A6380006D80B48394617F0D5F904B0BDE8F087BD
:10A6480013F8012F04F8012BF0E76FF007003946E3
:10A65800FFF704FFF1E70020F9E700BF7239002097
:10A66800BDA40200349600202DE9F047604D2B78F8
:10A67800042B86B0064640F0B680D5F801301C336E
:10A6880004D100236B70AB70EB702B711B2130462B
:10A6980012F056FEB0F8017090F80BA004A93846E5
:10A6A80012F056F8044620B9524B93F8343E9B06F4
:10A6B80014D50621304612F043FE00234780078058
:10A6C80083804D4930461AF099FFFF2803D131465F
:10A6D8008A20FFF7C3FE06B0BDE8F087FF238DF898
:10A6E8000E302B78042B11D10DF10E013846FFF7EF
:10A6F80055FC70B195F84330032B04D88DF80E3013
:10A70800013385F843304FF0010903E06FF0070487
:10A71800F9E7A1469DF80E80B8F1FF0F46D0B9F1D0
:10A72800000F41D000220DF10F031146384611F0F9
:10A73800E3FF0446002839D10D2303FB08539DF895
:10A748000F20DA73187558750D2404FB0854237DFF
:10A75800032B2ED8E218013382F810A02375B9F123
:10A76800000F3CD00521304612F0A8FC00230360FE
:10A7780003710D2303FB085547802B7D03711F4B85
:10A788001B6863B927F050FC014640B900904FF4AC
:10A798005F7340F25B324FF0FF3017F0A5FE314691
:10A7A800174817F01FF996E7002CCDD0314620B294
:10A7B8008FE7124B1B68002BD1D127F035FC0146DF
:10A7C8000028CCD1237D01930423009340F25B320F
:10A7D80040F271334FF0FF3017F086FEBFE7304686
:10A7E80012F0BAFB77E706B0BDE8F04712F0B4BB49
:10A7F80072390020B8870020A1A8020034960020F2
:10A80800BDA4020073B50D460446FF260DF10601EE
:10A8180028468DF80660FFF7C1FB78B31C4A92F80A
:10A828004330032B04D88DF80630013382F84330C7
:10A838009DF80660FF2E24D000220DF10703114673
:10A8480028468DF8072011F057FFD0B9104B0D227C
:10A8580002FB06339DF80720DA730221204612F026
:10A868002DFC0C49058020461AF0E1FFFF2803D192
:10A8780021468A20FFF7F2FD02B070BD8DF8066010
:10A88800D6E7002CF8D0204612F066FBF4E700BFAC
:10A89800723900207DA5020037B5044612F0BCFBD2
:10A8A8000546204612F0D2FD024658B969890DF1D5
:10A8B8000703A81C12F046F869892046FFF7A2FF93
:10A8C80003B030BD204603B0BDE8304012F044BBB1
:10A8D800024B93F88D00C0F3800070477239002056
:10A8E800431E584258417047024B93F84405C0F341
:10A8F80080007047B8870020014B93F889007047A3
:10A908007239002010B5494204460AB200233521A5
:10A9180017F03AFE21460248BDE8104017F062B829
:10A92800C929040073B5284C284D294BC4F8583C54
:10A93800064615F02DFCB5F850104FF6FF730022AF
:10A948009942C4F8582C04F2523336D005F152001B
:10A9580011F0F8FF002394F85203019301AA012192
:10A968000FF0D8FC20B9019A517860F38401517036
:10A97800B4F83C13174801AB012211F0E3FF95F836
:10A988004F3084F8B43295F86D3094F8D826003BEF
:10A9980018BF012363F3000294F84C3584F8D826D5
:10A9A80043F0010384F84C3516F08AFC0A49304616
:10A9B80002B0BDE870400DF0DFBC114605F1520051
:10A9C80011F072FFC6E700BFB88700207239002077
:10A9D800E9A80200F88A0020E5A9020010B5064B94
:10A9E800044693F8490308B91CF0E8FC2046BDE882
:10A9F800104012F0B1BA00BFB887002030B5564CED
:10AA080094F88A30082B85B0054608D8082B0CD84E
:10AA1800DFE803F020272A0B2D0B0B0B3000402B0F
:10AA28001FD0802B29D0202B2AD04C4B1B687BB9F8
:10AA380027F0FAFA014658B994F8773001930423BD
:10AA480000933E224FF409734FF0FF3017F04CFD8E
:10AA580005B030BD0146424805B0BDE8304016F0AB
:10AA6800C1BF40482946F7E701463F48F4E7014699
:10AA78003E48F1E701463E48EEE701463D48EBE730
:10AA880094F84D30192B62D194F87830012B08D105
:10AA980094F88D30002262F3000384F8782084F85B
:10AAA8008D302E4B1B6893B927F0BEFA78B994F80D
:10AAB8007830029394F88C300193082300933E2257
:10AAC8004FF4FD7301214FF0FF3017F00DFD94F89E
:10AAD8008D3094F8782094F88C106FF3C3030D2A06
:10AAE80084F88D304FF000032CD16FF048022846CF
:10AAF80017F022FD2048294616F074FF94F88D308F
:10AB08009B070FD594F88C30062B0BD194F878104E
:10AB18001A48002212F0B7F994F88D306FF3410308
:10AB280084F88D3094F87830002B91D194F88C30DB
:10AB38005A1F012A01D90A2B8AD105B0BDE8304035
:10AB480007F025B85242284617F01EFDD2E705B097
:10AB5800BDE8304012F000BA723900203496002067
:10AB68003DB5020011B1020059BA0200C9B0020095
:10AB78001DB0020011AD0200C92904000DA9020090
:10AB880010B50421044612F0DBFB6FF003030370D9
:10AB98004FF0FF334370B42383700123C37003491C
:10ABA8002046BDE810401BF015BC00BFEDB1020007
:10ABB80030B50D4685B0044630B902460D4805B09B
:10ABC800BDE8304012F05FB901A813F02DF807F086
:10ABD80049F9014601A813F018F802A817F090FEE9
:10ABE8002B1E18BF012301AA02A9204618F0A0FCB9
:10ABF80005B030BDB9AB020073B5044628B9124898
:10AC080002B0BDE8704012F019B9104DB5F87000E7
:10AC180001300026A5F8700001A980B2019606F05F
:10AC2800FFF801210330204604BF85F8706085F8DD
:10AC3800716012F085FB01230370019A04482146D4
:10AC480016F0F6FF02B070BD01AC020072390020A8
:10AC58004145040007B500236846CDE9003317F0E5
:10AC68004FFE0B49082268462AF0D4F828B1002084
:10AC780000F0010003B05DF804FB17F0B5FF0028F1
:10AC8800F5D117F0B9FF80F00100C0B2F0E700BFBE
:10AC9800DCBB0500F8B5134D95F88A6016F0DF06A1
:10ACA8001BD195F87830012B19D085F8770085F8F5
:10ACB8008A6017F091FF0127044620B917F064FE57
:10ACC8003C462046F8BD084885F8787085F88A60C3
:10ACD80085F84D7012F0B2F8F3E70024F1E7344636
:10ACE800EFE700BF7239002005AA0200044B83F881
:10ACF8004D00044809B116F075BE12F09FB800BFA8
:10AD08007239002005AA0200F0B5AC4C94F84D60E9
:10AD1800A6F1130387B005460C2B00F22581DFE866
:10AD280013F00D0072007200720072001D01230101
:10AD380023011201B300B3001601B30006F0B2F903
:10AD480006F0F6F894F872709D4E7FBB96F8D836E8
:10AD580003F0010384F86D3010F098F996F8522347
:10AD680084F84F004FF0FF33FF2A84F8503084F8FE
:10AD780051301BD09348049703A9ADF80C3011F05B
:10AD880007F996F8520304AA39460FF0C3FA68B9CE
:10AD9800049B8D4A03F1100153F8040B42F8040B8D
:10ADA8008B42F9D1198811809B78937002218748CA
:10ADB8001CF076FE94F84E30003818BF012060F37E
:10ADC800410384F84E300CF077FB94F84E3096F837
:10ADD80049237F4803F0010313430CBF14261726A9
:10ADE80084F84D6012F02AF8002314211A462846E8
:10ADF80084F8736017F0C8FB7648294607B0BDE8A9
:10AE0800F04016F0EFBDA6F11403142EDBB22AD0E1
:10AE1800A6F117014E424E41012B374625D803A80B
:10AE280012F002FF664B93F84C23134403A893F8DF
:10AE38004B2393F84A1312F091FE36B1604A92F808
:10AE4800D83643F0010382F8D83694F84D3084F8A8
:10AE580073307EB906F0A8FF60B129461D20FFF7C0
:10AE680045FF07B0F0BD0126D6E75B4903A812F0FD
:10AE780071FCE2E704A817F043FD3B4603AA04A9C6
:10AE8800284618F055FBECE794F87330143B032B75
:10AE980006D8DFE803F002080E43152384F874305F
:10AEA8004E482946AAE794F84E309A0701D516234A
:10AEB800F4E7434B93F8493373B3152384F874309C
:10AEC800002304933E4B93F8496366B301F0E8FF0F
:10AED80090F89A3223BB01F0E3FFB0F8A26201F0C8
:10AEE800DFFFB0F8A40216F031FC3044422670436C
:10AEF800049094F872301BB93948294616F072FD4F
:10AF080094F84E30049A354843F00403002184F83D
:10AF18004E3016F08DFEA4E71723CFE71323CDE7B5
:10AF2800304B0493E5E7B4F870000130A4F87000E2
:10AF380004A980B205F074FF033004BF84F8706080
:10AF480084F87160D5E794F84E305B0789D42946B8
:10AF5800182007B0BDE8F040FFF7C8BE202301461F
:10AF680084F88A301920F4E71F4E3368EBB927F0CC
:10AF78005BF8014658B994F84D30019304230093C7
:10AF88003E224FF4F1634FF0FF3017F0ADFA33680B
:10AF98005BB927F049F8014638B9009040F28A7346
:10AFA8003E224FF0FF3017F09FFA002D3FF459AFC3
:10AFB800284607B0BDE8F04011F0CEBF7239002036
:10AFC800B8870020C4390020CC390020F88A002036
:10AFD80005AA0200C9290400848C0020F5AF0200EC
:10AFE8002DA902000003570034960020014610B92D
:10AFF800064811F023BF064B93F84E2093F87400CF
:10B008006FF3820283F84E20FFF770BEF5AF02009F
:10B018007239002073B5284D95F84D30122B04462F
:10B028000AD01C2B0ED0112B1DD10146122002B0C4
:10B03800BDE87040FFF75ABE2023014685F88A30E4
:10B048001920F4E72B78042B03D0052B06D002B087
:10B0580070BD02B0BDE87040FFF75CB802B0BDE853
:10B068007040FFF725B8154E3368EBB926F0DCFFC2
:10B07800014658B995F84D300193042300933E22B8
:10B0880040F2EA534FF0FF3017F02EFA33685BB9FD
:10B0980026F0CAFF014638B9009040F2EC533E2230
:10B0A8004FF0FF3017F020FA002CD0D0204602B025
:10B0B800BDE8704011F050BF72390020349600206E
:10B0C800104B93F84D200F2A01460FD01A2A16D09C
:10B0D80093F87820012A17BF2022082283F88A20B3
:10B0E800192004BF83F88A20112009E093F87720FB
:10B0F800500704D5042A04BF0B2283F88C201020A3
:10B10800FFF7F4BD7239002013B5184C94F84D3090
:10B11800052B014616D0092B1AD0154B1B687BB995
:10B1280026F082FF014658B994F84D300193042364
:10B1380000933E2240F29B334FF0FF3017F0D4F9D2
:10B1480002B010BD092002B0BDE81040FFF7CEBD27
:10B1580094F87830012B17BF2023022384F88A3013
:10B16800192004BF84F88A300A20ECE772390020DD
:10B178003496002038B50E4D032385F878300D4BF2
:10B1880093F8353EDB0604460BD517F025FD40B194
:10B19800202385F88A3021461920BDE83840FFF77A
:10B1A800A5BD002220461146BDE8384019F0FDBA79
:10B1B80072390020B8870020084B0A2283F87820CB
:10B1C800074B93F8352E12F01002014602D00E20DC
:10B1D800FFF78CBD114619F0E8BA00BF723900209C
:10B1E800B887002010B5044612F030F918B1064BA4
:10B1F800092283F878202CB121460E20BDE81040A2
:10B20800FFF774BD10BD00BF723900200B4602461F
:10B2180010B90D4811F037BEDBB20C49581E434235
:10B22800434191F84E0063F30000002381F8703029
:10B2380081F87130802381F84E0081F88A3013201C
:10B248001146FFF753BD00BF15B202007239002046
:10B2580030B5431E85B005460C460D2B00F2CC8058
:10B26800DFE803F0072127333557595B5D5F7B9D86
:10B27800A3AE6B4B6B4893F88B20012161F302025C
:10B2880083F88B20002283F8781083F8812083F8D4
:10B29800822083F8832083F88420214605B0BDE806
:10B2A800304016F09FBB0B2005B0BDE83040FFF7DB
:10B2B8001DBD5D4B93F818392BB1084611F04CFEB3
:10B2C8005A480021EAE71D20EEE71F20ECE7084670
:10B2D80011F042FE19F08CF900286FD118F0DEF851
:10B2E8004F4A92F88D30022043F0010382F88D30E6
:10B2F800FFF7D0FC4C4B93F84933002B5ED105F097
:10B308007BFD00285AD04A4805B0BDE8304011F00E
:10B3180095BD1E20C8E71B20C6E70D20C4E70C20FA
:10B32800C2E73F4B93F88A20202A09D093F8782067
:10B33800032A0DD01C223F4883F84D2011F07EFDD2
:10B34800002C3BD0204605B0BDE8304011F004BECB
:10B358000021364816F046FBF2E706F025FD0028E6
:10B36800EED1314D95F844351A07E9D595F855359C
:10B378005B07E5D43049082205F59B6029F04AFDB2
:10B3880018B900201CF04AFDDAE7022105F59B6098
:10B398001CF042FC4FF6FF739842D1D1F1E7084602
:10B3A80005B0BDE830400BF04BBB02A817F0A8FA77
:10B3B800224A002302A9204618F0BAF805B030BD89
:10B3C800012019F013FB0121204611F0B9FF0423D5
:10B3D800037021461A4816F005FB134B93F84943AE
:10B3E800002CEBD105F008FD0028E7D00C4B83F8C2
:10B3F800704083F87140E1E7124B1B68002B9FD126
:10B4080026F012FE014600289AD1042300930195E4
:10B4180040F61F133E224FF0FF3017F065F88FE714
:10B428007239002019B70200B8870020AD30040037
:10B4380001AC020005AA0200DCBB0500848C0020D8
:10B44800414504003496002007B50B480DF107026A
:10B45800FF2116F0B5FD9DF8070048B16FF04801CF
:10B4680011F0FBFF0B209DF80710FFF73FFC0120B0
:10B4780003B05DF804FB00BF3570030037B5042145
:10B48800054611F05DFF046814F1230F10D014B1C4
:10B4980014F1450F14D1002322463721284617F00E
:10B4A8004BF81148294603B0BDE8304016F09ABA67
:10B4B800FFF7CAFF002814BF00246FF01404EAE75E
:10B4C8000A4B1B68002BE6D126F0AEFD014600288A
:10B4D800E1D104230093019440F6D5233E224FF096
:10B4E800FF3017F001F8D6E79506050034960020DE
:10B4F80013B500236846CDE9003317F001FA0C496B
:10B508000822684629F086FC044610B117F06CFB47
:10B51800044606F07FFC142803D804F0010002B0AA
:10B5280010BD002CF9D017F067FB0446F5E700BF03
:10B53800DCBB050037B54B4C94F84D30013B054654
:10B548001E2B79D8DFE803F010363D7278787878CA
:10B5580078788B7878787878787878787878787850
:10B568007816166E4F594F00FFF7C2FF48B117F013
:10B5780033FB30B12946042003B0BDE83040FFF763
:10B58800B5BB94F88B303848012262F3020384F883
:10B598008B302946002384F8782084F8813084F899
:10B5A800823084F8833084F8843003B0BDE83040BA
:10B5B80016F018BA0121284603B0BDE83040FFF75D
:10B5C800F7BA94F88C30062B02BF94F88D3043F00C
:10B5D800020384F88D3094F88D3043F0040384F826
:10B5E8008D300021E7E7032384F8783094F88D3014
:10B5F8006FF3820384F88D30BCE71C4B93F8493312
:10B608004BB905F0F9FB30B1B4F870201AB91848F5
:10B61800FF2116F0D5FC17F007FB0028E6D10BF048
:10B628004BFFE3E7052384F88C30A3E701230146A9
:10B6380084F88A3005209FE70E4B1B687BB926F0FB
:10B64800F3FC014658B994F84D3001930423009354
:10B658003E2240F2BE234FF0FF3016F045FF03B004
:10B6680030BD00BF7239002019B70200B88700202A
:10B678004145040034960020F0B5002389B0CDE997
:10B6880006330FF003FD06A817F03AF9FFF730FF6D
:10B69800054608B119F082F806F0EAFB012807D040
:10B6A800184CD4F879301BB906F0C8FBC4F87900F7
:10B6B800154B1B681BBB26F0B7FC00BB0FF0E6FC64
:10B6C80012490822064606A829F0A4FB044617F0EA
:10B6D8008BFA074617F090FA003C4FF0140318BF96
:10B6E8000124CDE904700093CDE9025401964FF48A
:10B6F800AD733E2201214FF0FF3016F0F5FE09B080
:10B70800F0BD00BF7239002034960020DCBB050074
:10B7180030B585B00023044602A8CDE9023317F0FE
:10B72800EFF8FFF7A9FFFFF7E3FE60B1214602201B
:10B73800FFF7DCFA304B0C2283F87720062283F8D7
:10B748008C2005B030BDFFF785FA2C4DC0B12B68B1
:10B758005BB926F069FC014638B9009040F29513B0
:10B768003E224FF0FF3016F0BFFE234B052283F830
:10B778008C20002CE5D021460420FFF7B7FAE0E73B
:10B7880008221F490DEB020029F044FBF8B106F02E
:10B7980041FB142813D82B685BB926F045FC0146F9
:10B7A80038B9009040F29D133E224FF0FF3016F05A
:10B7B8009BFE21460320FFF799FA0F4BBEE706F0E0
:10B7C80029FB142803D917F017FA0028E3D12B68AE
:10B7D8005BB926F029FC014638B900904FF4D373C1
:10B7E8003E224FF0FF3016F07FFE00221146204621
:10B7F80018F0DBFFA5E700BF72390020349600205F
:10B80800DCBB050070B50821054611F099FD0B4E0B
:10B818000023036043600446D6F8811012F0F5F95E
:10B8280096F889302371064B064893F8242983F843
:10B8380021292946BDE8704016F0D4B87239002095
:10B84800B88700203570030013B52D4C94F88B3061
:10B8580003F00702012A014635D1D4F8790098B3DC
:10B868006FF30203019184F88B3084F8782017F085
:10B8780077FF0199B8B1234B93F86528012A12D1B3
:10B88800D4F8810078B993F84C03034494F88B00FA
:10B8980093F84B3362F3020002FA03F3C4F88130E1
:10B8A80084F88B001BB9D4F87930C4F88130084685
:10B8B800FFF7A8FFD4F881201348002102B0BDE8A3
:10B8C800104011F05ABF6AB9D4F87D3053B194F8DA
:10B8D8008B20032060F3020284F88B20012284F875
:10B8E8007820E2E7032384F8783094F88B3001223B
:10B8F80062F302030E2084F88B30FFF7F7F9D9E7DB
:10B9080072390020B8870020848C002008B5214BAC
:10B918004FF0FF3183F8751083F876100E2183F805
:10B9280077106FF04B01002283F885100120052164
:10B9380083F88A2083F8782083F8862083F8872084
:10B9480083F8882083F87D2083F87E2083F87F2081
:10B9580083F8802083F8792083F87A2083F87B2085
:10B9680083F87C2083F8891006F0F8F9FEF780FB4D
:10B97800094B0A4AC3F8C024094AC3F82829094AC6
:10B98800C3F83829084AC3F83029084AC3F82C29CB
:10B9980008BD00BF72390020B887002085B40200B6
:10B9A80059B20200D9A8020001A90200F1A80200B8
:10B9B80007B50190FFF7AAFF0198012103B05DF8D0
:10B9C80004EB16F073BF0000014BC3F87900704711
:10B9D80072390020014BC3F87D007047723900208E
:10B9E80008B5FFF785FD80F00100C0B208BD000072
:10B9F80007B5019017F018F9019928B1084603B066
:10BA08005DF804EB11F0A8BA019117F0E5F8019977
:10BA180028B10D4803B05DF804EB15F0E3BF0191C0
:10BA2800FFF7DEFF019948B9084B03220E2083F87F
:10BA3800782003B05DF804EBFFF758B9084603B067
:10BA48005DF804EBFFF700BF89AB020072390020F4
:10BA58001FB53E4C94F84D300A3B0146152B60D873
:10BA6800DFE803F00B263A585A5F5F5F5F5F5F5F5E
:10BA78005F5F5F5F5F3F51323F3494F877309A07DA
:10BA88000BD5022B04BF0A2384F88C3094F88D3030
:10BA98001B0708D50D2384F878300E2004B0BDE8C4
:10BAA8001040FFF723B904B0BDE81040FFF7A0BF6E
:10BAB800039011F0CBFC49300399EBD094F878301F
:10BAC800012B01D10A20E9E70323E4E7204804B069
:10BAD800BDE8104015F086BF0A231E4884F8783068
:10BAE800F5E7039017F0A0F8039930B9012384F81B
:10BAF80078300BF0E1FC0399E4E7084604B0BDE8B0
:10BB0800104011F029BA94F87830032BC5D11248A7
:10BB18000021DCE70390E9E7042384F88A300F204A
:10BB2800BCE70E4B1B687BB926F07EFA014658B974
:10BB380094F84D300193042300933E2240F2595368
:10BB48004FF0FF3016F0D0FC04B010BD7239002061
:10BB58007DB10200C1B10200AD300400349600206E
:10BB68002DE9F743DDF828801F4605468946164625
:10BB780001F096F9D0F8B030EBB101F091F9CDF8B9
:10BB88000080D0F8B0403B46324649462846A04798
:10BB9800044629464A46304603F0D0FA14F1450FC8
:10BBA80005460CD150B14246314638462B4603B0C3
:10BBB800BDE8F04318476FF04404EAE7044620461E
:10BBC80003B0BDE8F0832DE9F041069F05461E4607
:10BBD80003F0CAFA044630B13A46314628462346AD
:10BBE800BDE8F0411847BDE8F081B0F80F30B3F573
:10BBF800A06F01D102F0A6BD704700207047F0B5D4
:10BC08001B2189B0054611F09BFB01AA034600F1F0
:10BC18001807164618685968144603C40833BB4207
:10BC28002246F7D119889B78A370218001F038F952
:10BC3800D0F8AC704FB101F033F9D0F8AC309DF8C2
:10BC4800100098476FF01E0017E001F029F9D0F8AE
:10BC58009C30002BF6D03421284611F071FB1D23AF
:10BC680003709DF8103043704760044601F018F9DE
:10BC7800D0F89C3028469847606801F065F931464D
:10BC88000246284603F00BFB09B0F0BDFF2810B5AB
:10BC9800044606D101F004F9084BC0F858320120D7
:10BCA80010BD1B2111F04CFBC37C23B9214604486D
:10BCB80015F098FEF3E70020F2E700BFDC2C002027
:10BCC80007BC020007B5054B00930023044A012175
:10BCD800184603F095F803B05DF804FB95BC020024
:10BCE80003BC0200F8B50C46154607461E4600F090
:10BCF800CBFA0122002100F004FC90B112230122AA
:10BD08000021384601F0F5FE58B14368187840B96B
:10BD18001EB1052C05D90B2C02D1032D01D0002012
:10BD2800F8BD0120FCE7000037B5014604460022B3
:10BD38000F4811F0A8F80546B8B10E4B1B6873B947
:10BD480026F072F9014650B90423009301954FF487
:10BD58009F6340F60F024FF0FF3016F0C5FB2046F8
:10BD680003B0BDE8304011F0F7B803B030BD00BFF4
:10BD78001DC8020034960020144AD2F8443913B57D
:10BD88001BB1D2F8483923B9012302EB8303C3F866
:10BD98004409D2F84039BBB9C2F840090C4811F03F
:10BDA8004DF8044680B10B4B1B686BB926F03CF983
:10BDB800014648B90423009301947D2340F60F02FD
:10BDC8004FF0FF3016F090FB02B010BDB88700208E
:10BDD800DDC8020034960020F8B5124BD3F8E839D4
:10BDE80004460BB1007898470F4E2378337000252E
:10BDF800237C9D4202D3FF233370F8BDD4F8113061
:10BE0800C5EB05173B44D3F80B3003B19847D4F87A
:10BE18001120B4F8011020783A4404F0D9FC013517
:10BE2800E6E700BFB8870020EC2C00202DE9F04F92
:10BE3800474B8FB0D3F84039069393F800C00023DE
:10BE48005FFA83FEF44540F281809A000D92069ACB
:10BE5800D2F8012052F823B002EB83019BF810209E
:10BE68000A920991002219E00131C8B2C0EB001111
:10BE7800DDF824800C91C2EB02160B90714658F83D
:10BE8800040B0590007C0890DDE90B05089C8442B2
:10BE98000AD80131C9B28C45F1D101320A98D1B220
:10BEA8008842E1D80133CBE7DBF81140A71907979F
:10BEB800059FA45BD7F8119009EB050A39F805909E
:10BEC800A1453DD1079F9AF808A097F80890D14559
:10BED80036D1042C12D0192C10D0202C0ED040F2C0
:10BEE8000B77BC420AD040F20127BC4206D0B4F519
:10BEF800006F03D04FF65747BC4221D1154B1B6842
:10BF080013BB26F091F80546F0B9114B0D9AD3F8FA
:10BF18004039D3F801309B58D3F811301E440146FC
:10BF2800337ACDE901430823009340F60F02D12369
:10BF38004FF0FF3016F0D8FA28460FB0BDE8F08F62
:10BF48000130C0B20F35A1E70025F5E70125F3E779
:10BF5800B8870020349600204A2800F297800728E6
:10BF680005D84FF0FF3000E01020C0B27047A0F1B4
:10BF78000803422BF5D801A252F823F091C0020021
:10BF8800F9C0020001C10200FDC0020005C10200A3
:10BF980043C1020009C102000DC1020091C00200A4
:10BFA8006BBF02006BBF02006BBF02006BBF0200D9
:10BFB8006BBF02006BBF02006BBF020091C00200A2
:10BFC800F9C0020001C10200FDC0020005C1020063
:10BFD80043C1020009C102000DC1020091C0020064
:10BFE800F9C0020001C10200FDC0020005C1020043
:10BFF80043C1020009C102000DC1020091C0020044
:10C00800F9C0020001C10200FDC0020005C1020022
:10C0180043C1020009C102000DC1020091C0020023
:10C02800F9C002006BBF02006BBF02006BBF0200C9
:10C038006BBF02006BBF02006BBF0200F9C00200B9
:10C04800FDC002000DC102006BBF02006BBF020001
:10C058006BBF02006BBF02006BBF02006BBF020028
:10C0680011C1020011C1020025C102006BBF02000C
:10C078006BBF02006BBF02006BBF020025C102004C
:10C088006BBF020025C1020001206EE700F120030A
:10C09800DBB2112B3FF665AFE03811283FF661AFF0
:10C0A80001A353F820F000BFFDC00200FDC002004C
:10C0B800FDC002006BBF02006BBF02006BBF020035
:10C0C8006BBF02006BBF0200F9C00200F9C002009A
:10C0D800FDC002006BBF02006BBF02006BBF020015
:10C0E8006BBF02006BBF02000DC1020071BF0200EE
:10C0F80002203AE7042038E7032036E7052034E732
:10C10800072032E7082030E700293FF42AAF0878F3
:10C11800FF283FF426AF0130C0B226E748280B8835
:10C1280001D0432806D14FF6FF7293423FF419AF6E
:10C13800981C1AE7980083B2FAE7062015E700BFB3
:10C14800034608464A2810B5114629D807282ED98B
:10C15800A0F10802422A2AD8DFE802F02B2F3D334B
:10C16800292929602B292929292929292B2F3D33D8
:10C17800292929292B2F3D33293729292B2F3D33CD
:10C18800293729292B2F2929292929292929292901
:10C198002929292929434351292929295129510084
:10C1A800F12841D003D8E2280BD0F02836D0184621
:10C1B80010BD0A7803F8012BF9E70A8823F8022B47
:10C1C800F5E70A6843F8042BF1E70A681A608A88D9
:10C1D8009A800633EBE70A881A808A789A700333C4
:10C1E800E5E70029E3D00C78FF2CE0D00134E4B275
:10C1F8001846224628F03CFF03462344D7E7482840
:10C208000A8801D0432806D14FF6FF708242CED06B
:10C21800023294B2ECE7920092B2F9E70A681A6027
:10C228004A685A600833C2E71A4601F1100051F80B
:10C23800044B42F8044B8142F9D11033B7E70000B0
:10C248002038C0B20D289ABF014B185C00207047F7
:10C2580098BB05002D280FD81F2812D920380D2883
:10C268000FD8DFE800F0070707070E070E0E0707CD
:10C2780007070E0701207047A0F1E2035842584112
:10C28800704700207047000001461348D0F8443931
:10C2980070B5A3B11D780022AA4208D2D3F8014094
:10C2A80054F8224026788E420BD00132F4E700235E
:10C2B800D0F848491CB125780022AA4203D3184671
:10C2C80070BD2346F4E7D4F8010050F82200067840
:10C2D8008E42F5D00132F0E7B8870020F0B51B2177
:10C2E80089B0044611F02CF801AA034600F118079A
:10C2F800164618685968154603C50833BB422A46CE
:10C30800F7D119889B78AB7029809DF81070384652
:10C31800FFF7BAFF9DF81A30BDF813209DF81710E3
:10C3280005463846FFF7DEFC20B9204610F014FE1B
:10C3380009B0F0BD05F0FEFC40B9D5F80330EBB903
:10C34800204602F03DFF024650B9F1E7BDF8130060
:10C3580004F02DFD48B19DF812301B0705D47E224C
:10C368003146204603F023F8E2E7BDF81310BDF884
:10C37800050004F0CDFC0028DFD1F0E7074BD3F827
:10C38800F03B33B9D5F80330204698470028D7D07A
:10C39800CEE7304698470028D2D1F3E7B887002087
:10C3A80000F52D3303F2A513F0B503F00F020E4C80
:10C3B80013469E1C04EBC60595F840793FB904EB7B
:10C3C800C60484F84009C4F83C190020F0BDD5F82B
:10C3D8003C59002DF3D0013303F00F039A42E8D102
:10C3E8006FF01500F2E700BFB8870020F8B500F538
:10C3F8002D3303F2A51303F00F02164E044613461D
:10C408009D1C06EBC50191F84019A14219D120469F
:10C4180011F01CF808B11AF04DFF06EBC507D7F864
:10C428003C0958B1214615F0DDFA0020C7F83C094F
:10C4380006EBC505002385F84039F8BD6FF01B00F1
:10C44800F6E7013303F00F039A42D9D16FF01B00CE
:10C45800F3E700BFB887002037B504460D461046FD
:10C4680019469DF81C30E4B16268D2B13BB1E3785B
:10C478005A0616D49B0702D4882003B030BD069B09
:10C4880000932A462388FFF76BFB411C0BD0821DC3
:10C498000BD0831CF0D010F1280F14BF00207E2091
:10C4A800EBE78620E9E78720E7E70020E5E738B3F0
:10C4B800D0F815300BB3B0F8010081421FD0B1F5A8
:10C4C800827F1AD06FF480734FF6FF72CB189142B7
:10C4D8009BB209D1B0F5827F11D04CF25E0398422D
:10C4E80014BF0020012070474CF25E02914202D135
:10C4F800B0F5827FF4E7072BFAD9002070470120B6
:10C508007047F0B598B1077C0023BB4202D30024E2
:10C518002046F0BDD0F81160C3EB03157419755BA4
:10C528008D4202D1257A9542F2D00133EDE70446D7
:10C53800EEE700002DE9F04F87B08046DDF8409027
:10C548000C4615461E4601F0D4FA8246002800F033
:10C558008280B9F1000F7ED09DF844302246CDE9A3
:10C56800009341462B46FFF777FF074690BB3346BB
:10C578002A4621464046CDF80090FFF724FB49465D
:10C588009AF80200FFF7E8FC0246DAF8040028F0FF
:10C598006FFD9AF80330590705D533462A462146D8
:10C5A800404603F0A5FF9AF803301A0712D52B4B23
:10C5B8000493049B53F804BB0493BBF1000F09D008
:10C5C8004FF0000A9BF800309A4507D3244B049A91
:10C5D8009342EED1384607B0BDE8F08F4FEA8A03A0
:10C5E8000593DBF8013053F82A00037843452FD030
:10C5F8002A462146FFF785FF0028E3D0314601F09F
:10C6080079F903900028DDD0DBF80130059A9B58B2
:10C6180021461878CDF800902A463346FFF7D3FA1A
:10C62800039B49469878FFF797FC039B0246586896
:10C6380028F01EFD039BDB785B0709D5DBF801308A
:10C64800059A98582146007833462A4603F050FF49
:10C658000AF1010AB6E70127BCE700BFFC900020F9
:10C66800049100202DE9F84F07EE903A244F054633
:10C67800884691464FF0000B57F8046B002E39D0CE
:10C68800002D3AD03278002423469A4204F101045E
:10C6980001D86DB12BE0D6F8011051F823301B7882
:10C6A800AB42F1D10025F4E74A46414611E0013496
:10C6B8003378A3421BD9D6F80130B9F1030F53F8E8
:10C6C80024A0F1D1012241465046FFF71AFF28B9AC
:10C6D80002225046FFF715FF0028E8D017EE901AFF
:10C6E8005046FFF7E4FE0028E1D09AF800B0054B69
:10C6F800BB42C1D15846BDE8F88F2C46C9E700BFF8
:10C70800FC9000200491002037B51B21054610F04D
:10C7180017FE037BFF2B044630D1037DB0F80F10C2
:10C72800002B08BF0122B0F8113018BF02220020E8
:10C73800FFF798FF28B9284603B0BDE8304010F04D
:10C748000BBC207300221148294610F09CFB0446BC
:10C75800D0B10F4B1B68002BEDD125F065FC0146CD
:10C768000028E8D104230093019440F2525340F684
:10C778000F024FF0FF3015F0B7FEDCE7284603B094
:10C78800BDE83040FFF7AABD03B030BD1DC80200A8
:10C7980034960020F0B58BB004461B22002103A874
:10C7A80028F08FFC03A9204602F0B4FA03A9024638
:10C7B800019020460AF0DAFA20BB204610F02CFC43
:10C7C800037813F0040F14BF05210321204610F04D
:10C7D800EDFC1B21204610F0B3FD019A03AD034682
:10C7E80009AF2E4603CEBE4218605960354603F1A4
:10C7F8000803F6D13088B1789970188022B920469C
:10C80800FFF782FF0BB0F0BD03A9204602F0CFFD71
:10C81800F8E700002DE9F041CDB207461B21284674
:10C8280010F08EFD04462946384610F016FC94F8A0
:10C838000C80124E14F0A0FF3946B0FBF6F61048F3
:10C84800324615F0F5F9237DB4F80F10002B0CBF14
:10C8580001220222B4F811304046FFF703FF20B945
:10C868002846BDE8F04110F077BB207332462946D0
:10C878000448BDE8F04115F0DBB900BF7CF0C10702
:10C88800E5C2020031BD02002DE9F84F104C064602
:10C898000A4604F1080A4FF0000854F8047B8FB1E7
:10C8A80097F800B00025AB450AD9D7F8013053F8FE
:10C8B800259031464846FFF724FE30B199F80080AC
:10C8C8005445EAD14046BDE8F88F0135EBE700BF93
:10C8D800FC90002013B50446B8B9144810F0AEFA1D
:10C8E800044680B1124B1B686BB925F09DFB0146CD
:10C8F80048B9042300930194402340F60F024FF0F7
:10C90800FF3015F0F1FD02B010BD01212020FFF726
:10C91800BBFF0146204621B102B0BDE8104003F03C
:10C9280051BA02B0BDE8104010F016BBDDC80200D5
:10C9380034960020F0B50E4D00244FF6FF7155F8DF
:10C94800042B72B1177800239F4209D9D2F80160ED
:10C9580056F8236096F800C0844506D1B6F8011051
:10C968000CB10846F0BD0124E9E70133ECE700BF4C
:10C97800FC90002038B504460D46FFF7DBFF44B1B4
:10C98800B0F5827F05D14FF65743EB1A584258410C
:10C9980038BD0020FCE700002DE9F84F114C064691
:10C9A8000A4604F1080A4FF0000854F8047B37B12E
:10C9B80097F800B000255D4504D35445F5D14046AD
:10C9C800BDE8F88FD7F8013053F82590314648462E
:10C9D800FFF797FD10B1037A934201D00135EAE7DA
:10C9E800C846EAE7FC90002038B51B2110F0A8FCE7
:10C9F8000446007BFFF748FC257DB4F80F10002D96
:10CA08000CBF01220222FFF77CFD124A127A012A8A
:10CA1800034614D0217EA27D61B1002A14BF842070
:10CA28008320A3B1012D0CD11B7A13F0020F18BF7C
:10CA3800002038BD002A0CBF81208220F1E7812028
:10CA4800EFE7002DF5D11B7A13F0010FEFE7C320B4
:10CA5800EFE700BF043A0020006870472DE9F0476F
:10CA68000D4610211746984606469DF820A0DDF889
:10CA7800249010F065FC044630460CF0F9FA952332
:10CA8800032F236084F80EA084F80480677101BF27
:10CA98002B68C4F806306B68C4F80A3018BFE58004
:10CAA80031464846BDE8F04714F09CBFA1F5E06365
:10CAB8000B2B04D9A1F50063584258417047012057
:10CAC800704700002DE9F04F2DED028B8BB08A46A0
